:020000040000FA
:0600000069D9000E03D0D7
:0800080004EF02F082AE0FD0FC
:10001000F66E040EF76E02D00CEF02F0000EF86ED2
:100020000900F53C00EF02F00900F53CFBD720EE9B
:1000300000F0700ED3129B8C82AEFED7900EAB6E8A
:10004000260EAC6EB886020ED56EAB98AE50AE5092
:10005000D76AD66AF2944ED8D58E4CD8D59EF2B4D3
:10006000F7D7D6CFAFFFD7CFB0FFAB881DD90F0AD8
:10007000ECE10F0E14D900EE04F016D90F0AF9E0E6
:100080000250040A07E00250050A01E10DD902C03E
:10009000ECFFF3D710EE05F0006A016AEDCFF4FF34
:1000A000E65030D8E250EA62FBD7E150E962F8D777
:1000B0000150F462CAD70050EF62C7D7006A016AE4
:1000C0000650F66EA96E0750F76EAA6E08C0F8FFCC
:1000D00000EE0BF00A0E0560B8D7F9500544F9267A
:1000E00027D02FD039D04FD075D09AD0A7D0B6D046
:1000F00099D7FF000400F2B4120082BEFCD782AE92
:10010000FED71200011800C001F0006EE83A0F0B94
:10011000001A0038F00B011A0038E844011AE00B0D
:10012000011A001A120000030104FF8400000000FD
:10013000260EF66E010EF76E000EF86E0A0E0A6EAF
:100140000B6A0900F5509FD8DDDF0A06000E0B5A36
:100150000A500B10F6E190D00900F550D3DFF650AD
:100160003F0BFAE1005043EC01F0015043EC01F089
:100170000A06000E0B5A0A500B10EEE181D0FF0068
:10018000FF00FF00FF00000EF816C00EF616000E6E
:10019000F65C000EF758000EF8580DE6000EF65CFF
:1001A000030EF758000EF85806E7A66A07D0FF00BE
:1001B000FF00FF00FF00940EA66E84D8400EF65E8E
:1001C000E86AF75AF85A0A2EDED752D0FF00FF002D
:1001D000FF00FF00000EF816C00EF616000EF65CCB
:1001E000000EF758000EF8580DE6000EF65C030EF0
:1001F000F758000EF85806E7A66A06D0FF00FF0081
:10020000FF00FF00840EA66EEECFF5FF0D00F65046
:100210003F0BFAE10A0056D809000A2EDBD728D096
:10022000A66AA680A850A94AAA2A2DD86BDF0A067A
:10023000000E0B5A0A500B10F4E11ED0040EA66EED
:10024000ECCFA8FF3FD8A6B2FED7A94AAA2A0A0631
:10025000000E0B5A0A500B10F3E10AD0C40EA66E22
:100260000800EE50F5622CD80B000A2EFAD700D009
:10027000A66A055008D846DF005005D8015003D8BB
:10028000040E0DD8F3D6036E0F0A06E00350040ADD
:1002900003E00350050A02E1050E01D803500400F3
:1002A0009EA8FED7AD6E1200ABB2FF0004009EAA5E
:1002B000FDD7AE50026E1200FF00FF00FF00A66ADD
:1002C000F56E0C000400550EA76EAA0EA76EA6824E
:1002D000000012000F01826A8B6A948E3A9F3A9D49
:0202E00012000A
:020000040030CA
:0E000000FF68FFF7FFFF3BFFFFFFFFFFFFFF63
:00000001FF
