:020000040000FA
:060000008AEF59F0120026
:0A00060000000000000000000000F0
:1000100000000000000000000000000000000000E0
:1000200000000000000000000000000000000000D0
:1000300000000000000000000000000000000000C0
:060400008AEF59F0120022
:020406001200E2
:060408006FEF19F0120075
:02040E001200DA
:02041000FEFFED
:020412000000E8
:0304140000C0A87D
:06041800A3EF19F0120031
:02041E000700D5
:1004200014040000F904000003000000AEB4000052
:10043000F40200000B00000012040000360F000060
:100440000200000033B40000000400007B00000044
:10045000D9B30000000500005A000000100400009D
:10046000FE0300000200000093B3000052060000EB
:040470004600000042
:0C04740078EC15F0080EE1264DEC17F0B6
:10048000EF50DE6EDD6A94EC16F0EF50E66ED95058
:10049000020FCFEC17F0DECF16F0DDCF17F0050E10
:1004A00026EC18F0FDE1020EDBCF18F0030EDBCFD7
:1004B00019F02BEC18F0FDE154EC17F00AEC18F0F1
:1004C000C1EC17F016EC17F003EC18F0E5EC58F05F
:1004D000040E02C0DBFF050E03C0DBFF060E04C0E6
:1004E000DBFF070E05C0DBFF16EC17F00B6A100EE2
:1004F0000C6E0D6A0E6A1DEC59F0040E06C0DBFF8F
:10050000050E07C0DBFF060E08C0DBFF070E09C0A3
:10051000DBFF74EC16F011EC18F0080E9BEC16F0F3
:10052000FDE11450E66E94EC16F02EEC19F0040E7A
:10053000DBCF14F0050E060E070E1450E66E4DECE0
:1005400017F02EEC19F0080EE15C02E2E16AE552C8
:10055000E16E7DEF15F043EC18F02AEC16F0000880
:100560001AE3FC0EDBCFE6FFC0EC18F02AEC16F025
:10057000000811E36B0EE66E000EE66E5C0E64EC96
:1005800019F06C0EE66E000EE66E5D0E6CEC15F06A
:10059000010EE7CFDBFFB8EC18F06CC016F06CC0B2
:1005A00017F0166A00016B5100011610146E6CC032
:1005B00015F0F36E6CC0F4FF020EE15C02E2E16A3A
:1005C000E552E16E7DEF15F078EC15F0040EE126B2
:1005D00010EC19F0130E6CEC15F0030EE7CFDBFFF7
:1005E0003F0EDF143BEC19F02AEC16F00009FCE199
:1005F000020EE66EC0EC18F02AEC16F00009FCE1E1
:10060000D950020FE66E000EDA20E66E5C0E6CEC3E
:1006100015F0030EE7CFDBFFE66A5F0E5BEC15F02B
:10062000DFCFE6FF130E5BEC15F0020EDB50146E0D
:10063000040EE15C02E2E16AE552E16E14507DEFE6
:1006400015F043EC18F06A0EE66E000EE66E5F0ED3
:1006500064EC19F02AEC16F0000923E1FC0EDBCF64
:10066000E6FF5E0E5BEC15F0FF0EE76EFA0EDBCFD9
:1006700014F0FB0EDBCF15F0E7501416156A14507A
:10068000E66E5C0E5BEC15F0E66A5D0E5BEC15F059
:100690005B0E6BEC19F02AEC16F0000902E12AEC73
:1006A00016F0B8EC18F0F36AF46A020EE15C02E2AC
:1006B000E16AE552E16E7DEF15F032EC19F0300E93
:1006C000F36EFE0E7BEC16F008E3FE0EDB503908ED
:1006D00004E3FE0EDB50D00F0DD0410EF36EFE0E84
:1006E0007BEC16F00CE3FE0EDB50460808E3FE0E32
:1006F000DB50C90FE76EFE0EE7CFDBFF02D0FE0E28
:10070000DB68300EF36EFD0E7BEC16F008E3FD0E99
:10071000DB50390804E3FD0EDB50D00F0DD0410E45
:10072000F36EFD0E7BEC16F00CE3FD0EDB5046087D
:1007300008E3FD0EDB50C90FE76EFD0EE7CFDBFFD0
:1007400002D0FD0EDB68FE0EDB50FF0804E0FD0E5C
:10075000DB50FF0802E1DF6809D0FD0EDB500F0B14
:10076000146EFE0EDB38F00B1410DF6EDF50E55216
:100770007DEF15F078EC15F071EC17F002E2300E19
:1007800001D0370EDF24DF6E78EC18F004E2010EA2
:10079000DB50300F03D0010EDB50370FE76ECBEC90
:1007A00017F0DFCF16F016C017F0166ADB501610E0
:1007B000F36E17C0F4FF020EE15C02E2E16AE5525B
:1007C000E16E7DEF15F078EC15F071EC17F002E2B8
:1007D000300E01D0370EDF24DF6EACA2FED7DF5023
:1007E000AD6E78EC18F004E2010EDB50300F03D050
:1007F000010EDB50370FE76E010EE7CFDBFFACA237
:10080000FED7010EDB50AD6E010EDB50DF24146EFF
:10081000020EE15C02E2E16AE552E16E14507DEF06
:1008200015F015EC19F0A9EC16F012E3A6B2FED7FC
:10083000CCEC16F060EC4BF0E552E552E66E23ECA2
:1008400017F02EEC19F0DF2A010EEDE3DB2AEBD7CF
:10085000020EE15C02E2E16AE552E16E7DEF15F025
:1008600015EC19F0A9EC16F012E3A6B2FED723ECB2
:1008700017F0EF50E66ECCEC16F071EC4BF0E55251
:10088000E552E552DF2A010EEDE3DB2AEBD7020E3B
:10089000E15C02E2E16AE552E16E7DEF15F015ECF4
:1008A00019F00601030E876F0101006B7AEC17F057
:1008B000360EF9EC18F03DEC17F00C0EDEEC15F0EE
:1008C00006016A6B6B6B6AC615F0146A010103516D
:1008D000060114106A6F15C06BF6156E146A0101DB
:1008E0000451060114106A6F15C06BF6030EE66E14
:1008F000010E11EC17F0020EDEEC15F00601566B3E
:10090000576B586B596BA6EC18F003E014EC16F01B
:10091000FDE103C118F0A4EC15F003E014EC16F0AF
:10092000FDE104C118F0A4EC15F003E014EC16F09E
:10093000FDE105C118F0A4EC15F003E014EC16F08D
:10094000FDE1D7EC17F082EC18F056C64FF557C60C
:1009500050F558C651F5E8CF52F5070E18EC19F0CE
:100960005BEC17F052C509F0E5EC58F002C04FF50A
:1009700003C050F504C051F505C052F50A0E18EC3D
:1009800019F0C5EC18F0D7EC50F006C04FF507C0D1
:1009900050F508C051F509C052F5030EE66E010E80
:1009A00011EC17F0080EDEEC15F00601526B536BDC
:1009B000546B556B080E1F0B5DEC18F003E014EC44
:1009C00016F0FDE103C118F0A8EC15F003E014ECFB
:1009D00016F0FDE104C118F0A8EC15F003E014ECEA
:1009E00016F0FDE105C118F0A8EC15F003E014ECD9
:1009F00016F0FDE1D7EC17F08EEC18F03DEC17F097
:100A0000060EDEEC15F00601756B766B75C615F0FB
:100A1000146A0101035106011410756F15C076F6B2
:100A2000156E146A0101045106011410756F15C08A
:100A300076F63DEC17F0440EDEEC15F0DE6ADD6A6A
:100A4000DBEC17F00101035180EC17F0DBEC17F041
:100A50000101045180EC17F0DECF88F6DDCF89F676
:100A600006018A6B8B6B0C0ED890883789378A37D2
:100A70008B37E806F9E103EC18F088C606F089C662
:100A800007F08AC608F08BC609F0D7EC50F006C014
:100A900088F607C089F608C08AF609C08BF6750E7D
:100AA000E66E000EE66E010EE66EE66A500EDEECB5
:100AB00015F0020EE15C02E2E16AE552E16E7DEFC3
:100AC00015F078EC15F00F0EE12664C606F065C649
:100AD00007F066C608F067C609F00B680C680D6879
:100AE0000E68E5EC58F0030E02C0DBFF040E03C0F5
:100AF000DBFF050E04C0DBFF060E05C0DBFF0401B3
:100B00002751281129112A110AEC19F0E8AE02D058
:100B1000F33402D089EC17F00CE2060171510401A4
:100B20001B5D0601725104011C5903E2F36AF46A69
:100B3000B5D0A2EC16F0EB502A19E8AE02D02A3557
:100B400002D092EC17F001E292D00AEC19F0E8AE74
:100B500002D0F33402D089EC17F001E288D0010E04
:100B6000DF6E050EDF5C1AE2DF5046EC16F035EC66
:100B700019F0A2EC16F0EBCFF3FF1750F318E8AE24
:100B800002D0F33408D0EE50145CEE501558EE50FD
:100B90001658EE50175802E2DF2AE3D7DCEC16F0C5
:100BA000EA6ADF34FE0BEA36E96E1B0EE926040E14
:100BB000EA22F7EC16F0070E14C0DBFF080E15C092
:100BC000DBFF030EDBCF18F0040EDBCF19F0050EB0
:100BD000DBCF1AF0060EDBCF1BF0DF0446EC16F07D
:100BE00030EC17F0090E14C0DBFF0A0E15C0DBFF56
:100BF000DF5046EC16F0EECF18F0EECF19F0EECF46
:100C00001AF0EFCF1BF0DF0446EC16F030EC17F0D3
:100C10000B0E14C0DBFF0C0E15C0DBFF0B0EDBCF81
:100C200020F00C0EDBCF21F0226A236A090EDBCF05
:100C30001CF00A0EDBCF1DF01E6A1F6A070EDBCF09
:100C400018F0080EAEEC15F00D0E06C0DBFF0E0E10
:100C500007C0DBFFDCEC16F00D0EDB50165C146EEB
:100C60000E0EDB501758156E62EC17F013D0A2EC85
:100C700016F0EB502A19E8AE02D02A3502D092ECD9
:100C800017F003E2010EDB6A03D0010EF36EDB6E98
:100C9000020EDB6A31EC16F035EC18F00F0EE15C59
:100CA00002E2E16AE552E16E7DEF15F067EC19F0C2
:100CB000040E0601845D07E30401020EDD6F0001EE
:100CC000AC95AC9130D00401DD6BFBDEF3CF81F647
:100CD000F4CF82F60601010ED880F354000EF454CE
:100CE00015E2060171510601815D0601725106018E
:100CF000825909E3040E0601835D03E30401010E3A
:100D000011D0832B10D00601836B0DD0010E8119F9
:100D100007E1825105E13C0E0601845D01E2842B6E
:100D20000401020EDD6F0401DD51146E020EE15C60
:100D300002E2E16AE552E16E14507DEF15F01DEC20
:100D400019F0DF6A010EDB6A020EDB6ADF6AFC0E55
:100D5000DB407F0BDF5C4EE2DF50E824010FFDEC4F
:100D600018F0EFCF16F016C017F0166ADF50E8241F
:100D7000FDEC18F0EF501610146E17C015F0030EAE
:100D8000D89015321432E804FBE162EC17F031EC34
:100D900016F0166A176A7B0EE96E060EEA6EEE50C2
:100DA000142406017B6FEE5015207C6FEE50162048
:100DB0007D6FEE5017207E6F31EC16F006017151F9
:100DC000145C7251155806E2010EDBCF71F6020E6B
:100DD000DBCF72F631EC16F0060114506F5D155042
:100DE000705906E2010EDBCF6FF6020EDBCF70F614
:100DF000DF2AADD7030EE15C02E2E16AE552E16E63
:100E00007DEF15F078EC15F0060EE126F7EC53F0C7
:100E1000BAC0DFFF010EBBC0DBFF020EBCC0DBFFB0
:100E2000030EBDC0DBFF040EBEC0DBFF10EC19F0EB
:100E3000050EE66EE66A8B0E61EC18F0CAEC16F051
:100E4000900E50EC16F00AEC18F074EC16F0166ADE
:100E50001634000E161802E6E3EC17F006E2010E57
:100E60003AEC18F0050EDB6A05D0040EDB2A050EFD
:100E700001E3DB2A74EC16F0EBEC17F074EC16F0DF
:100E8000CEEC18F0900E61EC18F0060EE15C02E278
:100E9000E16AE552E16E7DEF15F01DEC19F0110EDF
:100EA000E66E0F0EE66E050EE66EE66A920E61ECD9
:100EB00018F0CAEC16F0970E50EC16F062EC17F032
:100EC00031EC16F0166A1634000E161802E6E3EC42
:100ED00017F006E2010EF36EDB6E020EDB6A05D040
:100EE000010EDB2A020E01E3DB2A31EC16F0EBECFB
:100EF00017F031EC16F0CEEC18F0970E61EC18F00C
:100F0000030EE15C02E2E16AE552E16E7DEF15F06D
:100F100000017A0513E10601800E67150FE021EC50
:100F200019F0EE500F01205D206FEE502159216F16
:100F3000EE502259226FEE502359236F0001625167
:100F4000020A39E0030A2DE0010A6CE10F01206B6F
:100F5000216B226B236BD6EC18F09A0E0C6E990E57
:100F60000D6E590EB6EC17F085EC51F006C01BFF64
:100F700007C01CFF08C01DFF09C01EFFD6EC18F0FB
:100F8000330E0C6E0D6EB6EC17F085EC51F006C00A
:100F900017FF07C018FF08C019FF09C01AFF00019A
:100FA00008D017CF28FF18CF29FF19CF2AFF1ACF53
:100FB0002BFF622B38D000017A0535E1200EE96E57
:100FC0000F0EEA6E030EEBCFF3FF0F012B51F31858
:100FD000E8AE02D0F33408D0EE50285DEE50295927
:100FE000EE502A59EE502B591EE2206B216B226BDA
:100FF000236B06016A2B000E6B236BC614F0156A77
:1010000014500101006F06016A5101017AEC17F0DA
:101010000C0EF9EC18F0270EF2EC15F00001010EA1
:10102000626F01D0626B20CF6DF021CF6EF022CFC6
:101030006FF023CF70F0120078EC15F0040EE1266B
:1010400000016351140A01E1E9D01F0A01E1E1D076
:10105000010A34E00B0A1BE0010A01E0EBD051EC7D
:1010600019F0A30E0E6E3D0E0F6E44EC50F085ECA1
:1010700051F006C080F007C081F008C082F009C0BE
:1010800083F00001716B726B736B746BB5D00001F0
:101090007A050DE10001ACA1CFD004013F6B000146
:1010A000716B726B736B746B00010A0EC4D0020E0D
:1010B0007A5D01E0C1D00001140EBDD00001ACA1E9
:1010C000B6D000017A0501E09AD004013F6B060119
:1010D000800E67150FE021EC19F0EE500001715DF4
:1010E000716FEE507259726FEE507359736FEE500C
:1010F0007459746F050E0001C45D01E39DD00501B4
:10110000490501E099D0260EF2EC15F053EC18F0E9
:10111000C4C009F019EC4FF007C01CF008C01DF066
:1011200009C01EF00AC01FF00C6A0D6AC80E0E6ED0
:10113000420E0F6EF1EC4FF09BEC17F007C00CF075
:1011400008C00DF009C00EF00AC00FF014C007F07F
:1011500015C008F016C009F017C00AF0E8EC16F048
:10116000800EE96E000EEA6E00017151EE24146EDD
:101170007251EE20156E7351EE20166E7451EE20F2
:10118000176E73EC18F01450EE240601526F1550D0
:10119000EE20536F1650EE20546F1750EE20556F0F
:1011A00057EC19F0176E180E9BEC16F0FDE1145079
:1011B0000101006F54C614F00001166A176A14503A
:1011C0000101016F53C614F054C615F055C616F050
:1011D0000001176A14500101026F0601525101010A
:1011E000036F000EE66E010E11EC17F0080EF9EC1D
:1011F00018F008DE0001C46B0001632B1DD0020E45
:101200007A5D1AE104013F2B3F513C0815E23F6B28
:101210000ED00001AC910001636B0ED0FBEC17F017
:101220000BE00001ACA302D0AC8101D0AC91000175
:10123000010E01D0010E636F040EE15C02E2E16A6F
:10124000E552E16E7DEF15F0FBEC17F015E118ECBF
:1012500018F03AE206016735000E671909E6D880F2
:10126000000E6455000E6555000E6655000E67555C
:101270002BE2BBEC16F028D07A0526E10601800EA1
:10128000671502E0BBEC16F00001ACA51DD005010E
:10129000495114E11FEC18F000018319E8AE02D0A7
:1012A000833508D08051EE5C8151EE588251EE5862
:1012B0008351EE5809E2A4EC17F006D0490504E189
:1012C000A4EC17F00001AC950001ACA30DD0ACB7B5
:1012D00039D0ADEC17F00601640E6E6F0001C06BE3
:1012E000C16BC26BC36B12001FEC18F006015519DD
:1012F000E8AE02D0553508D05251EE5C5351EE584D
:101300005451EE585551EE580CE3ADEC17F0000176
:101310009107000E925B935B945B0601630E6E6F08
:1013200012000001800E941504E10001B1A508D05F
:101330000001916B926B936B946B06016E6B1200C4
:1013400081EC15F012000001B5B306D00501040EC2
:10135000476F05014511456F0001B5B506D0050180
:10136000020E476F05014511456F0001B5B10AD066
:101370000501080E476F040E05014511456F000178
:10138000020E7B6F0001ACA708D00001B197B195A8
:10139000B19BB19DB199B19357D0010E050145158F
:1013A00004E1010E0501461503E00001B18702D0FA
:1013B0000001B197020E0501451504E1020E050179
:1013C000461503E00001B18502D00001B195040E7D
:1013D0000501451504E1040E050146150CE0020E59
:1013E00000017B5D03E10001B18B08D07B0506E1C4
:1013F0000001B18D03D00001B19BB19D080E050124
:10140000451504E1080E0501461503E00001B18908
:1014100002D00001B199100E0501451504E1100E2E
:101420000501461503E00001B18302D00001B1932C
:10143000200E0501451504E1200E0501461503E0C7
:101440000001B18112000001B19112000001685148
:10145000180A01E1D4D00F0A01E1B4D0010A01E178
:10146000A5D0030A01E18DD01A0A71E0010A69E0F2
:10147000030A41E0010A31E0070A1BE00A0A0AE018
:10148000010A01E0C2D00F012C6B0001676B000163
:10149000010E1DD000017A0504E13FEC18F00B0E9F
:1014A00016D0020E7A5D01E0B2D03FEC18F0150EB6
:1014B0000ED000017A050DE10F012C2B2C510308F1
:1014C0000BE22C6B0001010E676F00010C0E686FC0
:1014D00012000001010E686F120000017A0504E19C
:1014E0000001020E676F1200020E7A5D0DE03FEC04
:1014F00018F00D0E10D000017A0503E100010C0E6A
:101500000AD0020E7A5D09E10F012C6B0001030E77
:10151000676F00010F0E686F12000F012C2B2C510A
:10152000146E156A15340CE214509608000E15540A
:101530006EE22C6B0001030E676F00010E0E686FE8
:101540001200010E686F0001040E676F12000001A7
:10155000676B00017A0503E100010C0E0BD0020E4F
:101560007A5D0AE10F012C2B2C513C0809E22C6B0F
:101570000001150E686F12003FEC18F00D0E686F39
:101580001200FBEC17F00DE10F012C2B2C5103087E
:101590000CE22C6B0001050E676F0001160E686FE0
:1015A00012003FEC18F0010E686F12000001060EE9
:1015B000676FFBEC17F02BE00F012C6B2D6B00011C
:1015C000170E1BD0FBEC17F00CE10F012D51030897
:1015D00004E20001160E686F01D02D2B0F012C6B59
:1015E00012000F012D6B2C2B2C510A0810E22C6BD2
:1015F0000001070E676F0001180E686F1200010EE0
:10160000686F0001080E676F1200010E686F12000C
:101610000001B1A714D00001B2A713D0B297740E85
:10162000D7EC15F07A0E38EC16F07E0E3FEC16F083
:10163000800EEBEC15F0110EF2EC15F002D000016B
:10164000B2870001B1A514D00001B2A513D0B295A4
:10165000810ED7EC15F0870E38EC16F08B0E3FECB0
:1016600016F08D0EEBEC15F0120EF2EC15F002D028
:101670000001B2850001B1AB14D00001B2AB13D0B0
:10168000B29B8E0ED7EC15F0940E38EC16F0980E37
:101690003FEC16F09A0EEBEC15F0150EF2EC15F08F
:1016A00002D00001B28B0001B1AD14D00001B2AD87
:1016B00013D0B29D9B0ED7EC15F0A10E38EC16F0AE
:1016C000A50E3FEC16F0A70EEBEC15F0160EF2ECA3
:1016D00015F002D00001B28D0001B1A914D00001B3
:1016E000B2A913D0B299A80ED7EC15F0AE0E38EC13
:1016F00016F0B20E3FEC16F0B40EEBEC15F0170E30
:10170000F2EC15F002D00001B2890001B1A314D0AF
:101710000001B2A313D0B293B50ED7EC15F0BB0EF7
:1017200038EC16F0BF0E3FEC16F0C10EEBEC15F0E6
:10173000130EF2EC15F002D00001B2830001B1A14A
:1017400014D00001B2A113D0B291C20ED7EC15F0A3
:10175000C80E38EC16F0CC0E3FEC16F0CE0EEBECCB
:1017600015F0140EF2EC15F002D00001B281000168
:10177000ACA707D00001B297B295B29BB299B293D1
:10178000B29100016751070A18E0020A0DE0060A4B
:1017900001E01200D60ED7EC15F0DC0EE66EE66A1C
:1017A0006AEC52F0E55219D0F00ED7EC15F0F60EB7
:1017B000EBEC15F0210EF2EF15F0CF0ED7EC15F093
:1017C000D50EEBEC15F0F70ED7EC15F0FD0EEBECAB
:1017D00015F0220EE66E86EC1AF0E55214EF37F0A3
:1017E00067EC19F0A5EC3FF0000976E100017A51B1
:1017F00005E0010A71E0030A75E16ED0060171513E
:1018000006016F5D146E705106017255156E14C09D
:10181000DEFFDD6EFE0EDB500F012E252E6F000E5B
:101820002F212F6F04014051040A3CE0070A2AE0EF
:10183000010A1FE0030A07E0010A54E1E66A6EECC0
:101840003CF0E5522CD00601E10ED88071550A0E0D
:10185000725548E273EC18F0280ED880EE54000E52
:10186000ED5440E20F012E6B2F6B0401402B290E2B
:101870002CD00F01B40E2E5D000E2F5933E3010E54
:10188000E66E07D00F011E0E2E5D000E2F592AE3C3
:10189000E66A6EEC3CF0E5520F012E6B2F6B0401F3
:1018A000402B20D0DECF14F0DDCF15F0100E145CED
:1018B000000E155806E30601E10E715D0A0E72591D
:1018C00007E20401010E406F2A0EF2EC15F00AD077
:1018D0000401020E406F06D0E66A6EEC3CF0E55261
:1018E0000401406B020EE15C02E2E16AE552E16E46
:1018F0007DEF15F078EC15F0080EE126C1EC17F03D
:10190000FE0EDB5066081AE10401415142110FE15D
:10191000020EE66E660EE66EE4EC02F0E552E5526B
:101920000401416F426B900E4127010E4223060EC7
:1019300041C4DBFF070E42C4DBFF19D00401435151
:1019400044110FE1020EE66E680EE66EE4EC02F062
:10195000E552E5520401436F446B900E4327010E9C
:101960004423060E43C4DBFF070E44C4DBFFFA0E1C
:10197000DBCFE9FFFB0EDBCFEAFFEF50166E176AF5
:10198000050E26EC18F0FDE1FC0EDBCFE9FFFD0EA5
:10199000DBCFEAFFEF50186E196A030E2BEC18F03C
:1019A000FDE154EC17F014C0DEFFDD6E000EDFCF5A
:1019B00008F0010EDBCF09F02CEC4FF0E2EC15F053
:1019C000F60E0C6E280E0D6E1C0EB6EC17F056ECD3
:1019D00051F0020E08C0DBFF030E09C0DBFF020E50
:1019E000DBCF16F0030EDBCF17F0060EDB50165CD4
:1019F000146E070EDB501758156E0A0E1502F3CF42
:101A000015F01402F3CF14F0F4501526040EF3CFA2
:101A1000DBFF050E15C0DBFF040EDBCF08F0050E63
:101A2000DBCF09F02CEC4FF09BEC17F0140E0C6E92
:101A30003F0E0D6E060E0E6E400E0F6EF1EC4FF067
:101A4000E2EC15F00C6A0D6A960E0E6E430E0F6EE8
:101A50005BEC4FF056EC51F0040E08C0DBFF050EB6
:101A600009C0DBFF74EC16F035EC18F0080EE15CF1
:101A700002E2E16AE552E16E7DEF15F078EC15F0D7
:101A8000740EE126E30EDE6E060EDD6EC50EF36EFD
:101A9000020EF3CFDBFF050EF36E030EF3CFDBFF79
:101AA000CF0E3AEC18F0F36E050EF3CFDBFFFB0E12
:101AB000F36E060EF3CFDBFF030EF36E070EF3CFCC
:101AC000DBFF4B0EF36E080EF3CFDBFF030EF36E5E
:101AD000090EF3CFDBFFB70EF36E0A0EF3CFDBFF79
:101AE000020EF36E0B0EF3CFDBFF3D0EF36E0C0E0A
:101AF000F3CFDBFF020EF36E0D0EF3CFDBFFD90E3B
:101B0000F36E0E0EC6EC17F00F0EF3CFDBFF880E50
:101B1000F36E100EC6EC17F0110EF3CFDBFF450E7F
:101B2000F36E120EC6EC17F0130EF3CFDBFF0E0EA2
:101B3000F36E140EC6EC17F0150EF3CFDBFFE10EBB
:101B4000F36E160EF3CFDBFF170EDB6ABD0EF36EDE
:101B5000180EF3CFDBFF190EDB6A9E0EF36E1A0E22
:101B6000F3CFDBFF1B0EDB6A860EF36E1C0EF3CF8A
:101B7000DBFF1D0EDB6A710EF36E1E0EF3CFDBFF73
:101B80001F0EDB6A600EF36E200EF3CFDBFF210E1B
:101B9000DB6A520EF36E220EF3CFDBFF230EDB6AFD
:101BA000460EF36E240EF3CFDBFF250EDB6A3C0EF0
:101BB000F36E260EF3CFDBFF270EDB6A340EF36ED7
:101BC000280EF3CFDBFF290EDB6A2D0EF36E2A0EF3
:101BD000F3CFDBFF2B0EDB6A270EF36E2C0EF3CF59
:101BE000DBFF2D0EDB6A220EF36E2E0EF3CFDBFF32
:101BF0002F0EDB6A1E0EF36E300EF3CFDBFF310EBD
:101C0000DB6AE20EF36E320EF3CFDBFF330EDB68DE
:101C1000E70EF36E340EF3CFDBFF350EDB68EC0E10
:101C2000F36E360EF3CFDBFF370EDB68F10EF36E8B
:101C3000380EF3CFDBFF390EDB68F60EF36E3A0E8B
:101C4000F3CFDBFF3B0EDB68FB0EF36E3C0EF3CFF6
:101C5000DBFF3D0EDB683E0EDB6A3F0EDB6A050EE6
:101C6000F36E400EF3CFDBFF410EDB6A0A0EF36E1C
:101C7000420EF3CFDBFF430EDB6A0F0EF36E440E12
:101C8000F3CFDBFF450EDB6A140EF36E460EF3CF87
:101C9000DBFF470EDB6A190EF36E480EF3CFDBFF56
:101CA000490EDB6A1E0EF36E4A0EF3CFDBFF4B0EBE
:101CB000DB6A230EF36E4C0EF3CFDBFF4D0EDB6AB7
:101CC000280EF36E4E0EF3CFDBFF4F0EDB6A2D0EA8
:101CD000F36E500EF3CFDBFF510EDB6A320EF36E64
:101CE000520EF3CFDBFF530EDB6A370EF36E540E4A
:101CF000F3CFDBFF550EDB6A3C0EF36E560EF3CFCF
:101D0000DBFF570EDB6A410EF36E580EF3CFDBFF9D
:101D1000590EDB6A460EF36E5A0EF3CFDBFF5B0EF5
:101D2000DB6A4B0EF36E5C0EF3CFDBFF5D0EDB6AFE
:101D3000500EF36E5E0EF3CFDBFF5F0EDB6A550EC7
:101D4000F36E600EF3CFDBFF610EDB6A5A0EF36EAB
:101D5000620EF3CFDBFF630EDB6A4DEC17F0EF5042
:101D6000166E176A050E26EC18F0FDE194EC16F0DD
:101D7000EF50186E196A030E2BEC18F0FDE154ECCD
:101D800017F0700E14C0DBFF710E15C0DBFF010EE3
:101D9000F36E640EF3CFDBFF650EDB6A640EDBCF00
:101DA00014F0650EDBCF15F0D890155004E6180E30
:101DB000145C000E155821E2700EDBCF16F0710E88
:101DC000DBCF17F0D9CF1AF0DACF1BF080EC16F08A
:101DD0001A500624E96E1B500720EA6EEECF18F069
:101DE000EFCF19F01850165C1950175806E2640E20
:101DF000DB2A650ED3E3DB2AD1D7D950320F186E18
:101E0000DACF19F080EC16F018500624E96E19505C
:101E10000720EA6E58EC18F0D950320F1A6E640E93
:101E2000DBCF1CF0650EDBCF1DF01C06000E1D5A2B
:101E3000D8901C361D361A501C24E96EDA501D202D
:101E4000EA6EF7EC16F0660E14C0DBFF670E15C0E5
:101E5000DBFFD9CF18F0DACF19F062EC16F0700E74
:101E6000DB50165C146E710EDB501758156E680E41
:101E700014C0DBFF690E15C0DBFF62EC16F0D9CF92
:101E80001CF0DACF1DF080EC16F01C500624E96E31
:101E90001D500720EA6EF7EC16F06A0E14C0DBFF47
:101EA0006B0E15C0DBFF660EDBCF08F0670EDBCFD5
:101EB00009F0680EDBCF0DF0690EDBCF0EF00BECF6
:101EC00051F006C018F007C019F00A0E1902F3CF3E
:101ED00019F01802F3CF18F0F4501926F3CF08F0D8
:101EE00019C009F06A0EDBCF0DF06B0EDBCF0EF0E0
:101EF000B1EC50F008C014F009C015F0166A176A6A
:101F000015AE02D0166817686C0E14C0DBFF6D0E9C
:101F100015C0DBFF6E0E16C0DBFF6F0E17C0DBFFB8
:101F2000D950320F186E66EC18F018504AEC19F0C0
:101F30000A0E1702F3CF17F01602F45017266C0E94
:101F4000DB50F324146E6D0EDB501720156E720EED
:101F500014C0DBFF730E15C0DBFF720EDBCF14F075
:101F6000730EDBCF15F035EC18F0740EE15C02E275
:101F7000E16AE552E16E7DEF15F05EEC19F0E66E78
:101F8000030EE66EB1EC18F0100E0F01115D0DE3BB
:101F900012510BE012510C0808E3135106E01351E3
:101FA0001F0803E31451170803E2100E116F06D047
:101FB000100E115D0EE1050E125D03E2050E126FAB
:101FC00006D0050E125D05E1130E135D02E2130E3D
:101FD000136F1451170801E2146B15513C0801E20C
:101FE000156B16513C0801E2166B11CFE6FFAD0EE2
:101FF0008BEC16F012CFE6FFAE0E8BEC16F013CF83
:10200000E6FFAF0E8BEC16F014CFE6FFB00E8BEFB1
:1020100016F032EC19F0100E0F01115D06E31251AB
:102020000C0803E313511F0806E2100E116F050E92
:10203000126F130E136F1451170801E2146B155130
:102040003B0801E2156B16513B0801E2166B11CFFC
:10205000DFFF04EC19F003010F0B05EC17F00F0E76
:10206000F615F310F66F07EC19F00301FFEC17F00B
:10207000F615F310F66FE66E060E0BEC17F012CFA6
:10208000DFFF0301F59BF59DF59F04EC19F00301BB
:10209000F599E8B0F58907EC19F00301FFEC17F0AA
:1020A000F515F310F56FE66E050E0BEC17F013CF78
:1020B000DFFF0301F49DF49F04EC19F00301030B0F
:1020C00005EC17F0CF0EF415F310F46F07EC19F0D0
:1020D0000301FFEC17F0F415F310F46FE66E040E35
:1020E0000BEC17F014CFDFFF0301F29F04EC19F0A3
:1020F0000301030B05EC17F0CF0EF215F310F26F8E
:1021000007EC19F00301FFEC17F0F215F310F26F72
:10211000E66E020E0BEC17F015CFDFFF0301F19F07
:1021200004EC19F00301070B05EC17F08F0EF11505
:10213000F310F16F07EC19F00301FFEC17F0F11544
:10214000F310F16FE66E010E0BEC17F016CFDFFF08
:102150007F0EDF14DF6E0301F09F04EC19F0030122
:10216000070B05EC17F08F0EF015F310F06F07EC6E
:1021700019F00301FFEC17F0F015F310F06FE66EA5
:10218000E66A46EC4EF0E552E552DF6A060EDF5C89
:1021900010E2DF50EA6A110FE96E0F0EEA22EF50EB
:1021A000E66EDFCFE6FF3FEC53F0E552E552DF2A63
:1021B000EDD704014551000804E245073A0EF2EC60
:1021C00015F00F010D2B000E0E23E5527DEF15F0DB
:1021D0001DEC19F0DF6A48EC53F0000901E0A7D0CC
:1021E000010EDF6E0301F6510F0B146EF651F00B6A
:1021F0006CEC16F00401466F0301F5510F0B146EE1
:10220000F551100B01E0010E0A0DF35014240401E6
:10221000476F0301F4510F0B146EF451300B6CEC4B
:1022200016F00401486F0301F2510F0B146EF251C6
:10223000300B6CEC16F00401496F0301F1510F0BE8
:10224000146EF151700B6CEC16F004014A6F03012F
:10225000F0510F0B146EF051700B6CEC16F0040182
:102260004B6F4C510AE1010EDB6AEEEC18F005E20F
:1022700066EC16F069EC17F0F8D7040146510F0828
:1022800056E20D0E475D53E2200E485D50E2180EF7
:10229000495D4DE23C0E4A5D4AE23C0E4B5D47E231
:1022A000465110080CE3100E465D0BE1475105083E
:1022B00006E3050E475D05E1130E485D02E3020EDD
:1022C000DF6E020EDF5C33E1020EDB6A010EDB6AB9
:1022D000EEEC18F012E2010EDB50EA6A4C0FE96EE8
:1022E000040EEA22EFCF14F0DDEC18F0145C02E1EA
:1022F000020EDB2A010EDB2AEBD7060EF36E020E6E
:102300007BEC16F014E2030EDF6E010EDB6AEEECDE
:1023100018F00DE266EC16F0110FE96E0F0EEA22CE
:102320002EEC19F066EC16F069EC17F0F0D7030EFE
:10233000DF5C02E1010E01D0000E146E030EE15CC1
:1023400002E2E16AE552E16E1450D7D3D1DBFE0E12
:10235000DB500F011625166FE8503B0823E23C0EB8
:10236000165D166F3B0E155D02E2152B1BD0156B2B
:10237000170E145D02E2142B15D01251EA6A590FA0
:10238000E96E040EEA22EF50135D02E2132B0AD02D
:10239000010E136F0C0E125D02E2122B03D0010E20
:1023A000126F112B3151145D06E05EEC19F061ECF7
:1023B00018F014CF31FF040104510F0A01E197D046
:1023C000010A01E17FD0030A71E0010A56E0070A21
:1023D0004CE0010A47E0090A31E0010A1DE0030A66
:1023E00001E08CD0FE0EDB505325536F000E5421BC
:1023F000546F100E535D0E0E545901E281D0E8DE89
:10240000000906E00401536B546B0001B58B78D0D2
:102410000401526B566B48D0DBDE000909E0040171
:10242000562B030E565D6CE3566B536B546B18D0F2
:102430000401522B050E525D63E342D05751000850
:1024400004E23B0ECFDB04015707E3DD0401552B0B
:10245000030E555D03E3556B0A0E51D0566B526B5C
:1024600004074ED0390EBEDB06D00001B5997FECD3
:1024700043F00F01306B040130D0FE0EDB500F0132
:102480003025306F010E305D3BE3010EE66EADECA2
:1024900042F0E5520A0EE66EE66A28EC4BF0E55291
:1024A000E5521BEC4CF00401556B17D05851000855
:1024B00004E23C0E97DB04015807ABDD0401566BC8
:1024C000526B0BD085DE00090AE00401562B3C0E4E
:1024D000565D16E3566B536B546B042B11D00401FD
:1024E000522B780E525D0CE3526B0B0E08D04DEC64
:1024F00007F00001B5890401010E01D0010E046F3F
:102500000001B5B90CD011CFBAF012CFBBF013CF88
:10251000BCF014CFBDF015CFBEF016CFBFF0EDD29A
:10252000FBEC17F00BE00001B551020B09E0B551CF
:10253000040B06E00001B351800B02E0E66A02D012
:10254000010EE66E57EC3CF0E552120000017A05F0
:1025500008E00001AC51020B06E10001B551010B8E
:1025600002E0E66A02D0010EE66E40EC3CF0E55275
:102570001200BEDA150EE126DF6ADE520A0EDD6EAB
:10258000140EF36E020EF3CFDBFF1E0EF36E030E7E
:10259000F3CFDBFF280E3AEC18F0320EF36E050E87
:1025A000F3CFDBFF3C0EF36E060EF3CFDBFF460EE0
:1025B000F36E070EF3CFDBFF500EF36E080EF3CF72
:1025C000DBFF5A0EF36E090EF3CFDBFF640EF36EE2
:1025D0000A0EF3CFDBFF18EC18F002E3000E83D0F5
:1025E000480E715D0D0E725902E3630E7CD0010E30
:1025F000F36E0B0EF3CFDBFF0A0EF36E0B0E7BDBDD
:102600000EE242EC17F0EECF14F0EFCF15F071515F
:10261000145C7251155803E20B0EDB2AEDD79AECCD
:1026200018F0EE50715D146EEE507259156E0D0E6D
:1026300014C0DBFF0E0E15C0DBFF0B0EDB500F01CD
:10264000BBEC17F0EFCF14F00B0EDB04BBEC17F074
:10265000EF50145CE66ED9500F0FCFEC17F042EC40
:1026600017F058EC18F09AEC18F0C1DB110E14C0FA
:10267000DBFF120E15C0DBFF110EDBCF20F0120EB8
:10268000DBCF21F0226A236A0F0EDBCF1CF0100E85
:10269000DBCF1DF01E6A1F6A0D0EDBCF18F00E0E89
:1026A0005DDA130E06C0DBFF140E07C0DBFF0B0E56
:1026B000DB040F01BBEC17F0EF50166E176A130E18
:1026C000DB501624146E140EDB5017200C0E14C0B1
:1026D000DBFFDB50630805E2630EF36E0C0EF3CFF5
:1026E000DBFF0C0EDB50146E150EE15C02E2E16ABA
:1026F000E552E16E145001D232EC19F00401000EE3
:10270000D880E655000EE7550DE20001B5930401AF
:10271000E607000EE75BE651E7114CE10001B583E7
:10272000720E47D00001B583DF6A030EDF5C31E231
:10273000DF50040DF3CFE9FFF4CFEAFF650EE92681
:10274000040EEA2235EC19F0175006016719E8AEBD
:1027500002D0673508D06451145C65511558665134
:1027600016586751175811E349DBEF2A47DBEFCFC3
:1027700014F0DF50EA6A750FE96E040EEA22EF509A
:10278000145C05E30001B59302D038DBEF6ADF2A61
:10279000CCD70001B5B30ED0DF6A030EDF5C04E2D4
:1027A0002DDBEF6ADF2AF9D71E0E0401E66FE76B17
:1027B000710E18DAE552A1D132EC19F00401000EC5
:1027C000D880E455000EE5551DE20001B595D8808E
:1027D000990E06017B55D90E7C55000E7D55000ED5
:1027E0007E550BE20401E407000EE55BE451E511C0
:1027F00025E10001B585740E1DD01E0E0401E46FA5
:10280000E56B1CD00001B585660E06017B5DC60E2A
:102810007C59000E7D59000E7E590EE20401792B81
:102820000A0E795D0BE30001B5951E0E0401E46FFD
:10283000E56B730ED7D902D00401796BE5525DD1F7
:1028400032EC19F00401000ED880E255000EE35579
:102850000DE20001B5910401E207000EE35BE251D5
:10286000E31126E10001B581760E1ED00001B5818D
:1028700006016735000E671909E6D880980E645581
:102880003A0E6555000E6655000E67550FE20401BD
:102890007A2B0A0E7A5D0CE37A6B0001B5911E0E5D
:1028A0000401E26FE36B750E9DD902D004017A6BCF
:1028B000E55223D11DD9040E96DBFE0EDBCF14F0BA
:1028C000156A166A176AC00EE96E000EEA6EEE50BF
:1028D00014240001C06FEE501520C16FEE50162079
:1028E000C26FEE501720C36FD880000EC055A30EE4
:1028F000C155020EC255000EC35534E2C06BC16B08
:10290000C26BC36B0001C42B51EC19F0230E0E6E89
:102910003C0E0F6E5DDAE7DBEE500001915D916FCA
:10292000EE509259926FEE509359936FEE50945926
:10293000946FD9DB00017151EE24716F7251EE205A
:10294000726F7351EE20736F7451EE20746F00013B
:10295000800E941504E0916B926B936B946BD1D8BD
:102960000001AC93040EE15C02E2E16AE552E16E23
:10297000C4D0BED8170E37DB040EDB6A050EDB6A47
:1029800000DB0F0EE66EE66AE66AD950080FE66EC7
:10299000000EDA20E66EBBEC57F0146E050EE15E19
:1029A00014507CC0DFFF010E7DC0DBFF020E7EC035
:1029B000DBFF030E7FC0DBFFE6EC18F0FFD8080E4C
:1029C000DBCF14F0040E14C0DBFF050EDB6AD9DA8E
:1029D00032D9090E0CD92FD90A0E09D92CD90B0ED0
:1029E00006D982D91EDB7FDBEE501426EE5015226D
:1029F000EE501622EE50172214C0DFFF010E15C054
:102A0000DBFF020E16C0DBFF030E17C0DBFF09D988
:102A1000180E91D9FEE11450E76E080E26EC19F05D
:102A2000100E89D9FEE11450E76E090E26EC19F05C
:102A3000080E81D9FEE11450E76E0A0E26EC19F05B
:102A40001450E76E0B0EE7CFDBFFC0DBD2DB0001DB
:102A50007C6B7D6B7E6B7F6B170EE15C02E2E16A43
:102A6000E552E16E4AD000016751070A22E0010AEF
:102A70000CE0030A01E01200000175051BE10001F2
:102A80007C6B7D6B7E6B7F6B12000001750512E124
:102A90000601645100017C270601655100017D2378
:102AA0000601665100017E230601675100017F2364
:102AB00012005FDF1200E66EFE0EDBCFE6FFD3EC06
:102AC0004BF0E552E552E55212000A0E146E0E6EFE
:102AD000DFCF09F0A6EF59F0E66EFE0EDBCFE6FF82
:102AE00081EC4CF0E552E552E552E552E76E1200FA
:102AF000D9CFE6FFE1CFD9FF1200E552E7CFD9FFEA
:102B00001200DBDA640E94DBBCDBD7EC50F006C0BD
:102B100014F007C015F008C016F009C017F091C0F6
:102B200006F092C007F093C008F094C009F014C0FA
:102B30000BF015C00CF016C00DF017C00EF0D7EC5E
:102B400050F006C06EF612004EDBDCDAA6EF18F08D
:102B50004ADBE4DA080E1F0B5DEF18F0DBCF19F04B
:102B60001A6A1B6A18C006F019C007F01AC008F0EC
:102B70001BC009F01CC00BF01DC00CF01EC00DF0F6
:102B80001FC00EF0E5EC58F002C014F003C015F0C1
:102B900004C016F005C017F0F8DA20C00BF021C011
:102BA0000CF022C00DF023C00EF01DEF59F0E66EC0
:102BB000E66A22EC54F0E552E5521200E66EE66A4F
:102BC000B1EF18F007C014F008C015F009C016F0F6
:102BD0000AC017F01200E66EE66A6AEC52F0E5529F
:102BE000E5521200E66E86EC1AF0E5521200DBCFD9
:102BF00014F0156A166A176AD950040FE96EDACF15
:102C0000EAFF1450EE261550EE221650EE22175011
:102C1000EE22120030EC04F0146E060EE15E145049
:102C2000120061DA35EF19F0D890143615361636E1
:102C30001736E8061200D950040FE96EDACFEAFF22
:102C4000EF50EE6AEFCFF4FFEE6EEF50F4CFEEFFF1
:102C5000EF6E1200FE0EDBCFE6FFC2EC4DF0E55248
:102C60001200010EDBCF14F0020EDBCF15F01200C4
:102C7000E66EE66A4FEC52F0E552E5521200E66E5F
:102C8000E66A71EC52F0E552E5521200040DF3CF02
:102C9000E9FFF4CFEAFF270EE926040EEA2212002C
:102CA000E66E030EE66E5DDADF50166E176A176E7B
:102CB000166A010EDB5000011624146E000E172058
:102CC000156E120003DAD9504AEF19F076DAE66E83
:102CD000010EDB50EA6A1200E842E842E842E842AC
:102CE0000A0DF35014241200040EDBCF14F0050E6D
:102CF000DBCF15F01200DBCFF4FFF350F45C1200D1
:102D0000020E086E096A640EDBCF0DF0650EDBCF94
:102D10000EF00BEF51F0E66E030EE66E71EC4BF029
:102D2000E552E552E5521200FD0EDBCFE9FFFE0E43
:102D3000DBCFEAFF1200D890173216321532143268
:102D4000E8061200D950030FE96EDACFEAFF030E4E
:102D50001200DECF14F0DDCF15F0FB0EDBCF16F046
:102D6000FC0EDBCF17F01606000E175A1450165C37
:102D700015501758120065DA00019151EE24916F39
:102D80009251EE20926F9351EE20936F9451EE206A
:102D9000946F120045DA5ED2FD0EDBCF18F0FE0E06
:102DA000DBCF19F0DE501824166EDD501920176E97
:102DB00016C0E6FFE66E1200DF04E96EEA6AD890FC
:102DC000E936EA361B0EE926040EEA2258EF18F01F
:102DD00044EC50F085EC51F006C0DEFF07C0DEFF8A
:102DE00008C0DEFF09C0DDFFDD52DD521200EE50EB
:102DF000165C146EEE501758156E1200DF50EA6A1A
:102E0000320FE96E0F0EEA221200F36EF346F3461C
:102E1000F346F3461200E66E46EC4EF0E552E552FC
:102E20001200E66E040EE66EE66A1200040EDBCFB8
:102E300006F0050EDBCF07F0060EDBCF08F0070E1D
:102E4000DBCF09F01200F90EDBCF14F0FA0EDBCF66
:102E500015F0DE501424E96EDD501520EA6E1200E4
:102E6000EE50185C146EEE501958156EEE501A584C
:102E7000166EEE501B58176E1200030EE66E010E12
:102E8000E66EE8D10B0EEA6ADB34FE0BEA36E96E39
:102E9000050EE926040EEA221200FB0EDBCFE9FF45
:102EA000FC0EDBCFEAFF120016501810146E1750FC
:102EB0001910156E120056C606F057C607F058C610
:102EC00008F01200010E14C0DBFF020E15C0DBFF7C
:102ED00012004C0FE96E040EEA22C0D9010EDB2A63
:102EE0001200020EE126FE0EDB380F0BDF6E0A0E1B
:102EF000DF5C1200016F000EE66E010EE66EAAD1D5
:102F000000011610146E17C015F0DE6E17C0DDFF3D
:102F10001200EE503B5DEE503C59EE503D59EE50E4
:102F20003E5912002751EE5C2851EE582951EE58B7
:102F30002A51EE58120007C018F008C019F009C055
:102F40001AF00AC01BF0120080C091F081C092F00C
:102F500082C093F083C094F0120052C691F053C621
:102F600092F054C693F055C694F012000E6E3F0EC8
:102F70000F6E44EF50F0D924E96E000EDA20EA6EAD
:102F80001200060EDB6A070EDB6A1200F3CFDBFFCE
:102F9000010EF36E1200010EE7CFDBFF1200E96EA7
:102FA000DACFEAFFE552E750EE6EED6A120006C195
:102FB00018F0F3EF18F0DECF16F0DDCF17F016C0E3
:102FC00017F0166A1200D880600E1454EA0E1554D9
:102FD000000E1654120015C014F0156A1450DF6E5E
:102FE000FF0EE76E1200E126DE6ADE6ADE6ADD6A47
:102FF000DD52DD521200020E00017A5D12000F0B4D
:10300000F36EF00E1200880E0B6E130E0C6E0D6A2E
:103010000E6A1200040E14C0DBFF050E15C0DBFFA4
:103020001200060EDBCF16F0070EDBCF17F01200F2
:103030000601E80ED8807155090E72551200910EE6
:10304000E96E000EEA6E030EEB501200D8901636B1
:103050001736E8041200D89019321832E80412002A
:10306000020EE126DE6ADD6A120014C0F3FF15C00D
:10307000F4FF1200F36E040EF3CFDBFF12000F011A
:103080002C6B0001120023D9DF6A00016B6B6C6BA3
:10309000690EE66E000EE66E130E16D93F0E0001A5
:1030A00069153BEF19F0EDD841EC4FF0E2EF15F068
:1030B000EECF16F0EFCF17F01200F9D855C617F083
:1030C0001200E66E030EE66E0AEF16F0640EDBCF1A
:1030D0001AF0650EDBCF1BF01A06000E1B5AD890B3
:1030E0001A361B361200D9CFE9FFDACFEAFF1200F9
:1030F000FE0EDB500F0BE76E4EDF0A0EF36E010E75
:103100007BEF16F00601566F15501910576F1650C9
:103110001A10586F17501B10596F12000601526F8A
:1031200015501910536F16501A10546F17501B106A
:10313000556F12000B0EDB04E96EEA6AD890E9368F
:10314000EA36050EE926040EEA221200080E1F0BCD
:1031500056C614F057C615F058C616F059C617F0E3
:10316000120011EC04F0146E060EE15E1450120011
:10317000E66A5F0EA0DC69C0E6FF130E5BEF15F098
:103180005E0E99DC550E6BEF19F002C006F003C01D
:1031900007F004C008F005C009F01200E75014164B
:1031A000156A010E14C0DBFFCAEF16F084DE59C6A3
:1031B00009F041EC4FF0E2EF15F0010EDB50EA6A46
:1031C000460FE96E040EEA22EF501200D950080FA4
:1031D000E66E000EDA2025DE4C0E1200060EF36EAF
:1031E000010E7BEF16F0196A1A6A1B6A1450181048
:1031F0001200E66EE66A0AEF16F0E76E95DDE7501C
:10320000E926000EEA22120060DC095012005DDCA3
:103210000550120097DDEBCFF3FF3E51F31812007B
:10322000D9CFE6FFDACFE6FF120062DC30EF18F00C
:103230000B6E0C6A0D6A0E6A12005ADC030EE12650
:103240001200640EE96E060EEA6E1200E7CFDBFF95
:1032500011EF16F0020EE66EE66A1200E552E75034
:10326000EF6E120045DCE6521200EECF14F0EECF06
:1032700015F058EF18F0E66E130E1DDC500E6BEFD4
:1032800019F052C606F053C607F054C608F055C6EA
:1032900009F012001A24E96EDA501B20EA6E58EF8A
:1032A00018F001DF0A0E0C6ED70E0D6E120052C61A
:1032B00014F053C615F054C616F01200110EE66E47
:1032C0000F0EAFDDAD0E120007DCCBEF17F010DCF8
:0E32D000020EE1261200E66E5F0E5BEF15F0B7
:0232DE00FCEC06
:1032E00024F0E652F2EC24F0E652ABA406D006013C
:1032F0008D6B8E6BAECF61F01ED09EAA1CD00601E6
:103300008D6B8E6B05014A51EA6A7F0FE96E040EE0
:10331000EA22AECFEFFF4AC5DFFF4A29266E276AB1
:10332000276A3F0E261626C04AF54B51265CE5E17A
:10333000DFCF4AF5E2D7E552E552E7CFD9FFE552B4
:1033400009EC25F01100D8CFE4FFE0CFE4FFE46EF4
:10335000FCEC24F0F6CFE4FFF7CFE4FFF5CFE4FF79
:10336000F3CFE4FFF4CFE4FFFACFE4FF00EE00F088
:10337000140EE80403E3EECFE4FFFBD700EE14F0F5
:10338000100EE80403E3EECFE4FFFBD7E6529EA065
:103390002BD00001B6810501412B402B640E405D0E
:1033A00018E3406B0001B6A505D00401DE2B000E2A
:1033B000DF2301D0B68506018C2B0A0E8C5D03E15C
:1033C00008EC4CF006D0140E8C5D03E1450E10ECB9
:1033D00025F080C624F0256A2450CF6E06017F5167
:1033E000CE6E05014D2B9E90E55200EE23F0100E9F
:1033F000E80403E3E5CFEDFFFBD700EE13F0140E76
:10340000E80403E3E5CFEDFFFBD7E5CFFAFFE5CF17
:10341000F4FFE5CFF3FFE5CFF5FFE5CFF7FFE5CF0D
:10342000F6FF09EC25F0E550E5CFE0FFE5CFD8FF4A
:103430001000F2EC24F0AC6AAB6AFE0EDBB0AC8894
:10344000DBA202D0AC8CAB8CDBB4AC8EDBA602D0A2
:10345000AB8801D0AB8ADBB8AC84DBBAAB86DBAC23
:1034600002D09D8A01D09D9ADBAE02D09D8801D00A
:103470009D98FC0EDB50AF6EFD0EDBCF15F015C036
:1034800014F0156A1450B06EAC8AAB8E949C0F0188
:103490003A8D948E3A9FAC50100B05E0AC50800BE7
:1034A00002E1948C3A9D05EF25F0050157510A0A77
:1034B00029E0080A21E0030A09E0010A1DE1582B6E
:1034C000030E585D22E3586B596B0DD0582B060143
:1034D000925114080AE29651030807E20501592B9C
:1034E000020E595D08E3572B12000A0E0501585DC4
:1034F0000CE30A0E576F12000001AE950501576BE1
:10350000586B1200380E10EC25F01200F2EC24F08B
:10351000020EE126DF6A010EDB6A0001ACA303D0D4
:10352000800EDF10DF6EACA503D0400EDF10DF6E23
:10353000ACA103D0200EDF10DF6EAEA303D0100EBF
:10354000DF10DF6EB1A503D0080EDF10DF6EB1A76C
:1035500003D0040EDF10DF6EB1A103D0020EDF1026
:10356000DF6EB1A303D0010EDF10DF6EB1A905D06D
:10357000010EDB5080094FEC25F0B1AB05D0010EF8
:10358000DB5040094FEC25F0B1AD05D0010EDB500A
:1035900020094FEC25F0B5A105D0010EDB50100934
:1035A0004FEC25F0B5A305D0010EDB5008094FEC18
:1035B00025F0B5A505D0010EDB5004094FEC25F030
:1035C000B5A905D0010EDB5002094FEC25F0020130
:1035D000F251180801E3F22BF7EC53F00201AEECC4
:1035E00024F0BAC0EFFFAEEC24F0010E5CEC25F045
:1035F000BBC0EFFFAEEC24F0020E5CEC25F0BCC0CB
:10360000EFFFAEEC24F0030E5CEC25F0BDC0EFFF45
:10361000AEEC24F0040E5CEC25F0BEC0EFFFAEEC87
:1036200024F0050E5CEC25F0BFC0EFFFAEEC24F0FB
:10363000060E5CEC25F0FE0EDBCFEFFFAEEC24F0C7
:10364000070E5CEC25F06EC6EFFFAEEC24F0080E22
:103650005CEC25F0DFCFEFFFAEEC24F0090E5CEC64
:1036600025F0010EDBCFEFFFF129146E180E156E59
:103670000E6E14C009F0A6EC59F005C0F1F2020E6E
:10368000E15C02E2E16AE552E16E05EF25F0F2EC61
:1036900024F0270EE126D9500E0FE96EDACFEAFFAB
:1036A000440EEE6E450EEE6E420EEE6E550EEE6E52
:1036B000470EEE6E200EEE6E630EEE6E6F0EEE6E29
:1036C000640EEE6E650EEE6E200EEE6E740EEE6EF5
:1036D000610EEE6E620EEE6E6C0EEE6E650EEE6EAE
:1036E000200EEE6E560EEE6E310EEE6E2E0EEE6E5D
:1036F000300EEE6E380EEE6E200EEE6EEE6A260E78
:10370000DB6A0D0EE66E050EE66E000EE66E050E29
:10371000E66E2A0EE66E050EE66EDC0E146EAE0E3A
:10372000A5EC24F0176E090EE15E1750CA0E146E58
:10373000AE0E57EC25F0AB0E146EAE0E57EC25F026
:10374000980E146EAE0E57EC25F048EC53F00301C2
:10375000F6510F0B146EF651F00BD1EC24F0010E64
:10376000E7CFDBFFF5510F0B146EF551100B01E0A5
:10377000010E0A0DF3501424E76E020EE7CFDBFFB3
:10378000F4510F0B146EF451300BD1EC24F0030EF6
:10379000E7CFDBFFF2510F0B146EF251300BD1EC7F
:1037A00024F0040EE7CFDBFFF1510F0B146EF15143
:1037B000700BD1EC24F0050EE7CFDBFFF0510F0BBF
:1037C000146EF051700BD1EC24F0060EE7CFDBFF46
:1037D000DAEC24F06A0E146EAE0E75EC25F00F01D3
:1037E0001651E66EE66A1551E66EE66A1451E66E0B
:1037F000E66A1351E66EE66A1251E66EE66A115108
:10380000E66EE66A3C0E146EAE0E75EC25F0D950ED
:103810000E0FE66E000EDA20E66E370E146EAE0E58
:1038200066EC25F0180E0201F25D08E2DF6A020183
:10383000F251DF5C19E21BEC25F0F9D7F1C2DFFF92
:103840001BEC25F0180EDF5C01E3DF6A260EDB2A95
:103850000201F151DF5C08E0F251F36E260EDBCF7E
:10386000F4FFF350F45CECE3DEC4E6FFDFC4E6FFF4
:10387000E0C4E6FFE1C4E6FFD90E146EAD0E54ECD1
:1038800025F03CEC25F0B10E186EAD0EC3EC24F023
:10389000C0C0E6FFC1C0E6FFC2C0E6FFC3C0E6FF8E
:1038A000910E146EAD0E54EC25F071C6E6FF72C693
:1038B000E6FF6FC6E6FF70C6E6FF6F0E146EAD0E34
:1038C00054EC25F080C014F081C015F082C016F0D1
:1038D00083C017F0E6EC24F080C006F081C007F04A
:1038E00082C008F083C009F0B0EC24F05C0E186EC2
:1038F000AD0EC3EC24F071C014F072C015F073C0AB
:1039000016F074C017F0E6EC24F071C006F072C037
:1039100007F073C008F074C009F0B0EC24F0490E51
:10392000186EAD0EC3EC24F03CEC25F0300E186E92
:10393000AD0EC3EC24F05FC5E6FF60C5E6FF61C5D0
:10394000E6FF62C5E6FF0A0E146EAD0E54EC25F0DC
:103950005BC5E6FF5CC5E6FF5DC5E6FF5EC5E6FF4D
:10396000EB0E146EAC0E54EC25F063C5E6FF64C597
:10397000E6FFD50E146EAC0E66EC25F00501655120
:10398000E66EE66AB90E146EAC0E66EC25F07CC0ED
:1039900014F07DC015F07EC016F07FC017F0E6EC85
:1039A00024F07CC006F07DC007F07EC008F07FC028
:1039B00009F0B0EC24F0A40E186EAC0EC3EC24F0A9
:1039C0000001C451E66EE66A870E146EAC0E66EC1A
:1039D00025F000C6E6FF01C6E6FF0DCFE6FF0ECFDD
:1039E000E6FF5E0E146EAC0E54EC25F0480E146E1D
:1039F000AC0E57EC25F00D0EDB6A140EF36E0D0EB7
:103A0000DBCFF4FFF350F45C12E20D0EDB50EA6AF8
:103A1000C70FE96E000EEA22EF50E66EE66A440E2A
:103A2000146EAC0E66EC25F00D0EDB2AE6D79AC5B7
:103A3000E6FF9BC5E6FF9CC5E6FF9DC5E6FF370E8A
:103A4000E66EE66A96C5E6FF97C5E6FF98C5E6FF0F
:103A500099C5E6FFE66EE66A2D0EE66EE66A92C549
:103A6000E6FF93C5E6FF94C5E6FF95C5E6FFE66E63
:103A7000E66A230EE66EE66A8EC5E6FF8FC5E6FFB0
:103A800090C5E6FF91C5E6FFE66EE66A190EE66EA2
:103A9000E66A8AC5E6FF8BC5E6FF8CC5E6FF8DC5E5
:103AA000E6FFE66EE66AE70E146EAB0E69EC25F0F3
:103AB000AFC5E6FFB0C5E6FFB1C5E6FFB2C5E6FF9C
:103AC000280EE66EE66AABC5E6FFACC5E6FFADC5FF
:103AD000E6FFAEC5E6FFE66EE66A190EE66EE66A3A
:103AE000A7C5E6FFA8C5E6FFA9C5E6FFAAC5E6FF8C
:103AF000E66EE66A0A0EE66EE66AA3C5E6FFA4C5B0
:103B0000E6FFA5C5E6FFA6C5E6FFE66EE66A000E7F
:103B1000E66EE66A9FC5E6FFA0C5E6FFA1C5E6FF23
:103B2000A2C5E6FFE66EE66A8E0E146EAB0E69EC79
:103B300025F00001ACA104D0DE52010EDD6E02D0F2
:103B4000010EDB6AACA305D0F36E020EF3CFDBFFF0
:103B500002D0020EDB6AACA506D0010EF36E030E96
:103B6000F3CFDBFF02D0030EDB6AABAB06D0010E56
:103B7000F36E040EF3CFDBFF02D0040EDB6AABADB5
:103B800006D0010EF36E050EF3CFDBFF02D0050E5B
:103B9000DB6AABAF06D0010EF36E060EF3CFDBFF90
:103BA00002D0060EDB6AB5A106D0010EF36E070E39
:103BB000F3CFDBFF02D0070EDB6AB5A306D0010E00
:103BC000F36E080EF3CFDBFF02D0080EDB6AB5A55B
:103BD00006D0010EF36E090EF3CFDBFF02D0090E03
:103BE000DB6AB5A906D0010EF36E0A0EF3CFDBFF38
:103BF00002D00A0EDB6A05014851E66EE66A4651BC
:103C0000E66EE66A4751E66EE66A4551E66EE66A9A
:103C1000170E146EAB0E6FEC25F0060EDAEC24F0E6
:103C2000C00E146EAA0E75EC25F00A0E60EC25F09D
:103C3000090E60EC25F0080E60EC25F0070E60EC34
:103C400025F04C0E146EAA0E6FEC25F0270EE15CE9
:103C500002E2E16AE552E16E05EF25F0F2EC24F0B4
:103C6000E65205014B514A5D1FE00601922B8D6B18
:103C70008E6B0001906BADB10CD005014B51EA6A1F
:103C80007F0FE96E040EEA22EF50E66EABEC2EF0E9
:103C9000E55205014B29146E156A0001156A3F0EA5
:103CA000141614C04BF505D01E0E4D5D02E34D6B8E
:103CB0004C6B82BE12D006018D2B000E8E231E0E81
:103CC0008D5D000E8E5909E32BEC4CF006018D6BD7
:103CD0008E6B0001AE8506018F2BE55205EF25F0B6
:103CE000D9CFE6FFE1CFD9FF200EE126DE6ADD6AFB
:103CF000D950020FE96EDACFEAFF470EEE6E560E8C
:103D0000EE6E370EEE6E320EEE6E350EEE6E330E3A
:103D1000EE6EEE6A090EDB6A0A0EDB6A1D0EDB6AC6
:103D20001E0EDB6A1F0EDB6A0001AE958B8C949C25
:103D30001FEC3EF008EC4CF01BEC4CF07B0EE96EF7
:103D4000040EEA6EEE50000176190CE1EE5000010F
:103D5000771908E1EE500001781904E1EE500001F6
:103D6000791900E12BE17B0EE96E040EEA6EEE504C
:103D70000001A7190CE1EE500001A81908E1EE506E
:103D80000001A91904E1EE500001AA1900E116E1B1
:103D9000760EE96E000EEA6EEE500001A7190CE1F6
:103DA000EE500001A81908E1EE500001A91904E144
:103DB000EE500001AA1900E101E1B5D07BC476F014
:103DC0007CC477F07DC478F07EC479F07BC4A7F022
:103DD0007CC4A8F07DC4A9F07EC4AAF000017A6B6F
:103DE0000001AC870001916B926B936B946B0001A7
:103DF000A16BA26BA36BA46B0001AC930001AC910F
:103E00000001AC950001996B00019B6B00019A6B5E
:103E10000001C06BC16BC26BC36B0001B2910001AA
:103E2000B2930001B2950001B2970001B29900016E
:103E3000B29B0001B29D0401DE6BDF6B0401E06BFD
:103E4000E16B0001AE910001AE9305015A6B0001D8
:103E50007C6B7D6B7E6B7F6B0001626B0001656B21
:103E60000001646B0001666B05017E6B0001686BED
:103E70000001636B0401E26BE36B0401E46BE56B2F
:103E80000401E66BE76B0001C46B0001B58900011A
:103E9000B58B0F010D6B0E6B0601006B016B87EC90
:103EA00035F0000802E2CDEC37F010EC36F00008F7
:103EB00002E2F7EC37F0BDEC0FF00E0EE66E050EE9
:103EC000E66E060EE66EE66A300EE66EE66A30ECE8
:103ED00004F0146E060EE15E1450FEEC3DF002019B
:103EE000F06B0201F26B0201F36B0201F16B010E48
:103EF000E66E86EC1AF0E5520001B08B160EDB6A16
:103F0000140EF36E160EDBCFF4FFF350F45C0BE2ED
:103F1000160EDB50EA6AC70FE96E000EEA22EF6A5E
:103F2000160EDB2AEDD74FEC04F0000EE66E010E04
:103F3000E66E080EE66EE66A160EE66EE66A11ECAE
:103F400004F0146E060EE15E14500001B38F160EDD
:103F5000DB6A160EDB50146E156A070E145C000E39
:103F600015581EE2160EDB50EA6A000FE96E010ECC
:103F7000EA22EFCF14F0D950020F156EDACF16F007
:103F8000160EDB500F011524E96E000E1620EA6EA6
:103F9000EF50145C02E00001B39F160EDB2AD9D764
:103FA0000001B3BF17D0640EE66EE66A28EC4BF052
:103FB000E552E552310E146EAA0E156E166A14C043
:103FC000E6FF15C0E6FF16C0E6FF57EC58F0E552D5
:103FD000E552E5520001B1910001B1930001B195A4
:103FE0000001B1970001B1990001B19B0001B19DA1
:103FF0000001B3830001B6950001B6910001B693AC
:104000000501426B52C614F053C615F054C616F0A3
:1040100055C617F0640E0B6E0C6A0D6A0E6A14C05A
:1040200006F015C007F016C008F017C009F0D7EC6D
:1040300050F006C014F007C015F008C016F009C013
:1040400017F091C006F092C007F093C008F094C03A
:1040500009F014C00BF015C00CF016C00DF017C01D
:104060000EF0D7EC50F006C06EF69E909D809F90AB
:10407000990EF36E090EF3CFDBFF0A0EDB6A0A0E10
:10408000DBCFE6FF090EDBCFE6FF86EC4BF0E55217
:10409000E552E80EE66E030EE66E28EC4BF0E552B4
:1040A000E5522A0EE66E050EE66E2D0E146EAA0E71
:1040B000156E166A14C0E6FF15C0E6FF16C0E6FFCF
:1040C00057EC58F0176E050EE15E1750240E146E73
:1040D000AA0E156E166A14C0E6FF15C0E6FF16C0DC
:1040E000E6FF57EC58F0E552E552E552020EE66E57
:1040F00086EC1AF0E552180E146EAA0E156E166AAA
:1041000014C0E6FF15C0E6FF16C0E6FF57EC58F0F6
:10411000E552E552E5520001150E606F05014A6B4C
:1041200005014B6B0001AD910001AD930001AD9510
:104130000001AD9906015A6B5B6B5C6B5D6B340ED5
:10414000E66EE66A660EE66EABEC02F0E552E5520C
:10415000E552F3CF5EF6F4CF5FF6160EE66EE66A32
:10416000660EE66EABEC02F0E552E552E552F3CF97
:10417000DEFFF4CFDDFFDECF60F6DDCF61F60601B6
:10418000626B636B61AF02D062696369260EE66E93
:10419000E66A680EE66EABEC02F0E552E552E552D7
:1041A000F3CF79F60F0E060179150601796F260E09
:1041B000E66EE66A660EE66EABEC02F0E552E5529C
:1041C000E552F3CF78F60F0E060178150601786FE9
:1041D00006017851060179250601776F1E0EE66EFD
:1041E000E66A660EE66EABEC02F0E552E552E55289
:1041F000F3CF68F6F4CF69F668C608F069C609F02F
:104200002AEC4FF007C014F008C015F009C016F0F2
:104210000AC017F00C6A400E0D6E1C0E0E6E460E94
:104220000F6E14C007F015C008F016C009F017C0D3
:104230000AF0F1EC4FF007C095F008C096F009C005
:1042400097F00AC098F006018C6B48EC53F0000917
:1042500066E1800E0301F0110301F06FF0C3E6FF89
:10426000E66A46EC4EF0E552E5527F0E0301F11589
:104270000301F16FF1C3E6FF010EE66E46EC4EF06E
:10428000E552E5527F0E0301F2150301F26FF2C30E
:10429000E6FF020EE66E46EC4EF0E552E552070EE2
:1042A0000301F3150301F36FF3C3E6FF030EE66E9C
:1042B00046EC4EF0E552E5523F0E0301F4150301C2
:1042C000F46FF4C3E6FF040EE66E46EC4EF0E552E2
:1042D000E5521F0E0301F5150301F56FF5C3E6FF67
:1042E000050EE66E46EC4EF0E552E552B30E0301C4
:1042F000F7150301F76FF7C3E6FF070EE66E46EC0E
:104300004EF0E552E5527F0E0301F0150301F06F08
:10431000F0C3E6FFE66A46EC4EF0E552E552000EC9
:10432000E66E010EE66E020EE66EE66A0E0EE66EB2
:10433000E66A11EC04F0146E060EE15E1450010101
:1043400000510001A56FA66BA5C015F0146A01010C
:10435000015100011424A56F000E1520A66F000165
:10436000A52B000EA623A6C014F0156A14C000F1F8
:10437000A5C001F1000EE66E010EE66E020EE66EBD
:10438000E66A0E0EE66EE66A30EC04F0146E060E77
:10439000E15E1450640EE66EE66A28EC4BF0E552DE
:1043A000E552AB8EAB88AC8A9D8A0501436B000158
:1043B000B6A12ED01D0EDB50020A0BE0030A06E068
:1043C000010A01E01ED01D0EDB2A21D01D0EDB2AC2
:1043D0001ED00A0E0501415D0CE30501416B000191
:1043E000B6A305D00401E02B000EE12302D00001AA
:1043F000B6830001B691010EF36E1D0EF3CFDBFF05
:1044000006D0010EF36E1D0EF3CFDBFF00D087D276
:104410000001B6A32CD01E0EDB50040A19E0070AD7
:1044200014E0010A0BE0030A06E0010A01E018D0DB
:104430001E0EDB2A1BD01E0EDB2A18D078EC3FF0B4
:10444000010802E11E0EDB2A11D01E0EDB2A0ED05F
:104450000001B693010EF36E1E0EF3CFDBFF06D004
:10446000010EF36E1F0EF3CFDBFF00D058D2000118
:10447000B6A555D21F0EDB50150A01E1EDD1010A98
:1044800001E1E2D1070A01E1C3D1010A01E1BBD197
:10449000030A01E1B3D1010A01E1ABD11F0A01E135
:1044A000A3D1010A01E19BD1030A01E18BD1010AE9
:1044B00001E183D1070A01E176D1010A01E1CED001
:1044C000030A50E0010A4BE00F0A44E0010A3DE014
:1044D000030A36E0010A2FE0070A28E0010A1EE07D
:1044E000030A0AE0010A01E014D20001906B050101
:1044F000436B1F0EDB2A13D287EC40F001080DE15D
:1045000000017A5106E1010EE66E5AEC14F0E55214
:1045100002D07AC07BF01F0EDB2A01D2010EE66EBC
:10452000A6EC11F0E5521F0EDB2AF9D1A3EC09F03D
:104530001F0EDB2AF4D126EC0AF01F0EDB2AEFD186
:10454000F9EC32F01F0EDB2AEAD131EC39F01F0E04
:10455000DB2AE5D162EC3EF01F0EDB2AE0D11F0E14
:10456000DB2ADDD10001ACA776D0030E0501435D47
:1045700072E30001AC910001AC930001AC95040121
:10458000E06BE16B0601000ED8807155080E725584
:1045900062E20601C20E715D0D0E72595CE2B9EC69
:1045A00012F0146E156A166A176A52C606F053C6E0
:1045B00007F054C608F055C609F0640E0B6E0C6A7D
:1045C0000D6A0E6AD7EC50F014C00BF015C00CF059
:1045D00016C00DF017C00EF0E5EC58F002C091F0D7
:1045E00003C092F004C093F005C094F052C614F0DA
:1045F00053C615F054C616F055C617F0640E0B6E70
:104600000C6A0D6A0E6A14C006F015C007F016C0D9
:1046100008F017C009F0D7EC50F006C014F007C03E
:1046200015F008C016F009C017F091C006F092C04E
:1046300007F093C008F094C009F014C00BF015C047
:104640000CF016C00DF017C00EF0D7EC50F006C0FD
:104650006EF60001AC971F0EDB2A61D10001AEA3FC
:104660009FD0060171510401055D060172510401DC
:10467000065901E395D0B9EC12F0146E156A166A6A
:10468000176A52C606F053C607F054C608F055C65E
:1046900009F0640E0B6E0C6A0D6A0E6AD7EC50F0CE
:1046A00014C00BF015C00CF016C00DF017C00EF0C2
:1046B000E5EC58F0170E02C0DBFF180E03C0DBFF5D
:1046C000190E04C0DBFF1A0E05C0DBFF52C614F042
:1046D00053C615F054C616F055C617F0640E0B6E8F
:1046E0000C6A0D6A0E6A14C006F015C007F016C0F9
:1046F00008F017C009F0D7EC50F006C014F007C05E
:1047000015F008C016F009C017F014C00BF015C062
:104710000CF016C00DF017C00EF0170EDBCF06F030
:10472000180EDBCF07F0190EDBCF08F01A0EDBCF27
:1047300009F0D7EC50F01B0E06C0DBFF1B0EDB5060
:104740000601D8806E5509E21B0EDB5006016E5D36
:10475000E76E1C0EE7CFDBFF09D01B0EDB50060116
:10476000D8806E55E76E1C0EE7CFDBFF1C0EDB50CA
:104770000A080FE2170EDBCF91F0180EDBCF92F094
:10478000190EDBCF93F01A0EDBCF94F01B0EDBCFAC
:104790006EF60001AE93330EE66E86EC1AF0E5522B
:1047A0001F0EDB2ABCD000017A0504E156EC06F0AE
:1047B0000501496F1F0EDB2AB2D02DEC42F01F0E0F
:1047C000DB2AADD07CEC13F020EC14F0DCEC13F021
:1047D000A6EC12F090EC12F01F0EDB2AA0D088ECB1
:1047E00007F01F0EDB2A9BD024EC09F01F0EDB2AFA
:1047F00096D01CEC08F01F0EDB2A91D033EC15F09C
:104800001F0EDB2A8CD008EC0BF01F0EDB2A87D0A2
:1048100000017A5112E10001902B00019051146EB9
:10482000156A153404E21450B408000E155404E25D
:10483000E1EC3CF00001906B04D054EC38F0000146
:10484000906B1F0EDB2A6BD0010EE66EF0EC0BF0C6
:10485000E5521F0EDB2A63D00001B69505014351D6
:10486000146E156AD890155004E6FA0E145C000E0A
:10487000155802E20501432B0001AEA502D055EC0C
:104880001AF0150EDB6A010EF36E160EF3CFDBFF86
:10489000140EF36E160EDBCFF4FFF350F45C1DE242
:1048A000150EDB50EA6AC70FE96E000EEA22EFCF61
:1048B00014F0160EDB50EA6AC70FE96E000EEA220A
:1048C000EF50D880145406E2160EDB50E76E150E3A
:1048D000E7CFDBFF160EDB2ADBD7150EDB50EA6ACB
:1048E000C70FE96E000EEA22EFCF14F00501405128
:1048F000145C09E2150EDB50EA6AC70FE96E000E80
:10490000EA2240C5EFFF010EF36E1F0EF3CFDBFF6F
:1049100006D0010EF36E1F0EF3CFDBFF00D02EEC9E
:104920001EF006018C6B040042D5200EE15C02E211
:10493000E16AE552E16EE552E7CFD9FF1200BCD83B
:10494000EF50E66EE66ADF50BFD0156E166A14C0EF
:10495000E6FFE66E16C0E6FF57EF58F0F151B4D00F
:10496000D7EC50F006C014F007C015F008C016F0E0
:1049700009C017F006C0E6FF07C0E6FF08C0E6FF63
:1049800009C0E6FF1200196E1A6A18C0E6FFE66E4B
:104990001AC0E6FF57EC58F01B6E070EE15E1B5085
:1049A0001200E842E842E842E8420A0DF3501424BB
:1049B000E76E120085D8050E83D8040E81D8030E49
:1049C0007FD8020E7DD8010E60EF25F0100E0B6E21
:1049D0000E0E0C6E0D6A0E6A1200176E070EE15E67
:1049E00017501200D9CFE6FFE1CFD9FF1200176EA2
:1049F000050EE15E17501200DACFE4FFE2CFDAFFD6
:104A0000E9CFE4FFEACFE4FF1200E552E7CFD9FF98
:104A10001200E5CFEAFFE5CFE9FFE5CFDAFF1200AC
:104A2000E66E86EC1AF0E552FEEF4AF0176E0F0EB6
:104A3000E15E17501200DF505BD8090E80DF080ED0
:104A40007EDF070E7CDF060E7ADF050E78DF040EB0
:104A500076DF030E74DF020E72DF010E70DFEF509F
:104A6000E66EE66AF30E146EAD0E6FDF176E170E6C
:104A7000E15E1750DF2A12006DC014F06EC015F011
:104A80006FC016F070C017F0A1DF6DC006F06EC0E9
:104A900007F06FC008F070C009F0B0EF24F0E76EC7
:104AA000010EE7CFDBFF120050DFEDEF24F04DDF0A
:104AB000E552E552E5521200E926000EEA22120004
:104AC000DBCFE6FFE66A120078EF25F03EDFF7EF76
:104AD00024F03BDF176E270EE15E1750120035DF22
:104AE000176E0B0EE15E175012002FDF16EF25F048
:104AF0000A0DF3CFE9FFF4CFEAFF000EE926020E1C
:044B0000EA22120093
:0C4B0400C5EC2FF0E652DF6AD950FC0F20
:104B1000E96EFF0EDA20EA6EEE50ED101AE0FE0E9E
:104B2000DB5017E0DF6AFE0EDB50DF5C12E2ACA266
:104B3000FED7DF50E76EFC0EDBCFE9FFFD0EDBCFCB
:104B4000EAFFE750E926000EEA22EF50AD6EDF2AB9
:104B5000EAD7E552CAEF2FF0C5EC2FF0030EE1269D
:104B6000010EDB6A020EDB6A00016B6B6C6B0101EC
:104B7000830ECAEC30F0690EE66E000EE66E130E80
:104B8000BCEC2FF03F0E00016915E66E130E81ECB0
:104B90002FF0500E32EC31F02AE300016A6B400E28
:104BA0006A5D25E26A51E824E66E5E0E81EC2FF024
:104BB000550E32EC31F01BE38CEC30F05C0EBCECAB
:104BC0002FF08CEC30F0010E7AEC2FF06C0EE66ECC
:104BD000000EE66E5D0EBCEC2FF06C0EE66E000E65
:104BE000E66E010E7AEC2FF000016A2BD8D7E66A48
:104BF0005F0E81EC2FF069C0E6FF130E81EC2FF001
:104C00001DEC31F0030EE15C02E2E16AE552E16E77
:104C1000CAEF2FF0C5EC2FF00101830ECAEC30F083
:104C200000016A6B800E6A5D1CE26A51E76EFD0E40
:104C3000DBCF14F0FE0EDBCF15F0E7501426000E8C
:104C4000152214C0E6FF15C0E6FF4AEC31F0000162
:104C50006B6F8CEC30F0010E7AEC2FF000016A2BB8
:104C6000E1D71DEC31F0CAEF2FF0C5EC2FF039EC95
:104C700030F0FE0EDB0407E1DF6ADF50160817E3B1
:104C800068EC2FF0FAD7FE0EDB50020808E1170E91
:104C9000DF6EDF502D080BE368EC2FF0FAD72E0EF5
:104CA000DF6EDF50310803E368EC2FF0FAD7030E14
:104CB000E15C02E2E16AE552E16ECAEF2FF0C5EC79
:104CC0002FF039EC30F0DF6A190EDF5C20E2DFCF25
:104CD000E6FFEBEC34F0E552010EDB6A050EF36EF5
:104CE000010E23EC30F011E2010EDB50EA6A7F0F77
:104CF000E96E050EEA22EF50E66E020EFBEC30F094
:104D0000020EDB2A010EDB2AE9D7DF2ADDD7030EEC
:104D1000E15C02E2E16AE552E16ECAEF2FF037ECA6
:104D200031F0050EF36E040E23EC30F02CE2040E8D
:104D3000DB50040A10E0070A0CE0010A08E0030A4D
:104D400004E0010A0CE1990E07D09D0E05D0A10EDA
:104D500003D0A50E01D0A90EDE6E030EDD6E020E8D
:104D6000DB6A040EF36E020E23EC30F009E2B1ECC4
:104D70002FF001E3DB2AFE0EDB2A020EDB2AF1D73D
:104D8000040EDB2ACED7050EE15C02E2E16AE552B1
:104D9000E16ECAEF2FF037EC31F0050EF36E040E22
:104DA00023EC30F02CE2040EDB50040A10E0070A7A
:104DB0000CE0010A08E0030A04E0010A0CE1B10E6C
:104DC00007D0B50E05D0B90E03D0BD0E01D0C10E6F
:104DD000DE6E030EDD6E020EDB6A040EF36E020E53
:104DE00023EC30F009E2B1EC2FF001E3DB2AFE0EF8
:104DF000DB2A020EDB2AF1D7040EDB2ACED7050E02
:104E0000E15C02E2E16AE552E16ECAEF2FF0C5EC27
:104E10002FF0190EE126DF6A100EDB6A35EC30F058
:104E2000E66ACFEC30F077EC30F0FE0EDB50C80ACB
:104E300002E15BEF2DF07C0A02E153EF2DF0070A4F
:104E400002E150EF2DF0010A02E14DEF2DF0070ACB
:104E500002E14AEF2DF0040A02E147EF2DF0010ACA
:104E600002E144EF2DF01F0A02E141EF2DF0070AA5
:104E700002E139EF2DF00F0A02E136EF2DF0880A3A
:104E800002E129EF2DF0010A02E11CEF2DF0030AE7
:104E900002E117EF2DF0070A02E193EF2CF0030A6D
:104EA00002E187EF2CF0010A02E181EF2CF00F0AFA
:104EB00002E160EF2CF0010A02E158EF2CF0030A46
:104EC00002E154EF2CF0010A02E150EF2CF0070A46
:104ED00002E14CEF2CF0010A02E148EF2CF0030A4A
:104EE00002E144EF2CF0010A02E140EF2CF0D10A7C
:104EF00002E133EF2CF05C0A02E117EF2CF09A0A82
:104F000002E110EF2CF0020A02E10CEF2CF0060A8D
:104F100002E108EF2CF0020A02E104EF2CF0540A3F
:104F200002E1D1EF2BF0010A02E1C5EF2BF0020AFA
:104F300002E1A8EF2BF0050A01E1E5D3010A01E146
:104F4000D4D3030A01E1C6D3010A01E1BCD25B0A52
:104F500001E1A6D2070A01E17DD2060A01E16BD286
:104F6000030A01E15DD2010A01E14ED20E0A01E11C
:104F70003DD2020A01E132D2060A01E127D2020A39
:104F800001E11CD22D0A01E1F4D1060A01E1DED1D2
:104F9000020A01E1CDD1270A01E1A5D1AD0A01E163
:104FA00096D1850A01E172D1030A01E15ED1010ABD
:104FB00001E137D1070A01E129D1010A01E11FD13D
:104FC000030A01E118D1010A01E105D11F0A01E13B
:104FD000F7D0010A01E1F0D0030A01E1D6D0010ABD
:104FE00001E1CFD0070A01E1C5D0010A01E1AAD051
:104FF000030A01E190D0010A01E182D00F0A01E128
:1050000078D0010A55E0030A32E0010A18E0070AE5
:1050100011E0010A0DE0030A06E0010A02E09BEF3D
:105020002DF0660E01D0680EE66E96DD99EF2DF03C
:10503000000E01D0800EE66EE66AECDD87D3060135
:105040007705E824030F0101CAEC30F0B30EE66ED9
:10505000050EE66E06017805E8247AEC2FF0CF0EF7
:10506000E66E050EE66E06017951E82464D0E2ECA6
:1050700030F064C614F065C615F066C616F067C653
:1050800017F0180E98EC2FF0FDE167EC30F066C6D3
:1050900014F067C615F0CEEC2FF065C614F066C6A6
:1050A00015F067C616F0F3EC2FF006016451F6D147
:1050B000E2EC30F091C014F092C015F093C016F0FD
:1050C00094C017F0180E98EC2FF0FDE167EC30F06B
:1050D00093C014F094C015F0CEEC2FF092C014F0F1
:1050E00093C015F094C016F0F3EC2FF0000191512D
:1050F000D5D10101050E006F036B6EC604F1C1D05E
:105100000101050E006F6BC614F0156A1450036F91
:1051100006016A51B4D001010F0ECAEC30F0ED0E59
:10512000E66E050EE66E060E7AEC2FF0F30EE66ED6
:10513000050EE66E060E7AEC2FF00101006960ECB8
:105140002FF091D0E2EC30F045C503F147C504F1F2
:1051500046C505F148C506F107690001B1AB02D0AB
:10516000080E03D0B1ADE1D2040E050147110101D3
:10517000046FDBD20101070E65EC2FF03DEC31F03E
:1051800067D1D6EC30F0100E3DD0E2EC30F049ECB7
:1051900030F0180E98EC2FF0FDE167EC30F054C6BB
:1051A00014F055C615F0CEEC2FF043EC31F0F3ECD3
:1051B0002FF00601525172D123EC31F0160E03D0BC
:1051C00023EC31F01E0E56EC2FF001010B6960EC60
:1051D0002FF00C0EB9D201010D0E65EC2FF00A0E66
:1051E000E66EE66A260E56EC2FF001010D6960ECC2
:1051F0002FF00E0EA9D2D6EC30F0140E03D0D6EC60
:1052000030F0120E56EC2FF001013BD00101050EDB
:10521000006FA6C014F0156A1450036F0001A55169
:105220002ED0030E000160250101006F030E000166
:105230006025EA6A000FE96E010EEA22EF6860EC71
:105240002FF0030E7AEC2FF02A0EE66E050EE66EB6
:1052500060C0E6FF57DCE552E552E552030E00015F
:10526000602505EC31F0010E6FD20101050E006FD3
:1052700069C614F0156A1450036F060168510101E4
:10528000046F056960EC2FF0060E5ED2E2EC30F0A0
:1052900060C614F061C615F062C616F063C617F05A
:1052A000180E98EC2FF0FDE167EC30F062C614F0B8
:1052B00063C615F0CEEC2FF061C614F062C615F08F
:1052C00063C616F0F3EC2FF006016051E7D0010E33
:1052D000E66E010EE66E010EE66EE66A0401E95125
:1052E00056EC2FF0A5D0830E0401E95D07E106011D
:1052F000830E876F010EDB6A830E09D0030EE95D12
:105300000AE10601030E876F010EDB6A030EF36EDE
:10531000020EF3CFDBFFCFEC30F0020EE66EE66A52
:10532000360EACEC2FF096EC30F0016B3E0ECED189
:10533000CFEC30F0010EE66EE66A460E56EC2FF02A
:10534000D5EC2FF0010EDBCF03F1BAD00101170E1F
:10535000006F140EE66EE66A160EE66E050EE66E39
:10536000F1EC30F090EC57F0146E060EE15E145044
:10537000E7D10101080E006F380E2CEC30F001016E
:10538000036F120E2CEC30F00101046FE8407F0B2C
:10539000046F390E2CEC30F00101056F060EE66E3D
:1053A000010EE66E020EE66EE66A140E56EC2FF063
:1053B0000101086960EC2FF0090EC6D10401E95122
:1053C00001E0BBD35BEC2FF0660E17D00401E9516E
:1053D00001E0B3D35BEC2FF0560E0FD00401E9517E
:1053E00001E0ABD35BEC2FF05A0E07D00401E9517A
:1053F00001E0A3D35BEC2FF05E0E56EC2FF0E2EC55
:1054000030F0FFEC2FF090D10401E95101E095D389
:10541000D5EC2FF08950040B01E0010E036F50D042
:105420000401E95103E00001AB9D02D00001AB8D06
:1054300096EC30F04CD10401E95101E07ED3E2EC6E
:1054400030F05BEC2FF04C0E56EC2FF0FFEC2FF011
:1054500001016AD10401E95101E06FD3E2EC30F0BF
:105460007CC014F07DC015F07EC016F07FC017F030
:10547000180E98EC2FF0FDE167EC30F07EC014F0D0
:105480007FC015F0CEEC2FF07DC014F07EC015F07B
:105490007FC016F0F3EC2FF000017C51010143D1E5
:1054A0000401E95101E049D37EEC30F0040EDB6ADF
:1054B0005BEC2FF04C0EACEC2FF0D5EC2FF0036B27
:1054C0004FEC31F041D1F1EC30F03DEC31F0060120
:1054D000566B576B586B596BE6EC30F003E0ECEC15
:1054E0002FF0FDE103C118F07EEC2FF003E0ECECAF
:1054F0002FF0FDE104C118F07EEC2FF003E0ECEC9E
:105500002FF0FDE105C118F07EEC2FF003E0ECEC8C
:105510002FF0FDE106C118F0B9EC30F0100EE9C42F
:10552000DBFFDB50640802E2640E07D0460EF36E28
:10553000100E23EC30F005E2460EF36E100EF3CFA2
:10554000DBFF100EDBCF14F0156A166A176A56C619
:1055500006F057C607F058C608F059C609F0D9EC4E
:105560002FF002C052F603C053F604C054F605C033
:1055700055F602C014F003C015F004C016F005C0C3
:1055800017F0180E98EC2FF0FDE114500101006F98
:1055900054C614F055C615F00001166A176A145067
:1055A0000101016F43EC31F00001176A1450010151
:1055B000026F060152510101036F60EC2FF0040EDF
:1055C000E66EE66A080EACEC2FF0B9EC12F0146E41
:1055D000156A166A176AE3EC2FF0D9EC2FF002C0B7
:1055E00091F003C092F004C093F005C094F049EC30
:1055F00030F0640E0B6E0C6A0D6A0E6AE3EC2FF04D
:10560000D7EC50F006C014F007C015F008C016F033
:1056100009C017F091C006F092C007F093C008F0DF
:1056200094C009F00FEC31F0D7EC50F006C06EF6E4
:10563000E3EC2FF041EC4FF052EC30F0CD0E0C6E5D
:10564000CC0E0D6E0E6E3D0E0F6E44EC50F085ECE0
:1056500051F006C084F007C085F008C086F009C08C
:1056600087F0840EE96E000EEA6E06015251EE24B8
:1056700000018C6F06015351EE2000018D6F060171
:105680005451EE2000018E6F06015551EE200001AD
:105690008F6F840EE96E000EEA6EEE500601525DC9
:1056A0000001886FEE50060153590001896FEE50DA
:1056B0000601545900018A6FEE5006015559000148
:1056C0008B6F96EC30F0E9C401F1600E026F53EC81
:1056D00031F03AD0DDEC30F08B0E43EC30F00101CC
:1056E0000A6960EC2FF00B0E2FD00401E95101E0A4
:1056F00024D20101800E006F5FEC26F00101806969
:10570000DFDB810E21D091EC30F0010A11E0010ABB
:1057100001E013D2E2EC30F0190E036F230E046F98
:105720002D0E056F370E066F0769CADB080E0CD009
:105730000101170E006F030EE66E8FEC26F0E552A6
:1057400001011769BDDB180E57EC31F0E552F1D1BC
:1057500091EC30F0010A0CE0010A01E0EED1E2EC3C
:1057600030F0036B0A0E046F190E056F280EDBD1A3
:105770000101170E006F030EE66ECBEC26F0E5522A
:10578000010117699DDB180ED2D1F1EC30F0070E44
:10579000E66EE66A920E43EC30F001010A0E006FED
:1057A0006CD191EC30F0080A28E00F0A24E0010ADD
:1057B0001EE0030A1AE0010A14E0070A10E0010AD9
:1057C0000AE0030A06E0010A2FE1D5EC2FF0080EEB
:1057D00073D0000E01D0800EE66EE66A12D0E66A43
:1057E00002D0800EE66E010E0BD0E66A02D0800E6B
:1057F000E66E020E05D0E66A02D0800EE66E030E5B
:10580000E66E0AEC26F094D1A6EC30F0660E0BD0D2
:10581000A6EC30F0560E07D0A6EC30F05A0E03D0AE
:10582000A6EC30F05E0E98DBC0DB036B46D094969E
:10583000949894960F013A9794983A998988010E12
:10584000E66EE66A28EC4BF0E552E55289989486BC
:10585000948894860F013A9794883A9996EC30F0A0
:1058600053EC31F064D10401E95107E1100EF85D09
:1058700001E063D147EC1BF060D1E9C4F8F45DD1DD
:1058800094DBD8EC53F017D090DBC5EC53F013D079
:105890008CDBB7EC53F00FD088DBAEEC53F00BD0C1
:1058A00084DB9BEC53F007D080DB8EEC53F003D00D
:1058B0007CDBA9EC53F00101036F4FEC31F037D1E1
:1058C0000101090E006FE66AE6EC53F0E5520101B2
:1058D000036F010EC5DB0101046F020EC1DB010184
:1058E000056F030EBDDB0101066F040EB9DB01017C
:1058F000076F050EB5DB0101086F0969E1DA0A0ED1
:1059000016D15CEC31F0CF0E87DBD50E05D05CEC08
:1059100031F0D60E81DBDC0EE66EE66A6FEC52F0FB
:10592000F6EC30F0A9D00001B5A903D048EC53F053
:1059300067D08EDBBAC009F09AEC30F003010F0B90
:1059400058DB0F0EF615F310F66F82DBBAC009F0C4
:105950009EEC30F00301A2EC30F0F615F310F66F78
:1059600077DBBCC009F0E6DB0301030B42DBCF0EA3
:10597000F415F310F46F6CDBBCC009F0DFDB03013E
:10598000E1DBF415F310F46F63DBBDC009F0D2DB8B
:105990000301030B2EDBCF0EF215F310F26F58DB71
:1059A000BDC009F0CBDB0301CDDBF215F310F26FC4
:1059B0004FDBBEC009F0BEDB0301070B1ADB8F0E05
:1059C000F115F310F16F44DBBEC009F0B7DB030142
:1059D000B9DBF115F310F16F3BDBBFC009F0AADBB7
:1059E0000301070B06DB8F0EF015F310F06F30DBB1
:1059F000BFC009F0A3DB0301A5DBF015F310F06FC6
:105A000001010B0E006FF0C303F1F1C304F1F2C307
:105A100005F1F3C306F1F4C307F1F5C308F1F6C3CA
:105A200009F1F7C30AF10B694BDA0C0E80D00101C2
:105A3000E90E006F010E04D00101E90E006F020EA5
:105A4000E66E35EC26F0E5520101E96939DAEA0E35
:105A50006ED001012B0E006F030EE66E35EC26F0C2
:105A6000E55201012B692CDA2C0E61D0A6DBF00E79
:105A700002D0A3DBF70E1ADA01010A6921DA0B0E54
:105A800056D072DB740E11D06FDB810E0ED06CDB42
:105A90008E0E0BD069DB9B0E08D066DBA80E05D0FE
:105AA00063DBB50E02D060DBC20E00DA01011069C3
:105AB00007DA110E3CD086DB7BC606F07CC607F009
:105AC0007DC608F07EC609F03FEC4FF0EBDAF60E2B
:105AD0000C6E280E0D6E9C0E0E6E3F0E0F6E44EC7B
:105AE00050F085EC51F0150E06C0DBFF160E07C016
:105AF000DBFF170E08C0DBFF180E09C0DBFF1FDA43
:105B000017DAFEE1E4DA1BDA100E12DAFEE11450C5
:105B10000101046F14DA080E0BDAFEE114500101E2
:105B2000056F0DDA1450066F0769CAD9080EBFDB7E
:105B3000E552E55202D0010EDF6EDF50146E190EF1
:105B4000E15C02E2E16AE552E16E145023D21DDA13
:105B5000130EE1268ADAE66AD9CFE6FFDACFE6FF4E
:105B6000C6DA0401EA51A60A01E1E4D0030A01E120
:105B7000D6D0010A01E1CCD0070A01E1C2D0010A66
:105B800001E1B8D0030A01E1AED0010A01E1A4D0DD
:105B9000310A01E194D0A60A01E18AD0020A01E1AA
:105BA00084D0060A01E17ED0020A01E175D0A30A81
:105BB00070E00D0A64E0010A5CE0030A51E0010AAA
:105BC0004BE0060A3CE0030A36E0010A14E00F0A43
:105BD00001E0BAD0EAD9E9C401F10401E9A106D093
:105BE000FE0EE915E66EE66A660E10D0E951E66E25
:105BF000E66A660E16D0D9D9E9C401F10401E9A11B
:105C00000CD0FE0EE915E66EE66A680E0FDA7DDA54
:105C100015C014F0156A5BDA1DD0E951E66EE66A2C
:105C2000680E04DAFF0EE76E70DAE7501416156A94
:105C300014C003F10FD0B9D93EDA660E03D0B5D93E
:105C40003ADA680EE66E81EC4CF0D0DAE76E0F0EB1
:105C5000E7CFDBFF010131D0EB5133DA660E03D021
:105C6000EB512FDA680EE66E21EC03F0146E050E90
:105C700030D0EBC4E6FFE9C4E6FF660E05D0EBC406
:105C8000E6FFE9C4E6FF680EE66ED3EC4BF0E552A2
:105C90004FD0FEEC3DF053D0E9C4DFFF2FDADADA63
:105CA000120E08D038D9560E05D035D95A0E02D06A
:105CB00032D95E0E51D979D9036BF1DA44D0EB0EAB
:105CC000E66E040EE66E010EFCD930EC04F0146EA4
:105CD000060EE15E145033D0E9C4E6FF28EC53F021
:105CE00002DAE66A23D0E9C4E6FF10EC53F0FBD9F0
:105CF000010E1BD0E9C4E6FFF6EC52F0F4D9020E17
:105D000014D0E9C4E6FFDFEC52F0EDD9030E0DD05C
:105D1000E9C4E6FFBDEC52F0E6D9040E06D0E9C4B2
:105D2000E6FF9BEC52F0DFD9050EE66E3FEC53F038
:105D3000E55204D0E9C4E6FFD4EC52F0E552F6D9BE
:105D4000E9C401F1B0DAD6D8130EE15C02E2E16AEF
:105D5000E552E16E1FD119D90601922B06018D6B18
:105D60008E6B05014C51210A6BE0010A65E03F0A88
:105D70005FE0070A52E00F0A4CE0010A33E0030A31
:105D80002DE0190A22E0070A29E00B0A62E1FE0E63
:105D9000DBCFE8F4DB50020805E105014D6B05019E
:105DA0000B0E11D0FE0EDB50040805E105014D6B12
:105DB0000501150E08D0FE0EDB5003084BE105016E
:105DC0004D6B05011F0E4C6F45D04C6B0001AD8132
:105DD000FE0EDBCFEAF40601962B3CD0FE0EDBCFA5
:105DE000E9F435D0FE0EDBCFEAF4DB5091082FE06A
:105DF000FE0EDB509C082BE0FE0EDB509D0827E0DA
:105E0000FE0EDB509E0823E0FE0EDB509F080EE1E5
:105E10001ED0FE0EDBCFEBF41AD0FE0EDB50FF08D7
:105E200004E10001AD810601962B05014C6B12D0F7
:105E3000FE0EDBCFE9F40BD0FE0EDBCFEAF407D089
:105E4000FE0EDBCFEBF40001AD8105014C6B4C2B5A
:105E500001D04C6B0001ADA128D0AD910101016BC7
:105E6000EAC402F10001AEA103D0AE91FEEC3DF018
:105E7000030E0601875D07E10601962BEAC4E6FFE3
:105E800007EC27F00FD0830E875D0DE1EAC4E6FF33
:105E900007EC27F0E552010806E10601972BEAC45A
:105EA000E6FF55DEE552ACA2FED774D0E66EE66A98
:105EB00011EC04F0BDD173D9040EE66EE66A12004F
:105EC000000EE66E010EE66E1200006FF1EF30F08C
:105ED000020EDB509AD9DFCFE6FFE66A40EC34F0E1
:105EE00085D9020EDB500A0FE76E020EE7CFDBFF0B
:105EF000DF2A1200DCD9E552E55212003AD9E6EF6A
:105F000030F0E66EFE0EDBCFE6FFD3EC4BF0E55251
:105F1000E552E5521200EBC4DFFF010EECC4DBFFDB
:105F2000020EEDC4DBFF030EEEC4DBFF2AEF31F0FF
:105F3000D8901732163215321432E8061200150EB8
:105F4000DBCF14F0160EDBCF15F0170EDBCF16F0FB
:105F5000180EDBCF17F01200E66EE66A30EC04F0A4
:105F600067D1DECFE6FFDDCFE6FF94D9E66EFE0E09
:105F700042D9DF2A010E1200E66EFE0EDBCFE6FFED
:105F800081EC4CF033D9DF6E1200D9CFE6FFE1CFC0
:105F9000D9FF1200E552E7CFD9FF12000001166ABF
:105FA000176A14500101046F12000101040E006F02
:105FB0001200640E0B6E0C6A0D6A0E6AD7EC50F07C
:105FC0002ED9E5EF58F052C606F053C607F054C676
:105FD00008F055C609F01200D8901436153616365A
:105FE0001736E80612000001176A14500101056F08
:105FF0001200F36EF346F346F346F3461200010E29
:10600000DBCF03F1020EDBCF04F1030EDBCF05F192
:10601000040EDBCF06F11200E66EE66A42EC52F0A7
:10602000E5D8090EE66E010EE66E1200E66EABECE8
:1060300002F0E552E552E552100EF3CFDBFF110EF0
:10604000F4CFDBFF1200DBCFF4FFF350F45C12005F
:106050000A0E146E0E6E1200E66EE66A4AEF31F01A
:10606000E66EE6EC53F0E55212000F0EE66EE66ABD
:106070001200030EE126020EDB6A030EF36E020E1F
:10608000F3CFDBFF1200E66E030EE66E11EC04F0B8
:10609000CFD052C614F053C615F054C616F055C6EC
:1060A00017F0120007C014F008C015F009C016F070
:1060B0000AC017F01200E9C401F193D8E9C4E6FF61
:1060C0001200E66EE66AE951E66EE66A12001450C6
:1060D0000101036F1200FE0EDBCFE6FFC2EC4DF0B4
:1060E000E55200081200E552E9C4E6FF1200BBECDD
:1060F00057F0146E050EE15E14501200010EDB6ABB
:10610000020EDB6A030EDB6A1200100EDBCF14F006
:10611000110EDBCF15F012006B0EE66E000EE66E70
:106120001200E9C401F10401E95112000101030E5A
:10613000006F1200A6EC59F009501200A6EC59F0BD
:10614000055012000F0BF36EF00E1200010EEBC49F
:10615000DBFF020EECC4DBFF030EEDC4DBFF040E1D
:10616000EEC4DBFF5BEF2FF00101100EAEDE35EF6A
:1061700030F0196A1A6A1B6A145018100601566F1B
:1061800015501910576F16501A10586F17501B10D2
:10619000596F1200006F94DE030E7AEF2FF0D95082
:1061A000010FE66E000EDA20E66E12000101050E08
:1061B0008CDE020EE66EE66A12007ED8070EE66EF0
:1061C000E66A12000101070E006F1200080E1F0B95
:1061D00056C614F057C615F058C616F059C617F033
:1061E0001200030EE66E010EE66E1200E552E55255
:1061F000E552E5521200DB50EA6A000FE96E010E2B
:10620000EA22E552E750EF6E1200156A000F146E95
:10621000010E152214C0E6FF15C0E6FF120014C0DF
:106220000BF015C00CF016C00DF017C00EF01200E8
:10623000146E060EE15E145012000101006940DE8A
:10624000010E7AEF2FF001010B0E3FDE080EE66E15
:10625000E66A1200D9CFE6FFDACFE6FF040EE66E5B
:10626000E66A1200E66E5F0E4CDE6BEF30F08DDEFC
:10627000050EE126040EDB6A1200040EE66EE66AE5
:10628000020E56EF2FF053C614F054C615F055C643
:1062900016F0120060EC4BF0E552E5521200046972
:1062A0000FDE050E120003690BDE040E1200E66E0F
:1062B00082EC25F0E552120001010A0E65EF2FF085
:1062C000FAEC39F0050EE12654EC3AF0B7EC3AF06E
:1062D0001EEC3BF0E66E010E63EC3BF0F4EC3BF0A1
:1062E00066EC3BF0010E06C0DBFF020E07C0DBFFD1
:1062F000030E08C0DBFF040E09C0DBFF93EC3AF08D
:10630000090E1EEC3AF0FDE1A5EC3BF01450DF6EF7
:1063100093EC3AF0080E1EEC3AF0FDE1040EB3ECFB
:1063200039F014C0EFFF050EB3EC39F0010EDBCFEE
:10633000EFFFDF500001BD11E66E020E63EC3BF093
:10634000030EB3EC39F0BEC0EFFF050EE15C02E2D4
:10635000E16AE552D9EF39F031EC3CF0010100413E
:106360007F0BB7EC3AF0E00E0115E00BE838E8409F
:10637000146E010E0015080DF3501410E66E010E98
:1063800063EC3BF01F0E0115E66E020E63EC3BF072
:106390007F0E0215E66E030E63EC3BF0040EB3ECC9
:1063A00039F003C1EFFF0245010BE66E050E63EC09
:1063B0003BF0060EB3EC39F004C1EFFF070EB3EC6F
:1063C00039F005C1EFFF0845010BE66E080E63ECDE
:1063D0003BF0090EB3EC39F006C1EFFF0A0EB3EC47
:1063E00039F007C1EFFF7F0E0815E66E0B0E63EC68
:1063F0003BF00C0EB3EC39F009C1EFFF0B0EE15C82
:1064000002E2E16AE552D9EF39F0FAEC39F0070E11
:10641000E12666C506F067C507F068C508F069C5DE
:1064200009F0C9EC39F01EEC3AF0FDE1FFEC39F06F
:106430001EEC3AF0FDE190EC3BF03C0E146E156A58
:1064400063C508F064C509F00D6E15C00EF041EC8F
:1064500059F008C0DEFF09C0DDFF4AEC3BF002E264
:10646000E16AE552D9EF39F0FAEC39F0070EE1268E
:10647000F4EC3BF0C9EC39F01EEC3AF0FDE1FFEC36
:1064800039F01EEC3AF0FDE190EC3BF05BC506F014
:106490005CC507F05DC508F05EC509F0100E0B6E17
:1064A0000E0E0C6E0D6A0E6A1DEC59F006C0DEFF72
:1064B00007C0DDFF4AEC3BF002E2E16AE552D9EFAA
:1064C00039F0FAEC39F0060EE126A10EDEEC3AF0D6
:1064D000740EE66E050EE66E060EE66EE66A040EB5
:1064E000B0EC3AF0A70EDEEC3AF07A0EE66E050E4E
:1064F000E66E040EE66EE66AB0EC3AF0FCEC3AF0BA
:106500005BC514F05CC515F05DC516F05EC517F0EF
:10651000180E1EEC3AF0FDE11450DF6E5DC514F06C
:106520005EC515F00001166A176A010E5DC5DBFF36
:106530005CC514F05DC515F05EC516F0176A020E55
:106540005CC5DBFF030E5BC5DBFFB9EC39F0910ED8
:10655000E66E010EE66E99EC3BF0060EE15C02E29F
:10656000E16AE552D9EF39F006EC3CF005016551DE
:106570000A0DF3CF14F0F4CF15F0970E1426D1ECDA
:106580003AF06A0EE66E050EE66E060E63EC3AF021
:106590000A0DF3CF14F0F4CF15F09D0E1426D1ECB4
:1065A0003AF0700EE66E050EE66E040E63EC3AF0FD
:1065B00003E1020E656F08D0652B320E655D04E3C2
:1065C000020E656F0001B38765C5E6FF950EA0EC6E
:1065D0003BF00001B351080B01E0FF0EE66E960E92
:1065E000A0EC3BF0020EE15C02E2E16AE552D9EF79
:1065F00039F006EC3CF005015A51050A01E1EDD0F5
:10660000010A01E1C6D0070A01E1A8D0010A01E1AF
:1066100087D0030A01E181D0010A01E0F4D011EC36
:106620003CF0E552E552000EE66E010EE66E040EF9
:10663000E66EE66A910EE66E010EA8EC3AF00501F0
:10664000636B646B5B6B5C6B5D6B5E6B5F6B606BFA
:10665000616B626B656BFF0E0101005D14E117EC6D
:106660003CF0E552E5522DDFE66A950EA0EC3BF0DA
:10667000E66A960EA0EC3BF00001B397610EE66E61
:1066800086EC1AF046D0D6EC3BF003E02AEC3AF068
:10669000FDE100C118F0C6EC39F003E02AEC3AF055
:1066A000FDE101C118F0C6EC39F003E02AEC3AF044
:1066B000FDE102C118F0C6EC39F003E02AEC3AF033
:1066C000FDE103C118F07CEC3BF0950EE66E010E87
:1066D0000EEC3BF00501656F960EE66E010E0EECBA
:1066E0003BF00001B397E8B0B387320E0501655D5A
:1066F00011E3656BE66A950EA0EC3BF00001B397E1
:10670000E66A960EE66E010EE66E71EC4BF0E5520F
:10671000E552E5520401F96B3AD06DEC3AF035D010
:10672000020E00017A5D04E10501636B646B53D0D6
:106730006DEC3AF0E552E5522EEC3BF09BEC3AF072
:1067400062E20401FA2B000EFB23100EFA5D0E0E1E
:10675000FB5959E3FA6BFB6BB4DE55D0020E000116
:106760007A5D4FE10501632B000E6423060E635D25
:10677000000E645948E39BEC3AF003E2FCEC3AF07B
:10678000A0DE05EC3BF077EC3AF0E552E55205016E
:1067900022D0020E00017A5D19E10501632B000E83
:1067A0006423660EE96E050EEA6E06017B51EE5C0F
:1067B0007C51EE587D51EE587E51EE5802E205ECC8
:1067C0003BF077EC3AF0E552E5521DD005015B6BEA
:1067D0005C6B5D6B5E6B5A2B16D0020E00017A5D0E
:1067E00010E02EEC3BF0960E5B5D000E5C59000E47
:1067F0005D59000E5E5907E3B7DE0501010E5A6FC1
:1068000002D005015A07020EE15C02E2E16AE5529C
:10681000D9EF39F0FAEC39F0040EE126910EE8ECEC
:106820003AF0020EDBCF14F0030EDBCF15F0970E1B
:10683000145C010E155805E2B3EC3BF0F2E3DB2AE1
:10684000F0D7970EE8EC3AF0DF6A320EDF5C11E227
:10685000010EDB6A0A0EF36E010E25EC3AF007E238
:10686000B3EC3BF001E3DB2A010EDB2AF3D7DF2A8E
:10687000ECD7040EE15C02E2E16AE552D9EF39F0AF
:1068800006EC3CF0DF6A0501655100083EE2D95094
:10689000FD0FE96EFF0EDA20EA6E010ED880EE548D
:1068A000000EED5430E20001B3A722D01DEC3CF005
:1068B0002CE205016551E76E3CEC3AF0E7501426F6
:1068C000000E1522020E145E000E155A35EC3BF038
:1068D0001DEC3CF018E33CEC3AF0320E145E000E76
:1068E000155A020E1426000E152235EC3BF00BD083
:1068F0003CEC3AF005016551166E176A1650145CAF
:106900001750155802E2010EDF6E0A0E086E096A72
:10691000FD0EDBCF0DF0FE0EDBCF0EF038EC51F0AC
:10692000FD0E06C0DBFFFE0E07C0DBFF010EDB6ABB
:106930000A0EF36E010E25EC3AF023E2DF041BE1B0
:10694000FD0EDBCF16F0FE0EDBCF17F0970E1626EE
:10695000010E1722DB5000011624146E000E1720C2
:10696000156E14C0E6FF0EEC3BF0E66E8BEC3AF0D1
:106970003CEC3CF003D08BEC3AF0EF6A010EDB2AE2
:10698000D7D7146E020EE15C02E2E16AE552D8EF5D
:106990003AF006EC3CF0140EDE6E010EDD6EDECF3A
:1069A00014F0DDCF15F0910E145C010E15580CE2B9
:1069B000E66ADECFE6FFDDCFE6FF06EC3AF0DF2A3F
:1069C000010EEDE3DB2AEBD7020EE15C02E2E16AA5
:1069D000E552D9EF39F0FAEC39F0060EE126190E3E
:1069E000F36EFE0E25EC3AF001E38AD0FE0EDB508A
:1069F000050DF350156A140F146ED1EC3AF0030E26
:106A0000DB6A050EF36E030E25EC3AF013E2E8ECB8
:106A10003BF060EC4BF0E552E552E66E030EDB50C6
:106A2000EA6A7F0FE96E050EEA223CEC3CF0030EA9
:106A3000DB2AE7D70001B0AD63D0040EDB6A050E98
:106A4000DB6A05018351E66ED950040FBBEC3AF0C6
:106A500008E22AEC3CF0000E1426010E152223EC6D
:106A60003CF07F5102E1010E31D0FF0E7F5D03E16A
:106A7000020EF36E2DD07F417F0B146E0F0E145C4F
:106A800002E2030E23D0010E7F1504E1805102E1E2
:106A9000040E1CD01F0E801502E1050E17D07F0ECC
:106AA0008115170802E2060E11D082513B0802E25E
:106AB000070E0CD0D950040FE96EDACFEAFFF40EBE
:106AC000D880EE54010EED5406E2080EF36E020E6D
:106AD000F3CFDBFF02D0020EDB6ADB50000810E2CE
:106AE000030EDB6A050EF36E030E25EC3AF008E2A6
:106AF000E66AE8EC3BF006EC3AF0030EDB2AF2D74C
:106B0000060EE15C02E2E16AE552D9EF39F0FAECF7
:106B100039F03CEC3BF0CCEC3BF001E377D0080ED5
:106B2000DB50040A3BE0070A2AE0010A18E0030AE6
:106B300006E0010A45E1B9EC39F0990E3DD0040EAA
:106B4000DBCF8AF5050EDBCF8BF5060EDBCF8CF5A0
:106B5000070EDBCF8DF5B9EC39F09D0E2DD0040E6C
:106B6000DBCF8EF5050EDBCF8FF5060EDBCF90F574
:106B7000070EDBCF91F5B9EC39F0A10E1DD0040E54
:106B8000DBCF92F5050EDBCF93F5060EDBCF94F548
:106B9000070EDBCF95F5EDDBA50E0ED0040EDBCF97
:106BA00096F5050EDBCF97F5060EDBCF98F5070EB1
:106BB000DBCF99F5DEDBA90EE66E030EA8EC3AF00A
:106BC000C6EC3AF00DE2090EDB6AD1EC3BF00BE2C9
:106BD00081EC3AF003E02AEC3AF0FDE1EFDBF5D787
:106BE000010E14EC3BF0080EDB5004080CE1040E1F
:106BF000DBCF9AF5050EDBCF9BF5060EDBCF9CF5C0
:106C0000070EDBCF9DF5080EDB2A85D70A0EDB5079
:106C1000146E0B0EE15C02E2E16AE552D8EF3AF045
:106C2000E9DB3CEC3BF0CCEC3BF073E2080EDB50D4
:106C3000040A38E0070A27E0010A16E0030A05E023
:106C4000010A42E196DBB10E3BD0040EDBCF9FF58B
:106C5000050EDBCFA0F5060EDBCFA1F5070EDBCFCF
:106C6000A2F587DBB50E2CD0040EDBCFA3F5050E05
:106C7000DBCFA4F5060EDBCFA5F5070EDBCFA6F51F
:106C800078DBB90E1DD0040EDBCFA7F5050EDBCFE8
:106C9000A8F5060EDBCFA9F5070EDBCFAAF569DB59
:106CA000BD0E0ED0040EDBCFABF5050EDBCFACF581
:106CB000060EDBCFADF5070EDBCFAEF55ADBC10E0E
:106CC000E66E030EA8EC3AF0C6EC3AF00CE2090EC0
:106CD000DB6AD1EC3BF00AE281EC3AF002E0BADB8D
:106CE000FEE16CDBF6D7010E14EC3BF0080EDB5036
:106CF00004080CE1040EDBCFAFF5050EDBCFB0F5D9
:106D0000060EDBCFB1F5070EDBCFB2F5080EDB2A9E
:106D10008AD70A0EDB50146E0B0EE15C02E2E16AC8
:106D2000E552D8EF3AF031EC3CF0660E19EC3BF04E
:106D3000080EDB6ACCEC3BF071E2080EDB50040A73
:106D400045E0070A33E0010A21E0030A0FE0010AE7
:106D50004CE1040E8AC5DBFF050E8BC5DBFF060E7A
:106D60008CC5DBFF070E8DC5DBFF3FD002DB990E24
:106D7000F1EC3BF08EC5DBFF050E8FC5DBFF060E89
:106D800090C5DBFF070E91C5DBFF2FD0F2DA9D0E19
:106D9000F1EC3BF092C5DBFF050E93C5DBFF060E61
:106DA00094C5DBFF070E95C5DBFF1FD0E2DAA10E0D
:106DB000F1EC3BF096C5DBFF050E97C5DBFF060E39
:106DC00098C5DBFF070E99C5DBFF0FD0D2DAA50E01
:106DD000F1EC3BF09AC5DBFF050E9BC5DBFF060E11
:106DE0009CC5DBFF070E9DC5DBFF180E14EC3BF0C6
:106DF000090EDB6AD1EC3BF007E245DB03E043EC34
:106E00003BF0FDE109DBF6D7080EDB50040803E197
:106E1000B0DAA90EB6DA080EDB2A8CD70B0EE15CCD
:106E200002E2E16AE552C5D231EC3CF0680E19ECA1
:106E30003BF0080EDB6ACCEC3BF06FE2080EDB5057
:106E4000040A45E0070A33E0010A21E0030A0FE0E3
:106E5000010A4CE1040E9FC5DBFF050EA0C5DBFF58
:106E6000060EA1C5DBFF070EA2C5DBFF3FD081DA0E
:106E7000B10EF1EC3BF0A3C5DBFF050EA4C5DBFFB3
:106E8000060EA5C5DBFF070EA6C5DBFF2FD071DA06
:106E9000B50EF1EC3BF0A7C5DBFF050EA8C5DBFF87
:106EA000060EA9C5DBFF070EAAC5DBFF1FD061DAFE
:106EB000B90EF1EC3BF0ABC5DBFF050EACC5DBFF5B
:106EC000060EADC5DBFF070EAEC5DBFF0FD051DAF6
:106ED000BD0EF1EC3BF0AFC5DBFF050EB0C5DBFF2F
:106EE000060EB1C5DBFF070EB2C5DBFF180E9CDB3B
:106EF000090EDB6AD1EC3BF006E2C5DA02E0C3DB47
:106F0000FEE18ADAF7D7080EDB50040803E131DA34
:106F1000C10E37DA080EDB2A8ED70B0EE15C02E2D7
:106F2000E16AE55246D21200AFC5E6FFB0C5E6FF02
:106F3000B1C5E6FFB2C5E6FFABC5E6FFACC5E6FFEF
:106F4000ADC5E6FFAEC5E6FFA7C5E6FFA8C5E6FFEF
:106F5000A9C5E6FFAAC5E6FFA3C5E6FFA4C5E6FFEF
:106F6000A5C5E6FFA6C5E6FF9FC5E6FFA0C5E6FFEF
:106F7000A1C5E6FFA2C5E6FFEB0E146EAE0E156EC0
:106F8000166A14C0E6FFE66E16C0E6FF57EC58F02E
:106F9000176E170EE15E175012002CDA23DB650E18
:106FA00048DBE7D9990EB9DB9D0EB7DBA10EB5DB47
:106FB000A50EB3DBA90EE5D905018A6B8B6B8C6B33
:106FC0008D6B8E6B8F6B906B916B926B936B946BE5
:106FD000956B966B976B986B996B9A6B9B6B9C6B95
:106FE0009D6B050EE15C02E2E16AE552E2D102DA54
:106FF000F9DA670E1EDBBDD9B10E8FDBB50E8DDB66
:10700000B90E8BDBBD0E89DBC10EBBD905019F6BB1
:10701000A06BA16BA26BA36BA46BA56BA66BA76BFC
:10702000A86BA96BAA6BAB6BAC6BAD6BAE6BAF6BAC
:10703000B06BB16BB26B050EE15C02E2E16AE55246
:10704000B8D10501190E865D000E875906E28A2B1C
:10705000000E8B238C238D231200230E865D000EE1
:10706000875906E28E2B000E8F2390239123120066
:107070002D0E865D000E875906E2922B000E93239B
:10708000942395231200370E865D000E875906E281
:10709000962B000E97239823992312009A2B000E0B
:1070A0009B239C239D2312000601026B036B0601A8
:1070B000100E046F270E056F00EC40F0640E060101
:1070C00005AF02D0D89003D0045D000E055908E248
:1070D0000A0E146E156A04C608F005C609F007D03A
:1070E0000A0E146E156A02C608F003C609F014C031
:1070F0000DF015C00EF0B1EC50F008C09EF5050182
:10710000083406E39F2B000EA023A123A223120024
:107110000A0EE76E9E19E8AE02D0E73402D0E750BF
:107120009E5D06E2A32B000EA423A523A623120036
:10713000190EE76E9E19E8AE02D0E73402D0E75090
:107140009E5D06E2A72B000EA823A923AA23120006
:10715000280EE76E9E19E8AE02D0E73402D0E75061
:107160009E5D06E2AB2B000EAC23AD23AE231200D6
:10717000AF2B000EB023B123B22312003BD9030E74
:10718000E1260601800E671527E064C606F065C695
:1071900007F066C608F067C609F0E80E0B6E030E2E
:1071A0000C6E0D6A0E6AD7EC50F00B680C680D6817
:1071B0000E68E5EC58F002C086F503C087F541DFA4
:1071C0000501F40ED8808655010E875508E2F40EAD
:1071D000866F010E876F03D00501866B876B865122
:1071E000845D8751855937E286C584F587C585F565
:1071F0005BD905017F6F22DA0501806FBDC081F583
:10720000BEC082F5000E865D010E875903E3800E35
:107210008111816F86C583F5050E8803F350156AC9
:10722000140F146E13DADF6A050EDF5C12E2DF5012
:10723000EA6A7F0FE96E050EEA22EF50E66EDF5034
:10724000E76E010EDBCF14F0020E0BD9DFD8DF2A78
:10725000EBD70001B08F030EE15C02E2E16AE55278
:10726000A8D0C8D8030EE12605017E51030A58E0D4
:10727000010A4EE0030A13E0010A6DE10001B08D3E
:10728000DF6A190EDF5C07E2DFCFE6FFEBEC34F0DC
:10729000E552DF2AF6D70001B09DB08F3DD0000146
:1072A000B0AF3AD0B09FDF6A190EDF5C35E2DFCFB6
:1072B000E6FFEBEC34F0E55205018351E66ED95060
:1072C000010F59D904E27DDA000E1426BFD9D95036
:1072D000010FE96EDACFEAFFEE50ED1007E1846BA3
:1072E000856BDFCF88F5190EDF6E10D0DF5006E01A
:1072F00068DA8451145C8551155808E2010EDBCF21
:1073000084F5020EDBCF85F5DFCF88F5DF2ACCD7F9
:1073100000017A0522E132DF0501896B7E2B1DD049
:1073200000017A5108E0020A12E0030A16E126DFA2
:107330000501896B12D005018951146E156A153447
:1073400008E214509608000E155403E2ECDC050127
:1073500002D0892B02D0010E7E6F030EE15C02E2A7
:10736000E16AE55226D0E76EFD0EDBCFE9FFFE0EA7
:1073700051D2D9CFE6FFDACFE6FF040EE66EE66A19
:107380001200E66E030EE66E99EF3BF0B5D9D6EF2C
:107390003BF09CD9030E06C0DBFF040E07C0DBFFE9
:1073A000050E08C0DBFF060E09C0DBFFE8D9090E99
:1073B0001200E16EE552E7CFD9FF1200D9CF1CF0E1
:1073C000DACF1DF01ADAEFCF18F0196A1A6A1B6AC1
:1073D00018501412195015121A5016121B50171269
:1073E00032DA060E16C0DBFF070E17C0DBFF090EF0
:1073F000DB2A1200D9CFE6FFE1CFD9FF1200A5D9D1
:10740000020E14C0DBFFBBD9080E120071EC4BF06A
:10741000E552E552E55212001650E66ED9CF14F04F
:10742000DACF15F0EAD928DA0A0EDB50F80FE76E4A
:107430000A0EE7CFDBFF090EDB2A1200D8901732C5
:10744000163215321432E8061200DBCFF4FFF35087
:10745000F45C1200D8901436153616361736E80646
:107460001200DBCF15F0E7501426000E152214C0D1
:10747000E6FF15C0E6FF1200FD0EDBCF14F0FE0E96
:10748000DBCF15F01200D950040FE96EDACFEAFF16
:107490000A0EDB501F0BEECF16F0EECF17F0EECF3B
:1074A00018F0EECF19F01200F7EC53F0080E0001BF
:1074B000BB15E840E840E8401F0B146E0001BA51CC
:1074C000E82414101200E66EE66ADECFE6FFDDCF98
:1074D000E6FF2FD90501655112006A0EE66E050E12
:1074E000E66E60EC31F0E552E55217EF3CF0700EBD
:1074F000E66E050EE66E05EC32F0E552E55211EF50
:107500003CF0A8D9060EDBCF16F0070EDBCF17F044
:10751000080E1F0B1200010EDB50E76EFB0EDBCFD7
:10752000E9FFFC0E77D14DD9030EDBCF16F0040E28
:10753000DBCF17F012005B0EE96E050EEA6EEE501F
:107540005F5DEE506059EE506159EE506259120085
:10755000E66E11EC04F0146E060EE15E145012009B
:10756000DBCFE6FF050EDBCFE6FF99EF3BF0E66EE3
:107570007CD93CEF3CF0E96EDACFEAFFE552E75008
:10758000EE6EED6A800E811500081200040EDB6AB3
:10759000050EDB6A060EDB6A070EDB6AF00EDF5CA7
:1075A0001200010E152214C0DEFF15C0DDFF12000F
:1075B000E16E1450E552E7CFD9FF1200F36E040ECE
:1075C000F3CFDBFF010EF36E050EF3CFDBFF1200EE
:1075D000F36E020EF3CFDBFF010EF36E030EF3CF5B
:1075E000DBFF1200050EE126DF6A010EDB6A020EE8
:1075F000DB6A030EDB6A12005BC55FF55CC560F5F4
:107600005DC561F55EC562F512007BC666F57CC698
:1076100067F57DC668F57EC669F51200E66E60EC1A
:107620004BF0E552E5521200F36E0A0EF3CFDBFF8A
:107630001200E66E86EC1AF0E5521200070E000109
:10764000BB15200DF3500001BC111200010E1522D4
:1076500014C0DBFF020E15C0DBFF120005015B2B1F
:10766000000E5C235D235E231200FD0E14C0DBFFC1
:10767000FE0E15C0DBFF12000B0EE1260A0EDB6AC0
:10768000080EDB6A1200D8901932183217321632FF
:10769000E8061200DECF16F0DDCF17F017C016F0A7
:1076A000176A020EDB5000011610146E17C015F099
:1076B000020E59DE14C0EFFF030E55DEDFCFEFFFE1
:1076C000070EE15C12004FDE3CEF3CF03FEC4FF068
:1076D00007C014F008C015F009C016F00AC017F072
:1076E000F60E0C6E280E0D6E9C0E0E6E3F0E0F6E7B
:1076F00044EC50F085EF51F0196A1A6A1B6A145075
:10770000181005015F6F15501910606F16501A1090
:10771000616F17501B10626F120033DEB9EF39F042
:10772000A4D814C0EFFF010E1EDE030EDBCFEFFF67
:10773000120030EC04F0146E060EE15E14501200DC
:10774000E66E010EE66E06EF3AF0800E186E196ACC
:107750001A6A1B6AE8501416195015161A50161694
:107760001B5017161200E668020EDBCFE6FF030E71
:10777000DBCFE6FF4BDE020EDB2A030E1200030E08
:10778000DBCF14F0040EDBCF15F0050EDBCF16F0C7
:10779000060EDBCF17F01200050EF36E080E25EF74
:1077A0003AF0040EF36E090E25EF3AF0080E1F0BA7
:1077B0005FC514F060C515F061C516F062C517F01D
:1077C0001200010EDBCF14F0020EDBCF15F0120019
:1077D000030EDB50E76E000EDFCF14F0010E31EF29
:1077E0003AF0CFDD040E12007BC606F07CC607F02F
:1077F0007DC608F07EC609F01200090EDB500F01AD
:10780000D924E96E000EDA20EA6E1200F3DD020ED2
:10781000E1261200DBCFEAFFE750E926000EEA225C
:107820001200740EE66E050EE66E60EF31F07A0E11
:10783000E66E050EE66E34EF32F01EDE320E145C9C
:10784000000E15581200040E14C0DBFF050E15C003
:10785000DBFF1200040EDBCF14F0050EDBCF15F0BA
:107860001200C8DD0B0EE1261200FD0EDBCFE9FF92
:10787000FE0EDBCFEAFF1200E552E750EF6E12007A
:10788000C8EC43F0FE0EDB500201F45D0EE0FE0E8C
:10789000DBCFF4F2DB500001AB9BE8B0AB8BFE0E0C
:1078A000DB50E8B08982E8A08992CDEF43F0C8ECC4
:1078B00043F0FE0EDB500201F55D0EE0FE0EDBCF65
:1078C000F5F2DB500001AB9DE8B0AB8DFE0EDB5056
:1078D000E8B08984E8A08994CDEF43F0D9EC44F076
:1078E0000001B3A366D0FE0EDB500201F65D04E199
:1078F0000001AC51800B5DE00001AC9FD9CFE6FFE9
:10790000DACFE6FF0D0EE66E660EE66EA9EC43F0EA
:10791000E76E020EE7CFDBFFD950010FE66E000ED7
:10792000DA20E66E0D0EE66E680EE66EA9EC43F008
:10793000E76E030EE7CFDBFF020EDB503AE1030EEA
:10794000DB5037E1FE0EDB0407E1400EDF10DF6E97
:10795000010EDB50400906D0BF0EDF14DF6E010EB2
:10796000DB50BF0BE76E010EE7CFDBFFDFCFE6FF9B
:107970000D0EE66E660E57EC44F0020EE7CFDBFF0D
:10798000010EDBCFE6FF0D0EE66E680E57EC44F0FD
:10799000030EE7CFDBFF020EDB500BE1030EDB50E3
:1079A00008E1FE0EDBCFF6F2DB500001AB9FE8B042
:1079B000AB8F040EE15C02E2E16AE552E16ECDEFCD
:1079C00043F0D9CFE6FFE1CFD9FF030EE126DF6A0E
:1079D000020EDB6A89960001AE87230EE66E86EC06
:1079E0001AF0E5520001AEA7F9D00001B6A5F1D01A
:1079F0000001B695F9EC32F0010EE66EA6EC11F03E
:107A0000E552010EE66E5AEC14F0E552020EDB2A46
:107A10000A0EF36E020EDBCFF4FFF350F45C01E2CA
:107A2000D5D0020EDB6A8986010EE66EE66A28EC86
:107A30004BF0E552E552450EE66E050EE66E1F0E62
:107A4000E66E660EE66E81EC4CF0E552E552E552CC
:107A5000E552E76E010EE7CFDBFF460EE66E050E40
:107A6000E66E1F0EE66E680EE66E81EC4CF0E55297
:107A7000E552E552E552E76E010EE7CFDBFF010E5E
:107A8000DB5001E077D0A3EC09F006017851E8243F
:107A9000E66EB30EE66E050EE66E320EE66E660E0E
:107AA000E66EDAEC4CF0146E050EE15E1450E76EF3
:107AB000010EE7CFDBFF06017951E824E66ECF0E19
:107AC000E66E050EE66E320EE66E680EE66EDAECD7
:107AD0004CF0146E050EE15E1450E76E010EE7CF18
:107AE000DBFF06016F6B706B06017169726906013D
:107AF0007B6B7C6B7D6B7E6B06017805E824E66E04
:107B0000B30EE66E050EE66E9FEC06F0E552E5520A
:107B1000E55206017951E824E66ECF0EE66E050EB9
:107B2000E66E9FEC06F0E552E552E552DCEC13F010
:107B30000001B1A510D072C614F0156A14C09FF0F0
:107B400071C6A0F070C614F0156A14C09DF06FC61F
:107B50009EF008EC0BF00001ACA30CD0510E060116
:107B60007B5D000E7C59010E7D59000E7E5902E2AC
:107B70000001AC937A0EE66E000EE66E200EE66E05
:107B8000660EE66E81EC4CF0E552E552E552E552A8
:107B9000E76E010EE7CFDBFF00017A51E840E840D5
:107BA0003F0B030B00017A6F00017A0503E100012E
:107BB000AE9706D0020E00017A5D02E10001AE9799
:107BC0000A0EE66EF0EC0BF0E55289960400060111
:107BD0008C6B82BE02D00001AE9704D78986240E3A
:107BE000E66E86EC1AF0E552030EE15C02E2E16A11
:107BF000E552E16EE552E7CFD9FF1200320EE66E94
:107C000086EC1AF0E5520001B08B8988020E8CECEC
:107C100044F089980001AE83010E8CEC44F0000121
:107C2000AC8F1200C8EC43F0FE0EDB0402E1899831
:107C300004D0FE0EDB5001E18988CDEF43F08B6A62
:107C40000F01386B396B3A6B8B908B928B848B86E0
:107C50008B888B8C94909492949494969498949C02
:107C6000948E0001B38D898089868998898A929043
:107C70009292929492969298929A628AE70ED36E1A
:107C8000D3A4FED706013B0E7F6FF60E806F7FC632
:107C9000E6FFE66E9DEC4BF0E552E5529F8A9D8A29
:107CA000D08EF28EF28C0C0EE66EE66A480EE66E10
:107CB00019EC1AF0BBEC44F0080EE66E69EC59F0D2
:107CC000E5521200C8EC43F0080EE1260201F7511C
:107CD000020A01E1ADD0030A30E0010A01E0FFD061
:107CE000070EDB6A06017805FBEC43F00DE2AEEC13
:107CF00043F03EEC44F0FDE102EC44F0120EE926C4
:107D0000060E5DEC44F0EED7070EDB6A06017951F2
:107D1000FBEC43F00DE2BBEC43F03EEC44F0FDE144
:107D200002EC44F0280EE926060E5DEC44F0EED796
:107D30000001C56B0001C66B71D0F86B070EDB6AE2
:107D400006017805FBEC43F024E2AEEC43F03EEC98
:107D500044F0FDE123EC44F006E1050EDBCF26F60E
:107D6000060EDBCF27F6C8EC44F0120EE926060E0D
:107D700065EC44F002E11750151808E00201010E0D
:107D8000F86F630EF36E070EF3CFDBFF070EDB2AEF
:107D9000D7D70201F80503E10001C56B02D000014D
:107DA000C52B0201F96B070EDB6A06017951FBEC6A
:107DB00043F024E2BBEC43F03EEC44F0FDE123EC65
:107DC00044F006E1050EDBCF3CF6060EDBCF3DF6B8
:107DD000C8EC44F0280EE926060E65EC44F002E1FA
:107DE0001750151808E00201010EF96F630EF36ECB
:107DF000070EF3CFDBFF070EDB2AD7D70201F90509
:107E000003E10001C66B02D00001C62B780E000111
:107E1000C55D04E2780E0001C65D03E30201F72BA5
:107E20005FD00201F8515CE0F9515AE0F70758D0F1
:107E30000001B0AB06D0B09B310EE66E86EC1AF0B6
:107E4000E552DE6ADD6A020EDB6A030EDB6A780E3B
:107E50000001C55D21E3060128513C5D146E3D51D2
:107E60002955156E020E14C0DBFF030E15C0DBFF93
:107E70000A0EE76E020EDBCF14F0030EDBCF15F017
:107E8000E7501426000E1522153424E21450000881
:107E9000000E15541BE31ED0780E0001C65D1CE3D6
:107EA00006011251265D146E2751135514C0DEFFD2
:107EB000DD6EB6EC44F00A0E1426000E15221534C1
:107EC00009E214500008000E155404E297DE000188
:107ED000AE9102D00001AE810201F76B01D0F76BC9
:107EE000080EE15C02E2E16AE552E16ECDEF43F09B
:107EF000C8EC43F0020EE126DF6A0201FA51010AE2
:107F000008E0010A16E19296898692988998FA2BE0
:107F100011D07A0EE66E000EE1EC44F007E10001AC
:107F20007A51E840E8403F0B030B7A6F010EDF6E99
:107F300001D0FA6BDF50146E020EE15C02E2E16ADE
:107F4000E552E16E1450CDEF43F0D9EC44F0EE0E63
:107F5000E66E050EE66EED0EE66E050EE66E660E3C
:107F60006DEC44F0F3CFDEFFF4CFDDFFF40EE66EF0
:107F7000050EE66EF30EE66E050EE66E680E6DEC0F
:107F800044F0020EF3CFDBFF030EF4CFDBFFB6ECC1
:107F900044F0153404E214505808020E155409E355
:107FA00093EC44F0173408E216505808020E1754A8
:107FB00003E20001AC8B16D0B6EC44F0D89015501B
:107FC00004E6C20E145C010E15580CE293EC44F06A
:107FD000D890175004E6C20E165C010E175802E244
:107FE0000001AC9B0001AC51200B01E0FF0E146EB0
:107FF000040EE15C02E2E16AE552E16E1450CDD379
:10800000C7DB0A0EE126F00EE66E050EE66EEF0EF9
:10801000E66E050E88DB020EEECFDBFF030EC1DB42
:10802000E8AE02D0153402D043EC44F002E248EC52
:1080300044F009EC44F0E8AE02D0053502D04DEC36
:1080400044F002E252EC44F0F20EE66E050EE66EEB
:10805000F10EE66E050E67DB040EEECFDBFF050EBC
:10806000A0DBE8AE02D0153402D043EC44F002E2CB
:1080700048EC44F0CEDBE8AE02D0053502D04DEC42
:1080800044F002E252EC44F0F60EE66E050EE66EA7
:10809000F50EE66E050E47DB060EEECFDBFF070E94
:1080A00080DBE8AE02D0153402D043EC44F002E2AB
:1080B00048EC44F0AEDBE8AE02D0053502D04DEC22
:1080C00044F002E252EC44F0F80EE66E050EE66E65
:1080D000F70EE66E050E27DB080EEECFDBFF090E6E
:1080E00060DBE8AE02D0153401D0CDDB01E2D0DB9D
:1080F00090DBE8AE02D0053501D0CFDB01E2D2DB68
:108100000A0EE15C02E2E16AE552E16E46D340DB31
:10811000020EE126DF6A0201FB51130A01E18DD153
:10812000010A01E17ED1030A01E16CD1010A01E1FA
:108130005FD11F0A01E152D1010A01E145D1030AD1
:1081400001E138D1010A01E12BD1070A01E1C2D0D6
:10815000010A01E18BD0030A01E17DD0010A5BE055
:108160000F0A53E0010A49E0030A40E0010A2BE04C
:10817000070A22E0010A16E0030A08E0010A01E00A
:1081800061D1929689869298899855D106015A6B49
:108190005B6B5C6B5D6B340E0BDBF3CF5EF6F4CF89
:1081A0005FF63DD1160E04DBF3CF60F6F4CF61F637
:1081B0000601626B636B33D1260EFADA0F0E0601ED
:1081C000F314786F2CD1260EE66EE66A680EE66E22
:1081D000ABEC02F0D0DB0F0E0601F314796F060151
:1081E0007851060179250601776F19D11E0EE0DA64
:1081F000F3CF68F6F4CF69F612D1060178519ADB15
:10820000320ECEDB01E01FD10AD126DB320ED5DBE8
:1082100001E019D104D106016F6B706B0601716921
:10822000726906017B6B7C6B7D6B7E6B060178054A
:1082300081DB9FEC06F09FDB0FDB9FEC06F09BDB06
:10824000156A72C69FF071C6A0F0156A70C69DF0DF
:108250006FC69EF0E4D0020EE66EEB0EE66E050EE3
:10826000E66E540E9DDB01E0EED0D9D0ECC515F0E2
:10827000146A166A176A15AE02D016681768EBC53D
:1082800018F0196A1A6A1B6A1450181006015A6FFE
:10829000155019105B6F16501A105C6F17501B1099
:1082A0005D6F800E5D150CE00201010EFC6F000E8B
:1082B00006015A6D5B1F5B235C1F5C235D1F5D2302
:1082C00006016851691101E0AAD0100E686F270EEF
:1082D000696FA5D05AC664F65BC665F65CC666F6DD
:1082E0005DC667F6FA0E0B6E0C6A0D6A0E6A5AC608
:1082F00006F05BC607F05CC608F05DC609F08DDAD3
:108300005EC614F05FC615F0166A176AAEDA5EC66E
:108310000BF05FC60CF016C00DF017C00EF0D7ECD6
:1083200050F060DA41EC4FF007C014F008C015F0CF
:1083300009C016F00AC017F0DD0E0C6E240E0D6E8B
:10834000F40E0E6E410E0F6E44EC50F085EC51F0C1
:1083500049DA68C614F069C615F0166A176A68C665
:108360000BF069C60CF016C00DF017C00EF055DA10
:10837000100E0B6E270E0C6E0D6A0E6A76DAD7ECB5
:1083800050F030DA0201FC514AE0FC6B000E0601AD
:10839000646D651F6523661F6623671F67233FD0D3
:1083A000020EE66EED0EE66E050EE66E520EF8DA81
:1083B0004AE135D0040EE66EEF0EE66E050EE66E6F
:1083C0004C0EEEDA40E12BD0020EE66EF30EE66EB6
:1083D000050EE66E520EF1DA36E121D0040EE66E9D
:1083E000F50EE66E050EE66E4C0EE7DA2CE117D0C0
:1083F000450EE66E050EE66E1F0EE66E660EA1DAFF
:1084000022E10DD0470EE66E050EDBDA1CE1050118
:108410004751E840E8403F0B030B00017A6F02012F
:108420000AD0460EE66E050EE66E1F0EE66E680E6C
:1084300088DA09E10201FB2B06D0010EDF6E060E81
:10844000FB6F01D0FB6BDF50146E020EE15C02E2A9
:10845000E16AE552E16E1450A0D1000165510EE1D0
:10846000010E656FE66A57EC3CF0E552E66A40ECB7
:108470003CF0E5520001B581B583B585020E0001DF
:108480007A5D26E10001ACB527D052C614F053C680
:1084900015F054C616F055C617F0020ED8901732D4
:1084A000163215321432E806F9E11750000194191A
:1084B000E8AE02D0943508D09151145C9251155811
:1084C000935116589451175807E20001AC8504D017
:1084D0007A0502E10001AC930001B151080B04E000
:1084E000B151040B01E01200B1A50AD00001AC9318
:1084F0000001916B926B936B946B06016E6B120093
:10850000B1A704D00001AC83AC8512000001ACB36C
:1085100017D0330E06017B5D030E7C59010E7D5989
:10852000000E7E590AE30201FD2B0A0EFD5D07E3F2
:108530000001AC830201FD6B12000201FD6B120011
:10854000510E06017B5D000E7C59010E7D59000E17
:108550007E5902E20001AC9312001AD90201FE51C9
:1085600003E094909492FE6BFE0EDB5005E18B804D
:108570008B820001B39D04D08B908B920001B38D50
:108580000CD117DA010EDB6A020EDB6A030EDB6A1E
:10859000690EE66E000EE66E130ED6D93F0E000190
:1085A0006915E66E130ECDD8500EFED92CE1020EE1
:1085B00006C6DBFF06010751FE0BE8420625010F48
:1085C000F36E020EDBCFF4FFF350F45C17E2020E01
:1085D000DB50E824E66E5E0EB4D8550EE5D90BE10B
:1085E000010E26D95C0EB0D9010EDB2A21D95D0E11
:1085F000ABD9010EDB2A020EDB2ADCD7010EF36EAB
:10860000030EF3CFDBFFE66A5F0E9BD869C0E6FF7F
:10861000130E97D8030EDB50146E040EE15C02E2D9
:10862000E16AE552E16E1450B8D0B2D8090E65D9AE
:10863000470EEE6E320EEE6E450EEE6E5F0EEE6E75
:10864000320EEE6E300EEE6EEE6A010EF36E080E16
:10865000F3CFDBFF06011B0E066F060E56D90EE0A8
:10866000DF6A06010751DF5C0BE2D950010F156E7E
:10867000A7D802E0080EDB6ADF2AF3D7080EDB6A10
:10868000080EDB50146E090EE15C02E2E16AE5526D
:10869000E16E145082D07CD8070E2FD9370EEE6EC3
:1086A000320EEE6E350EEE6E330EEE6EEE6A010E8B
:1086B000F36E060EF3CFDBFF0601200E066F040EED
:1086C00024D910E0DF6A06010751DF5C0DE2D950C2
:1086D000010F156EDACF16F073D802E0060EDB6AD2
:1086E000DF2AF1D7060EDB6A060EDB50146E070E8A
:1086F000E15C02E2E16AE552E16E14504ED0E66AB6
:108700002CDFE552939293948A928A940601002B6F
:10871000000E01231200E66EDAEC4CF0146E050E2A
:10872000E15E145054D1E66E3EEC0DF024D9E552D2
:10873000F3CFDEFFF4CFDDFFD9CFE9FFDACFEAFFD9
:108740001200E66EFE0EDBCFE6FFD3EC4BF0BBEF84
:1087500044F081EC4CF00FD9E5521200070EDB50CB
:10876000E824010FEA6AB30FE96E050EF4D8B30FDF
:10877000E96E050E04D1070EDB50E824010FEA6A0A
:10878000CF0FE96E050EE7D8CF0FE96E050EF7D0D3
:10879000D9CFE6FFE1CFD9FF1200E552E7CFD9FFED
:1087A0001200EDCFDBFFE2D80601035115181200CD
:1087B000E66EE66A660EE66EABEC02F0BBEF44F0E6
:1087C000DF500F011524E96E000EDA20EA6EEFCFBC
:1087D00014F0DF50EA6A080FE96E060EEA22EF5045
:1087E000145C120006C064F607C065F608C066F6A1
:1087F00009C067F61200F36E070EDBCFF4FFF350EB
:10880000F45C1200070EEA6ADB34FE0BEA36E96E0E
:108810001200ACD8155005191200E5EC58F002C052
:1088200064F603C065F604C066F605C067F612007C
:10883000DB50156A080F146E060E152214C0E6FFF1
:1088400015C0E6FF1200050E14C0DBFF060E15C0B2
:10885000DBFF070EDB50120006017951E824E66EBB
:10886000CF0EE66E050EE66E120002C006F003C0E3
:1088700007F004C008F005C009F01200D8901532C6
:108880001432E80412001450025D1550035912000E
:10889000DECF02F6DDCF03F612000451145C055161
:1088A00015581200DECF04F6DDCF05F61200E66E95
:1088B000D3EC4BF060D8E76E1200EA2214C0EEFF52
:1088C00015C0EDFF070EDB2A1200EA22EECF16F0EC
:1088D000EFCF17F0165014181200E66E7AEC0CF079
:1088E000146E050EE15E14501200FE0EDBCFE6FFA3
:1088F000C2EC4DF0E55200091200E126DF6AD950C2
:10890000010FE96EDACFEAFF1200076F660EE66E1E
:1089100038DEE55200091200E66EE66A28EC4BF0FC
:10892000E552E5521200020EDBCF16F0030EDBCF4C
:1089300017F01200E824E66EB30EE66E050EE66E42
:108940001200E66E06DF43D0E66EFE0EDBCFE6FFDA
:1089500000DFDF6E1200EA22EFCF16F016C017F02C
:10896000166A070EDB50E824EA6A1200DECF14F024
:10897000DDCF15F01200E552E552E5521200EA2271
:10898000EF5000011610146E17C015F0030E120000
:10899000050EDBCF14F0060EDBCF15F002EF44F02E
:1089A000E66E660E8BEF43F0E66E5F0ECADE75EF85
:1089B00044F0EEDE040EE1261200E66E680E8BEF48
:1089C00043F0E66E200EE66E660EA1EF44F0E76E11
:0A89D000010EE7CFDBFFDB501200C1
:0689DA0029EC4AF0FB0E3F
:1089E000DBCFF3FFDB06F35000090AE077EC4AF037
:1089F000FA0EE2EC4AF0F3E1151CF1E1010E01D0B0
:108A0000000E58EF4AF029EC4AF03B0EE12402E355
:108A1000E168E652E16E010EDB6A020EDB6AF90ED6
:108A2000DBCFF6FFFA0EDBCFF7FFFB0EDBCFF8FF55
:108A30000800F550DF6EDF5002E17CEF49F0250EB3
:108A4000DF5C02E06FEF49F0030EDB6A040EDB6AC5
:108A5000050EDB6A060EDB6A070EDB6A91EC49F055
:108A60002D0EDF5C0CE02B0EDF5C09E0200EDF5CDE
:108A700006E0230EDF5C03E0300EDF5C1AE1DF501E
:108A8000300A14E0130A0FE0030A0AE00B0A05E0BB
:108A9000060AE4E1030EDB80E1D7030EDB82DED7BA
:108AA000030EDB84DBD7030EDB86D8D7030EDB880F
:108AB000D5D72A0EDF5C1BE18DEC49F0DBEC49F0E9
:108AC00010E0030EDB8008680968130EDBCF0DF0A1
:108AD000140EDBCF0EF00BEC51F0040E06C0DBFFE2
:108AE00003D0130EC4EC49F091EC49F00BD0090E01
:108AF000DB6A32EC4AF003E0A6EC4AF0FAD7090E42
:108B0000C4EC49F0030EDBB0DB982E0EDF5C1BE1FA
:108B100091EC49F02A0EDF5C0BE18DEC49F0DBECC7
:108B200049F003E1130E16EC4AF091EC49F00BD03A
:108B3000090EDB6A32EC4AF003E0A6EC4AF0FAD701
:108B4000090E16EC4AF0680EDF5C07E191EC49F083
:108B5000680EDF5C1DE1030E18D0740EDF5C17E0B9
:108B60007A0EDF5C14E0480EDF5C06E0540EDF5C3A
:108B700003E05A0EDF5C02E1020E07D06C0EDF5CF0
:108B800003E06A0EDF5C04E1010E69EC4AF0C9DB28
:108B9000DF506E0A01E17FD31E0A01E192D1200A63
:108BA00001E18FD13F0A01E149D11A0A01E146D121
:108BB0000D0A01E143D1200A01E140D13A0A01E165
:108BC0003DD1200A01E13AD1260A01E135D10D0A51
:108BD00001E132D11A0A01E1D9D0200A4AE0300A73
:108BE0001FE0460A0EE0250A01E083D3D950F90FB1
:108BF000E96EFF0EDA20EA6E010EEE5E000EEE5A0E
:108C0000EE5A77EC4AF0250EE66E95DB03E1151C73
:108C100001E169D373EC4AF001E26BD3DB2A69D33B
:108C2000080EDB6A040EDB50010806E2040EDB04CA
:108C30003BEC4AF0DB508BDB080EDB5009E0030E07
:108C4000DB50010B05E172DB01E04DD3080EDB6A5E
:108C500064DBEFCFDFFFEBEC4AF003E1151C01E131
:108C600042D373EC4AF001E3DB2A60DB01E141D33C
:108C70003AD3070EDB5002080FE1B7EC4AF0030EBF
:108C80007EEC4AF00E0EEECFDBFF0F0EEECFDBFFD9
:108C9000100EEECFDBFF20D0F70EDBCF17F0F80E73
:108CA000DBCF18F0020E175E000E185AF70E17C031
:108CB000DBFFF80E18C0DBFF17C0E9FF18C0EAFFA2
:108CC0006EEC4AF0166A0E0E14C0DBFF0F0E15C0D4
:108CD000DBFF100E16C0DBFF0E0EDBCFE6FF0F0E24
:108CE000DBCFE6FF100EDBCFE6FFE3EC57F0E552FB
:108CF000E552E552130E07C0DBFF140E08C0DBFF80
:108D0000060EDB5005E0130EB2EC4AF001E26ADB1E
:108D1000D6EC4AF002E2130E37DB99EC4AF006E09B
:108D2000040EB2EC4AF002E2050E2EDB030EDBB0BD
:108D300005D0FCDA01E0D7D2080EDB6A090EDB6A47
:108D40000E0EDBCFF6FF0F0EDBCFF7FF100EDBCFE3
:108D5000F8FF0800F550DF6EDF5014E0DCEC4AF05D
:108D600011E2EBEC4AF003E1151C01E1BCD2BBDBE4
:108D700001E3DB2A090EDB2AD9500E0FE96E000E43
:108D8000CBDBE7D7D3DA01E1B4D2ADD2C6DA110E2C
:108D9000EECFDBFF120EEDCFDBFF110EDBCFE6FFD8
:108DA000120EDBCFE6FFD5EC57F0E552E552130E7D
:108DB000F3CFDBFF140EF4CFDBFF060EDB5004E035
:108DC000130ED0DB01E20EDBD6EC4AF002E2130E0A
:108DD000DBDAAFDB05E0040EC5DB02E2050ED4DA18
:108DE000030EDBB005D0A2DA01E07DD2080EDB6A0B
:108DF000090EDB6A110EDBCFE9FF120EDBCFEAFFB3
:108E0000EFCFDFFFDF5014E0D7DB12E2E4DB03E15A
:108E1000151C01E168D267DB01E3DB2A090EDB2ABE
:108E2000110EDB2ADBCFE9FF120EE8E3DB2AE6D7DF
:108E30007DDA01E15ED257D2030EDB8E070EDB0432
:108E400010E195DB040E5ADB0A0EEECFDBFF0B0EB2
:108E5000EECFDBFF0C0EEECFDBFF0D0EEECFDBFF18
:108E60006CD0070EDB5003082CE1030EDBAE0DD0F7
:108E7000B2DA020E76DAEFCF14F0156A166A176AC4
:108E800014AE39D01568166835D0F70EDBCF15F063
:108E9000F80EDBCF16F0020E155E000E165AF70E16
:108EA00015C0DBFFF80E16C0DBFF15C0E9FF16C0CA
:108EB000EAFFEFCF14F00A0E14C0DBFF0B0EDB6AE3
:108EC00038D0070EDB50020809E1030EDBAE04D0F8
:108ED00059DB16AE10D00ED055DB0DD0030EDBAE35
:108EE00012D079DA020E3DDAF9DA166A176A15AE8F
:108EF00002D016681768E2DA0C0E16C0DBFF0D0E02
:108F000017C0DBFF1AD0F70EDBCF16F0F80EDBCF61
:108F100017F0020E165E000E175AF70E16C0DBFF92
:108F2000F80E17C0DBFF16C0E9FF17C0EAFFD6DA5C
:108F3000C5DA0C0EDB6A0D0EDB6A060EDB5005E1AE
:108F4000010EF36E050EF3CFDBFF150EDB6A160E76
:108F5000DB6AD950370F146E000EDA20156E390E09
:108F600014C0DBFF3A0E15C0DBFF380EDB6A080EBB
:108F7000DB6A0A0EAEDADF50780A12E0200A10E04F
:108F8000280A0CE0200A0AE03F0A06E00D0A02E087
:108F9000200A08E1020E05D0080E03D0080EDF26D5
:108FA000100E97DA030EDBBE02D0DB92DB94DB50AF
:108FB000800B24E08ADAD890030EEB50000A08E612
:108FC000000EEE5C000EEE58000EEE58000EEE584D
:108FD00015E213DA0B680C680D680E68E5EC58F0C2
:108FE0000A0E02C0DBFF0B0E03C0DBFF0C0E04C039
:108FF000DBFF0D0E05C0DBFF2D0E08D0030EDBA23C
:1090000002D02B0E03D0DBA408D0200EF36E170E77
:10901000F3CFDBFF150EDB2A02D0170EDB6A050E3D
:10902000DB5003E1B7D901E189D0820E146EB30E93
:10903000156E000E166E070EDBCF17F0186A196A50
:109040001A6A17C00BF018C00CF019C00DF01AC046
:109050000EF0D3D91DEC59F014500224F36E1550C4
:109060000320F46E16500420F86EF4CFF7FFF3CF10
:10907000F6FF0800090EF5CFDBFF580EDF5C0FE1AD
:10908000610EF36E090E7BD90AE3200E146E090EF1
:10909000DBCFE7FF1450E75E090EE7CFDBFF070EDB
:1090A000DBCF14F0156A166A176A0FDA14C00BF0DA
:1090B00015C00CF016C00DF017C00EF0EECF06F084
:1090C000EECF07F0EECF08F0EFCF09F01DEC59F02E
:1090D00009C0EDFF08C0EDFF07C0EDFF06C0EFFFC0
:1090E000390EDBCFE9FFDB063A0EDBCFEAFF01E208
:1090F000DB06090EDBCFEFFF150EDB2A4BD995E11E
:10910000030EDBA61DD06F0EDF5C06E1C1D918E3AC
:10911000150EDB285BDA14D0780EDF5C09E0580E00
:10912000DF5C06E0620EDF5C03E0420EDF5C08E11C
:10913000020EF36E160EF3CFDBFF02D0150EDB6AC4
:10914000030EDB50100B0EE0040EDBCF14F0050E07
:10915000DB50D880145406E2060EDB5003E1040E07
:10916000DB5034DA95D90AE2050EDBCFE7FF150EA6
:10917000DB50E75E050EE7CFDBFF02D0050EDB6AB2
:10918000040EDBCF14F0160E45D9D880145414E227
:10919000160EDBCFE6FF150EDBCFE6FF040EDBCFAE
:1091A000E6FF050EDB50E552E75CE552D880E75458
:1091B000E552D880E7545FD9030EDB50010B0BE179
:1091C000080EDB5008E0B2D801E08DD0080EDB506D
:1091D000BED8080EDB6A170EDB5007E088D9170EE1
:1091E000F1D903E1151C01E17ED0160EDB5016E02B
:1091F0007ED9300EE66E9FD802E1151C74E077D957
:10920000DFCFE6FFA3EC58F0E552E552E552F4CF8C
:1092100015F00001F31C02E1151C65E0050EDBCF23
:1092200014F0160EDB50D880145409E2050EDBCF83
:10923000E7FF160EDB50E75E050EE7CFDBFF300ED3
:10924000E66E050ECBD94FE1390EDB2ADBCFE9FF05
:109250003A0E01E3DB2ADBCFEAFF090EEFCFDBFF9B
:10926000DB500EE044D9090EADD902E1151C3BE0FC
:10927000390EDB2ADBCFE9FF3A0EEDE3DB2AEBD731
:1092800055D831E1160EDBCFE6FF080EC3D8E55204
:10929000E7245DD82ED0070EDB50030A1CE0010A3C
:1092A00014E0030A07E07BD9DBCFEEFF020EDBCF31
:1092B000EDFF1FD0F5D8196A17AE02D018681968EB
:1092C0002CD8BCD819C0EEFF14D0EAD817BE186845
:1092D00024D8B4D80ED063D9DBCFEFFF0AD07BD926
:1092E00005E1151C03E1F368F46810D0FCD801E334
:1092F000DB2A79D918EF45F0010EDBCF14F0020E0E
:10930000DBCF15F014C0F3FF15C0F4FF3B0EE15C9A
:1093100002E2E16AE552E16ECBD029D9020E7EEF7E
:109320004AF061D90800F550DF6E1200200EE66E9B
:10933000080EEEEF4AF0A3EC58F0E552E552E55284
:10934000F3CF14F0F4CF15F00001F31C1200146EEB
:10935000156AD950010F4DD91450EE261550ED2243
:109360001200185E000E195AF70E18C0DBFFF80E37
:1093700019C0DBFF18C0E9FF19C0EAFF1200DBCFFC
:10938000F4FFF350F45C1200DB50E76E040EE7CFFD
:10939000DBFF12000A0EDBCF14F00B0EDBCF15F053
:1093A0000C0EDBCF16F00D0EDBCF17F0145015109E
:1093B000161017101200130EEECFDBFF140EEDCFB8
:1093C000DBFF130EDBCF14F0140EDBCF15F0000122
:1093D000800E15141200F70EDBCF18F0F80EDBCF5D
:1093E00019F01200050EDB50E66ED950130F01D9AB
:1093F000E552E750EE6EED6A12000A0EDBCF06F082
:109400000B0EDBCF07F00C0EDBCF08F00D0EDBCF21
:1094100009F01200DBCFE6FF150EDBCFE6FF050EED
:10942000DB50E552E724E552E7241200DB50CED8AA
:10943000010EF36E060EF3CFDBFF1200EE50EFCFFE
:10944000EAFFE96E16C0EEFF17C0EEFF18C0EEFF90
:109450001200D9CFE6FFDACFE6FFE1CFD9FFE2CFA6
:10946000DAFF1200DFCFE6FFE66A57EC59F0E5526B
:10947000E552F3501200E76E080EE7CFDBFF120053
:10948000EECF14F0EECF15F0EFCF16F0176A120002
:10949000050EDBCF14F0150EDB50D88014541200EB
:1094A000010EDBCF16F0020EDBCF17F0186A1200A8
:1094B000E552E5CFDAFFE7CFD9FF12000A0E14C05C
:1094C000DBFF0B0E15C0DBFF1200D9500A0FF9EFBE
:1094D0004AF0F36E070EF3CFDBFF1200EECF14F06D
:1094E000EFCF15F01200010EDB2A020E1200FC0E67
:1094F000DBCFE6FFFD0EDBCFE6FF1200145E000EB1
:10950000155AF70E14C0DBFFF80E15C0DBFF14C0B0
:10951000E9FF15C0EAFF1200DA20EA6EEF2AEECF6B
:10952000F6FF000EEF22EECFF7FFEF22EECFF8FFAF
:109530001200040EDBCFE6FF130EDB50E552E75CB2
:109540009ADFDB5004DF060EDB501200090EDB5001
:109550000A0DF350DF24D00FE76E090EE7CFDBFFD3
:1095600091EF49F0DB50F36E050EBFEF49F0F70EB7
:10957000DBCF14F0F80EDBCF15F01200DFCFE6FFE3
:109580009BEF49F028DF030EECDE40EF4AF0EDECF4
:1095900044F0E552E552E552E55200091200BDDE05
:1095A000EE50EFCFEAFFE96E010E1200130EDB5012
:1095B000F36E040EBFEF49F0040EDB50F36E090E9C
:1095C000BFEF49F0DBCFE6FF9BEF49F0E76E050EFA
:1095D000E7CFDBFF12008BDFBEEF4AF0DBCFE6FF09
:1095E00086DFC7EF4AF0D950F90FE96EFF0E8CEF16
:0C95F0004AF0E96E000EDA20EA6E12006C
:0495FC00FF0012005A
:10960000D9CFE6FFE1CFD9FF020EE126FD0EDBCF79
:10961000DEFFDBCFDDFFD950FD0FE96EFF0EDA2054
:10962000EA6E000ED880EE54000EED5407E2000002
:10963000FD0EDB06FE0E01E2DB06EDD7020EE15C5D
:1096400002E2E16AE552E16EE552E7CFD9FF12008E
:10965000D9CFE6FFE1CFD9FF030EE126DE6ADD6A4E
:10966000DECF14F0DDCF15F0FD0EDBCF16F0FE0ED1
:10967000DBCF17F01650145C1750155817E2010E87
:10968000F36E020EF3CFDBFF640EF36E020EDBCF40
:10969000F4FFF350F45C05E200000000020EDB2A48
:1096A000F3D7DF2A010E01E3DB2ADAD7030EE15CF0
:1096B00002E2E16AE552E16EE552E7CFD9FF12001E
:1096C00026DBE652DF6A52DB156A145067DBA69E82
:1096D000A69CA680A850DF6EA6B0FED7DF50E5524C
:1096E0001BD315DB43DB155059DBFC0EDB50A86E9A
:1096F000A69EA69CA684F29E550EA76EAA0EA76EE5
:10970000A682A6B2FED7F28EA69406D300DBFD0E8B
:10971000DB50F30BCC6EFE0EDB507F0BE824CD6EDE
:10972000CF6ACE6A9E90FE0EDBAE02D09D8001D045
:109730009D90CCBECC86CD80EFD2E9DA020EE12638
:10974000FD0EDBCFDEFFDBCFDDFF010EDB50CF6E8A
:10975000DF50CE6E020EE15C02E2E16AE552E16E9C
:10976000DBD2C69A1200D3DAFE0EDB50000817E2F5
:1097700043DB61D80A0ED9DA0F010A0ED8803655BC
:10978000000E375508E2030E36190CE137510AE195
:10979000440E26DB07D0362B000E372303D00F01F3
:1097A000366B376BB9D239DBC750040B01E0010EC1
:1097B000B7DAFAE1C580C5A003D0FDD7C5B0FED7A2
:1097C000A1A602D0FF0E22D0FE0EB5DA17E1C750D7
:1097D000040B01E0010EA4DAFAE1FD0EDBCFE6FF97
:1097E0009ED9E552DF6EDF5009E1C750040B01E05E
:1097F000010E96DAFAE1FC0E9EDA03E0B2DFFD0E0E
:1098000005D0C584C5B4FED7ACDF000EE55284D2C6
:10981000C69A0F013A973A99949694988B968B989A
:10982000010E83DA8B868B88010E7FDAA196130EE8
:10983000C86EC6EF4EF06C9A0F013983398593924A
:1098400093948A928A94010E70DA8A828A84010E35
:109850006CDAA49C12008B8C8B8E949C9298938AC9
:109860000C0EE66EE66A480EE66E19EC1AF0E5524A
:10987000E552E552080EB86E05014A6B05014B6BC7
:109880000001AD91AD93AD95AD99120040DA0001A4
:109890006651040A30E0070A28E0010A1CE0030AC6
:1098A00004E0010A2BE101010DD0FE0EDB5000089F
:1098B0000FE2A2DAADDFCFDF0A0E37DA0101FF5186
:1098C0000A0804E2FF6B0001662B1AD0FF2B18D0A8
:1098D0000101FF6B15D0FE0EDB5000080FE2360EC3
:1098E0007FDA0001662B8ADE0BD0FE0EDB5000080B
:1098F00002E3010E666FFE0EDB5002E1010E666FA1
:109900000BD28BDAC750040B01E0010E09DAFAE141
:10991000C580C5A003D0FDD7C5B0FED7A1B63ED047
:10992000FE0E09DA39E1C750040B01E0010EF8D947
:10993000FAE1FD0E00DA2EE1C750040B01E0010E42
:10994000EFD9FAE1C582C5A203D0FDD7C5B2FED7D3
:10995000A1B61ED04ADA1AE1C750040B01E0010E8D
:10996000DFD9FAE1C586C5B6FED7FB0EDBCFE9FF2E
:10997000FC0EDBCFEAFFC9CFEFFFC58AC588C5B8AB
:10998000FED7C584C5B4FED7DF6A0AD0FC0E07D067
:10999000FD0E05D0FE0E03D0DF6802D0FB0EDF6E99
:1099A000C584C5B4FED714DA02E2410E19DADF50DD
:1099B000E552B2D132DAC750040B01E0010EB0D942
:1099C000FAE1C580C5A003D0FDD7C5B0FED7A1B6CA
:1099D0003ED0FE0EB0D938E1C750040B01E0010EB5
:1099E0009FD9FAE1FD0EA7D92DE1C750040B01E084
:1099F000010E96D9FAE1C582C5A203D0FDD7C5B242
:109A0000FED7F3D91DE1C750040B01E0010E88D940
:109A1000FAE1FA0EDBCFE6FFFB0EDBCFE6FFFC0E32
:109A2000DBCFE6FF1FD8E552E552E552000906E11B
:109A3000C58AC588C5B8FED7DF6A0AD0FB0E05D037
:109A4000FC0E03D0FD0E01D0FE0EDF6E01D0DF68EC
:109A5000C584C5B4FED7BCD902E2410EC1D9DF50DE
:109A6000E5525AD154D9FC0EDBCFF3FFDB06F3509D
:109A7000000919E0B4EC59F0E66E9AD901E3DB2A4B
:109A8000E552E750EF6E0F0EC614080804E00F0E03
:109A9000C6140B08E8E1FC0EDB50E5E0C59AC5886A
:109AA000C5A8E1D7FDD7000E37D131D9400EC71672
:109AB000C66AC56AFE0EDB50C612FD0EDB50C71229
:109AC0009486948894860F013A9794883A99C68A26
:109AD00023D11DD9E65274D91FE0C6A609D070D98A
:109AE000E66E1DD8E552DF6EDF5010E0DF5015D076
:109AF0009E9666D9C96EC6889EA6FED7C650100B24
:109B000005E0C750010B02E1FE0E07D0FD0EDB2A77
:109B1000FE0EE1E3DB2ADFD7000EE552FDD0F7D8D9
:109B2000FE0EDB50C96EC6AE03D01BDEFF0E29D081
:109B30000F0EC61408080FE00F0EC6140B080BE03A
:109B4000C6889EA6FED7C750040B03E1C750010B81
:109B50000FE0000E16D00F0EC614080804E00F0E1A
:109B6000C6140B080EE1C7B0FED7C5AC03D0F9DDB3
:109B7000FE0E07D0C750040B01E0010ED1D8FAE168
:109B8000000ECAD0C4D8040EE126DF6ADE52010EF0
:109B9000DD6ED7D8DB5016E1DF50146E156AD89011
:109BA000155004E6FA0E145C000E15580BE2C9D8E5
:109BB000030EDBAE02D0DF2AEFD7FA0EDF6E010E06
:109BC000DB6AEAD7010EDB50146E040EE15C02E2A0
:109BD000E16AE552E16E14509FD099D8020EE12659
:109BE000DF6A010EDB6A0FD96BB0FED7A4BC3AD096
:109BF0006ED8D00E6F6E6DB0FED76BBC2FD06BD809
:109C000066D8FC0EDB506F6E6BBC25D06DB0FED7F6
:109C100062D86B826BB2FED7A4BC1AD0D10E6F6E25
:109C20006BBC13D058D85DD8C3D801E3DB2A6FCF03
:109C3000EFFF6B8A6B886BB8FED74DD864D8C5B47C
:109C4000FED763D8E4D8000E18D0DE52FB0E08D041
:109C5000DE52FC0E05D0DE52FD0E02D0DE52FE0EAC
:109C6000DD6E02D0010EDB6850D8A49CA1D801E3C0
:109C7000DB2AEF6ACCD8010EDB50146E020EE15CD9
:109C800002E2E16AE552E16E145046D040D8BBD8FA
:109C90006BB0FED71CD8A4BC11D0D00E6F6E17D8F5
:109CA0006BBC0CD0FE0EDB506F6E11D86BBC06D0B7
:109CB000FD0EDB506F6E0BD86BAC03D026D8A49C86
:109CC00005D021D86BB4FED702D81FD825D0A4AEBA
:109CD000FED7A49E12006DB4FED71F0E6B14FDE1DB
:109CE00012006B866BB6FED71200938293840F012D
:109CF00039933995C00E6D6E130E6E6E280E6C6E14
:109D000012006B8012006B8412006C9A1200D9CF83
:109D1000E6FFE1CFD9FF1200E552E7CFD9FF1200ED
:109D2000146E1F0EC51414101200E66EE66A90DC65
:109D3000E552E5521200DBCFE6FFF1DEE552000905
:109D40001200D950030FE66E000EDA20E66E5F0EA9
:109D5000E66EFE0EDBCFE6FFD4DDE552E552E552BE
:109D6000E552E76E020EE7CFDBFF12005BD8FF0E75
:109D70001416030E1516FD0E14C0DBFFFE0E15C0E3
:109D8000DBFFDBCF15F015C014F01200800EE66E7D
:109D9000080EE66E8ADEE552E5521200AA6EFF0E4C
:109DA000E76E40D8E7501416156A1450A96E1200D9
:109DB000FD0EDBCFE9FFDB2AFE0EDBCFEAFF120050
:109DC000FD0EDBCFE9FFFE0EDBCFEAFFEF50120006
:109DD000C8DCDFCFE6FF5ADDE552DF500008120095
:109DE000E66E86EC1AF0E5521200FE0EDB28E66EF7
:109DF00096DEE552000912000401002B000E01233B
:109E000002230323120071DF66DF81EF4EF0010EA3
:109E1000DBCFE6FFA8DCE552120079DFE652DF6A0D
:109E2000C6EF4EF0FD0EDBCF14F0FE0EDBCF15F0CB
:029E300012001E
:0E9E3200019E05D0019E09AE02D0096C018E82
:109E400009C003F0026A136A126A860E046E056A7C
:109E5000D8EF51F0019E08D0019E09AE05D0086CE4
:109E6000091EE86A0922018E09C003F008C002F049
:109E7000136A126A8E0E046E056AD8EF51F0019EC5
:109E80000CD0019E09AE09D0066C071E081E091EE3
:109E9000E86A072208220922018E09C003F008C0DF
:109EA00002F007C013F006C012F09E0E046E056AA1
:109EB000D8EF51F00F7E016A14EC52F02CEC52F006
:109EC00001B6BCEF51F001A20AD001AA03D001BE35
:109ED000BCEF51F001A4C8EF51F0C5EF51F001AA59
:109EE00005D001ACC8EF51F0C5EF51F001A00AD088
:109EF00001A808D001BE04D001A402D0D1EF51F0D6
:109F0000D5EF51F0126A056A0F500A5C116E10E32A
:109F100007C013F008C002F009C003F00AC010F037
:109F20000CC007F00DC008F00EC009F0013A09D0CE
:109F30000CC013F00DC002F00EC003F00FC010F003
:109F4000116C019E01BC018E10C004F001B004EF41
:109F500052F01A0E116004EF52F0046A0A6A01A46A
:109F600008D0076C081E091E0A1EE86A082209228A
:109F70000A2201AC08D0136C021E031E041EE86AFC
:109F8000022203220422066A115207E00A3409322F
:109F9000083207320632112EF9D70750132608501F
:109FA0000222095003220A50042206C012F0019E28
:109FB00004AE0BD0126C131E021E031E041EE86AB0
:109FC0001322022203220422018E04A006D0D8808C
:109FD0000332023213321232102A10C004F0D8EFCA
:109FE00051F0016A14EC52F02CEC52F001B6BCEFC7
:109FF00051F001A205D001BABCEF51F0C3EF51F00E
:10A0000001BACFEF51F001A005D001B8BCEF51F07B
:10A01000CFEF51F001B8C3EF51F0056A7F0E0A246B
:10A02000046EE86A05220F50045EE86A055A1A0EAB
:10A03000106E0A6A126A136A026A036A0C50075E9B
:10A040000D50085A0E50095A000E0A5A09E70C50D2
:10A0500007260D5008220E500922000E0A2201D0B8
:10A06000128AD8900736083609360A36D890123642
:10A07000133602360336102EE1D7095008100710A8
:10A08000D8A4128AD8EF51F0016A14EC52F02CECEB
:10A0900052F001B6BCEF51F001A205D001B8BCEFFF
:10A0A00051F0C3EF51F001AA05D001B0BCEF51F05F
:10A0B000C3EF51F001B002D001A802D0CFEF51F0B0
:10A0C000056A0F500A24046EE86A05227E0E045EBB
:10A0D000E86A055A126A136A026A036A0E50090294
:10A0E000F4CF03F0F3CF02F00D500902F350132622
:10A0F000F4500222000E03220E500802F3501326E1
:10A10000F4500222000E03220C500902F3501226D2
:10A11000F4501322000E022203220D500802F350C5
:10A120001226F4501322000E022203220E500702C0
:10A13000F3501226F4501322000E022203220C5078
:10A140000802F4501226000E1322022203220D50A0
:10A150000702F4501226000E132202220322D8EF27
:10A1600051F0006A0EAEBAEF50F00D6C0E1EE86AA8
:10A170000E22001E09AEC2EF50F0086C091EE86AFC
:10A180000922001E41EC59F009BED2EF50F000AE9A
:10A19000000C086C091EE86A0922046C051EE86AB6
:10A1A0000522000C00BEC9EF50F00188FF0C006AC8
:10A1B000E86A0EAEE4EF50F00B6C0C1E0D1E0E1E86
:10A1C0000C220D220E22001E09AEEFEF50F0066C9D
:10A1D000071E081E091E072208220922001E1DEC68
:10A1E00059F009BE06EF51F000AE000C066C071ED8
:10A1F000081E091EE86A072208220922026C031EB3
:10A20000041E051E032204220522000C00BEF6EFE8
:10A2100050F00188FF0C09C013F008C012F008507C
:10A220000D02F4CF07F0F3CF06F009500E02F4CF81
:10A2300009F0F3CF08F00D02F3500726F45008227E
:10A24000E86A092212500E02F3500726F450082241
:10A25000E86A09220EAE31EF51F01250085E135039
:10A26000095A13AE000C0D50085E0E50095A000C2E
:10A2700008C012F008500D02F4CF07F0F3CF06F03B
:10A2800009500E02F4CF09F0F3CF08F00D02F3509D
:10A290000726F4500822E86A092212500E02F350F1
:10A2A0000726F4500822E86A0922000C016A14EC1F
:10A2B00052F001B660EF51F001A20ED001B405D00A
:10A2C0007F0E096EFF0E086E1FD0800E096E086AA1
:10A2D0001BD0096A086A18D001B0FBD78F0E0A603C
:10A2E000EDD77E0E0A64F5D78E0E0A5C05E0D89095
:10A2F000093208320A2AF8D701A406D0086C091ED0
:10A30000E86A092209AEE5D71200016A14EC52F09E
:10A3100001B68FEF51F001A20FD001B407D07F0E2C
:10A32000096EFF0E086E076E066E25D0800E096E50
:10A3300001D0096A000EF6D701B0FBD7066A9F0E5E
:10A340000A60EBD77E0E0A64F4D79E0E0A5C07E023
:10A35000D89009320832073206320A2AF6D701A409
:10A360000AD0066C071E081E091EE86A072208228A
:10A37000092209AEDED712007F0E0A6EFF0E096EAB
:10A38000086E076E12007F0E01BEFF0E0A6E02D02D
:10A390007F0E0A6E800E096E086A076AF3D701AE57
:10A3A00004D0800E0A6E096AF7D70A6A096AF4D7E0
:10A3B0000350021013101210F8E005BEF0D703BED0
:10A3C0000CD004500510EBE0D8901236133602364C
:10A3D00003360406D8A00506F2D70550D4E10428B8
:10A3E000D2E012AE11D07F0E121402E113A00CD0F5
:10A3F000132AE86A0222032207E3D88003320232DA
:10A400001332042A0428BFE00450C9E013C007F047
:10A4100002C008F00334096E04300A6E09320A9E45
:10A4200001BE0A8EC2EF51F009360A3602E30184FA
:10A43000017E06E101800A6A096A086A076A120059
:10A440000A2803E0D88009321200D890093202E1CC
:10A4500001821200018612000E360F3602E3018CD3
:10A46000017E06E101880F6A0E6A0D6A0C6A12000D
:10A470000F2803E0D8800E321200D8900E32EAE1A5
:04A48000018A12003B
:0CA484004DDADF6A060EDF5C06E2DF50F6
:10A490005EDADF5010DADF2AF7D7E5522DD252DA32
:10A4A0009FC0E6FFADDAA0C0E6FF010E59DA9DC0FD
:10A4B000E6FF020E55DA9EC0E6FF030E51DA1CD20B
:10A4C00099DA020E44DA020EF6D9030E40DA030ED0
:10A4D000F2D912D237DA6EC6E6FF92DA0DD203DA7B
:10A4E0000BD230DA020EE12636DA8DDADF6E010E9B
:10A4F000C3D989DAE76E010EE7CFDBFFDB2ADB5039
:10A5000001E1DF2ADFCFE6FF7BDA010EDBCFE6FFDA
:10A5100027DA020EE15C02E2E16AE552E16EECD17B
:10A5200069DAEAD10FDAFE0EDBCFF7F3F7C3E6FF05
:10A53000070EE6D9E1D106DAFE0EDB507F0BE76E9F
:10A54000FE0EE7CFDBFF0301F09F3EDA0301070BAE
:10A55000DDD98F0EF015F310F06F39DA0301E3D96E
:10A56000F015F310F06FE66EE66A46EC4EF0E55239
:10A57000E552FE0EDBCF16FFBFD1E4D90301F19FF8
:10A5800023DA0301070BC2D98F0EF115F310F16F17
:10A590001EDA0301C8D9F115F310F16FE66E010E52
:10A5A00026DADBCF15FFA8D1C2D9FE0EDB50F29D13
:10A5B000E8B0F28DF2C3E6FF020EA2D99DD1B7D961
:10A5C00003DA0301030BA2D9CF0EF215F310F26FD9
:10A5D000FED90301A8D9F215F310F26FE66E020E50
:10A5E00006DADBCF14FF14DAB00EC0D1ABD9030109
:10A5F000F49DF49FE9D90301030B88D9CF0EF4151C
:10A60000F310F46FE4D903018ED9F415F310F46F4D
:10A61000E66E040EECD9DBCF13FFFAD9AF0EA6D14C
:10A6200091D90301F59BF59DF59FCED90301F599CD
:10A63000E8B0F589CCD9030176D9F515F310F56F9B
:10A64000E66E050ED4D9DBCF12FFE2D9AE0E8ED165
:10A6500079D9BAD903010F0B59D90F0EF615F3109A
:10A66000F66FB5D903015FD9F615F310F66FE66EF4
:10A67000060EBDD9DBCF11FFCBD9AD0E77D162D994
:10A68000FD0EDBCFE6FFFE0EDB50080F39D934D1CB
:10A6900047D9DF6A0301F06BF16BF26BF36BF46B7C
:10A6A000F56BF66BE66AF00EE66E030E5CD931E3ED
:10A6B000010EE66EF10EE66E030E55D92AE3020E88
:10A6C000E66EF20EE66E030E4ED923E3030EE66E3F
:10A6D000F30EE66E030E47D91CE3040EE66EF40E8D
:10A6E000E66E030E40D915E3050EE66EF50EE66E36
:10A6F000030E39D90EE3060EE66EF60EE66E030E75
:10A7000032D907E3070EE66EF70EE66E030E2BD97D
:10A7100002E2010E01D0000EE552EED00001B5A913
:10A7200007D0E66AF00EE66E030EBED8C4EF54F012
:10A730000001BF5112000001B5A908D0010EE66E5C
:10A74000F10EE66E030EB0D8CCEF54F00001BE510E
:10A75000120011D9400B01E0010E12000001B5A951
:10A7600003D009D9EAEF54F00001BD5112000001F5
:10A77000B5A908D0040EE66EF40EE66E030E94D86A
:10A78000D4EF54F00001BC5112000001B5A90DD066
:10A79000050EE66EF50EE66E030E86D8CCD801E007
:10A7A000010E0A0DF350142412000001BB511200D7
:10A7B0000001B5A908D0060EE66EF60EE66E030E91
:10A7C00073D8DCEF54F00001BA511200A9D8FE0E84
:10A7D000DB50080FE66ED9CFE6FFDACFE6FFEDECEF
:10A7E0004DF0E552E552E552DF50E55285D00001CB
:10A7F000B5A91BD04DDFE0D80001BA6F9CD801E0AD
:10A80000010E0A0DF35014240001BB6FCDD80001D6
:10A81000BC6F0301F251DED80001BD6FBDD800014D
:10A82000BE6FB2D80001BF6F120011CFBAF012CFC5
:10A83000BBF013CFBCF014CFBDF015CFBEF016CFD8
:10A84000BFF012007FD8D3DFBAC0E6FFD9D8BBC0B3
:10A85000E6FF010E85D8BCC0E6FF020E81D8BDC060
:10A86000E6FF030E7DD8BEC0E6FF040E79D8BFC058
:10A87000E6FF050E75D840D0E76EFD0EDBCF14F075
:10A88000FE0EDBCF15F0E7501426000E152214C083
:10A89000E6FF15C0E6FF12000A0E146E0E6EFE0EE5
:10A8A000DBCF09F0A6EF59F0E66EEDEC4DF0E55286
:10A8B000E552E5521200E76E93D8E750E926000E04
:10A8C000EA22E552E750EF6E120071EC4BF0E552D0
:10A8D000E552E5521200E842E842E842E8420A0D39
:10A8E000F350142412002ED836D88DD8E66E78D8BE
:10A8F000E552E750EF6E1200E552E7CFD9FF1200A4
:10A90000E66E46EC4EF0E552E5521200F36EF34669
:10A91000F346F346F3461200DF6EDF5000081200E4
:10A9200011D8E65212000F0BF36EF00E12000AD887
:10A930000301F29F12000301F5510F0B146EF55144
:10A94000100B1200D9CFE6FFE1CFD9FF120094DF40
:10A950005AD8E66E1200FD0EDBCFE6FF08EF55F089
:10A960008BDF65EF54F0A0DF8CEF54F0E66E030E42
:10A97000E66EABDFC1D7020EE66EF20EE66E030E98
:10A9800093DF0301F25112000301F0510F0B146E1B
:10A99000F051700B6BEF54F00301F1510F0B146E7B
:10A9A000F151700B6BEF54F00301F4510F0B146E67
:10A9B000F451300B6BEF54F00301F6510F0B146E92
:10A9C000F651F00B6BEF54F067DF0950120064DFB3
:10A9D000055012000F0B146EF251300B6BEF54F058
:10A9E000FB0EDBCFE9FFFC0EDBCFEAFF120088DFB6
:10A9F000FE0E120078DF010EAADF010E5BEF54F0AD
:10AA0000AADF65EF54F060EC4BF0E552E55212001E
:08AA1000FE0EDBCFE6FF120091
:08AA18000D0A537461727420F1
:10AA200075702E002D50414E41333245000D257377
:10AA3000005468697320697320612057726F6E67D4
:10AA40002070726F6772616D2E0A0D000A0D674FDC
:10AA500076657243757272436861726765456E61AF
:10AA6000626C65466C61673D25642C20674F766596
:10AA70007243757272446973636861726765456E8B
:10AA800061626C65466C61673D25642C20674C6F84
:10AA900077566F6C74446973636861726765456E5D
:10AAA00061626C65466C61673D25642C2067525479
:10AAB0004354696D65724F6B466C61673D25640058
:10AAC0000A0D464343557064617465466C61673D89
:10AAD00025642C2046756C6C436861726765466C12
:10AAE00061673D25642C204564763255706461743D
:10AAF00065466C61673D25642C20434F46463D25E5
:10AB0000642C20444F46463D25642C2042616C61F4
:10AB10006E63653D2564000A0D674F7A3150726F90
:10AB200074656374696F6E4461746131203D2025E2
:10AB3000303258482C20674F7A3150726F746563F9
:10AB400074696F6E4461746132203D202530325843
:10AB5000482C20674F7A3250726F74656374696F46
:10AB60006E4461746131203D2025303258482C20DC
:10AB7000674F7A3250726F74656374696F6E4461A7
:10AB8000746132203D2025303258482C20000A0DB7
:10AB900054656D702E204320726167653A207E25D2
:10ABA0006443203D20256C75732C202564437E254D
:10ABB0006443203D20256C75732C202564437E253D
:10ABC0006443203D20256C75732C202564437E252D
:10ABD0006443203D20256C75732C202564437E2022
:10ABE0003D20256C7573000A0D44697363686172BA
:10ABF0006765204320726167653A207E25644120A5
:10AC00003D20256C75732C202564417E25644120F0
:10AC10003D20256C75732C202564417E25644120E0
:10AC20003D20256C75732C202564417E25644120D0
:10AC30003D20256C75732C202564417E203D202508
:10AC40006C75730025642C000A0D20576F726B2001
:10AC50003153204C6F6164696E67203D20000A0DFE
:10AC60002067525443536574436F756E743D257568
:10AC70002C2067527463506F7765724F6666436F1E
:10AC8000756E743D2575000A0D206753656C66442A
:10AC90006973636861726765466363436F756E7459
:10ACA0003D2564000A0D206D5F52435F52656320AD
:10ACB0003D20256C646D4148000A0D2067436861A2
:10ACC0007267655265636F7264496E646578203D92
:10ACD00020256420000A0D2067436861726765546F
:10ACE000696D65203D2025752053000A0D206743BE
:10ACF0006861726765496E74657276616C54696DDE
:10AD000065203D20256C752053000A0D206743689F
:10AD100061726765496E74657276616C54696D65C0
:10AD2000486973746F7279203D20256C752053003B
:10AD30000A0D20446973636861726765416363202B
:10AD40003D20256C646D4148000A0D204663634434
:10AD50004352203D20256C646D4148000A0D204679
:10AD60004343303037203D20256C646D4148000A54
:10AD70000D206D5F43656C6C5F566D61783D256499
:10AD80002C206D5F43656C6C5F566D696E3D25646C
:10AD9000000A0D204C61737420536C65657020634C
:10ADA0006F756E74202873656329203D20256C64BF
:10ADB000000A0D204379636C6520436F756E742023
:10ADC0002D2D3E2067446973636861726765416336
:10ADD000633D256C646D4148000A0D20576F726B0E
:10ADE00042757379436F756E74203D2025642C2065
:10ADF0002564000A0D3230253032642F253032644C
:10AE00002F2530326420253032643A253032643ABE
:10AE100025303264204163743D2530325848205338
:10AE20004F433D256420466C61673D2530325848CC
:10AE3000202530325848000A0D2573002C20204D63
:10AE400043552054696D6572203D203230253032E3
:10AE5000642F253032642F25326420253032643A45
:10AE6000253032643A25303264000A0D20525443B2
:10AE70002054696D6572203D203230253032642FB8
:10AE8000253032642F25326420253032643A253053
:10AE900032643A25303264000A0D4175746F2062C5
:10AEA000616C616E63653A204F4E000A0D42617419
:10AEB0007465727920747970653A2050414E41333F
:10AEC00032455F47563732353300200A0D53696EDD
:10AED000676C6520436F6D6D616E64000A0D2573AC
:10AEE00020202025732020202573000A0D20736860
:10AEF0006F775F75736167655F74656D705F636FB2
:10AF0000756E7428292C20256C642C20256C642CEB
:0FAF100020256C642C20256C642C20256C64009B
:10AF2000D9CFE6FFDACFE6FFFA0EE3CFD9FFFB0E6B
:10AF3000E3CFDAFFFC0EE3CFE9FFFD0EE3CFEAFF3C
:10AF4000E9CFF3FFEACFF4FFF80EE35003E1F90E87
:10AF5000E35008E0F80EE30602E2F90EE306DECF66
:10AF6000EEFFF2D7FF0EE3CFDAFFE552FF0EE3CF9D
:10AF7000D9FFE5521200FE0EE3CFE9FFFF0EE3CF4B
:10AF8000EAFFE9CFF3FFEACFF4FFFB0EE35003E162
:10AF9000FC0EE35009E0FB0EE30602E2FC0EE306C2
:10AFA000FD0EE350EE6EF1D71200FE0EE3CFE9FF87
:10AFB000FF0EE3CFEAFFF36AF46AEE5203E0F34ACE
:10AFC000F42AFBD71200FF0EE3CFF8FFE552FF0E85
:10AFD000E3CFF7FFE552FF0EE3CFF6FFE552E66A57
:10AFE000E66AE66A0900F55209E0FD0EE32A05E18A
:10AFF000FE0EE32A02E1FF0EE32AF4D7FD0EE3CFB3
:10B0000007F0FE0EE3CF08F0FF0EE3CF09F01200C9
:10B010001E0EF66E040EF76E000EF86E00010900AB
:10B02000F550E06F0900F550E16F03E1E06701D0F2
:10B030003DD00900F550DB6F0900F550DC6F0900C9
:10B04000F550DD6F09000900F550E96E0900F55073
:10B05000EA6E090009000900F550DE6F0900F5509D
:10B06000DF6F09000900F6CFE2F0F7CFE3F0F8CF89
:10B07000E4F0DBC0F6FFDCC0F7FFDDC0F8FF000145
:10B08000DE5302E1DF5307E00900F550EE6EDE0704
:10B09000F8E2DF07F9D7E2C0F6FFE3C0F7FFE4C04C
:0EB0A000F8FF0001E007000EE15BBFD71200D1
:02B0AE00D9CFF8
:10B0B000E6FFDACFE6FFE1CFD9FFE2CFDAFFE652D3
:10B0C000E652E652E652D950FB0F146EFF0EDA201C
:10B0D000156E14C0DEFFDD6EDECFE6FFDDCFE6FFCE
:10B0E000FB0EDBCFE6FFFC0EDBCFE6FFFD0EDBCF7A
:10B0F000E6FFFEC3E6FFFFC3E6FF03EC45F0146E78
:10B10000070EE15C02E2E16AE552E16E1450020EC4
:10B11000F3CFDBFF030EF4CFDBFF020EDBCF14F027
:10B12000030EDBCF15F014C0F3FF15C0F4FF040EBF
:10B13000E15C02E2E16AE552E16EE552E5CFDAFF59
:06B14000E7CFD9FF120069
:0AB14600D9CFE6FFDACFE6FFE1CF34
:10B15000D9FFE2CFDAFFFB0EDBCF14F0FC0EDBCF22
:10B1600015F00001800E15141AE1FB0EDBCFE9FF8C
:10B17000FC0EDBCFEAFFEECFF3FFEDCFF4FFEE2ABC
:10B18000000EEF22F3CFE9FFF4CFEAFFFD0EDBCF95
:10B19000EFFFEF50156AF36E15C0F4FF10D0FB0EF1
:10B1A000DB50FE0806E1FD0EDBCFE6FF98EC59F020
:10B1B00005D0FD0EDBCFE6FF03EC02F0E552E552D1
:0AB1C000E5CFDAFFE7CFD9FF120058
:06B1CA0006500B02F3CF5A
:10B1D00002F0F4CF03F00C02F3500326000EF4202B
:10B1E000046E06500D02F3500426000EF420056E86
:10B1F00006500E02F350052607500B02F3500326AB
:10B20000F4500422000E052207500C02F3500426CD
:10B21000F450052207500D02F350052608500B028A
:10B22000F3500426F450052208500C02F350052672
:0AB2300009500B02F350052612002E
:06B23A00056A046A036AC4
:10B24000026A200EE76ED8900636073608360936B1
:10B2500002360336043605360B50025C0C50035898
:10B260000D5004580E50055809E30B50025E0C5067
:10B27000035A0D50045A0E50055A062AE72EE4D7F9
:02B280001200BA
:0EB28200056A046A100EE76ED8900836093689
:10B29000043605360D50045C0E50055805E30D507C
:0EB2A000045E0E50055A082AE72EF0D7120061
:02B2AE00F36A41
:10B2B000F46AFF0EE124E96EFF0EE220EA6EED660D
:10B2C00007D02F0EEF6404D03A0EEF6001D0F32ABE
:02B2D00012006A
:0EB2D200D9CFE6FFDACFE6FFE1CFD9FFE2CF1A
:10B2E000DAFFFD0EDB50B86EE552E5CFDAFFE7CFAF
:04B2F000D9FF120070
:0CB2F400380EF36E00EE00F00F0E01D8D3
:10B300001200EA6002D0EE6AFCD7F350E960120046
:04B31000EE6AFCD70E
:0CB314001EEE00F02EEE00F0F86A019C26
:10B3200008EC58F007EC02F070EC1EF0FBD71200AE
:10B33000FF0EE350ACBA04D0AF6AAB8EAC8A949CDB
:0CB34000ACA2FED7AD6EF36EF46A1200F2
:04B34C00056A080E78
:10B35000E76ED890093605360E50055C02E3056E9F
:08B36000092AE72EF7D71200BD
:08B368000F0EC614080804E0F2
:10B370000F0EC6140B0801E1C586C7A0FED7C95041
:02B380001200B9
:0EB38200303132333435363738396162636426
:03B39000656600EF
:0DB3930000000000000000000000000000AD
:10B3A000000000000000000000000000000000009D
:10B3B0000000FFFF0000B0040000000000000000DB
:10B3C000000000000000000000000000000000007D
:09B3D00000000000000000000074
:07B3D9005630322E30322EF7
:10B3E00030362E3437003C3035313947303E004757
:10B3F0004F544543482D454E4552475920544543E7
:10B40000482E2F47562D37322D35332D56312E30BD
:10B41000302D526576303141000000000000000000
:10B42000000000000000000100000000000000001B
:03B4300000000019
:0DB433000000000001E809200B590B920BEE
:10B44000D70B240C540C8F0CC10C0E0D480D7A0A2E
:10B450007A0A7A0A6A0A590A460ABA440000BA44C1
:10B460000000BA4400004D7C000041B3000010F71A
:10B4700000000000000000000500000000000000C7
:10B480000000000000000000000005051F1C1F1E3A
:10B490001F1E1F1F1E1F1E1F6079FEFFC8BBFEFF61
:0EB4A00090EEFEFF0000000003050700000014
:02B4AE005555F2
:09B4B0006300010100000000012D
:020000040030CA
:010001006896
:0100020003FA
:0100030027D5
:01000500BF3B
:010006008574
:010008000FE8
:01000900C036
:01000A000FE6
:01000B00E014
:01000C000FE4
:01000D0040B2
:00000001FF
