:020000040000FA
:060000002DEF5EF012007E
:0A00060000000000000000000000F0
:1000100000000000000000000000000000000000E0
:1000200000000000000000000000000000000000D0
:1000300000000000000000000000000000000000C0
:060400002DEF5EF012007A
:020406001200E2
:06040800A7EF2CF012002A
:02040E001200DA
:02041000FEFFED
:0304120000C0A87F
:06041800E7EF2CF01200DA
:02041E000600D6
:1004200012040000F304000003000000AEBD000051
:10043000000600001E00000084BD0000000F000048
:100440002A00000025BD0000000500005F0000003C
:1004500010040000FE02000002000000D9BC0000F1
:08046000A70400004C0000009D
:08046800FF001200D9CFE6FFEE
:10047000E1CFD9FF020EE126FD0EDBCFDEFFDBCFA1
:10048000DDFFD950FD0FE96EFF0EDA20EA6E000E97
:10049000D880EE54000EED5407E20000FD0EDB069E
:1004A000FE0E01E2DB06EDD7020EE15C02E2E16A3C
:1004B000E552E16EE552E7CFD9FF1200D9CFE6FF52
:1004C000E1CFD9FF030EE126DE6ADD6ADECF14F04C
:1004D000DDCF15F0FD0EDBCF16F0FE0EDBCF17F0F3
:1004E0001650145C1750155817E2010EF36E020EE9
:1004F000F3CFDBFF640EF36E020EDBCFF4FFF3509D
:10050000F45C05E200000000020EDB2AF3D7DF2ACC
:10051000010E01E3DB2ADAD7030EE15C02E2E16AB5
:10052000E552E16EE552E7CFD9FF1200D9CFE6FFE1
:10053000E1CFD9FFE652DF6AFD0EDBCF14F0FE0EED
:10054000DBCF15F0FF0E1416030E1516FD0E14C0AA
:10055000DBFFFE0E15C0DBFFDBCF15F015C014F07E
:10056000156A1450AA6EFF0EE76EFD0EDBCF14F075
:10057000FE0EDBCF15F0E7501416156A1450A96E65
:10058000A69EA69CA680A850DF6EA6B0FED7DF5020
:10059000E552E552E7CFD9FF1200D9CFE6FFE1CF10
:1005A000D9FFFD0EDBCF14F0FE0EDBCF15F0FF0EF2
:1005B0001416030E1516FD0E14C0DBFFFE0E15C03B
:1005C000DBFFDBCF15F015C014F01550AA6EFF0E3F
:1005D000E76EFD0EDBCF14F0FE0EDBCF15F0E7501B
:1005E0001416156A1450A96EFC0EDB50A86EA69E58
:1005F000A69CA684F29E550EA76EAA0EA76EA68292
:10060000A6B2FED7F28EA694E552E7CFD9FF12002C
:10061000D9CFE6FFE1CFD9FFFD0EDB50F30BCC6E57
:10062000FE0EDB507F0BE824CD6ECF6ACE6A9E9023
:10063000FE0EDBAE02D09D8001D09D90CCBECC865C
:10064000CD80E552E7CFD9FF1200D9CFE6FFE1CF49
:10065000D9FF020EE126FD0EDBCFDEFFDBCFDDFF93
:10066000010EDB50CF6EDF50CE6E020EE15C02E277
:10067000E16AE552E16EE552E7CFD9FF1200C69A72
:100680001200D9CFE6FFE1CFD9FFE652DF6A800E34
:10069000E66E080EE66E1EDAE552E552C750040B10
:1006A00001E0010E146E1F0EC5141410F7E1C58091
:1006B000C5A003D0FDD7C5B0FED7A1A602D0FF0EBE
:1006C00030D0FE0EDBCFE6FF5DDAE552000921E116
:1006D000C750040B01E0010E146E1F0EC514141058
:1006E000F7E1FD0EDBCFE6FF4DDAE552DF6EDF50BE
:1006F00010E1C750040B01E0010E146E1F0EC5146B
:100700001410F7E1FC0EDBCFE6FF3CDAE5520009FE
:1007100003E0B5DFFD0E05D0C584C5B4FED7AFDF5D
:10072000000EE552E552E7CFD9FF1200C69A0F013D
:100730003A973A99949694988B968B98010EE66E18
:10074000E66ABCDEE552E5528B868B88010EE66ECA
:10075000E66AB4DEE552E552A196130EC86E800E2D
:10076000E66E080EE66EB6D9E552E55212006C9AB6
:100770000F0139833985939293948A928A94010E5A
:10078000E66EE66A9BDEE552E5528A828A84010EB5
:10079000E66EE66A93DEE552E552A49C34EF07F07C
:1007A000D9CFE6FFE1CFD9FF00016551040A47E048
:1007B000070A35E0010A26E0030A04E0010A42E1E3
:1007C000060117D0FE0EDB50000819E20F01002BC6
:1007D000000E012302230323A9DFD8EC2DF00A0E1B
:1007E000E66EE66A6BDEE552E552060120510A0824
:1007F00004E2206B0001652B27D0202B25D00601B9
:10080000206B22D0FE0EDB5000081CE2360EE66E96
:1008100038EC2EF0E5520001652B26DE15D0FE0ED9
:10082000DB5000080AE2430EE66E38EC2EF0E5528B
:10083000CDEC3BF00001652B02D0010E656FFE0E82
:10084000DB5002E1010E656FE552E7CFD9FF1200E0
:10085000D9CFE6FFE1CFD9FFE652DF6A800EE66E20
:10086000080EE66E37D9E552E552C750040B01E099
:10087000010E146E1F0EC5141410F7E1C580C5A03B
:1008800003D0FDD7C5B0FED7A1B654D0FE0EDBCF46
:10089000E6FF78D9E55200094BE1C750040B01E0AF
:1008A000010E146E1F0EC5141410F7E1FD0EDBCF00
:1008B000E6FF68D9E552000939E1C750040B01E0B1
:1008C000010E146E1F0EC5141410F7E1C582C5A2E7
:1008D00003D0FDD7C5B2FED7A1B626D0FE0EDB28C9
:1008E000E66E50D9E55200091DE1C750040B01E046
:1008F000010E146E1F0EC5141410F7E1C586C5B69F
:10090000FED7FB0EDBCFE9FFFC0EDBCFEAFFC9CF42
:10091000EFFFC58AC588C5B8FED7C584C5B4FED764
:10092000DF6A0AD0FC0E07D0FD0E05D0FE0E03D004
:10093000DF6802D0FB0EDF6EC584C5B4FED79FDE34
:10094000DFCFE6FF2DDFE552DF50000805E2410E64
:10095000E66E38EC2EF0E552DF50E552E552E7CF77
:10096000D9FF1200D9CFE6FFE1CFD9FFE652DF6A07
:10097000800EE66E080EE66EADD8E552E552C75021
:10098000040B01E0010E146E1F0EC5141410F7E1E4
:10099000C580C5A003D0FDD7C5B0FED7A1B654D041
:1009A000FE0EDBCFE6FFEED8E55200094AE1C75064
:1009B000040B01E0010E146E1F0EC5141410F7E1B4
:1009C000FD0EDBCFE6FFDED8E552000938E1C75067
:1009D000040B01E0010E146E1F0EC5141410F7E194
:1009E000C582C5A203D0FDD7C5B2FED7FE0EDB2857
:1009F000E66EC8D8E552000920E1C750040B01E0BB
:100A0000010E146E1F0EC5141410F7E1FA0EDBCFA1
:100A1000E6FFFB0EDBCFE6FFFC0EDBCFE6FF2BD8BD
:100A2000E552E552E552000906E1C58AC588C5B818
:100A3000FED7DF6A0AD0FB0E05D0FC0E03D0FD0EF8
:100A400001D0FE0EDF6E01D0DF68C584C5B4FED7CD
:100A500016DEDFCFE6FFA4DEE552DF50000805E238
:100A6000410EE66E38EC2EF0E552DF50E552E552CD
:100A7000E7CFD9FF1200D9CFE6FFE1CFD9FFFC0EB7
:100A8000DBCFF3FFDB06F35000091FE057EC5EF00D
:100A9000E66EFD0EDBCFE9FFDB2AFE0EDBCFEAFFC1
:100AA00001E3DB2AE552E750EF6E0F0EC61408088B
:100AB00004E00F0EC6140B08E2E1FC0EDB50DFE091
:100AC000C59AC588C5A8DBD7FDD7000EE552E7CF8C
:100AD000D9FF1200D9CFE6FFE1CFD9FF400EC716EC
:100AE000C66AC56AFE0EDB50C612FD0EDB50C71289
:100AF0009486948894860F013A9794883A99C68A86
:100B0000E552E7CFD9FF1200D9CFE6FFE1CFD9FFF9
:100B1000E652FD0EDBCFE9FFFE0EDBCFEAFFEF5022
:100B20002BE0C6A60FD0FD0EDBCFE9FFFE0EDBCF1C
:100B3000EAFFEF50E66E26D8E552DF6EDF5016E092
:100B4000DF501BD09E96FD0EDBCFE9FFFE0EDBCF04
:100B5000EAFFEF50C96EC6889EA6FED7C650100B9E
:100B600005E0C750010B02E1FE0E07D0FD0EDB2AA7
:100B7000FE0ECFE3DB2ACDD7000EE552E552E7CFDC
:100B8000D9FF1200D9CFE6FFE1CFD9FFFE0EDB502F
:100B9000C96EC6AE03D073DDFF0E2CD00F0EC61487
:100BA00008080FE00F0EC6140B080BE0C6889EA6BF
:100BB000FED7C750040B03E1C750010B0FE0000E36
:100BC00019D00F0EC614080804E00F0EC6140B0847
:100BD00011E1C7B0FED7C5AC03D051DDFE0E0AD07F
:100BE000C750040B01E0010E146E1F0EC514141043
:100BF000F7E1000EE552E7CFD9FF1200D9CFE6FFAB
:100C0000E1CFD9FF040EE126DF6ADE52010EDD6E70
:100C1000D950030FE66E000EDA20E66E5F0EE66E28
:100C2000FE0EDBCFE6FF14DEE552E552E552E5525B
:100C3000E76E020EE7CFDBFFDB5029E1DF50146ED9
:100C4000156AD890155004E6FA0E145C000E15587B
:100C50001EE2D950030FE66E000EDA20E66E5F0E3C
:100C6000E66EFE0EDBCFE6FFF3DDE552E552E55220
:100C7000E552E76E020EE7CFDBFF030EDBAE02D0DC
:100C8000DF2ADCD7FA0EDF6E010EDB6AD7D7010E42
:100C9000DB50146E040EE15C02E2E16AE552E16EA3
:100CA0001450E552E7CFD9FF1200D9CFE6FFE1CFCC
:100CB000D9FFFE0EDB50000824E20F01002B000ECE
:100CC00001230223032353DD0A0EE66EE66A5EEC7F
:100CD00002F0E552E5520F010A0ED8800455000ECD
:100CE00005550BE2030E04190FE105510DE1440E09
:100CF000E66E38EC2EF0E55207D0042B000E0523EB
:100D000003D00F01046B056BE552E7CFD9FF12004A
:100D1000D9CFE6FFE1CFD9FF020EE126DF6A010E4F
:100D2000DB6AA2D897D8ACD86BB0FED7A4BC44D0AD
:100D30008DD8D00E6F6E6DB0FED76BBC39D08AD80F
:100D400085D8FC0EDB506F6E6BBC2FD06DB0FED71C
:100D500081D86B826BB2FED7A4BC24D0D10E6F6E4B
:100D60006BBC1DD077D87CD8FD0EDBCFE9FFDB2A2A
:100D7000FE0EDBCFEAFF01E3DB2A6FCFEFFF6B8ACA
:100D80006B886BB8FED766D87DD8C5B4FED77CD843
:100D9000010EDBCFE6FF89DFE552000E22D0DE52E6
:100DA000FB0E08D0DE52FC0E05D0DE52FD0E02D046
:100DB000DE52FE0EDD6E02D0010EDB6865D8A49C0B
:100DC000FD0EDBCFE9FFDB2AFE0EDBCFEAFF01E3FE
:100DD000DB2AEF6A010EDBCFE6FF67DFE552010E8B
:100DE000DB50146E020EE15C02E2E16AE552E16E54
:100DF0001450E552E7CFD9FF1200D9CFE6FFE1CF7B
:100E0000D9FF32D827D83CD86BB0FED71FD8A4BCA6
:100E100011D0D00E6F6E1AD86BBC0CD0FE0EDB500A
:100E20006F6E14D86BBC06D0FD0EDB506F6E0ED803
:100E30006BAC03D029D8A49C05D024D86BB4FED7C2
:100E400005D822D8E552E7CFD9FF1200A4AEFED7CD
:100E5000A49E12006DB4FED71F0E6B14FDE11200AC
:100E60006B866BB6FED71200938293840F01399381
:100E70003995C00E6D6E130E6E6E280E6C6E1200DC
:100E80006B8012006B8412006C9A120093900F0119
:100E900049690C0E486F060EBA6E7C0EBB6E0C0EC6
:100EA000576F586B1200D9CFE6FFE1CFD9FF300E54
:100EB000E126DF6ADE52050EDD6E0A0EF36E020ECB
:100EC000F3CFDBFF0F0EF36E030EF3CFDBFF140E39
:100ED000F36E040EF3CFDBFF1E0EF36E050EF3CFA1
:100EE000DBFF280EF36E060EF3CFDBFF320EF36E40
:100EF000070EF3CFDBFF3C0EF36E080EF3CFDBFFE4
:100F0000460EF36E090EF3CFDBFF500EF36E0A0EA2
:100F1000F3CFDBFF5A0EF36E0B0EF3CFDBFF640E45
:100F2000F36E0C0EF3CFDBFF0D0EDB6A020EF36ED9
:100F30000E0EF3CFDBFF7F0EF36E0F0EF3CFDBFF52
:100F4000010EF36E100EF3CFDBFF5F0EF36E110E8A
:100F5000F3CFDBFF010EF36E120EF3CFDBFF270E94
:100F6000F36E130EF3CFDBFF010EF36E140EF3CF0F
:100F7000DBFF180EF36E150EF3CFDBFF010EF36EE1
:100F8000160EF3CFDBFFE00EF36E170EF3CFDBFF91
:100F9000180EDB6ABA0EF36E190EF3CFDBFF1A0ED2
:100FA000DB6A9A0EF36E1B0EF3CFDBFF1C0EDB6ABF
:100FB000800EF36E1D0EF3CFDBFF1E0EDB6A6D0E8F
:100FC000F36E1F0EF3CFDBFF200EDB6A540EF36EC1
:100FD000210EF3CFDBFF220EDB6A420EF36E230EEF
:100FE000F3CFDBFF240EDB6A250EDB6A260EDB6AFD
:100FF0000401C351640802E2640EC36F010EF36E74
:10100000270EF3CFDBFF0C0EF36E270EDBCFF4FFC2
:10101000F350F45C10E2270EDB500F01D924E96E87
:10102000000EDA20EA6EEF500401D880C35503E2C7
:10103000270EDB2AE8D7D9500D0F186E270EDB04D8
:10104000020D1850F324E96EDA50F420EA6EEECF68
:1010500016F0EFCF17F0D9500D0F1A6E270EDB5098
:10106000020D1A50F324E96EDA50F420EA6EEE50C5
:10107000165C146EEE501758156E280E14C0DBFF68
:10108000290E15C0DBFF270EDB040F01D924E96E02
:10109000000EDA20EA6EEF500401C35DE66ED9500F
:1010A0002A0FE96EDACFEAFFE552E750EE6EED6AFD
:1010B000D9CF15F0DACF16F0270EDB500F01D92467
:1010C000E96E000EDA20EA6EEFCF14F0D9CF17F0F8
:1010D000270EDB04D924E96E000EDA20EA6EEF5009
:1010E000145CE66ED9502C0FE96EDACFEAFFE552B8
:1010F000E750EE6EED6A2C0EDBCF20F02D0EDBCF2D
:1011000021F0226A236A2A0EDBCF1CF02B0EDBCFE4
:101110001DF01E6A1F6A280EDBCF18F0290EDBCFE8
:1011200019F01A6A1B6A18C006F019C007F01AC035
:1011300008F01BC009F01CC00BF01DC00CF01EC055
:101140000DF01FC00EF058EC5DF002C014F003C0AB
:1011500015F004C016F005C017F002C006F003C079
:1011600007F004C008F005C009F020C00BF021C052
:101170000CF022C00DF023C00EF0C0EC5DF02E0E7E
:1011800006C0DBFF2F0E07C0DBFF2E0EDBCF16F0F5
:101190002F0EDBCF17F0D9500D0F146EDACF15F0EC
:1011A000270EDB04020D1450F324E96EDA50F4200C
:1011B000EA6E06011650EE5C1E6F1750EE581F6F58
:1011C0001EC6E6FFE66E90EC5DF0E552E552300E8D
:1011D000E15C02E2E16AE552E16EE552E7CFD9FF58
:1011E0001200D9CFE6FFE1CFD9FF080EE126FB0EB2
:1011F000DBCFE9FFFC0EDBCFEAFFEF50DE6EDD6AEE
:10120000FD0EDBCFE9FFFE0EDBCFEAFFEF50E66E0F
:10121000D950020FE96EDACFEAFFE552E750EE6EE1
:10122000ED6ADECF16F0DDCF17F0050ED89016363A
:101230001736E804FBE1020EDBCF18F0030EDBCF1C
:1012400019F0D89019321832E804FBE11650181042
:10125000146E17501910156E040E14C0DBFF050E26
:1012600015C0DBFF060EDB6A070EDB6A040EDBCF60
:1012700006F0050EDBCF07F0060EDBCF08F0070EF9
:10128000DBCF09F0880E0B6E130E0C6E0D6A0E6A22
:1012900058EC5DF0040E02C0DBFF050E03C0DBFF5F
:1012A000060E04C0DBFF070E05C0DBFF040EDBCF1C
:1012B00006F0050EDBCF07F0060EDBCF08F0070EB9
:1012C000DBCF09F00B6A100E0C6E0D6A0E6AC0ECD3
:1012D0005DF0040E06C0DBFF050E07C0DBFF060E47
:1012E00008C0DBFF070E09C0DBFF040EDBCF14F0E4
:1012F000050EDBCF15F0060EDBCF16F0070EDBCFA9
:1013000017F0080ED8901732163215321432E8064C
:10131000F9E11450E66EFD0EDBCFE9FFFE0EDBCFE8
:10132000EAFFE552E750EF6E040EDBCF14F0050E36
:10133000060E070E1450E66EFB0EDBCFE9FFFC0E27
:10134000DBCFEAFFE552E750EF6E080EE15C02E208
:10135000E16AE552E16EE552E7CFD9FF1200D9CF3D
:10136000E6FFE1CFD9FF020EE126DF6A00016A6BDA
:101370006B6B680EE66E000EE66E130EE66EFE0EEA
:10138000DBCFE6FF28EC04F0E552E552E552E552EA
:10139000E76E010EE7CFDBFF3F0E00016815E66E3A
:1013A000130EE66EFE0EDBCFE6FF41EC03F0E552D6
:1013B000E552E552500EE66E5F0EE66EFE0EDBCF96
:1013C000E6FF41EC03F0E552E552E552FE0EDBCFBD
:1013D000E6FFFEEC05F0E552000847E3FC0EDBCF2C
:1013E000E6FF5E0EE66EFE0EDBCFE6FF41EC03F09D
:1013F000E552E552E552550EE66E5F0EE66EFE0EC4
:10140000DBCFE6FF41EC03F0E552E552E552FE0E7C
:10141000DBCFE6FFFEEC05F0E552000826E36A0E9E
:10142000E66E000EE66E5C0EE66EFE0EDBCFE6FFAD
:1014300028EC04F0E552E552E552E552E76E010E64
:10144000E7CFDBFF6B0EE66E000EE66E5D0EE66E1E
:10145000FE0EDBCFE6FF28EC04F0E552E552E55244
:10146000E552E76E010EE7CFDBFFE66A5F0EE66E40
:10147000FE0EDBCFE6FF41EC03F0E552E552E5520C
:1014800068C0E6FF130EE66EFE0EDBCFE6FF41EC12
:1014900003F0E552E552E5526BC016F06BC017F051
:1014A000166A00016A5100011610146E6BC015F027
:1014B000F36E6BC0F4FF020EE15C02E2E16AE552FA
:1014C000E16EE552E7CFD9FF1200D9CFE6FFE1CFB9
:1014D000D9FF040EE126D9CFE6FFDACFE6FF130EDF
:1014E000E66EFE0EDBCFE6FF28EC04F0E552E55297
:1014F000E552E552E76E030EE7CFDBFF3F0EDF1448
:10150000E66E130EE66EFE0EDBCFE6FF41EC03F057
:10151000E552E552E552500EE66E5F0EE66EFE0EA7
:10152000DBCFE6FF41EC03F0E552E552E552FE0E5B
:10153000DBCFE6FFFEEC05F0E5520009F8E1020E14
:10154000E66E5E0EE66EFE0EDBCFE6FF41EC03F0CC
:10155000E552E552E552550EE66E5F0EE66EFE0E62
:10156000DBCFE6FF41EC03F0E552E552E552FE0E1B
:10157000DBCFE6FFFEEC05F0E5520009F8E1D950BB
:10158000020FE66E000EDA20E66E5C0EE66EFE0ED0
:10159000DBCFE6FF28EC04F0E552E552E552E552D8
:1015A000E76E030EE7CFDBFFE66A5F0EE66EFE0E28
:1015B000DBCFE6FF41EC03F0E552E552E552DFCF29
:1015C000E6FF130EE66EFE0EDBCFE6FF41EC03F006
:1015D000E552E552E552020EDB50146E040EE15C5A
:1015E00002E2E16AE552E16E1450E552E7CFD9FF1D
:1015F0001200D9CFE6FFE1CFD9FF020EE126DF6A64
:1016000000016A6B6B6B680EE66E000EE66E130EE1
:10161000E66EFE0EDBCFE6FF28EC04F0E552E55265
:10162000E552E552E76E010EE7CFDBFF3F0E00010A
:101630006815E66E130EE66EFE0EDBCFE6FF41EC9C
:1016400003F0E552E552E552500EE66E5F0EE66E8F
:10165000FE0EDBCFE6FF41EC03F0E552E552E5522A
:10166000690EE66E000EE66E5F0EE66EFE0EDBCFD6
:10167000E6FF28EC04F0E552E552E552E552E76E4C
:10168000010EE7CFDBFFFE0EDBCFE6FFFEEC05F041
:10169000E552000949E1FC0EDBCFE6FF5E0EE66E87
:1016A000FE0EDBCFE6FF41EC03F0E552E552E552DA
:1016B000FF0EE76EFA0EDBCF14F0FB0EDBCF15F05A
:1016C000E7501416156A1450E66E5C0EE66EFE0EB8
:1016D000DBCFE6FF41EC03F0E552E552E552E66A66
:1016E0005D0EE66EFE0EDBCFE6FF41EC03F0E55249
:1016F000E552E5525B0EE66E5F0EE66EFE0EDBCF48
:10170000E6FF41EC03F0E552E552E552FE0EDBCF79
:10171000E6FFFEEC05F0E552000906E1FE0EDBCF28
:10172000E6FFFEEC05F0E552E66A5F0EE66EFE0EA1
:10173000DBCFE6FF41EC03F0E552E552E55268C02D
:10174000E6FF130EE66EFE0EDBCFE6FF41EC03F084
:10175000E552E552E552F36AF46A020EE15C02E2F8
:10176000E16AE552E16EE552E7CFD9FF1200D9CF29
:10177000E6FFE1CFD9FFE652300EF36EFE0EDBCF6F
:10178000F4FFF350F45C08E3FE0EDB50390804E389
:10179000FE0EDB50D00F0FD0410EF36EFE0EDBCFEE
:1017A000F4FFF350F45C0CE3FE0EDB50460808E354
:1017B000FE0EDB50C90FE76EFE0EE7CFDBFF02D057
:1017C000FE0EDB68300EF36EFD0EDBCFF4FFF35040
:1017D000F45C08E3FD0EDB50390804E3FD0EDB503A
:1017E000D00F0FD0410EF36EFD0EDBCFF4FFF350A0
:1017F000F45C0CE3FD0EDB50460808E3FD0EDB5005
:10180000C90FE76EFD0EE7CFDBFF02D0FD0EDB68F0
:10181000FE0EDB50FF0804E0FD0EDB50FF0802E186
:10182000DF6809D0FD0EDB500F0B146EFE0EDB38A7
:10183000F00B1410DF6EDF50E552E552E7CFD9FF11
:101840001200D9CFE6FFE1CFD9FF020EE126FE0E4E
:10185000DB380F0BDF6E0A0EDF5C02E2300E01D0C8
:10186000370EDF24DF6EFE0EDB500F0BE76E010E2E
:10187000E7CFDBFF0A0EF36E010EDBCFF4FFF35070
:10188000F45C04E2010EDB50300F03D0010EDB509C
:10189000370FE76E010EE7CFDBFFDFCF16F016C084
:1018A00017F0166ADB501610F36E17C0F4FF020E25
:1018B000E15C02E2E16AE552E16EE552E7CFD9FF71
:1018C0001200D9CFE6FFE1CFD9FF020EE126FE0ECE
:1018D000DB380F0BDF6E0A0EDF5C02E2300E01D048
:1018E000370EDF24DF6EACA2FED7DF50AD6EFE0EEA
:1018F000DB500F0BE76E010EE7CFDBFF0A0EF36E36
:10190000010EDBCFF4FFF350F45C04E2010EDB5078
:10191000300F03D0010EDB50370FE76E010EE7CF1B
:10192000DBFFACA2FED7010EDB50AD6E010EDB502B
:10193000DF24146E020EE15C02E2E16AE552E16E20
:101940001450E552E7CFD9FF1200D9CFE6FFE1CF1F
:10195000D9FF020EE126DE6ADD6ADECF14F0DDCFAC
:1019600015F0FB0EDBCF16F0FC0EDBCF17F01606E2
:10197000000E175A1450165C155017582AE3A6B2D9
:10198000FED7FD0EDBCF18F0FE0EDBCF19F0DE50D8
:101990001824166EDD501920176E16C0E6FFE66E8D
:1019A00096EC02F0E552E552E66EF90EDBCF14F04C
:1019B000FA0EDBCF15F0DE501424E96EDD50152051
:1019C000EA6EE552E750EF6EDF2A010EC6E3DB2A2E
:1019D000C4D7020EE15C02E2E16AE552E16EE55233
:1019E000E7CFD9FF1200D9CFE6FFE1CFD9FF020E32
:1019F000E126DE6ADD6ADECF14F0DDCF15F0FB0EE6
:101A0000DBCF16F0FC0EDBCF17F01606000E175AD0
:101A10001450165C1550175829E3A6B2FED7F90EDC
:101A2000DBCF14F0FA0EDBCF15F0DE501424E96E94
:101A3000DD501520EA6EEF50E66EFD0EDBCF18F09C
:101A4000FE0EDBCF19F0DE501824166EDD50192083
:101A5000176E16C0E6FFE66ECDEC02F0E552E552D9
:101A6000E552DF2A010EC7E3DB2AC5D7020EE15C8F
:101A700002E2E16AE552E16EE552E7CFD9FF1200DA
:101A8000D9CFE6FFE1CFD9FF020EE126DE6ADD6A9B
:101A9000030EE66E010EE66E020EE66EE66A000EBC
:101AA000E66EE66A52DF146E060EE15E1450040123
:101AB000DD6BDDC415F0146A01010351040114103B
:101AC000DD6F15C0DEF4156E146A010104510401C6
:101AD0001410DD6F15C0DEF4030EE66E010EE66E27
:101AE000020EE66EE66A480EE66EE66A2EDF146EB9
:101AF000060EE15E14500401E16BE26BE1C415F0E7
:101B0000146A0101035104011410E16F15C0E2F4DD
:101B1000156E146A0101045104011410E16F15C01F
:101B2000E2F4030EE66E010EE66E020EE66EE66A63
:101B30004A0EE66EE66A09DF146E060EE15E145088
:101B40000401DF6BE06BDFC415F0146A010103517F
:101B500004011410DF6F15C0E0F4156E146A010162
:101B6000045104011410DF6F15C0E0F40401030EEA
:101B7000DC6F0101006B016F000EE66E010EE66E78
:101B8000020EE66EE66A360EE66EE66A2CDF146E2C
:101B9000060EE15E14500101070E006F000EE66EA6
:101BA000010EE66E020EE66EE66A530EE66EE66A19
:101BB0001ADF146E060EE15E1450030EE66E010E7F
:101BC000E66E020EE66EE66A0C0EE66EE66ABDDEB4
:101BD000146E060EE15E14500401BF6BC06BBFC4EF
:101BE00015F0146A0101035104011410BF6F15C0F0
:101BF000C0F4156E146A0101045104011410BF6F82
:101C000015C0C0F4030EE66E010EE66E020EE66E1F
:101C1000E66A640EE66EE66A98DE146E060EE15E13
:101C200014500401C16BC26BC1C415F0146A0101E8
:101C3000035104011410C16F15C0C2F4156E146A6B
:101C40000101045104011410C16F15C0C2F4030E48
:101C5000E66E010EE66E040EE66EE66A020EE66EB3
:101C6000E66A73DE146E060EE15E14500401AB6B7F
:101C7000AC6BAD6BAE6B080E1F0BABC414F0ACC4F9
:101C800015F0ADC416F0AEC417F007E0D8901436C6
:101C9000153616361736E806F9E103C118F0196A49
:101CA0001A6A1B6A145018100401AB6F15501910F2
:101CB000AC6F16501A10AD6F17501B10AE6F080E98
:101CC0001F0BABC414F0ACC415F0ADC416F0AEC419
:101CD00017F007E0D8901436153616361736E80692
:101CE000F9E104C118F0196A1A6A1B6A1450181035
:101CF0000401AB6F15501910AC6F16501A10AD6F70
:101D000017501B10AE6F080E1F0BABC414F0ACC401
:101D100015F0ADC416F0AEC417F007E0D890143635
:101D2000153616361736E806F9E105C118F0196AB6
:101D30001A6A1B6A145018100401AB6F1550191061
:101D4000AC6F16501A10AD6F17501B10AE6F080E07
:101D50001F0BABC414F0ACC415F0ADC416F0AEC488
:101D600017F007E0D8901436153616361736E80601
:101D7000F9E106C118F0196A1A6A1B6A14501810A2
:101D80000401AB6F15501910AC6F16501A10AD6FDF
:101D900017501B10AE6FABC454F5ACC455F5ADC4B1
:101DA00056F5E8CF57F5070E0B6E0C6A0D6A0E6AF2
:101DB000ABC406F0ACC407F0ADC408F057C509F0D9
:101DC00058EC5DF002C054F503C055F504C056F55B
:101DD00005C057F50A0E0B6E0C6A0D6A0E6A02C03A
:101DE00006F003C007F004C008F005C009F003ECDA
:101DF00058F006C054F507C055F508C056F509C09F
:101E000057F5030EE66E010EE66E040EE66EE66A08
:101E1000080EE66EE66A99DD146E060EE15E145059
:101E20000401A76BA86BA96BAA6B080E1F0BA7C4B4
:101E300014F0A8C415F0A9C416F0AAC417F007E05E
:101E4000D8901436153616361736E806F9E103C170
:101E500018F0196A1A6A1B6A145018100401A76F47
:101E600015501910A86F16501A10A96F17501B1093
:101E7000AA6F080E1F0BA7C414F0A8C415F0A9C4BC
:101E800016F0AAC417F007E0D890143615361636A7
:101E90001736E806F9E104C118F0196A1A6A1B6AD4
:101EA000145018100401A76F15501910A86F165080
:101EB0001A10A96F17501B10AA6F080E1F0BA7C48A
:101EC00014F0A8C415F0A9C416F0AAC417F007E0CE
:101ED000D8901436153616361736E806F9E105C1DE
:101EE00018F0196A1A6A1B6A145018100401A76FB7
:101EF00015501910A86F16501A10A96F17501B1003
:101F0000AA6F080E1F0BA7C414F0A8C415F0A9C42B
:101F100016F0AAC417F007E0D89014361536163616
:101F20001736E806F9E106C118F0196A1A6A1B6A41
:101F3000145018100401A76F15501910A86F1650EF
:101F40001A10A96F17501B10AA6F030EE66E010E30
:101F5000E66E020EE66EE66A060EE66EE66AF5DCF0
:101F6000146E060EE15E14500401CA6BCB6BCAC43A
:101F700015F0146A0101035104011410CA6F15C051
:101F8000CBF4156E146A0101045104011410CA6FD8
:101F900015C0CBF4030EE66E010EE66E020EE66E81
:101FA000E66A440EE66EE66AD0DC146E060EE15E6A
:101FB0001450DE6ADD6ADECF16F0DDCF17F016C0F2
:101FC00017F0166A0101035100011610146E17C0B4
:101FD00015F0DE6E17C0DDFFDECF16F0DDCF17F097
:101FE00016C017F0166A0101045100011610146E94
:101FF00017C015F0DE6E17C0DDFFDECFE3F4DDCFD6
:10200000E4F40401E56BE66B0C0ED890E337E4379B
:10201000E537E637E806F9E1880E0B6E130E0C6E15
:102020000D6A0E6AE3C406F0E4C407F0E5C408F0E4
:10203000E6C409F003EC58F006C0E3F407C0E4F48A
:1020400008C0E5F409C0E6F4740EE66E000EE66E14
:10205000010EE66EE66A500EE66EE66A76DC146EF7
:10206000060EE15E1450020EE15C02E2E16AE55206
:10207000E16EE552E7CFD9FF1200D9CFE6FFE1CFFD
:10208000D9FF0F0EE126B9C406F0BAC407F0BBC4ED
:1020900008F0BCC409F00B680C680D680E6858ECB9
:1020A0005DF0030E02C0DBFF040E03C0DBFF050E74
:1020B00004C0DBFF060E05C0DBFF0F01105111113C
:1020C0001211131101E0CCD0ABC406F0ACC407F080
:1020D000ADC408F0AEC409F0100E0B6E0E0E0C6EFF
:1020E0000D6A0E6A03EC58F06DEC56F007C014F060
:1020F00008C015F009C016F00AC017F0CD0E0C6E1E
:10210000CC0E0D6E0E6E3C0E0F6E70EC57F0B1ECF7
:1021100058F006C010FF07C011FF08C012FF09C029
:1021200013FFABC406F0ACC407F0ADC408F0AEC4F6
:1021300009F0100E0B6E0E0E0C6E0D6A0E6A03EC9B
:1021400058F06DEC56F007C014F008C015F009C047
:1021500016F00AC017F0CD0E0C6ECC0E0D6E0E6E82
:102160003D0E0F6E70EC57F0B1EC58F006C014FF46
:1021700007C015FF08C016FF09C017FFABC418FF42
:10218000ACC419FFADC41AFFAEC41BFF100E0B6E1A
:102190000E0E0C6E0D6A0E6AABC406F0ACC407F0EE
:1021A000ADC408F0AEC409F003EC58F006C018FF47
:1021B00007C019FF08C01AFF09C01BFFABC41CFFF2
:1021C000ACC41DFFADC41EFFAEC41FFF100E0B6ECE
:1021D0000E0E0C6E0D6A0E6AABC406F0ACC407F0AE
:1021E000ADC408F0AEC409F003EC58F006C01CFF03
:1021F00007C01DFF08C01EFF09C01FFF0F01D890B8
:102200001C371D371E371F37ABC406F0ACC407F0B0
:10221000ADC408F0AEC409F0100E0B6E0E0E0C6EBD
:102220000D6A0E6A03EC58F06DEC56F007C014F01E
:1022300008C015F009C016F00AC017F00C6A0D6A44
:10224000200E0E6E400E0F6E70EC57F0B1EC58F091
:1022500006C020FF07C021FF08C022FF09C023FFDE
:10226000D950030FE96EDACFEAFF030EEBCFF3FF8D
:102270000F012351F318E8AE02D0F33408D0EE502A
:10228000205DEE502159EE502259EE50235903E2C1
:10229000F36AF46A86D1D950030FE96EDACFEAFF08
:1022A000030EEB501319E8AE02D0133508D01051CD
:1022B000EE5C1151EE581251EE581351EE580CE2EB
:1022C000030E10CFDBFF040E11CFDBFF050E12CF84
:1022D000DBFF060E13CFDBFFD950030FE96EDACF19
:1022E000EAFF030EEB501319E8AE02D0133508D005
:1022F0001051EE5C1151EE581251EE581351EE5838
:1023000001E228D1D950030FE96EDACFEAFF030EBC
:10231000EBCFF3FF2351F318E8AE02D0F33408D02B
:10232000EE50205DEE502159EE502259EE502359C7
:1023300001E210D1010EDF6E040EDF5C2BE2DF50F4
:10234000040DF3CFE9FFF4CFEAFF100EE9260F0EDC
:10235000EA22EECF14F0EECF15F0EECF16F0EFCF6D
:1023600017F0D950030FE96EDACFEAFF030EEBCF77
:10237000F3FF1750F318E8AE02D0F33408D0EE5054
:10238000145CEE501558EE501658EE50175802E2F5
:10239000DF2AD2D7DF04E96EEA6AD890E936EA3656
:1023A000060EE9260F0EEA22EECF16F0EFCF17F059
:1023B000EA6ADF34FE0BEA36E96E060EE9260F0EF6
:1023C000EA22EE50165C146EEE501758156E070E8A
:1023D00014C0DBFF080E15C0DBFF030EDBCF18F0C7
:1023E000040EDBCF19F0050EDBCF1AF0060EDBCFA3
:1023F0001BF0DF04040DF3CFE9FFF4CFEAFF100E6A
:10240000E9260F0EEA22EE50185C146EEE501958B1
:10241000156EEE501A58166EEE501B58176E090EB8
:1024200014C0DBFF0A0E15C0DBFFDF50040DF3CF35
:10243000E9FFF4CFEAFF100EE9260F0EEA22EECFF5
:1024400018F0EECF19F0EECF1AF0EFCF1BF0DF044B
:10245000040DF3CFE9FFF4CFEAFF100EE9260F0ECB
:10246000EA22EE50185C146EEE501958156EEE50BC
:102470001A58166EEE501B58176E0B0E14C0DBFF69
:102480000C0E15C0DBFF0B0EDBCF20F00C0EDBCFEC
:1024900021F0226A236A090EDBCF1CF00A0EDBCF83
:1024A0001DF01E6A1F6A070EDBCF18F0080EDBCF87
:1024B00019F01A6A1B6A18C006F019C007F01AC092
:1024C00008F01BC009F01CC00BF01DC00CF01EC0B2
:1024D0000DF01FC00EF058EC5DF002C014F003C008
:1024E00015F004C016F005C017F002C006F003C0D6
:1024F00007F004C008F005C009F020C00BF021C0AF
:102500000CF022C00DF023C00EF0C0EC5DF00D0EFB
:1025100006C0DBFF0E0E07C0DBFFDF04E96EEA6AD0
:10252000D890E936EA36060EE9260F0EEA22EECFFB
:1025300016F0EFCF17F00D0EDB50165C146E0E0E7A
:10254000DB501758156E010E14C0DBFF020E15C0CC
:10255000DBFF1DD0D950030FE96EDACFEAFF030E7F
:10256000EB501319E8AE02D0133508D01051EE5CD1
:102570001151EE581251EE581351EE5803E2010E6C
:10258000DB6A03D0010EF36EDB6E020EDB6A010E16
:10259000DBCF14F0020EDBCF15F014C0F3FF15C033
:1025A000F4FF0F0EE15C02E2E16AE552E16EE552F2
:1025B000E7CFD9FF1200D9CFE6FFE1CFD9FF020E56
:1025C000E126040E0401D95D07E30401020EA26FA7
:1025D0000001AB95AB9130D00401A26B4EDDF3CF7F
:1025E000D6F4F4CFD7F40401010ED880F354000ED2
:1025F000F45415E20401C6510401D65D0401C7512B
:102600000401D75909E3040E0401D85D03E3040172
:10261000010E11D0D82B10D00401D86B0DD0010EB3
:10262000D61907E1D75105E13C0E0401D95D01E25D
:10263000D92B0401020EA26F0401A251146E020EE6
:10264000E15C02E2E16AE552E16E1450E552E7CF47
:10265000D9FF1200D9CFE6FFE1CFD9FF030EE12663
:10266000DF6A010EDB6A020EDB6ADF6AFC0EDB400A
:102670007F0BDF5C70E2DF50E824010FE76EFD0E98
:10268000DBCFE9FFFE0EDBCFEAFFE750E926000EC5
:10269000EA22EFCF16F016C017F0166ADF50E824D2
:1026A000E76EFD0EDBCFE9FFFE0EDBCFEAFFE75062
:1026B000E926000EEA22EF501610146E17C015F02E
:1026C000030ED89015321432E804FBE1010E14C059
:1026D000DBFF020E15C0DBFF010EDBCF14F0020E94
:1026E000DBCF15F0166A176AD00EE96E040EEA6E9B
:1026F000EE5014240401D06FEE501520D16FEE502F
:102700001620D26FEE501720D36F010EDBCF14F0DE
:10271000020EDBCF15F00401C651145CC7511558E9
:1027200006E2010EDBCFC6F4020EDBCFC7F4010ECA
:10273000DBCF14F0020EDBCF15F004011450C45DA2
:102740001550C55906E2010EDBCFC4F4020EDBCFF3
:10275000C5F4DF2A8BD7030EE15C02E2E16AE552A1
:10276000E16EE552E7CFD9FF12000001790515E1CE
:102770000401800EBC1511E0B90EE96E040EEA6E7C
:10278000EE5006012A5D2A6FEE502B592B6FEE504A
:102790002C592C6FEE502D592D6F00016151020AFA
:1027A00060E0030A54E0010A01E0BED006012A6B92
:1027B0002B6B2C6B2D6BABC406F0ACC407F0ADC417
:1027C00008F0AEC409F06DEC56F007C014F008C074
:1027D00015F009C016F00AC017F09A0E0C6E990E8B
:1027E0000D6E590E0E6E3F0E0F6E70EC57F0B1EC81
:1027F00058F006C025F607C026F608C027F609C01F
:1028000028F6ABC406F0ACC407F0ADC408F0AEC403
:1028100009F06DEC56F007C014F008C015F009C0BF
:1028200016F00AC017F0330E0C6E0D6E0E6E3F0ED2
:102830000F6E70EC57F0B1EC58F006C021F607C0EF
:1028400022F608C023F609C024F6000108D021C6EC
:1028500032F622C633F623C634F624C635F6612B8B
:1028600064D00001790561E12A0EE96E060EEA6E78
:10287000030EEBCFF3FF06013551F318E8AE02D09B
:10288000F33408D0EE50325DEE503359EE503459E7
:10289000EE5035594AE22A6B2B6B2C6B2D6B0401E1
:1028A000BF2B000EC023C0C414F0156A14500101E0
:1028B000006F0401BF510101016F000EE66E010EB1
:1028C000E66E020EE66EE66A0C0EE66EE66AF3EC63
:1028D0000CF0146E060EE15E14500401C12B000EC4
:1028E000C223C2C414F0156A14500101006F040120
:1028F000C1510101016F000EE66E010EE66E020E7F
:10290000E66EE66A640EE66EE66AF3EC0CF0146EB0
:10291000060EE15E1450270EE66E38EC2EF0E552FE
:102920000001010E616F01D0616B2AC66CF02BC6ED
:102930006DF02CC66EF02DC66FF01200D9CFE6FFF9
:10294000E1CFD9FFE65200016251140A01E10DD135
:102950001F0A01E105D1010A01E17ED00B0A65E001
:10296000010A01E00FD1D9CFE6FFDACFE6FF010E71
:10297000E66EE66A510EE66EE66AA5EC0CF0146EA1
:10298000060EE15E1450A7C406F0A8C407F0A9C45F
:1029900008F0AAC409F06DEC56F007C014F008C0A6
:1029A00015F009C016F00AC017F0DFCF20F020C0E4
:1029B00009F045EC56F007C01CF008C01DF009C036
:1029C0001EF00AC01FF00C6A0D6AC80E0E6E420E91
:1029D0000F6E1DEC57F007C018F008C019F009C0C1
:1029E0001AF00AC01BF007C00CF008C00DF009C0B7
:1029F0000EF00AC00FF014C007F015C008F016C0A2
:102A000009F017C00AF070EC57F0B1EC58F006C0AE
:102A10007FF007C080F008C081F009C082F000019B
:102A2000706B716B726B736B8ED0000179050DE169
:102A30000001ABA1A9D00F01246B0001706B716B79
:102A4000726B736B00010A0E9ED0020E795D01E07D
:102A50009BD00001140E97D00001ABA190D00001D3
:102A6000790574E10F01246B0401800EBC1511E09F
:102A7000B90EE96E040EEA6EEE500001705D706FE3
:102A8000EE507159716FEE507259726FEE5073596A
:102A9000736F05014E0501E077D0260EE66E38EC27
:102AA0002EF0E5527F0EE96E000EEA6E00017051C5
:102AB000EE240401A76F00017151EE200401A86FFC
:102AC00000017251EE200401A96F00017351EE2044
:102AD0000401AA6FA7C414F0A8C415F0A9C416F085
:102AE000176E180ED8901732163215321432E806C7
:102AF000F9E114500101006FA9C414F00001166A35
:102B0000176A14500101016FA8C414F0A9C415F08C
:102B1000AAC416F00001176A14500101026F0401E3
:102B2000A7510101036F000EE66E010EE66E040E62
:102B3000E66EE66A080EE66EE66AF3EC0CF0146EDA
:102B4000060EE15E14500001622B1ED0020E795D6C
:102B50001BE10F01242B24513C0816E2246B0FD0FB
:102B60000001AB910001626B0FD0020E0001795D94
:102B70000BE00001ABA302D0AB8101D0AB9100010F
:102B8000010E01D0010E626FE552E552E7CFD9FF89
:102B90001200020E0001795D28E10401E80ED880E0
:102BA000C655090EC75568E20401BC35000EBC19B4
:102BB00009E6D880000EB955000EBA55000EBB5577
:102BC000000EBC5559E2B90EE96E040EEA6E000122
:102BD0009051EE24906F9151EE20916F9251EE2022
:102BE000926F9351EE20936F47D0790545E1040130
:102BF000800EBC1511E0B90EE96E040EEA6E0001FC
:102C00009051EE24906F9151EE20916F9251EE20F1
:102C1000926F9351EE20936F0001ABA52DD005016B
:102C20004E511EE1900EE96E000EEA6E030EEB505F
:102C300000018219E8AE02D0823508D07F51EE5CE7
:102C40008051EE588151EE588251EE5815E27FC006
:102C500090F080C091F081C092F082C093F00CD0CF
:102C60004E050AE17FC090F080C091F081C092F0E3
:102C700082C093F00001AB950001ABA30DD0ABB7C0
:102C800070D0A7C490F0A8C491F0A9C492F0AAC4CF
:102C900093F00401640E25D0900EE96E000EEA6EEA
:102CA000030EEB500401AA19E8AE02D0AA3508D0F1
:102CB000A751EE5CA851EE58A951EE58AA51EE5812
:102CC00012E3A7C490F0A8C491F0A9C492F0AAC4DA
:102CD00093F000019007000E915B925B935B0401FF
:102CE000630EC36F12000001800E931507E0906B16
:102CF000916B926B936B0401C36B1200A7C414F029
:102D0000A8C415F0A9C416F0AAC417F0640E0B6E7F
:102D10000C6A0D6A0E6AA7C406F0A8C407F0A9C41D
:102D200008F0AAC409F003EC58F006C014F007C07C
:102D300015F008C016F009C017F090C006F091C059
:102D400007F092C008F093C009F014C00BF015C052
:102D50000CF016C00DF017C00EF003EC58F006C0D2
:102D6000C3F412000001ABA708D00001B097B095E2
:102D7000B09BB09DB099B09357D0010E05014A1594
:102D800004E1010E05014B1503E00001B08702D0FC
:102D90000001B097020E05014A1504E1020E05017B
:102DA0004B1503E00001B08502D00001B095040E80
:102DB00005014A1504E1040E05014B150CE0020E55
:102DC00000017A5D03E10001B08B08D07A0506E1CD
:102DD0000001B08D03D00001B09BB09D080E05012D
:102DE0004A1504E1080E05014B1503E00001B08906
:102DF00002D00001B099100E05014A1504E1100E31
:102E000005014B1503E00001B08302D00001B0932F
:102E1000200E05014A1504E1200E05014B1503E0C3
:102E20000001B08112000001B09112000001675151
:102E3000180A01E1DCD00F0A01E1BBD0010A01E16F
:102E4000ABD0030A01E191D01A0A74E0010A6CE0E8
:102E5000030A44E0010A33E0070A1DE00A0A0AE017
:102E6000010A01E0CAD00601366B0001666B000161
:102E7000010E1FD00001790505E10601366B000146
:102E80000B0E17D0020E795D01E0B9D00601366B4A
:102E90000001150E0ED0000179050DE10601362B5B
:102EA000365103080BE2366B0001010E666F00011C
:102EB0000C0E676F12000001010E676F1200000117
:102EC000790504E10001020E666F1200020E795DC1
:102ED0000EE00601366B00010D0E10D000017905E1
:102EE00003E100010C0E0AD0020E795D09E1060132
:102EF000366B0001030E666F00010F0E676F120044
:102F00000601362B3651146E156A15340CE2145036
:102F10009608000E155473E2366B0001030E666FBF
:102F200000010E0E676F1200010E676F0001040EA4
:102F3000666F12000001666B0001790503E1000174
:102F40000C0E0BD0020E795D0AE10601362B3651CC
:102F50003C080AE2366B0001150E676F120006018D
:102F6000366B00010D0E676F1200020E0001795DD5
:102F70000DE10601362B365103080DE2366B0001D8
:102F8000050E666F0001160E676F12000601366BA4
:102F90000001010E676F12000001060E666F020E3F
:102FA0000001795D2CE00601366B376B0001170ECE
:102FB0001CD0020E0001795D0CE1060137510308B7
:102FC00004E20001160E676F01D0372B0601366B45
:102FD00012000601376B362B36510A0810E2366BA9
:102FE0000001070E666F0001180E676F1200010ED8
:102FF000676F0001080E666F1200010E676F120006
:103000000001B0A726D00001B1A725D0B197740E5A
:10301000E66EE66A5FEC55F0E552E5527A0EE66E32
:10302000E66AF5EC50F0E552E5527E0EE66EE66A91
:1030300008EC52F0E552E552800EE66EE66AD7ECF7
:1030400051F0E552E552110EE66E38EC2EF0E552E5
:1030500002D00001B1870001B0A526D00001B1A5C2
:1030600025D0B195810EE66EE66A5FEC55F0E5522B
:10307000E552870EE66EE66AF5EC50F0E552E55251
:103080008B0EE66EE66A08EC52F0E552E5528D0EC4
:10309000E66EE66AD7EC51F0E552E552120EE66EA6
:1030A00038EC2EF0E55202D00001B1850001B0AB42
:1030B00026D00001B1AB25D0B19B8E0EE66EE66A3C
:1030C0005FEC55F0E552E552940EE66EE66AF5ECDB
:1030D00050F0E552E552980EE66EE66A08EC52F0C2
:1030E000E552E5529A0EE66EE66AD7EC51F0E552EB
:1030F000E552150EE66E38EC2EF0E55202D00001D6
:10310000B18B0001B0AD26D00001B1AD25D0B19D8D
:103110009B0EE66EE66A5FEC55F0E552E552A10EB5
:10312000E66EE66AF5EC50F0E552E552A50EE66E65
:10313000E66A08EC52F0E552E552A70EE66EE66A42
:10314000D7EC51F0E552E552160EE66E38EC2EF053
:10315000E55202D00001B18D0001B0A926D00001D6
:10316000B1A925D0B199A80EE66EE66A5FEC55F0DC
:10317000E552E552AE0EE66EE66AF5EC50F0E55229
:10318000E552B20EE66EE66A08EC52F0E552E55200
:10319000B40EE66EE66AD7EC51F0E552E552170E32
:1031A000E66E38EC2EF0E55202D00001B189000144
:1031B000B0A326D00001B1A325D0B193B50EE66E21
:1031C000E66A5FEC55F0E552E552BB0EE66EE66A44
:1031D000F5EC50F0E552E552BF0EE66EE66A08ECFB
:1031E00052F0E552E552C10EE66EE66AD7EC51F0B8
:1031F000E552E552130EE66E38EC2EF0E55202D0A1
:103200000001B1830001B0A126D00001B1A125D0F9
:10321000B191C20EE66EE66A5FEC55F0E552E552FA
:10322000C80EE66EE66AF5EC50F0E552E552CC0EBB
:10323000E66EE66A08EC52F0E552E552CE0EE66E16
:10324000E66AD7EC51F0E552E552140EE66E38EC22
:103250002EF0E55202D00001B1810001ABA707D0EA
:103260000001B197B195B19BB199B193B1910001B2
:103270006651070A23E0020A11E0060A01E0120083
:10328000D60EE66EE66A5FEC55F0E552E552DC0ECE
:10329000E66EE66AD7EC51F0E55230D0F00EE66EFD
:1032A000E66A5FEC55F0E552E552F60EE66EE66A28
:1032B000D7EC51F0E552E552210E1DD0CF0EE66E4F
:1032C000E66A5FEC55F0E552E552D50EE66EE66A29
:1032D000D7EC51F0E552E552F70EE66EE66A5FEC88
:1032E00055F0E552E552FD0EE66EE66AD7EC51F078
:1032F000E552E552220EE66E38EC2EF0E552120051
:10330000D9CFE6FFE1CFD9FF020EE1269EEC3FF0D8
:10331000000901E07CD00001795107E0010A01E1D8
:1033200076D0030A01E079D072D00401C6510401BD
:10333000C45D146EC5510401C755156E14C0DEFF7F
:10334000DD6EFE0EDB5006013825386F000E392188
:10335000396F0F012551040A3EE0070A2CE0010AEB
:1033600021E0030A07E0010A58E1E66A81EC39F03E
:10337000E5522ED00401E10ED880C6550A0EC7557D
:103380004CE2D9CFE9FFDACFEAFF280ED880EE541D
:10339000000EED5442E20601386B396B0F01252B0C
:1033A000290E2CD00601B40E385D000E395935E3D4
:1033B000010EE66E07D006011E0E385D000E39596B
:1033C0002CE3E66A81EC39F0E5520601386B396B83
:1033D0000F01252B22D0DECF14F0DDCF15F0100E1B
:1033E000145C000E155806E30401E10EC65D0A0EDA
:1033F000C75909E20F01010E256F2A0EE66E38EC5F
:103400002EF0E5520AD00F01020E256F06D0E66AB3
:1034100081EC39F0E5520F01256B020EE15C02E20E
:10342000E16AE552E16EE552E7CFD9FF1200D9CF4C
:10343000E6FFE1CFD9FF080EE126060EDB6A070E94
:10344000DB6AFE0EDB5066081AE10F0126512711D8
:103450000FE1020EE66E660EE66E65EC0AF0E552CE
:10346000E5520F01266F276B900E2627010E2723AA
:10347000060E26CFDBFF070E27CFDBFF19D00F018B
:10348000285129110FE1020EE66E680EE66E65EC1A
:103490000AF0E552E5520F01286F296B900E28279C
:1034A000010E2923060E28CFDBFF070E29CFDBFFF5
:1034B000FA0EDBCFE9FFFB0EDBCFEAFFEF50166E13
:1034C000176A050ED89016361736E804FBE1FC0E95
:1034D000DBCFE9FFFD0EDBCFEAFFEF50186E196A74
:1034E000030ED89019321832E804FBE11650181078
:1034F000146E17501910156E14C0DEFFDD6E000E2D
:10350000DFCF08F0010EDBCF09F058EC56F007C012
:1035100014F008C015F009C016F00AC017F0F60E36
:103520000C6E280E0D6E1C0E0E6E3F0E0F6E70ECA4
:1035300057F082EC58F0020E08C0DBFF030E09C002
:10354000DBFF020EDBCF16F0030EDBCF17F0060E0B
:10355000DB50165C146E070EDB501758156E0A0E02
:103560001502F3CF15F01402F3CF14F0F450152622
:10357000040EF3CFDBFF050E15C0DBFF040EDBCF1F
:1035800008F0050EDBCF09F058EC56F007C018F034
:1035900008C019F009C01AF00AC01BF0140E0C6E16
:1035A0003F0E0D6E060E0E6E400E0F6E1DEC57F0A8
:1035B00007C014F008C015F009C016F00AC017F0D3
:1035C0000C6A0D6A960E0E6E430E0F6E87EC56F067
:1035D00082EC58F0040E08C0DBFF050E09C0DBFFCB
:1035E000040EDBCF14F0050EDBCF15F0AB0E142666
:1035F0000A0E1522040E14C0DBFF050E15C0DBFFFA
:10360000040EDBCF14F0050EDBCF15F014C0F3FF72
:1036100015C0F4FF080EE15C02E2E16AE552E16EDA
:10362000E552E7CFD9FF1200D9CFE6FFE1CFD9FFAE
:10363000740EE126E30EDE6E060EDD6EC50EF36E31
:10364000020EF3CFDBFF050EF36E030EF3CFDBFFAD
:10365000CF0EF36E040EF3CFDBFFF36E050EF3CF48
:10366000DBFFFB0EF36E060EF3CFDBFF030EF36EF4
:10367000070EF3CFDBFF4B0EF36E080EF3CFDBFF2D
:10368000030EF36E090EF3CFDBFFB70EF36E0A0ED7
:10369000F3CFDBFF020EF36E0B0EF3CFDBFF3D0E1D
:1036A000F36E0C0EF3CFDBFF020EF36E0D0EF3CFB5
:1036B000DBFFD90EF36E0E0EF3CFDBFF010EF36EC0
:1036C0000F0EF3CFDBFF880EF36E100EF3CFDBFF90
:1036D000010EF36E110EF3CFDBFF450EF36E120EEB
:1036E000F3CFDBFF010EF36E130EF3CFDBFF0E0EF5
:1036F000F36E140EF3CFDBFF010EF36E150EF3CF56
:10370000DBFFE10EF36E160EF3CFDBFF170EDB6A65
:10371000BD0EF36E180EF3CFDBFF190EDB6A9E0EA3
:10372000F36E1A0EF3CFDBFF1B0EDB6A860EF36E11
:103730001C0EF3CFDBFF1D0EDB6A710EF36E1E0E47
:10374000F3CFDBFF1F0EDB6A600EF36E200EF3CFAC
:10375000DBFF210EDB6A520EF36E220EF3CFDBFF8E
:10376000230EDB6A460EF36E240EF3CFDBFF250E2D
:10377000DB6A3C0EF36E260EF3CFDBFF270EDB6A0F
:10378000340EF36E280EF3CFDBFF290EDB6A2D0E0D
:10379000F36E2A0EF3CFDBFF2B0EDB6A270EF36EE0
:1037A0002C0EF3CFDBFF2D0EDB6A220EF36E2E0EF6
:1037B000F3CFDBFF2F0EDB6A1E0EF36E300EF3CF5E
:1037C000DBFF310EDB6AE20EF36E320EF3CFDBFF6E
:1037D000330EDB68E70EF36E340EF3CFDBFF350EEE
:1037E000DB68EC0EF36E360EF3CFDBFF370EDB68D3
:1037F000F10EF36E380EF3CFDBFF390EDB68F60EF9
:10380000F36E3A0EF3CFDBFF3B0EDB68FB0EF36E7D
:103810003C0EF3CFDBFF3D0EDB683E0EDB6A3F0E56
:10382000DB6A050EF36E400EF3CFDBFF410EDB6A61
:103830000A0EF36E420EF3CFDBFF430EDB6A0F0E70
:10384000F36E440EF3CFDBFF450EDB6A140EF36E0E
:10385000460EF3CFDBFF470EDB6A190EF36E480E00
:10386000F3CFDBFF490EDB6A1E0EF36E4A0EF3CF79
:10387000DBFF4B0EDB6A230EF36E4C0EF3CFDBFF48
:103880004D0EDB6A280EF36E4E0EF3CFDBFF4F0EAC
:10389000DB6A2D0EF36E500EF3CFDBFF510EDB6AA9
:1038A000320EF36E520EF3CFDBFF530EDB6A370E90
:1038B000F36E540EF3CFDBFF550EDB6A3C0EF36E56
:1038C000560EF3CFDBFF570EDB6A410EF36E580E38
:1038D000F3CFDBFF590EDB6A460EF36E5A0EF3CFC1
:1038E000DBFF5B0EDB6A4B0EF36E5C0EF3CFDBFF90
:1038F0005D0EDB6A500EF36E5E0EF3CFDBFF5F0EE4
:10390000DB6A550EF36E600EF3CFDBFF610EDB6AF0
:103910005A0EF36E620EF3CFDBFF630EDB6AFB0E13
:10392000DBCFE9FFFC0EDBCFEAFFEF50166E176A24
:10393000050ED89016361736E804FBE1FD0EDBCFF6
:10394000E9FFFE0EDBCFEAFFEF50186E196A030E97
:10395000D89019321832E804FBE116501810146E92
:1039600017501910156E700E14C0DBFF710E15C0C4
:10397000DBFF010EF36E640EF3CFDBFF650EDB6A37
:10398000640EDBCF14F0650EDBCF15F0D890155028
:1039900004E6180E145C000E15582AE2700EDBCFF8
:1039A00016F0710EDBCF17F0D9CF1AF0DACF1BF07B
:1039B000020E086E096A640EDBCF0DF0650EDBCFD8
:1039C0000EF037EC58F01A500624E96E1B50072011
:1039D000EA6EEECF18F0EFCF19F01850165C1950C0
:1039E000175806E2640EDB2A650ECAE3DB2AC8D745
:1039F000D950320F186EDACF19F0020E086E096A2C
:103A0000640EDBCF0DF0650EDBCF0EF037EC58F017
:103A100018500624E96E19500720EA6EEECF16F012
:103A2000EFCF17F0D950320F1A6E640EDBCF1CF0B7
:103A3000650EDBCF1DF01C06000E1D5AD8901C36FB
:103A40001D361A501C24E96EDA501D20EA6EEE5025
:103A5000165C146EEE501758156E660E14C0DBFF20
:103A6000670E15C0DBFFD9CF18F0DACF19F0640E5E
:103A7000DBCF1AF0650EDBCF1BF01A06000E1B5AC7
:103A8000D8901A361B36D9501A24E96EDA501B200A
:103A9000EA6EEECF16F0EFCF17F0700EDB50165C2B
:103AA000146E710EDB501758156E680E14C0DBFFD4
:103AB000690E15C0DBFF640EDBCF1AF0650EDBCF9D
:103AC0001BF01A06000E1B5AD8901A361B36D95016
:103AD0001A24E96EDA501B20EA6EEECF16F0EFCF13
:103AE00017F0D9CF1CF0DACF1DF0020E086E096A6C
:103AF000640EDBCF0DF0650EDBCF0EF037EC58F027
:103B00001C500624E96E1D500720EA6EEE50165C2C
:103B1000146EEE501758156E6A0E14C0DBFF6B0E54
:103B200015C0DBFF660EDBCF08F0670EDBCF09F0B8
:103B3000680EDBCF0DF0690EDBCF0EF037EC58F0DE
:103B400006C018F007C019F00A0E1902F3CF19F0D9
:103B50001802F3CF18F0F4501926F3CF08F019C06B
:103B600009F06A0EDBCF0DF06B0EDBCF0EF0DDEC53
:103B700057F008C014F009C015F0166A176A15AEA0
:103B800002D0166817686C0E14C0DBFF6D0E15C0EE
:103B9000DBFF6E0E16C0DBFF6F0E17C0DBFFD950C8
:103BA000320F186E640EDBCF1AF0650EDBCF1BF000
:103BB0001A06000E1B5AD8901A361B3618501A24B3
:103BC000E96EDA501B20EA6EEECF16F0EFCF17F059
:103BD0000A0E1702F3CF17F01602F45017266C0ED8
:103BE000DB50F324146E6D0EDB501720156E720E31
:103BF00014C0DBFF730E15C0DBFF720EDBCF14F0B9
:103C0000730EDBCF15F0AB0E14260A0E1522720EC2
:103C100014C0DBFF730E15C0DBFF720EDBCF14F098
:103C2000730EDBCF15F014C0F3FF15C0F4FF740E54
:103C3000E15C02E2E16AE552E16EE552E7CFD9FFCD
:023C4000120070
:0E3C4200D9CFE6FFE1CFD9FFE652DF6AD950B5
:103C5000FC0FE96EFF0EDA20EA6EEE50ED101AE06E
:103C6000FE0EDB5017E0DF6AFE0EDB50DF5C12E277
:103C7000ACA2FED7DF50E76EFC0EDBCFE9FFFD0EF6
:103C8000DBCFEAFFE750E926000EEA22EF50AD6EE7
:103C9000DF2AEAD7E552E552E7CFD9FF1200D9CFA4
:103CA000E6FFE1CFD9FF030EE126010EDB6A020E2B
:103CB000DB6A00016A6B6B6B0101830E006F000E03
:103CC000E66E010EE66E030EE66EBBDFE552E552D0
:103CD000E552680EE66E000EE66E130EE66EFE0E00
:103CE000DBCFE6FF28EC04F0E552E552E552E55261
:103CF000DF6E3F0E00016815E66E130EE66EFE0ED7
:103D0000DBCFE6FF41EC03F0E552E552E552500E01
:103D1000E66E5F0EE66EFE0EDBCFE6FF41EC03F0D3
:103D2000E552E552E552FE0EDBCFE6FFFEEC05F074
:103D3000E55200085DE30001696B400E695D58E2E1
:103D40006951E824E66E5E0EE66EFE0EDBCFE6FFFE
:103D500041EC03F0E552E552E552550EE66E5F0E7A
:103D6000E66EFE0EDBCFE6FF41EC03F0E552E552D6
:103D7000E552FE0EDBCFE6FFFEEC05F0E552000853
:103D800037E36A0EE66E000EE66E5C0EE66EFE0E21
:103D9000DBCFE6FF28EC04F0E552E552E552E552B0
:103DA000DF6E6A0EE66E000EE66E010EE66E49DF0D
:103DB000E552E552E5526B0EE66E000EE66E5D0EC4
:103DC000E66EFE0EDBCFE6FF28EC04F0E552E5528E
:103DD000E552E552DF6E6B0EE66E000EE66E010EEA
:103DE000E66E2FDFE552E552E5520001692BA5D7BB
:103DF000E66A5F0EE66EFE0EDBCFE6FF41EC03F0F7
:103E0000E552E552E55268C0E6FF130EE66EFE0E7F
:103E1000DBCFE6FF41EC03F0E552E552E55201014C
:103E20000069000EE66E010EE66E010EE66E09DF19
:103E3000E552E552E552030EE15C02E2E16AE55229
:103E4000E16EE552E7CFD9FF1200D9CFE6FFE1CF0F
:103E5000D9FF0101830E006F000EE66E010EE66EC3
:103E6000030EE66EEEDEE552E552E5520001696BA7
:103E7000800E695D23E26951E76EFD0EDBCF14F021
:103E8000FE0EDBCF15F0E7501426000E152214C0ED
:103E9000E6FF15C0E6FF96EC02F0E552E5520001A0
:103EA0006A6F6A0EE66E000EE66E010EE66EC9DE01
:103EB000E552E552E5520001692BDAD701010069AC
:103EC000000EE66E010EE66E010EE66EBADEE552FB
:103ED000E552E552E552E7CFD9FF1200D9CFE6FF10
:103EE000E1CFD9FF050EE126020EDB6A030EDB6A85
:103EF000040EDB6A030EF36E020EF3CFDBFFFE0E41
:103F0000DB0421E1DF6ADF50160865E3020EDB50B7
:103F1000156A000F146E010E152214C0E6FF15C0BD
:103F2000E6FFDFCFE6FFE66ADFEC49F0E552E55257
:103F3000E552E552020EDB500A0FE76E020EE7CFA4
:103F4000DBFFDF2AE0D7FE0EDB50020822E1170E6E
:103F5000DF6EDF502D083FE3020EDB50156A000FC5
:103F6000146E010E152214C0E6FF15C0E6FFDFCF68
:103F7000E6FFE66ADFEC49F0E552E552E552E5522C
:103F8000020EDB500A0FE76E020EE7CFDBFFDF2ADF
:103F9000E0D72E0EDF6EDF5031081DE3020EDB503E
:103FA000156A000F146E010E152214C0E6FF15C02D
:103FB000E6FFDFCFE6FFE66ADFEC49F0E552E552C7
:103FC000E552E552020EDB500A0FE76E020EE7CF14
:103FD000DBFFDF2AE0D7050EE15C02E2E16AE55291
:103FE000E16EE552E7CFD9FF1200D9CFE6FFE1CF6E
:103FF000D9FF190EE126DF6A100EDB6A0F0EE66E9E
:10400000E66AE66AD950010FE66E000EDA20E66E27
:104010002EEC5CF0146E050EE15E1450FE0EDB50CB
:10402000C80A02E12BEF29F07C0A02E110EF29F027
:10403000070A02E104EF29F0010A02E1F8EF28F093
:10404000070A02E1ECEF28F0040A02E1E0EF28F0B1
:10405000010A02E1D4EF28F01F0A02E1C8EF28F0BC
:10406000070A02E1ADEF28F00F0A02E1A1EF28F004
:10407000880A02E191EF28F0010A02E181EF28F0BD
:10408000030A02E17CEF28F0070A02E160EF28F062
:10409000030A02E142EF28F0010A02E12CEF28F0C6
:1040A0000F0A02E1F9EF27F0010A02E1EBEF27F036
:1040B000030A02E1E5EF27F0010A02E1DFEF27F052
:1040C000070A02E1D9EF27F0010A02E1D3EF27F056
:1040D000030A02E1CDEF27F0010A02E1C7EF27F062
:1040E000D20A02E1C4EF27F0030A02E1C1EF27F090
:1040F0005F0A02E1B4EF27F0030A02E193EF27F031
:10410000010A02E180EF27F0070A02E169EF27F0D8
:104110009C0A02E146EF27F0020A02E12FEF27F0A6
:10412000060A02E118EF27F0020A02E101EF27F088
:10413000510A02E12DEF25F0300A02E19CEF24F054
:104140006F0A01E1E3D3040A01E1CDD3070A01E1DB
:104150009AD3060A01E173D3030A01E168D3010A85
:1041600001E15CD30E0A01E136D3020A01E128D352
:10417000060A01E11AD3020A01E10CD32D0A01E17A
:10418000CFD2060A01E1AFD2020A01E192D2270A98
:1041900001E15FD2290A01E148D2840A01E132D269
:1041A000850A01E101D2030A01E1F2D1010A01E12C
:1041B000CED1070A01E1BFD1010A01E1A6D1030A6C
:1041C00001E197D1010A01E178D11F0A01E15FD134
:1041D000010A01E150D1030A01E11FD1010A01E105
:1041E00010D1070A01E101D1010A01E1E3D0030A7C
:1041F00001E1B9D0010A01E1AAD00F0A01E19FD083
:10420000010A6FE0030A3FE0010A19E0070A11E022
:10421000010A0DE0030A06E0010A02E0B7EF29F007
:10422000660E01D0680EE66E3ADDB5EF29F0000E9D
:1042300001D0800EE66EE66A08DEB4EF29F00401D4
:10424000CC05E824030F0101006F000EE66E010E9D
:10425000E66E030EE66EF5DCE552E552E5525F0EC2
:10426000E66E050EE66E0401CD05E824E66EE9DC97
:10427000E552E552E5527B0EE66E050EE66E040150
:10428000CE51E8248CD00101070E006FB9C414F0A0
:10429000BAC415F0BBC416F0BCC417F0180ED89001
:1042A0001732163215321432E806F9E114500101C2
:1042B000036FBBC414F0BCC415F00001166A176A82
:1042C00014500101046FBAC414F0BBC415F0BCC48F
:1042D00016F00001176A14500101056F0401B9516D
:1042E000FFD20101070E006F90C014F091C015F0CD
:1042F00092C016F093C017F0180ED89017321632ED
:1043000015321432E806F9E114500101036F92C02E
:1043100014F093C015F00001166A176A14500101D9
:10432000046F91C014F092C015F093C016F0000114
:10433000176A14500101056F00019051D1D201019B
:10434000050E006F036BC3C404F18CEF27F001016D
:10435000050E006FC0C414F0156A1450036F0401F9
:10436000BF518AEF27F001010F0E006F000EE66EBD
:10437000010EE66E030EE66E64DCE552E552E55290
:10438000990EE66E050EE66E060EE66E5ADCE552F6
:10439000E552E5529F0EE66E050EE66E060EE66EDF
:1043A00050DCE552E552E55201010069000EE66E6F
:1043B000010EEAD00101070E006F4AC503F14CC59A
:1043C00004F14BC505F14DC506F107690001B0AB1D
:1043D00002D0080E04D0B0ADABEF29F0040E0501F9
:1043E0004C110101046FABEF29F00101070E006FC2
:1043F000030EE66E010EE66E040EE66EE66A020E2F
:104400001FD10101050E006F030EE66E010EE66E70
:10441000020EE66EE66A100E83D00101070E006FF1
:10442000A7C414F0A8C415F0A9C416F0AAC417F0C4
:10443000180ED8901732163215321432E806F9E108
:1044400014500101036FA9C414F0AAC415F00001AF
:10445000166A176A14500101046FA8C414F0A9C4A5
:1044600015F0AAC416F00001176A14500101056F77
:104470000401A75135D201010B0E006F030EE66E49
:10448000010EE66E080EE66EE66A160E0BD001010E
:104490000B0E006F030EE66E010EE66E080EE66E62
:1044A000E66A1E0EE66EE66AA5EC0CF0146E060EC9
:1044B000E15E1450010175EF28F001010D0E006F4F
:1044C000030EE66E010EE66E0A0EE66EE66A260E34
:1044D000E66EE66AA5EC0CF0146E060EE15E145072
:1044E00001010D69000EE66E010EE66E0E0EB0EFD4
:1044F00029F00101050E006F030EE66E010EE66E57
:10450000020EE66EE66A140E0BD00101050E006F76
:10451000030EE66E010EE66E020EE66EE66A120EFF
:10452000E66EE66AA5EC0CF0146E060EE15E145021
:1045300001018CEF27F00101050E006FA5C014F0FA
:10454000156A1450036F0001A4518AEF27F001018E
:104550000F0E006F0F69000EE66E010EE66E030E81
:10456000E66E21EC1EF0E552E552E552000EE66ED5
:10457000050EE66E0C0EE66E21EC1EF0E552E552DD
:10458000E5520F0EE66E010EE66E010EB0EF29F059
:104590000101050E006FBEC414F0156A1450036FBC
:1045A0000401BD518AEF27F00101070E006FB5C469
:1045B00014F0B6C415F0B7C416F0B8C417F0180E4E
:1045C000D8901732163215321432E806F9E1145039
:1045D0000101036FB7C414F0B8C415F00001166AE6
:1045E000176A14500101046FB6C414F0B7C415F073
:1045F000B8C416F00001176A14500101056F0401D8
:10460000B5516ED1010EE66E010EE66E010EE66E3C
:10461000E66A04010551E66EE66AA5EC0CF0146E3C
:10462000060EE15E1450AAEF27F00101070E006F9D
:10463000030EE66E010EE66E040EE66EE66A320EBC
:10464000E66EE66AA5EC0CF0146E060EE15E145000
:1046500017D1830E0401055D07E10401830EDC6FB1
:10466000010EDB6A830E09D0030E055D0AE1040129
:10467000030EDC6F010EDB6A030EF36E020EF3CF46
:10468000DBFFD950010FE66E000EDA20E66E020E57
:10469000E66EE66A360EE66EE66AF3EC0CF0146E31
:1046A000060EE15E14500101030E006F016B3E0E19
:1046B000A6D3D950010FE66E000EDA20E66E010E89
:1046C000E66EE66A460EE66EE66AA5EC0CF0146E3F
:1046D000060EE15E14500101040E006F010EDBCFE7
:1046E00003F1F2EF27F00101170E006F140EE66ED2
:1046F000E66A160EE66E050EE66E030EE66E010E17
:10470000E66E03EC5CF0146E060EE15E14500101DF
:104710001769000EE66E010EE66E180EB0EF29F076
:104720000101080E006F380EE66EE66A96EC02F0A4
:10473000E552E5520101036F120EE66EE66A96EC51
:1047400002F0E552E5520101046FE8407F0B046F6F
:10475000390EE66EE66A96EC02F0E552E55201018A
:10476000056F060EE66E010EE66E020EE66EE66A56
:10477000140EE66EE66AA5EC0CF0146E060EE15E11
:10478000145001010869000EE66E010EE66E090E76
:10479000B0EF29F0D950010FE66E000EDA20E66E78
:1047A000040EE66EE66A660E20D0D950010FE66E62
:1047B000000EDA20E66E040EE66EE66A560E15D09E
:1047C000D950010FE66E000EDA20E66E040EE66E9A
:1047D000E66A5A0E0AD0D950010FE66E000EDA20B2
:1047E000E66E040EE66EE66A5E0EE66EE66AA5EC1E
:1047F0000CF0146E060EE15E14500101070E006FFE
:10480000010EDBCF03F1020EDBCF04F1030EDBCF91
:1048100005F1040EDBCF06F1AAEF29F00101040E29
:10482000006F8950040B01E1DCD3010EDAD30401DF
:104830000551E8B08984E8B08DD389948BD3010108
:10484000070E006FD950010FE66E000EDA20E66EFB
:10485000040EE66EE66A4C0EE66EE66AA5EC0CF017
:10486000146E060EE15E1450010EDBCF03F1020E52
:10487000DBCF04F1030EDBCF05F1040EDBCF06F135
:104880000101AAEF29F00101070E006F7BC014F0AF
:104890007CC015F07DC016F07EC017F0180ED890C1
:1048A0001732163215321432E806F9E114500101BC
:1048B000036F7DC014F07EC015F00001166A176A00
:1048C00014500101046F7CC014F07DC015F07EC04F
:1048D00016F00001176A14500101056F00017B51A9
:1048E0000101A9EF29F0010EDB6A020EDB6A030E5B
:1048F000DB6A040EDB6AD950010FE66E000EDA2087
:10490000E66E040EE66EE66A4C0ED6D2070EE66E32
:10491000040EE66E010EE66EE66A530EE66EE66A79
:10492000A5EC0CF0146E060EE15E14500101040EAD
:10493000006F07C403F156D301010C0E006F030E84
:1049400000017915166E030E00017A15040DF3CFE0
:1049500015F00001AB51040B01E0FF0E010B400DFF
:10496000F3CF14F0AB51020B01E0FF0E010B800DF1
:10497000F3501424152416240101036F0001AB51D8
:10498000010B01E0FF0E010B186E0001AA51100B84
:1049900001E0FF0E030BE824176EAA51020B01E0A1
:1049A000FF0E040DF3CF16F0AA51080B01E0FF0E25
:1049B000080DF3CF15F0AA51040B01E0FF0E100D06
:1049C000F3CF14F0010E00019815400DF35014249C
:1049D00015241624172418240101046F99C005F129
:1049E000CBC414F0156A1450066F0401CA510101BA
:1049F000076FE3C414F0E4C415F0E5C416F0E6C490
:104A000017F0180ED8901732163215321432E80605
:104A1000F9E114500101086FE5C414F0E6C415F083
:104A20000001166A176A14500101096FE4C414F0FA
:104A3000E5C415F0E6C416F00001176A1450010130
:104A40000A6F0401E35101010B6F0C69000EE66E61
:104A5000010EE66E0D0EB0EF29F0030EE66E010EAC
:104A6000E66E040EE66EE66A020EE66EE66AA5ECF7
:104A70000CF0146E060EE15E14500401AB6BAC6BCF
:104A8000AD6BAE6B080E1F0BABC414F0ACC415F0CD
:104A9000ADC416F0AEC417F007E0D8901436153642
:104AA00016361736E806F9E103C118F0196A1A6AD2
:104AB0001B6A145018100401AB6F15501910AC6F1D
:104AC00016501A10AD6F17501B10AE6F080E1F0B4B
:104AD000ABC414F0ACC415F0ADC416F0AEC417F0FE
:104AE00007E0D8901436153616361736E806F9E181
:104AF00004C118F0196A1A6A1B6A145018100401CC
:104B0000AB6F15501910AC6F16501A10AD6F1750CF
:104B10001B10AE6F080E1F0BABC414F0ACC415F025
:104B2000ADC416F0AEC417F007E0D89014361536B1
:104B300016361736E806F9E105C118F0196A1A6A3F
:104B40001B6A145018100401AB6F15501910AC6F8C
:104B500016501A10AD6F17501B10AE6F080E1F0BBA
:104B6000ABC414F0ACC415F0ADC416F0AEC417F06D
:104B700007E0D8901436153616361736E806F9E1F0
:104B800006C118F0196A1A6A1B6A14501810040139
:104B9000AB6F15501910AC6F16501A10AD6F17503F
:104BA0001B10AE6F100E05C4DBFFDB50640802E281
:104BB000640E09D0460EF36E100EDBCFF4FFF350F7
:104BC000F45C05E2460EF36E100EF3CFDBFF100E21
:104BD000DBCF14F0156A166A176AABC406F0ACC4D2
:104BE00007F0ADC408F0AEC409F0640E0B6E0C6A99
:104BF0000D6A0E6A03EC58F014C00BF015C00CF0EF
:104C000016C00DF017C00EF058EC5DF002C0A7F40E
:104C100003C0A8F404C0A9F405C0AAF402C014F0AB
:104C200003C015F004C016F005C017F0180ED89098
:104C30001732163215321432E806F9E11450010128
:104C4000006FA9C414F0AAC415F00001166A176A0F
:104C500014500101016FA8C414F0A9C415F0AAC42E
:104C600016F00001176A14500101026F0401A751E8
:104C70000101036F000EE66E010EE66E040EE66E95
:104C8000E66A080EE66EE66AF3EC0CF0146E060EA9
:104C9000E15E1450F8EC3BF0146E156A166A176A60
:104CA000A7C406F0A8C407F0A9C408F0AAC409F074
:104CB000640E0B6E0C6A0D6A0E6A03EC58F014C099
:104CC0000BF015C00CF016C00DF017C00EF058EC2C
:104CD0005DF002C090F003C091F004C092F005C0F6
:104CE00093F0A7C414F0A8C415F0A9C416F0AAC480
:104CF00017F0640E0B6E0C6A0D6A0E6AA7C406F0FC
:104D0000A8C407F0A9C408F0AAC409F003EC58F03D
:104D100006C014F007C015F008C016F009C017F05F
:104D200090C006F091C007F092C008F093C009F05F
:104D300014C00BF015C00CF016C00DF017C00EF02B
:104D400003EC58F006C0C3F4A7C406F0A8C407F0EB
:104D5000A9C408F0AAC409F06DEC56F007C014F01D
:104D600008C015F009C016F00AC017F0CD0E0C6E81
:104D7000CC0E0D6E0E6E3D0E0F6E70EC57F0B1EC5A
:104D800058F006C083F007C084F008C085F009C061
:104D900086F0830EE96E000EEA6E0401A751EE2440
:104DA00000018B6F0401A851EE2000018C6F0401FB
:104DB000A951EE2000018D6F0401AA51EE200001DF
:104DC0008E6F830EE96E000EEA6EEE500401A75D51
:104DD0000001876FEE500401A8590001886FEE5062
:104DE0000401A9590001896FEE500401AA5900017C
:104DF0008A6F0101030E006F05C401F1600E026F9E
:104E0000ACD0010E07C4DBFF020E08C4DBFF030EAB
:104E100009C4DBFF040E0AC4DBFFD950010FE66EA4
:104E2000000EDA20E66E040EE66EE66A660E44D0E8
:104E3000010E07C4DBFF020E08C4DBFF030E09C42A
:104E4000DBFF040E0AC4DBFFD950010FE66E000E33
:104E5000DA20E66E040EE66EE66A560E2DD0010EDE
:104E600007C4DBFF020E08C4DBFF030E09C4DBFF2F
:104E7000040E0AC4DBFFD950010FE66E000EDA20E3
:104E8000E66E040EE66EE66A5A0E16D0010E07C4F0
:104E9000DBFF020E08C4DBFF030E09C4DBFF040EB8
:104EA0000AC4DBFFD950010FE66E000EDA20E66E71
:104EB000040EE66EE66A5E0EE66EE66AF3EC0CF051
:104EC000146E060EE15E14500101040E006F036BB8
:104ED00089D00101006B016B000EE66E010EE66EDB
:104EE000020EE66EE66A0C0EE66EE66AF3EC0CF075
:104EF000146E060EE15E14500401BF6BC06B39D214
:104F00000101050E006FC2C414F0156A1450036F3E
:104F10000401C1510101046F0569000EE66E010E26
:104F2000E66E060E1DD29496949894960F013A97C9
:104F300094983A998984010EE66EE66A5EEC02F076
:104F4000E552E55289949486948894860F013A97A5
:104F500094883A990101030E006F0369000EE66E12
:104F6000010EE66E040EFCD1600EE66EEA0EE66EF1
:104F70005EEC02F0E552E5528984B9EC3AF089948E
:104F8000F8D140EC2FF0F5D175EC33F0F2D10101FE
:104F9000040E006F2EEC55F023D00101040E006FBB
:104FA00017EC55F01DD00101040E006FFEEC54F01B
:104FB00017D00101040E006FE5EC54F011D001018F
:104FC000040E006FBBEC54F00BD00101040E006F17
:104FD000A3EC54F005D00101040E006FD4EC54F0A2
:104FE0000101036F0469000EE66E010EE66E050E08
:104FF000B7D10101090E006FE66A47EC55F0E552A2
:105000000101036F010EE66E47EC55F0E552010118
:10501000046F020EE66E47EC55F0E5520101056F94
:10502000030EE66E47EC55F0E5520101066F040EE3
:10503000E66E47EC55F0E5520101076F050EE66E8E
:1050400047EC55F0E5520101086F0969000EE66E64
:10505000010EE66E0A0E84D101010A0E006F030EE6
:10506000E66E010EE66ECF0EE66EE66AC1EC50F01B
:10507000E552E552E552E552090EE66E010EE66E86
:10508000D50E15D001010A0E006F030EE66E010E5B
:10509000E66ED60EE66EE66AC1EC50F0E552E552D9
:1050A000E552E552090EE66E010EE66EDC0EE66E86
:1050B000E66AECEC51F0E552E552E552E55260D07B
:1050C0001EEC54F001010B0E006F2ACF03F12BCF21
:1050D00004F12CCF05F12DCF06F12ECF07F12FCF04
:1050E00008F130CF09F131CF0AF10B69000EE66EFD
:1050F000010EE66E0C0E34D10101E90E006F010EB7
:1051000004D00101E90E006F020EE66E6EEC1FF096
:10511000E5520101E969000EE66E010EE66EEA0E47
:105120001FD101012B0E006F030EE66E6EEC1FF017
:10513000E55201012B69000EE66E010EE66E2C0EA3
:105140000FD101010A0E006F030EE66E010EE66E2E
:10515000070EE66EE66AF00E0BD001010A0E006F34
:10516000030EE66E010EE66E070EE66EE66AF70EB9
:10517000E66EE66AA5EC0CF0146E060EE15E1450C5
:1051800001010A69000EE66E010EE66E0B0EE8D014
:105190000101100E006F030EE66E010EE66E0F0E9B
:1051A000E66EE66A740E47D00101100E006F030E22
:1051B000E66E010EE66E0F0EE66EE66A810E3BD0DD
:1051C0000101100E006F030EE66E010EE66E0F0E6B
:1051D000E66EE66A8E0E2FD00101100E006F030EF0
:1051E000E66E010EE66E0F0EE66EE66A9B0E23D0AB
:1051F0000101100E006F030EE66E010EE66E0F0E3B
:10520000E66EE66AA80E17D00101100E006F030EBD
:10521000E66E010EE66E0F0EE66EE66AB50E0BD078
:105220000101100E006F030EE66E010EE66E0F0E0A
:10523000E66EE66AC20EE66EE66AA5EC0CF0146E47
:10524000060EE15E145001011069000EE66E010EBB
:10525000E66E110E85D00101070E006FD0C406F076
:10526000D1C407F0D2C408F0D3C409F06BEC56F0F7
:1052700007C014F008C015F009C016F00AC017F0F6
:10528000F60E0C6E280E0D6E9C0E0E6E3F0E0F6EFF
:1052900070EC57F0B1EC58F0150E06C0DBFF160E9F
:1052A00007C0DBFF170E08C0DBFF180E09C0DBFFCD
:1052B000150EDBCF14F0160EDBCF15F0170EDBCF7B
:1052C00016F0180EDBCF17F0D890173216321532C1
:1052D0001432E806F9E114500101036F150EDBCF1B
:1052E00014F0160EDBCF15F0170EDBCF16F0180EEC
:1052F000DBCF17F0100ED890173216321532143259
:10530000E806F9E114500101046F150EDBCF14F02B
:10531000160EDBCF15F0170EDBCF16F0180EDBCF15
:1053200017F0080ED8901732163215321432E806EC
:10533000F9E114500101056F150EDBCF14F0160EC4
:10534000DBCF15F0170EDBCF16F0180EDBCF17F002
:105350001450066F0769000EE66E010EE66E080E29
:10536000E66E21EC1EF0E552E552E55202D0010E48
:10537000DF6EDF50146E190EE15C02E2E16AE55265
:10538000E16E1450E552E7CFD9FF1200D9CFE6FF06
:10539000E1CFD9FF130EE1260F0EE66EE66AE66A4C
:1053A000D9CFE6FFDACFE6FF2EEC5CF0146E050EE7
:1053B000E15E145004010651A60A01E188D1030AF6
:1053C00001E178D1010A01E16CD1070A01E160D164
:1053D000010A01E154D1030A01E148D1010A01E1C6
:1053E0003CD1310A01E128D1A60A01E1FFD0020A2D
:1053F00001E1E8D0060A01E1D1D0020A01E1BDD005
:10540000A30A01E1B7D00D0A01E1AAD0010A01E126
:10541000A1D0030A01E191D0010A01E186D0060A78
:105420006BE0030A5CE0010A16E00F0A01E065D1B7
:105430000101040E006F05C401F1040105A106D0AD
:10544000FE0E0515E66EE66A660E12D00551E66E92
:10545000E66A660E2AD00101040E006F05C401F150
:10546000040105A11ED0FE0E0515E66EE66A680E63
:10547000E66EAFEC09F0E552E552E552100EF3CFBF
:10548000DBFF110EF4CFDBFF100EDBCF14F0110E9B
:10549000DBCF15F015C014F0156A14500101036F2D
:1054A00042D00551E66EE66A680EE66EAFEC09F092
:1054B000E552E552E552100EF3CFDBFF110EF4CFAB
:1054C000DBFFFF0EE76E100EDBCF14F0110EDBCF0B
:1054D00015F0E7501416156A14C003F124D0010129
:1054E000040E006F05C401F1030EE66E010EE66EB8
:1054F00005C4E6FF660E0CD00101040E006F05C462
:1055000001F1030EE66E010EE66E05C4E6FF680EBD
:10551000E66E28EC04F0E552E552E552E552E76EFE
:105520000F0EE7CFDBFF010180D00751E66EE66A80
:105530000551E66EE66A660E07D00751E66EE66A2A
:105540000551E66EE66A680EE66EF9EC0AF0146E36
:10555000050E80D007C4E6FF05C4E6FF660E05D041
:1055600007C4E6FF05C4E6FF680EE66E41EC03F0F3
:10557000E552ABD0CDEC3BF0AFD005C4DFFF010E60
:10558000DB6A020EDB6A030EDB6AD9CFE6FFDACFF5
:10559000E6FF040EE66EE66A120E3BD007C4DFFF9C
:1055A000010E08C4DBFF020E09C4DBFF030E0AC4B0
:1055B000DBFFD9CFE6FFDACFE6FF040EE66EE66A40
:1055C000560E27D007C4DFFF010E08C4DBFF020E12
:1055D00009C4DBFF030E0AC4DBFFD9CFE6FFDACF35
:1055E000E6FF040EE66EE66A5A0E13D007C4DFFF2C
:1055F000010E08C4DBFF020E09C4DBFF030E0AC460
:10560000DBFFD9CFE6FFDACFE6FF040EE66EE66AEF
:105610005E0EE66EE66AF3EC0CF0146E060EE15ECA
:1056200014500101040E006F036B0469000EE66E56
:10563000010EE66E050E5BD0070EE66E040EE66EFA
:10564000010EE66EE66A0551E66EE66AF3EC0CF0D2
:10565000146E060EE15E14503FD005C4E6FFD8EC90
:1056600053F0E55205C4E6FFE66A2DD005C4E6FF17
:1056700072EC53F0E55205C4E6FF010E23D005C4D9
:10568000E6FFA2EC53F0E55205C4E6FF020E1AD085
:1056900005C4E6FF3DEC53F0E55205C4E6FF030EFA
:1056A00011D005C4E6FFF1EC52F0E55205C4E6FF67
:1056B000040E08D005C4E6FFB6EC52F0E55205C46E
:1056C000E6FF050EE66E0BEC54F0E55204D005C47F
:1056D000E6FF26EC53F0E5520101030E006F05C40E
:1056E00001F10369000EE66E010EE66E040EE66E31
:1056F00021EC1EF0E552E552E552130EE15C02E2A8
:10570000E16AE552E16EE552E7CFD9FF1200D9CF49
:10571000E6FFE1CFD9FFE65205015051EA6A440F96
:10572000E96E040EEA22EFCFDFFF0401ED2B040146
:10573000E86BE96B05015151180A01E1CBD00F0A62
:1057400001E1C4D0010A01E1AFD0030A01E1A9D00F
:105750001B0A6CE0030A33E0010A29E0070A16E09D
:105760000B0A01E0C1D0DFCF04F4020EDF5C05E1DB
:105770000501526B05010B0E18D0040EDF5C01E031
:10578000B4D00501526B0501150E0FD0DFCF05F423
:10579000DF5001E19DD0030EDF5C03E0830EDF5C90
:1057A00002E1020E01D0030E5125516F9ED0516BC4
:1057B0000001AC81DFCF06F40401F12B96D0390E45
:1057C000DF5C67E03E0EDF5C64E0910EDF5C61E071
:1057D000930EDF5C5EE0970EDF5C5BE0980EDF5CB3
:1057E00058E0990EDF5C55E09A0EDF5C52E0A00EA7
:1057F000DF5C4FE0A10EDF5C4CE0A20EDF5C49E015
:10580000A30EDF5C46E0A40EDF5C43E0A50EDF5C88
:1058100040E0A60EDF5C3DE0600EDF5C3AE0F10E9A
:10582000DF5C3DE3DF50F9083AE333D0390EDF5C4B
:1058300030E0910EDF5C2DE0930EDF5C2AE0970EE6
:10584000DF5C27E0980EDF5C24E0990EDF5C21E04E
:105850009A0EDF5C1EE0A00EDF5C1BE0A10EDF5C99
:1058600018E0A20EDF5C15E0A30EDF5C12E0A40ED0
:10587000DF5C0FE0A50EDF5C0CE0A60EDF5C09E04C
:10588000600EDF5C06E0F10EDF5C09E3DF50F90833
:1058900006E30001AC81DFCF06F40401F12B050122
:1058A00021D0DFCF05F414D0DFCF06F4910EDF5CFA
:1058B0000FE09C0EDF5C0CE09D0EDF5C09E09E0EAD
:1058C000DF5C06E09F0EDF5C0DE102D0DFCF07F466
:1058D000512B0BD0FF0EDF5C04E10001AC81040111
:1058E000F12B0501516B01D0516B0001ACA12AD005
:1058F000AC91F0EC2DF00101016B06C402F1000146
:10590000ADA103D0AD91CDEC3BF0030E0401DC5D05
:1059100007E10401F12B06C4E6FFF5EC1FF00FD000
:10592000830EDC5D0DE106C4E6FFF5EC1FF0E552E9
:10593000010806E10401F22B06C4E6FF27DDE5526B
:0E594000ACA2FED7E552E552E7CFD9FF120028
:02594E00DACFAE
:10595000E4FFE2CFDAFFE9CFE4FFEACFE4FFE6526B
:10596000D9CFE6FFE1CFD9FFE652ABA406D00401C0
:10597000E86BE96BAECF60F01ED09EAA1CD004018C
:10598000E86BE96B05014F51EA6A440FE96E040EBA
:10599000EA22AECFEFFF4FC5DFFF4F29266E276A01
:1059A000276A3F0E261626C04FF55051265CE5E1CA
:1059B000DFCF4FF5E2D7E552E552E7CFD9FFE55209
:1059C000E5CFEAFFE5CFE9FFE5CFDAFF1100D8CF59
:1059D000E4FFE0CFE4FFE46EDACFE4FFE2CFDAFFEA
:1059E000E9CFE4FFEACFE4FFF6CFE4FFF7CFE4FF2F
:1059F000F5CFE4FFF3CFE4FFF4CFE4FFFACFE4FF09
:105A000000EE00F0140EE80403E3EECFE4FFFBD752
:105A100000EE14F0100EE80403E3EECFE4FFFBD732
:105A2000E6529EA028D00001AC890501462B640EE9
:105A3000455D15E3456B0001AC8DB2810401E72B98
:105A40000A0EE75D03E196EC03F009D0140EE75D62
:105A500006E1450EE66E0CD9E55234EC02F0D5C4F1
:105A600024F0256A2450CF6E0401D451CE6E050176
:105A7000522B452B9E90E55200EE23F0100EE804C9
:105A800003E3E5CFEDFFFBD700EE13F0140EE804BF
:105A900003E3E5CFEDFFFBD7E5CFFAFFE5CFF4FF5A
:105AA000E5CFF3FFE5CFF5FFE5CFF7FFE5CFF6FF55
:105AB000E5CFEAFFE5CFE9FFE5CFDAFFE550E5CF37
:105AC000E0FFE5CFD8FF1000D9CFE6FFE1CFD9FF47
:105AD000AC6AAB6AFE0EDBB0AC88DBA202D0AC8C49
:105AE000AB8CDBB4AC8EDBA602D0AB8801D0AB8A2A
:105AF000DBB8AC84DBBAAB86DBAC02D09D8A01D0CC
:105B00009D9ADBAE02D09D8801D09D98FC0EDB50A3
:105B1000AF6EFD0EDBCF15F015C014F0156A1450F2
:105B2000B06EAC8AAB8E949C0F013A8D948E3A9FE6
:105B3000AC50100B05E0AC50800B02E1948C3A9D08
:105B4000E552E7CFD9FF120005015C510A0A29E0AE
:105B5000080A21E0030A09E0010A1DE15D2B030E9A
:105B60005D5D25E35D6B5E6B0DD05D2B0401ED513A
:105B700014080AE2F151030807E205015E2B020E48
:105B80005E5D08E35C2B12000A0E05015D5D0FE30C
:105B90000A0E5C6F12000001AD9505015C6B5D6B38
:105BA0001200380EE66E64D8E55234EC02F01200B2
:105BB0008B8C8B8E949C9298938A0C0EE66EE66A80
:105BC000480EE66E81DFE552E552E552080EB86EEA
:105BD00005014F6B506B0001AC91AC93AC9512007A
:105BE000F10E0401065D43E20201F351500801E3A6
:105BF000F32B0001B2A103D0B291EBEC55F00201FE
:105C0000F051030DF3CFE9FFF4CFEAFF000EE926D0
:105C1000030EEA22BDC0EFFFF051030DF3CFE9FF01
:105C2000F4CFEAFF000EE926030EEA22010EE92670
:105C3000000EEA22BEC0EFFFF051030DF3CFE9FFE3
:105C4000F4CFEAFF000EE926030EEA22020EE9264F
:105C5000000EEA2206C4EFFFF029146E500E156EF6
:105C60000E6E14C009F049EC5EF005C0F0F21200AF
:105C7000D9CFE6FFE1CFD9FF020EE126DF6A010EA0
:105C8000DB6A0001ABA303D0800EDF10DF6EABA593
:105C900003D0400EDF10DF6EABA103D0200EDF106B
:105CA000DF6EADA303D0100EDF10DF6EB0A503D002
:105CB000080EDF10DF6EB0A703D0040EDF10DF6E1A
:105CC000B0A103D0020EDF10DF6EB0A303D0010E2F
:105CD000DF10DF6EB0A907D0010EDB508009E76E40
:105CE000010EE7CFDBFFB0AB07D0010EDB50400960
:105CF000E76E010EE7CFDBFFB0AD07D0010EDB5042
:105D00002009E76E010EE7CFDBFF0201F251180810
:105D100001E3F22BEBEC55F00201F1510A0DF3CF48
:105D2000E9FFF4CFEAFF000EE926020EEA22B9C02D
:105D3000EFFFF1510A0DF3CFE9FFF4CFEAFF000EB8
:105D4000E926020EEA22010EE926000EEA22BAC076
:105D5000EFFFF1510A0DF3CFE9FFF4CFEAFF000E98
:105D6000E926020EEA22020EE926000EEA22BBC054
:105D7000EFFFF1510A0DF3CFE9FFF4CFEAFF000E78
:105D8000E926020EEA22030EE926000EEA22BCC032
:105D9000EFFFF1510A0DF3CFE9FFF4CFEAFF000E58
:105DA000E926020EEA22040EE926000EEA22BDC010
:105DB000EFFFF1510A0DF3CFE9FFF4CFEAFF000E38
:105DC000E926020EEA22050EE926000EEA22BEC0EE
:105DD000EFFFF1510A0DF3CFE9FFF4CFEAFF000E18
:105DE000E926020EEA22060EE926000EEA22FE0E3F
:105DF000DBCFEFFFF1510A0DF3CFE9FFF4CFEAFF5C
:105E0000000EE926020EEA22070EE926000EEA221B
:105E1000C3C4EFFFF1510A0DF3CFE9FFF4CFEAFF5E
:105E2000000EE926020EEA22080EE926000EEA22FA
:105E3000DFCFEFFFF1510A0DF3CFE9FFF4CFEAFF17
:105E4000000EE926020EEA22090EE926000EEA22D9
:105E5000010EDBCFEFFFF129146E180E156E0E6EDA
:105E600014C009F049EC5EF005C0F1F2020EE15CED
:105E700002E2E16AE552E16EE552E7CFD9FF120096
:105E8000D9CFE6FFE1CFD9FF200EE126D950070F89
:105E9000E96EDACFEAFF440EEE6E450EEE6E420E6C
:105EA000EE6E550EEE6E470EEE6E200EEE6E630E2B
:105EB000EE6E6F0EEE6E640EEE6E650EEE6E200EE2
:105EC000EE6E740EEE6E610EEE6E620EEE6E6C0E87
:105ED000EE6E650EEE6E200EEE6E560EEE6E310E0E
:105EE000EE6E2E0EEE6E300EEE6E330EEE6E200E59
:105EF000EE6EEE6A1F0EDB6A0D0EE66E050EE66EA6
:105F0000000EE66E050EE66E2A0EE66E050EE66ED5
:105F1000F60E146EB70E156E166A14C0E6FFE66E26
:105F200016C0E6FFCAEC5CF0176E090EE15E175072
:105F3000E40E146EB70E156E166A14C0E6FFE66E18
:105F400016C0E6FFCAEC5CF0E552E552E552CD0E14
:105F5000146EB70E156E166A14C0E6FFE66E16C014
:105F6000E6FFCAEC5CF0E552E552E552BA0E146E5B
:105F7000B70E156E166A14C0E6FFE66E16C0E6FF91
:105F8000CAEC5CF0E552E552E552D950070FE66ED7
:105F9000000EDA20E66EB50E146EB70E156E166A98
:105FA00014C0E6FFE66E16C0E6FFCAEC5CF0176EA2
:105FB000050EE15E1750180E0201F25D01E3BED03E
:105FC000DF6A0201F251DF5C01E384D1DF500A0D88
:105FD000F3CFE9FFF4CFEAFF000EE926020EEA2232
:105FE000090EE926000EEA22EF50E66EE66ADF505F
:105FF0000A0DF3CFE9FFF4CFEAFF000EE926020E07
:10600000EA22080EE926000EEA22EF50E66EE66A62
:10601000DF500A0DF3CFE9FFF4CFEAFF000EE926C7
:10602000020EEA22070EE926000EEA22EF50E66E83
:10603000E66ADF500A0DF3CFE9FFF4CFEAFF000E66
:10604000E926020EEA22060EE926000EEA22EF50A9
:10605000E66EE66ADF500A0DF3CFE9FFF4CFEAFF00
:10606000000EE926020EEA22050EE926000EEA22BB
:10607000EF50E66EE66ADF500A0DF3CFE9FFF4CF8A
:10608000EAFF000EE926020EEA22040EE926000EBF
:10609000EA22EF50E66EE66ADF500A0DF3CFE9FF21
:1060A000F4CFEAFF000EE926020EEA22030EE926EB
:1060B000000EEA22EF50E66EE66ADF500A0DF3CFDB
:1060C000E9FFF4CFEAFF000EE926020EEA22020EF3
:1060D000E926000EEA22EF50E66EE66ADF500A0D6E
:1060E000F3CFE9FFF4CFEAFF000EE926020EEA2221
:1060F000010EE926000EEA22EF50E66EE66ADF5056
:106100000A0DF3CFE9FFF4CFEAFF000EE926020EF5
:10611000EA22EF50E66EE66A710E146EB70E156E47
:10612000166A14C0E6FFE66E16C0E6FFCAEC5CF025
:10613000176E170EE15E1750DF2A43D7F1C2DFFF5B
:10614000DF500A0DF3CFE9FFF4CFEAFF000EE92696
:10615000020EEA22090EE926000EEA22EF50E66E50
:10616000E66ADF500A0DF3CFE9FFF4CFEAFF000E35
:10617000E926020EEA22080EE926000EEA22EF5076
:10618000E66EE66ADF500A0DF3CFE9FFF4CFEAFFCF
:10619000000EE926020EEA22070EE926000EEA2288
:1061A000EF50E66EE66ADF500A0DF3CFE9FFF4CF59
:1061B000EAFF000EE926020EEA22060EE926000E8C
:1061C000EA22EF50E66EE66ADF500A0DF3CFE9FFF0
:1061D000F4CFEAFF000EE926020EEA22050EE926B8
:1061E000000EEA22EF50E66EE66ADF500A0DF3CFAA
:1061F000E9FFF4CFEAFF000EE926020EEA22040EC0
:10620000E926000EEA22EF50E66EE66ADF500A0D3C
:10621000F3CFE9FFF4CFEAFF000EE926020EEA22EF
:10622000030EE926000EEA22EF50E66EE66ADF5022
:106230000A0DF3CFE9FFF4CFEAFF000EE926020EC4
:10624000EA22020EE926000EEA22EF50E66EE66A26
:10625000DF500A0DF3CFE9FFF4CFEAFF000EE92685
:10626000020EEA22010EE926000EEA22EF50E66E47
:10627000E66ADF500A0DF3CFE9FFF4CFEAFF000E24
:10628000E926020EEA22EF50E66EE66A710E146EFF
:10629000B70E156E166A14C0E6FFE66E16C0E6FF6E
:1062A000CAEC5CF0176E170EE15E1750DF2A180E6D
:1062B000DF5C01E3DF6A1F0EDB2A0201F151DF5CC4
:1062C00009E0F251F36E1F0EDBCFF4FFF350F45CE4
:1062D00001E236D76CC014F06DC015F06EC016F038
:1062E0006FC017F0100E0B6E0E0E0C6E0D6A0E6A5C
:1062F0006CC006F06DC007F06EC008F06FC009F00A
:1063000003EC58F006C014F007C015F008C016F0F2
:1063100009C017F006C0E6FF07C0E6FF08C0E6FFA9
:1063200009C0E6FF4A0E186EB70E196E1A6A18C039
:10633000E6FFE66E1AC0E6FFCAEC5CF01B6E070EC5
:10634000E15E1B50BFC0E6FFC0C0E6FFC1C0E6FF74
:10635000C2C0E6FF2B0E146EB70E156E166A14C07F
:10636000E6FFE66E16C0E6FFCAEC5CF0176E070E9D
:10637000E15E1750C6C4E6FFC7C4E6FFC4C4E6FF2B
:10638000C5C4E6FF0A0E146EB70E156E166A14C069
:10639000E6FFE66E16C0E6FFCAEC5CF0176E070E6D
:1063A000E15E17507FC014F080C015F081C016F078
:1063B00082C017F0100E0B6E0E0E0C6E0D6A0E6A78
:1063C0007FC006F080C007F081C008F082C009F0ED
:1063D00003EC58F006C014F007C015F008C016F022
:1063E00009C017F006C0E6FF07C0E6FF08C0E6FFD9
:1063F00009C0E6FFF80E186EB60E196E1A6A18C0BC
:10640000E6FFE66E1AC0E6FFCAEC5CF01B6E070EF4
:10641000E15E1B5070C014F071C015F072C016F030
:1064200073C017F0100E0B6E0E0E0C6E0D6A0E6A16
:1064300070C006F071C007F072C008F073C009F0B8
:1064400003EC58F006C014F007C015F008C016F0B1
:1064500009C017F006C0E6FF07C0E6FF08C0E6FF68
:1064600009C0E6FFE60E186EB60E196E1A6A18C05D
:10647000E6FFE66E1AC0E6FFCAEC5CF01B6E070E84
:10648000E15E1B506CC014F06DC015F06EC016F0CC
:106490006FC017F0100E0B6E0E0E0C6E0D6A0E6AAA
:1064A0006CC006F06DC007F06EC008F06FC009F058
:1064B00003EC58F006C014F007C015F008C016F041
:1064C00009C017F006C0E6FF07C0E6FF08C0E6FFF8
:1064D00009C0E6FFCE0E186EB60E196E1A6A18C005
:1064E000E6FFE66E1AC0E6FFCAEC5CF01B6E070E14
:1064F000E15E1B50CAC0E6FFCBC0E6FFCCC0E6FFA2
:10650000CDC0E6FFA90E146EB60E156E166A14C045
:10651000E6FFE66E16C0E6FFCAEC5CF0176E070EEB
:10652000E15E1750C6C0E6FFC7C0E6FFC8C0E6FF81
:10653000C9C0E6FF8B0E146EB60E156E166A14C037
:10654000E6FFE66E16C0E6FFCAEC5CF0176E070EBB
:10655000E15E1750CEC0E6FFCFC0E6FF760E146EA8
:10656000B60E156E166A14C0E6FFE66E16C0E6FF9C
:10657000CAEC5CF0176E050EE15E17500001D051B9
:10658000E66EE66A5B0E146EB60E156E166A14C0E1
:10659000E6FFE66E16C0E6FFCAEC5CF0176E050E6D
:1065A000E15E17507BC014F07CC015F07DC016F082
:1065B0007EC017F0100E0B6E0E0E0C6E0D6A0E6A7A
:1065C0007BC006F07CC007F07DC008F07EC009F0FB
:1065D00003EC58F006C014F007C015F008C016F020
:1065E00009C017F006C0E6FF07C0E6FF08C0E6FFD7
:1065F00009C0E6FF470E186EB60E196E1A6A18C06B
:10660000E6FFE66E1AC0E6FFCAEC5CF01B6E070EF2
:10661000E15E1B500001ABA104D0DE52010EDD6E25
:1066200002D0010EDB6AABA305D0F36E020EF3CFEE
:10663000DBFF02D0020EDB6AABA506D0010EF36EC3
:10664000030EF3CFDBFF02D0030EDB6AAAAB06D04A
:10665000010EF36E040EF3CFDBFF02D0040EDB6AF3
:10666000AAAD06D0010EF36E050EF3CFDBFF02D00C
:10667000050EDB6AAAAF06D0010EF36E060EF3CF4D
:10668000DBFF02D0060EDB6ADBCFE6FFE66A050E13
:10669000DBCFE6FFE66A040EDBCFE6FFE66A030E19
:1066A000DBCFE6FFE66A020EDBCFE6FFE66A010E0D
:1066B000DBCFE6FFE66AF00E146EB50E156E166AB5
:1066C00014C0E6FFE66E16C0E6FFCAEC5CF0176E7B
:1066D0000F0EE15E1750200EE15C02E2E16AE55226
:1066E000E16EE552E7CFD9FF1200D9CFE6FFE1CF47
:1066F000D9FF020EE126010EDB6A500E0201F35DA6
:1067000047E2DF6A0201F351DF5C01E395D0DF501D
:10671000030DF3CFE9FFF4CFEAFF000EE926030EE5
:10672000EA22020EE926000EEA22EF50E66EE66A41
:10673000DF50030DF3CFE9FFF4CFEAFF000EE926A7
:10674000030EEA22010EE926000EEA22EF50E66E61
:10675000E66ADF50030DF3CFE9FFF4CFEAFF000E46
:10676000E926030EEA22EF50E66EE66ADB0E146EAF
:10677000B50E156E166A14C0E6FFE66E16C0E6FF8B
:10678000CAEC5CF0176E090EE15E1750DF2ABAD72B
:10679000F1C2DFFFDF50030DF3CFE9FFF4CFEAFFD3
:1067A000000EE926030EEA22020EE926000EEA2276
:1067B000EF50E66EE66ADF50030DF3CFE9FFF4CF4A
:1067C000EAFF000EE926030EEA22010EE926000E7A
:1067D000EA22EF50E66EE66ADF50030DF3CFE9FFE1
:1067E000F4CFEAFF000EE926030EEA22EF50E66E30
:1067F000E66ADB0E146EB50E156E166A14C0E6FF5F
:10680000E66E16C0E6FFCAEC5CF0176E090EE15E9C
:106810001750DF2A500EDF5C01E3DF6A010EDB2A2E
:106820000201F051DF5C08E0F351F36E010EDBCFA3
:10683000F4FFF350F45CAEE3020EE15C02E2E16AC5
:10684000E552E16EE552E7CFD9FF1200D9CFE6FF5E
:10685000E1CFD9FFE652050150514F5D15E004012B
:10686000ED2BE86BE96B00018F6BACB102D087ECCC
:106870002BF005015029146E156A0001156A3F0EB0
:10688000141614C050F505D01E0E525D02E3526B73
:10689000516B82BE12D00401E82B000EE9231E0EBC
:1068A000E85D000EE95909E3D8EC2DF00401E86B2E
:1068B000E96B0001AD850401EA2BE552E552E7CF13
:1068C000D9FF1200D9CFE6FFE1CFD9FF1A0EE1269A
:1068D000640EDF6EDE52500EDD6E320EF36E020E6F
:1068E000F3CFDBFF140EF36E030EF3CFDBFF040ECA
:1068F000DB6A050EDB6A060EDB6A070EDB6A080E32
:10690000DB6A170EDB6A180EDB6A190EDB6A000100
:10691000AD9540EC3DF096EC03F0B7EC03F0000EC3
:10692000E96E040EEA6EEE50000175190CE1EE50AE
:106930000001761908E1EE500001771904E1EE50EC
:106940000001781900E12AE1000EE96E040EEA6EFA
:10695000EE500001A6190CE1EE500001A71908E164
:10696000EE500001A81904E1EE500001A91900E160
:1069700015E1750EE96E000EEA6EEE500001A619E3
:106980000CE1EE500001A71908E1EE500001A81932
:1069900004E1EE500001A91900E15CE000C475F0CB
:1069A00001C476F002C477F003C478F000C4A6F006
:1069B00001C4A7F002C4A8F003C4A9F00001796BD8
:1069C0000001AB870001906B916B926B936B0001A0
:1069D000A06BA16BA26BA36B0001AB930001AB9109
:1069E0000001AB950001986B00019A6B0001996B57
:1069F0000001BF6BC06BC16BC26B0001B1910001A4
:106A0000B1930001B1950001B1970001B199000166
:106A1000B19B0001B19D0401A36BA46B0401A56BA4
:106A2000A66B0001AD910001AD930001C56B0001A3
:106A30007B6B7C6B7D6B7E6B0001616B0001646B1B
:106A40000001636B0001656B0001676B0001626B05
:106A5000CDEC3BF040EC0DF00001B0910001B093A3
:106A60000001B0950001B0970001B0990001B09B02
:106A70000001B09D0001B2830001AC9D0001AC9902
:106A80000001AC9B0501476BA7C414F0A8C415F026
:106A9000A9C416F0AAC417F0640E0B6E0C6A0D6A36
:106AA0000E6A14C006F015C007F016C008F017C033
:106AB00009F003EC58F006C014F007C015F008C048
:106AC00016F009C017F090C006F091C007F092C010
:106AD00008F093C009F014C00BF015C00CF016C0FC
:106AE0000DF017C00EF003EC58F006C0C3F49E90F2
:106AF0009D809F90990EF36E070EF3CFDBFF080E7B
:106B0000DB6A080EDBCFE6FF070EDBCFE6FF08EC03
:106B100003F0E552E552E80EE66E030EE66E5EEC1B
:106B200002F0E552E5522A0EE66E050EE66ED80E2C
:106B3000146EB50E156E166A14C0E6FF15C0E6FF9A
:106B400016C0E6FFCAEC5CF0176E050EE15E17504A
:106B5000020EE66E38EC2EF0E552CC0E146EB50E39
:106B6000156E166A14C0E6FF15C0E6FF16C0E6FFF4
:106B7000CAEC5CF0E552E552E55205014F6B0501A8
:106B8000506B0001AC910001AC930001AC95040185
:106B9000AF6BB06BB16BB26B340EE66EE66A660E2D
:106BA000E66EAFEC09F0E552E552E552F3CFB3F4EF
:106BB000F4CFB4F4160EE66EE66A660EE66EAFEC3F
:106BC00009F0E552E552E552050EF3CFDBFF060E64
:106BD000F4CFDBFF050EDBCFB5F4060EDBCFB6F44A
:106BE0000401B76BB86BB6AF02D0B769B869260EAF
:106BF000E66EE66A680EE66EAFEC09F0E552E55225
:106C0000E552F3CFCEF40F0E0401CE150401CE6F82
:106C1000260EE66EE66A660EE66EAFEC09F0E55209
:106C2000E552E552F3CFCDF40F0E0401CD1504016A
:106C3000CD6F0401CD510401CE250401CC6F1E0E91
:106C4000E66EE66A660EE66EAFEC09F0E552E552D6
:106C5000E552F3CFBDF4F4CFBEF4BDC408F0BEC41A
:106C600009F056EC56F007C014F008C015F009C042
:106C700016F00AC017F00C6A400E0D6E1C0E0E6E58
:106C8000460E0F6E14C007F015C008F016C009F0CC
:106C900017C00AF01DEC57F007C094F008C095F03B
:106CA00009C096F00AC097F00401E76B1EEC54F09F
:106CB000000966E1800E0F012A110F012A6F2ACF09
:106CC000E6FFE66AFDEC06F0E552E5527F0E0F01A5
:106CD0002B150F012B6F2BCFE6FF010EE66EFDEC9F
:106CE00006F0E552E5527F0E0F012C150F012C6FB7
:106CF0002CCFE6FF020EE66EFDEC06F0E552E55203
:106D0000070E0F012D150F012D6F2DCFE6FF030E7E
:106D1000E66EFDEC06F0E552E5523F0E0F012E1532
:106D20000F012E6F2ECFE6FF040EE66EFDEC06F08F
:106D3000E552E5521F0E0F012F150F012F6F2FCFB8
:106D4000E6FF050EE66EFDEC06F0E552E552B30EE9
:106D50000F0131150F01316F31CFE6FF070EE66EDF
:106D6000FDEC06F0E552E5527F0E0F012A150F01EA
:106D70002A6F2ACFE6FFE66AFDEC06F0E552E552FF
:106D8000000EE66E010EE66E020EE66EE66A0E0E6E
:106D9000E66EE66AA5EC0CF0146E060EE15E145089
:106DA000010100510001A46FA56BA4C015F0146A85
:106DB0000101015100011424A46F000E1520A56FDC
:106DC0000001A42B000EA523A5C014F0156A14C061
:106DD00000F1A4C001F1000EE66E010EE66E020E97
:106DE000E66EE66A0E0EE66EE66AF3EC0CF0146EE2
:106DF000060EE15E1450640EE66EE66A5EEC02F08A
:106E0000E552E552AB8EAB88AC8A9D8A0501486B92
:106E10000001ACA924D0170EDB50010A06E0010ADC
:106E200001E016D0170EDB2A19D00A0E0501465DC7
:106E30000CE30501466B0001ACAB05D00401A52BAA
:106E4000000EA62302D00001AC8B0001AC9906D045
:106E5000010EF36E170EF3CFDBFF00D042D200011C
:106E6000ACAB2CD0180EDB50040A19E0070A14E072
:106E7000010A0BE0030A06E0010A01E018D0180E2F
:106E8000DB2A1BD0180EDB2A18D05FEC3FF001087C
:106E900002E1180EDB2A11D0180EDB2A0ED00001F9
:106EA000AC9B010EF36E180EF3CFDBFF06D0010E84
:106EB000F36E190EF3CFDBFF00D013D20001ACAD9F
:106EC00010D2190EDB50140A01E1EAD1070A01E1E0
:106ED000E4D1010A01E1D9D1030A01E1BCD1010ADF
:106EE00001E1B4D11F0A01E1ACD1010A01E1A4D151
:106EF000030A01E19CD1010A01E194D1070A01E1F1
:106F00008CD1010A01E17FD1030A01E1D7D0010A46
:106F100046E00F0A3FE0010A38E0030A31E0010AC7
:106F20002AE0070A23E0010A1EE0030A0AE0010A38
:106F300001E0D1D100018F6B0501486B190EDB2AEE
:106F4000D0D10DEC40F001080DE10001795106E1CE
:106F5000010EE66E06EC3AF0E55202D079C07AF006
:106F6000190EDB2ABED1190EDB2ABBD1B2EC16F00A
:106F7000190EDB2AB6D116EC17F0190EDB2AB1D1A7
:106F800091EC47F0190EDB2AACD182EC3DF0190EE2
:106F9000DB2AA7D153EC07F0190EDB2AA2D100019E
:106FA000ABA789D0030E0501485D01E284D0000142
:106FB000AB910001AB930001AB950401A56BA66BEF
:106FC0000401A36BA46B0401000ED880C655080E03
:106FD000C75571E20401C20EC65D0D0EC7596BE2C2
:106FE000F8EC3BF0146E156A166A176AA7C406F02F
:106FF000A8C407F0A9C408F0AAC409F0640E0B6E77
:107000000C6A0D6A0E6A03EC58F014C00BF015C040
:107010000CF016C00DF017C00EF058EC5DF002C079
:1070200090F003C091F004C092F005C093F0A7C4A3
:1070300014F0A8C415F0A9C416F0AAC417F0640E81
:107040000B6E0C6A0D6A0E6A14C006F015C007F0CC
:1070500016C008F017C009F003EC58F006C014F091
:1070600007C015F008C016F009C017F090C006F070
:1070700091C007F092C008F093C009F014C00BF063
:1070800015C00CF016C00DF017C00EF003EC58F050
:1070900006C0C3F40201F06B0201F26B0201F36B54
:1070A0000201F16B010EE66E38EC2EF0E5520001A4
:1070B000AF8B0001AB97190EDB2A13D10001ADA3F2
:1070C0009FD00401C6510601005D0401C7510601AD
:1070D000015901E395D0F8EC3BF0146E156A166A7D
:1070E000176AA7C406F0A8C407F0A9C408F0AAC488
:1070F00009F0640E0B6E0C6A0D6A0E6A03EC58F010
:1071000014C00BF015C00CF016C00DF017C00EF037
:1071100058EC5DF0110E02C0DBFF120E03C0DBFF66
:10712000130E04C0DBFF140E05C0DBFFA7C414F070
:10713000A8C415F0A9C416F0AAC417F0640E0B6E0B
:107140000C6A0D6A0E6A14C006F015C007F016C06E
:1071500008F017C009F003EC58F006C014F007C09F
:1071600015F008C016F009C017F014C00BF015C0D8
:107170000CF016C00DF017C00EF0110EDBCF06F0AC
:10718000120EDBCF07F0130EDBCF08F0140EDBCFAF
:1071900009F003EC58F0150E06C0DBFF150EDB50AE
:1071A0000401D880C35509E2150EDB500401C35D0C
:1071B000E76E160EE7CFDBFF09D0150EDB5004019A
:1071C000D880C355E76E160EE7CFDBFF160EDB50F7
:1071D0000A080FE2110EDBCF90F0120EDBCF91F018
:1071E000130EDBCF92F0140EDBCF93F0150EDBCF36
:1071F000C3F40001AD93330EE66E38EC2EF0E55289
:10720000190EDB2A6ED00001790504E1DBEC12F0E7
:1072100005014E6F190EDB2A64D0B1EC42F0190E55
:10722000DB2A5FD0B5EC13F0190EDB2A5AD0C9EC7B
:1072300015F0190EDB2A55D09EEC14F0190EDB2A3E
:1072400050D0BEEC5AF0190EDB2A4BD000EC18F0EF
:10725000190EDB2A46D00001795112E100018F2B73
:1072600000018F51146E156A153404E21450B408ED
:10727000000E155404E2B9EC3AF000018F6B02D015
:1072800000018F6B190EDB2A2CD0010EE66E80EC0C
:1072900019F0E552190EDB2A24D0190EDB2A21D071
:1072A0000001AC9D05014851146E156AD890155027
:1072B00004E6FA0E145C000E155802E20501482B94
:1072C0000001ADA502D0A4EC2DF0010EF36E190E55
:1072D000F3CFDBFF06D0010EF36E190EF3CFDBFF09
:1072E00000D026EC34F00401E76B040091D51A0EAF
:1072F000E15C02E2E16AE552E16EE552E7CFD9FFD7
:02730000120079
:0E730200D9CFE6FFE1CFD9FF040EE12600014E
:10731000B2A372D0FE0EDB500601165D6DE0D9CF30
:10732000E6FFDACFE6FF0D0EE66E660EE66E28EC9F
:1073300004F0E552E552E552E552E76E020EE7CF62
:10734000DBFFD950010FE66E000EDA20E66E0D0E5F
:10735000E66E680EE66E28EC04F0E552E552E55262
:10736000E552E76E030EE7CFDBFF020EDB5044E190
:10737000030EDB5041E1FE0EDB0407E1400EDF109F
:10738000DF6E010EDB50400906D0BF0EDF14DF6E4A
:10739000010EDB50BF0BE76E010EE7CFDBFFDFCF47
:1073A000E6FF0D0EE66E660EE66E41EC03F0E5526A
:1073B000E552E552E76E020EE7CFDBFF010EDBCFB1
:1073C000E6FF0D0EE66E680EE66E41EC03F0E55248
:1073D000E552E552E76E030EE7CFDBFF020EDB500E
:1073E0000BE1030EDB5008E1FE0EDBCF16F6DB509F
:1073F0000001AA9FE8B0AA8F040EE15C02E2E16AF4
:10740000E552E16EE552E7CFD9FF1200D9CFE6FF92
:10741000E1CFD9FF040EE126DE6ADE6ADE6ADD6AAC
:10742000DD52DD52FE0EDBCF14F0156A166A176AC4
:10743000BF0EE96E000EEA6EEE5014240001BF6F1D
:10744000EE501520C06FEE501620C16FEE50172081
:10745000C26FD880000EBF55A30EC055020EC15595
:10746000000EC25501E37BD0BF6BC06BC16BC26B1A
:10747000A7C406F0A8C407F0A9C408F0AAC409F07C
:107480006DEC56F007C014F008C015F009C016F0F6
:107490000AC017F00A0E0C6ED70E0D6E230E0E6E7C
:1074A0003C0E0F6E70EC57F0B1EC58F006C0DEFFEA
:1074B00007C0DEFF08C0DEFF09C0DDFFDD52DD5280
:1074C000D9CFE9FFDACFEAFFEE500001905D906F6F
:1074D000EE509159916FEE509259926FEE50935930
:1074E000936F800E931504E0906B916B926B936B8E
:1074F000A7C414F0A8C415F0A9C416F0AAC417F0C4
:10750000640E0B6E0C6A0D6A0E6AA7C406F0A8C45E
:1075100007F0A9C408F0AAC409F003EC58F006C0AB
:1075200014F007C015F008C016F009C017F090C09D
:1075300006F091C007F092C008F093C009F014C0A3
:107540000BF015C00CF016C00DF017C00EF003ECD8
:1075500058F006C0C3F40001AB9353EC07F0040EDF
:10756000E15C02E2E16AE552E16EE552E7CFD9FF64
:107570001200D9CFE6FFE1CFD9FF040EE126DF6A82
:10758000020EDB6A030EDB6A89960001AD87230ECB
:10759000E66E38EC2EF0E5520001ADA7EED000010A
:1075A000ACA9E6D00001AC99020EDB2A640EF36EA2
:1075B000020EDBCFF4FFF350F45C01E2D9D0020EEF
:1075C000DB6A91EC47F0010EE66E20DFE552030E18
:1075D000DB2A0A0EF36E030EDBCFF4FFF350F45CEC
:1075E00001E2C3D0030EDB6A8986010EE66EE66A0D
:1075F0005EEC02F0E552E5524A0EE66E050EE66ECE
:107600001F0EE66E660EE66E28EC04F0E552E552BB
:10761000E552E552E76E010EE7CFDBFF4B0EE66E5B
:10762000050EE66E1F0EE66E680EE66E28EC04F0A0
:10763000E552E552E552E552E76E010EE7CFDBFF7A
:10764000010EDB5066E1B2EC16F00401CD05E82432
:10765000E66E5F0EE66E050EE66E320EE66E660EA6
:10766000E66EB2EC04F0146E050EE15E1450E76EA7
:10767000010EE7CFDBFF0401CE51E824E66E7B0E5E
:10768000E66E050EE66E320EE66E680EE66EB2EC43
:1076900004F0146E050EE15E1450E76E010EE7CFA4
:1076A000DBFF0401C46BC56B0401C669C769040133
:1076B000D06BD16BD26BD36B0401CD05E824E66EA1
:1076C0005F0EE66E050EE66E2AEC13F0E552E5520B
:1076D000E5520401CE51E824E66E7B0EE66E050EFF
:1076E000E66E2AEC13F0E552E552E5520001B0A532
:1076F00010D0C7C414F0156A14C09EF0C6C49FF021
:10770000C5C414F0156A14C09CF0C4C49DF000EC0C
:1077100018F0790EE66E000EE66E200EE66E660E2E
:10772000E66E28EC04F0E552E552E552E552E76ECC
:10773000010EE7CFDBFF00017951E840E8403F0B45
:10774000030B0001796F0001790503E10001AD979A
:1077500006D0020E0001795D02E10001AD970A0E2C
:10776000E66E80EC19F0E552899604000401E76B9F
:1077700082BE02D00001AD970FD78986240EE66E37
:1077800038EC2EF0E552040EE15C02E2E16AE552CB
:10779000E16EE552E7CFD9FF1200320EE66E38EC0B
:1077A0002EF0E5520001AF8B8988020EE66EE66A84
:1077B0005EEC02F0E552E55289980001AD83010EBE
:1077C000E66EE66A5EEC02F0E552E5521200D9CFB1
:1077D000E6FFE1CFD9FFFE0EDB0402E1899804D079
:1077E000FE0EDB5001E18988E552E7CFD9FF120098
:1077F000D9CFE6FFE1CFD9FF150EE126DF6ADE52D1
:107800000A0EDD6E140EF36E020EF3CFDBFF1E0EBA
:10781000F36E030EF3CFDBFF280EF36E040EF3CFEF
:10782000DBFF320EF36E050EF3CFDBFF3C0EF36E83
:10783000060EF3CFDBFF460EF36E070EF3CFDBFF32
:10784000500EF36E080EF3CFDBFF5A0EF36E090EE7
:10785000F3CFDBFF640EF36E0A0EF3CFDBFF040100
:10786000E80ED880C655090EC75502E3000EECD0CD
:10787000480EC65D0D0EC75902E3630EE5D0010E3A
:10788000F36E0B0EF3CFDBFF0A0EF36E0B0EDBCFA6
:10789000F4FFF350F45C16E20B0EEA6ADB34FE0BE5
:1078A000EA36E96E000EE926060EEA22EECF14F063
:1078B000EFCF15F0C651145CC751155803E20B0EFB
:1078C000DB2AE2D70B0EDB04E96EEA6AD890E936D0
:1078D000EA36000EE926060EEA22EE50C65D146E68
:1078E000EE50C759156E0D0E14C0DBFF0E0E15C0FD
:1078F000DBFF0B0EDB500F01D924E96E000EDA20FE
:10790000EA6EEFCF14F00B0EDB04D924E96E000E03
:10791000DA20EA6EEF50145CE66ED9500F0FE96E74
:10792000DACFEAFFE552E750EE6EED6A0B0EEA6A37
:10793000DB34FE0BEA36E96E000EE926060EEA227B
:10794000EECF16F0EFCF17F00B0EDB04E96EEA6A0C
:10795000D890E936EA36000EE926060EEA22EE5005
:10796000165C146EEE501758156E110E14C0DBFF26
:10797000120E15C0DBFF110EDBCF20F0120EDBCF95
:1079800021F0226A236A0F0EDBCF1CF0100EDBCF32
:107990001DF01E6A1F6A0D0EDBCF18F00E0EDBCF36
:1079A00019F01A6A1B6A18C006F019C007F01AC04D
:1079B00008F01BC009F01CC00BF01DC00CF01EC06D
:1079C0000DF01FC00EF058EC5DF002C014F003C0C3
:1079D00015F004C016F005C017F002C006F003C091
:1079E00007F004C008F005C009F020C00BF021C06A
:1079F0000CF022C00DF023C00EF0C0EC5DF0130EB1
:107A000006C0DBFF140E07C0DBFF0B0EDB040F010B
:107A1000D924E96E000EDA20EA6EEF50166E176A6E
:107A2000130EDB501624146E140EDB5017200C0EB0
:107A300014C0DBFFDB50630805E2630EF36E0C0E2F
:107A4000F3CFDBFF0C0EDB50146E150EE15C02E28F
:107A5000E16AE552E16E1450E552E7CFD9FF12001A
:107A6000898089948986899A898A9290929492963B
:107A7000929A2D0E0F0138130001AA9BAA9D1200A5
:107A80008B6A0F01396B100E3811386F3F0E3A15A3
:107A90003A6FE70E3A113A6F948E94969498180EB6
:107AA0008210826E8B8C8B8E949C89989298938A8C
:107AB0006288628AD5DF46EC07F0E70ED36ED3A466
:107AC000FED704013B0ED46FF60ED56FD4C4E6FF8B
:107AD000E66E25EC03F0E552E5529F8A9D8AD08E32
:107AE000F28EF28C0C0EE66EE66A480EE66E64ECE0
:107AF0002DF0E552E552E552080EE66E0CEC5EF014
:107B0000E5521200D9CFE6FFE1CFD9FF080EE126FA
:107B100006011751020A01E16ED1030A01E184D086
:107B2000010A01E0C1D1070EDB6A0401CD05F36E45
:107B3000070EDBCFF4FFF350F45C33E2070EDB50AB
:107B4000E824010FEA6A5F0FE96E050EEA22EFCF23
:107B500016F016C017F0166A070EDB50E824EA6A22
:107B60005F0FE96E050EEA22EF5000011610146E49
:107B700017C015F0030ED89015321432E804FBE15B
:107B8000070EEA6ADB34FE0BEA36E96EA50EE9263B
:107B9000050EEA2214C0EEFF15C0EDFF070EDB2A2A
:107BA000C4D7070EDB6A0401CE51F36E070EDBCF9C
:107BB000F4FFF350F45C33E2070EDB50E824010FCE
:107BC000EA6A7B0FE96E050EEA22EFCF16F016C0C7
:107BD00017F0166A070EDB50E824EA6A7B0FE96E9D
:107BE000050EEA22EF5000011610146E17C015F0B2
:107BF000030ED89015321432E804FBE1070EEA6A4E
:107C0000DB34FE0BEA36E96EBB0EE926050EEA22EE
:107C100014C0EEFF15C0EDFF070EDB2AC4D700012C
:107C2000C36B0001C46BDDD0186B070EDB6A040167
:107C3000CD05F36E070EDBCFF4FFF350F45C56E294
:107C4000070EDB50E824010FEA6A5F0FE96E050EAC
:107C5000EA22EFCF16F016C017F0166A070EDB50B7
:107C6000E824EA6A5F0FE96E050EEA22EF50000190
:107C70001610146E17C015F0030ED890153214327A
:107C8000E804FBE1050E14C0DBFF060E15C0DBFFA8
:107C9000070EDB5006E1050EDBCFB9F5060EDBCF94
:107CA000BAF5050EDBCF14F0060EDBCF15F0070E8C
:107CB000EA6ADB34FE0BEA36E96EA50EE926050E0C
:107CC000EA22EECF16F0EFCF17F01650141802E1AB
:107CD0001750151808E00601010E186F630EF36EB9
:107CE000070EF3CFDBFF070EDB2AA1D7060118052D
:107CF00003E10001C36B02D00001C32B0601196B25
:107D0000070EDB6A0401CE51F36E070EDBCFF4FFE2
:107D1000F350F45C56E2070EDB50E824010FEA6AE8
:107D20007B0FE96E050EEA22EFCF16F016C017F0B2
:107D3000166A070EDB50E824EA6A7B0FE96E050E2F
:107D4000EA22EF5000011610146E17C015F0030E52
:107D5000D89015321432E804FBE1050E14C0DBFFA5
:107D6000060E15C0DBFF070EDB5006E1050EDBCF6C
:107D7000CFF5060EDBCFD0F5050EDBCF14F0060EE7
:107D8000DBCF15F0070EEA6ADB34FE0BEA36E96E4C
:107D9000BB0EE926050EEA22EECF16F0EFCF17F064
:107DA0001650141802E11750151808E00601010ECC
:107DB000196F630EF36E070EF3CFDBFF070EDB2A9E
:107DC000A1D70601190503E10001C46B02D000012F
:107DD000C42B780E0001C35D04E2780E0001C45D7F
:107DE00003E30601172B61D0060118515EE019511B
:107DF0005CE017075AD00001AFAB06D0AF9B310E45
:107E0000E66E38EC2EF0E552DE6ADD6A020EDB6AC1
:107E1000030EDB6A780E0001C35D21E30501BB514F
:107E2000CF5D146ED051BC55156E020E14C0DBFF31
:107E3000030E15C0DBFF0A0EE76E020EDBCF14F057
:107E4000030EDBCF15F0E7501426000E1522153473
:107E500026E214500008000E15541DE320D0780EC1
:107E60000001C45D1EE30501A551B95D146EBA5150
:107E7000A65514C0DEFFDD6EDECF14F0DDCF15F0A9
:107E80000A0E1426000E1522153409E214500008BB
:107E9000000E155404E281DC0001AD9102D0000116
:107EA000AD810601176B01D0176B080EE15C02E291
:107EB000E16AE552E16EE552E7CFD9FF1200D9CF72
:107EC000E6FFE1CFD9FF020EE126DF6A06011A5173
:107ED000010A08E0010A24E192968986929889981D
:107EE0001A2B1FD0790EE66E000EE66E200EE66E9F
:107EF000660EE66E28EC04F0E552E552E552E552D6
:107F0000E76E010EE7CFDBFFDB500BE1000179519B
:107F1000E840E8403F0B030B796F010EDF6E01D0A4
:107F20001A6BDF50146E020EE15C02E2E16AE55268
:107F3000E16E1450E552E7CFD9FF1200D9CFE6FF2A
:107F4000E1CFD9FF040EE1269A0EE66E050EE66E2D
:107F5000990EE66E050EE66E660EE66E17EC1AF0EA
:107F6000146E050EE15E1450F3CFDEFFF4CFDDFF9B
:107F7000A00EE66E050EE66E9F0EE66E050EE66E30
:107F8000680EE66E17EC1AF0146E050EE15E1450E2
:107F9000020EF3CFDBFF030EF4CFDBFFD9CFE9FFF7
:107FA000DACFEAFF700ED880EE54170EED540BE3D3
:107FB000D950020FE96EDACFEAFF700ED880EE5486
:107FC000170EED5403E20001AB8B16D0DECF14F098
:107FD000DDCF15F0940E145C110E15580DE2020E53
:107FE000DBCF16F0030EDBCF17F0940E165C110EEC
:107FF000175802E20001AB9B0001AB51200B01E0DE
:10800000FF0E146E040EE15C02E2E16AE552E16EDD
:108010001450E552E7CFD9FF1200D9CFE6FFE1CFE8
:10802000D9FF020EE126DF6A06011B51130A01E1A6
:1080300085D2010A01E16BD2030A01E14AD2010AA9
:1080400001E132D21F0A01E118D2010A01E1FED199
:10805000030A01E1E3D1010A01E1C8D1070A01E104
:1080600029D1010A01E1F2D0030A01E1D7D0010AC6
:1080700001E1A4D00F0A01E187D0010A6BE0030AF5
:108080005AE0010A43E0070A32E0010A1EE0030A4F
:1080900008E0010A01E057D2929689869298899861
:1080A0004BD20401AF6BB06BB16BB26B340EE66EAA
:1080B000E66A660EE66EAFEC09F0E552E552E5526F
:1080C000F3CFB3F4F4CFB4F420D2160EE66EE66A22
:1080D000660EE66EAFEC09F0E552E552E552F3CFDD
:1080E000B5F4F4CFB6F40401B76BB86B0ED2260E1C
:1080F000E66EE66A660EE66EAFEC09F0E552E55212
:10810000E5520F0E0401F314CD6FFFD1260EE66E7B
:10811000E66A680EE66EAFEC09F0E552E552E5520C
:108120000F0E0401F314CE6F0401CD510401CE25CE
:108130000401CC6FEAD11E0EE66EE66A660EE66EAC
:10814000AFEC09F0E552E552E552F3CFBDF4F4CFC0
:10815000BEF4DBD10401CD51E824E66E5F0EE66E7D
:10816000050EE66E320EE66E660EE66EB2EC04F0BA
:10817000146E050EE15E1450E76E010EE7CFDBFFD3
:10818000DB5001E0E1D1C1D10401CE51E824E66E1B
:108190007B0EE66E050EE66E320EE66E680EE66E3D
:1081A000B2EC04F0146E050EE15E1450E76E010EA1
:1081B000E7CFDBFFDB5001E0C7D1A7D10401C46BDF
:1081C000C56B0401C669C7690401D06BD16BD26B62
:1081D000D36B0401CD05E824E66E5F0EE66E050E56
:1081E000E66E2AEC13F0E552E552E5520401CE5159
:1081F000E824E66E7B0EE66E050EE66E2AEC13F0C2
:10820000E552E552E552156AC7C49EF0C6C49FF018
:10821000156AC5C49CF0C4C49DF077D1020EE66E09
:10822000970EE66E050EE66E540EE66E660EE66E70
:10823000B2EC04F0146E050EE15E1450E76E010E10
:10824000E7CFDBFFDB5001E07FD15FD198C515F0B0
:10825000146A166A176A15AE02D01668176897C5B1
:1082600018F0196A1A6A1B6A145018100401AF6FCB
:1082700015501910B06F16501A10B16F17501B100F
:10828000B26F800EB2150CE00601010E1C6F000EDD
:108290000401AF6DB01FB023B11FB123B21FB223D1
:1082A0000401BD51BE1101E030D1100EBD6F270E8B
:1082B000BE6F2BD1AFC4B9F4B0C4BAF4B1C4BBF42F
:1082C000B2C4BCF4FA0E0B6E0C6A0D6A0E6AAFC42F
:1082D00006F0B0C407F0B1C408F0B2C409F058EC1D
:1082E0005DF002C0B9F403C0BAF404C0BBF405C029
:1082F000BCF4B3C414F0B4C415F0166A176A02C013
:1083000006F003C007F004C008F005C009F0B3C4CC
:108310000BF0B4C40CF016C00DF017C00EF003EC57
:1083200058F006C0B9F407C0BAF408C0BBF409C0DD
:10833000BCF46DEC56F007C014F008C015F009C08D
:1083400016F00AC017F0DD0E0C6E240E0D6EF40E42
:108350000E6E410E0F6E70EC57F0B1EC58F006C087
:10836000B9F407C0BAF408C0BBF409C0BCF4BDC47A
:1083700014F0BEC415F0166A176ABDC40BF0BEC473
:108380000CF016C00DF017C00EF058EC5DF002C0F6
:10839000B9F403C0BAF404C0BBF405C0BCF4100EB9
:1083A0000B6E270E0C6E0D6A0E6A02C006F003C03B
:1083B00007F004C008F005C009F003EC58F006C04F
:1083C000B9F407C0BAF408C0BBF409C0BCF4060194
:1083D0001C5101E19AD01C6B000E0401B96DBA1F4B
:1083E000BA23BB1FBB23BC1FBC238FD0020EE66E7B
:1083F000990EE66E050EE66E520EE66E660EE66E9F
:10840000B2EC04F0146E050EE15E1450E76E010E3E
:10841000E7CFDBFFDB5001E097D077D0040EE66EAC
:108420009B0EE66E050EE66E4C0EE66E660EE66E72
:10843000B2EC04F0146E050EE15E1450E76E010E0E
:10844000E7CFDBFFDB5001E07FD05FD0020EE66EAE
:108450009F0EE66E050EE66E520EE66E680EE66E36
:10846000B2EC04F0146E050EE15E1450E76E010EDE
:10847000E7CFDBFFDB5068E148D0040EE66EA10ECB
:10848000E66E050EE66E4C0EE66E680EE66EB2EC1B
:1084900004F0146E050EE15E1450E76E010EE7CF96
:1084A000DBFFDB5051E131D04A0EE66E050EE66E81
:1084B0001F0EE66E660EE66E28EC04F0E552E552FD
:1084C000E552E552E76E010EE7CFDBFFDB503CE102
:1084D0001CD04C0EE66E050EE66E200EE66E660EA5
:1084E000E66E28EC04F0E552E552E552E552E76EFF
:1084F000010EE7CFDBFFDB5027E105014C51E840DF
:10850000E8403F0B030B0001796F060115D04B0EBD
:10851000E66E050EE66E1F0EE66E680EE66E28EC41
:1085200004F0E552E552E552E552E76E010EE7CF61
:10853000DBFFDB5009E106011B2B06D0010EDF6ECD
:10854000060E1B6F01D01B6BDF50146E020EE15C38
:1085500002E2E16AE552E16E1450E552E7CFD9FF3D
:1085600012000001645111E1010E646F8980899449
:1085700089868998898A9290929492969298929AF2
:108580000F01386B0001AA9BAA9D020E0001795DC4
:108590005AE10001ABB331D0C4C414F0C5C415F026
:1085A000166A176A14500401E35D1550E459165019
:1085B000E5591750E6591FE2CAC414F0CBC415F0B0
:1085C000166A176A0401BC511718E8AE02D01734B6
:1085D00008D01450B95D1550BA591650BB591750F0
:1085E000BC5909E206011D2B1D51060806E20001D7
:1085F000AB83AB8502D006011D6B0001ABB53FD04C
:10860000A7C414F0A8C415F0A9C416F0AAC417F0A2
:10861000020ED8901732163215321432E806F9E1FC
:10862000175000019319E8AE02D0933508D090514D
:10863000145C9151155892511658935117581FE2D6
:108640000001AB851200790503E10001AB93120034
:108650000001B051080B04E0B051040B01E012001E
:10866000B0A704D00001AB83AB851200B0A507D042
:108670000001906B916B926B936B0401C36B1200C2
:10868000D9CFE6FFE1CFD9FF050EE126EBEC55F09F
:10869000080E0001BA15E840E840E8401F0B146ED0
:1086A0000001B951E8241410E66EFD0EDBCFE9FF9E
:1086B000FE0EDBCFEAFFE552E750EF6E070E00013A
:1086C000BA15200DF3500001BB11E66E010EE76EE6
:1086D000FD0EDBCFE9FFFE0EDBCFEAFFE750E92618
:1086E000000EEA22E552E750EF6ED0C406F0D1C486
:1086F00007F0D2C408F0D3C409F06BEC56F007C001
:1087000014F008C015F009C016F00AC017F0F60EF4
:108710000C6E280E0D6E9C0E0E6E3F0E0F6E70ECE2
:1087200057F0B1EC58F0010E06C0DBFF020E07C097
:10873000DBFF030E08C0DBFF040E09C0DBFF010EE8
:10874000DBCF14F0020EDBCF15F0030EDBCF16F0FB
:10875000040EDBCF17F0090ED890173216321532FF
:108760001432E806F9E1800E186E196A1A6A1B6A5B
:10877000E8501416195015161A5016161B501716D5
:108780001450DF6E010EDBCF14F0020EDBCF15F0BC
:10879000030EDBCF16F0040EDBCF17F0080ED890D7
:1087A0001732163215321432E806F9E1040EE76E7C
:1087B000FD0EDBCFE9FFFE0EDBCFEAFFE750E92637
:1087C000000EEA2214C0EFFF050EE76EFD0EDBCFB0
:1087D000E9FFFE0EDBCFEAFFE750E926000EEA22B2
:1087E000010EDBCFEFFFDF500001BC11E66E020E81
:1087F000E76EFD0EDBCFE9FFFE0EDBCFEAFFE750B1
:10880000E926000EEA22E552E750EF6E030EE76E0E
:10881000FD0EDBCFE9FFFE0EDBCFEAFFE750E926D6
:10882000000EEA22BDC0EFFF050EE15C02E2E16A44
:10883000E552E16EE552E7CFD9FF1200D9CFE6FF4E
:10884000E1CFD9FF0B0EE126010100417F0BE66E5F
:10885000FD0EDBCFE9FFFE0EDBCFEAFFE552E7506E
:10886000EF6EE00E0115E00BE838E840146E010EE3
:108870000015080DF3501410E66E010EE76EFD0EA4
:10888000DBCFE9FFFE0EDBCFEAFFE750E926000E63
:10889000EA22E552E750EF6E1F0E0115E66E020E5A
:1088A000E76EFD0EDBCFE9FFFE0EDBCFEAFFE75000
:1088B000E926000EEA22E552E750EF6E7F0E021520
:1088C000E66E030EE76EFD0EDBCFE9FFFE0EDBCF9B
:1088D000EAFFE750E926000EEA22E552E750EF6E84
:1088E000040EE76EFD0EDBCFE9FFFE0EDBCFEAFFE5
:1088F000E750E926000EEA2203C1EFFF0245010B13
:10890000E66E050EE76EFD0EDBCFE9FFFE0EDBCF58
:10891000EAFFE750E926000EEA22E552E750EF6E43
:10892000060EE76EFD0EDBCFE9FFFE0EDBCFEAFFA2
:10893000E750E926000EEA2204C1EFFF070EE76EBA
:10894000FD0EDBCFE9FFFE0EDBCFEAFFE750E926A5
:10895000000EEA2205C1EFFF0845010BE66E080E86
:10896000E76EFD0EDBCFE9FFFE0EDBCFEAFFE7503F
:10897000E926000EEA22E552E750EF6E090EE76E97
:10898000FD0EDBCFE9FFFE0EDBCFEAFFE750E92665
:10899000000EEA2206C1EFFF0A0EE76EFD0EDBCFE6
:1089A000E9FFFE0EDBCFEAFFE750E926000EEA22E0
:1089B00007C1EFFF7F0E0815E66E0B0EE76EFD0E8A
:1089C000DBCFE9FFFE0EDBCFEAFFE750E926000E22
:1089D000EA22E552E750EF6E0C0EE76EFD0EDBCF9C
:1089E000E9FFFE0EDBCFEAFFE750E926000EEA22A0
:1089F00009C1EFFF0B0EE15C02E2E16AE552E16EB4
:108A0000E552E7CFD9FF1200D9CFE6FFE1CFD9FF7A
:108A1000070EE126D0C406F0D1C407F0D2C408F096
:108A2000D3C409F06BEC56F007C014F008C015F081
:108A300009C016F00AC017F0F60E0C6E280E0D6E67
:108A40009C0E0E6E3F0E0F6E70EC57F0B1EC58F0AE
:108A5000030E06C0DBFF040E07C0DBFF050E08C0D7
:108A6000DBFF060E09C0DBFF030EDBCF14F0040EA4
:108A7000DBCF15F0050EDBCF16F0060EDBCF17F0BF
:108A8000090ED8901732163215321432E806F9E181
:108A9000800E186E196A1A6A1B6AE850141619506B
:108AA00015161A5016161B501716020E14C0DBFFAF
:108AB000030EDBCF14F0040EDBCF15F0050EDBCF79
:108AC00016F0060EDBCF17F0080ED89017321632CC
:108AD00015321432E806F9E1FD0EDBCFE9FFFE0E98
:108AE000DBCFEAFF14C0EFFF010EE76EFD0EDBCF18
:108AF000E9FFFE0EDBCFEAFFE750E926000EEA228F
:108B0000030EDBCFEFFF3C0E146E156ACEC008F0EB
:108B1000CFC009F00D6E15C00EF0E4EC5DF008C09A
:108B2000DEFF09C0DDFFDECF16F0DDCF17F017C086
:108B300016F0176A020EDB5000011610146E17C0F3
:108B400015F0020EE76EFD0EDBCFE9FFFE0EDBCF68
:108B5000EAFFE750E926000EEA2214C0EFFF030EF9
:108B6000E76EFD0EDBCFE9FFFE0EDBCFEAFFE7503D
:108B7000E926000EEA22DFCFEFFF070EE15C02E2FA
:108B8000E16AE552E16EE552E7CFD9FF1200D9CF95
:108B9000E6FFE1CFD9FF070EE126D0C406F0D1C42D
:108BA00007F0D2C408F0D3C409F06BEC56F007C04C
:108BB00014F008C015F009C016F00AC017F0F60E40
:108BC0000C6E280E0D6E9C0E0E6E3F0E0F6E70EC2E
:108BD00057F0B1EC58F0030E06C0DBFF040E07C0DF
:108BE000DBFF050E08C0DBFF060E09C0DBFF030E2E
:108BF000DBCF14F0040EDBCF15F0050EDBCF16F043
:108C0000060EDBCF17F0090ED89017321632153248
:108C10001432E806F9E1800E186E196A1A6A1B6AA6
:108C2000E8501416195015161A5016161B50171620
:108C3000020E14C0DBFF030EDBCF14F0040EDBCFFB
:108C400015F0050EDBCF16F0060EDBCF17F0080E81
:108C5000D8901732163215321432E806F9E1FD0EBB
:108C6000DBCFE9FFFE0EDBCFEAFF14C0EFFF010E02
:108C7000E76EFD0EDBCFE9FFFE0EDBCFEAFFE7502C
:108C8000E926000EEA22030EDBCFEFFFC6C006F096
:108C9000C7C007F0C8C008F0C9C009F0100E0B6EBD
:108CA0000E0E0C6E0D6A0E6AC0EC5DF006C0DEFFA3
:108CB00007C0DDFFDECF16F0DDCF17F017C016F0CE
:108CC000176A020EDB5000011610146E17C015F063
:108CD000020EE76EFD0EDBCFE9FFFE0EDBCFEAFFF3
:108CE000E750E926000EEA2214C0EFFF030EE76EFC
:108CF000FD0EDBCFE9FFFE0EDBCFEAFFE750E926F2
:108D0000000EEA22DFCFEFFF070EE15C02E2E16A2C
:108D1000E552E16EE552E7CFD9FF1200D9CFE6FF69
:108D2000E1CFD9FF060EE126A10EF36E040EF3CFBC
:108D3000DBFF010EF36E050EF3CFDBFFDC0EE66EFC
:108D4000000EE66E060EE66EE66A040EDBCFE6FF68
:108D5000050EDBCFE6FFF3EC0CF0146E060EE15EC1
:108D60001450A70EF36E040EF3CFDBFF010EF36E6B
:108D7000050EF3CFDBFFE20EE66E000EE66E040E8C
:108D8000E66EE66ADBCFE6FF050EDBCFE6FFF3EC2F
:108D90000CF0146E060EE15E1450C6C0CAF0C7C0D7
:108DA000CBF0C8C0CCF0C9C0CDF0C6C014F0C7C06D
:108DB00015F0C8C016F0C9C017F0180ED8901732B9
:108DC000163215321432E806F9E11450DF6EC8C0CD
:108DD00014F0C9C015F00001166A176A010EC8C068
:108DE000DBFFC7C014F0C8C015F0C9C016F0176A81
:108DF000020EC7C0DBFF030EC6C0DBFFD9CFE6FF04
:108E0000DACFE6FF040EE66EE66A910EE66E010E1C
:108E1000E66EF3EC0CF0146E060EE15E1450060ED6
:108E2000E15C02E2E16AE552E16EE552E7CFD9FF8B
:108E30001200D9CFE6FFE1CFD9FF020EE1260001F3
:108E4000D0510A0DF3CF14F0F4CF15F0970E14267D
:108E5000010E152214C0DEFF15C0DDFFD20EE66E36
:108E6000000EE66E060EE66EE66ADECFE6FFDDCFAA
:108E7000E6FFF3EC0CF0146E060EE15E14500001F8
:108E8000D0510A0DF3CF14F0F4CF15F09D0E142637
:108E9000010E152214C0DEFF15C0DDFFD80EE66EF0
:108EA000000EE66E040EE66EE66ADECFE6FFDDCF6C
:108EB000E6FFF3EC0CF0146E060EE15E14500001B8
:108EC000D05103E1020ED06F08D0D02B320ED05D0E
:108ED00004E3020ED06F0001B287D0C0E6FF950E0A
:108EE000E66E010EE66ECDEC02F0E552E552E5527B
:108EF0000001B251080B01E0FF0EE66E960EE66E21
:108F0000010EE66ECDEC02F0E552E552E552020E9E
:108F1000E15C02E2E16AE552E16EE552E7CFD9FF9A
:108F20001200D9CFE6FFE1CFD9FF020EE126000102
:108F3000C551050A01E1BAD1010A01E197D1070A39
:108F400001E15FD1010A01E124D1030A01E113D15A
:108F5000010A01E0C5D1DC0EE66E000EE66E40ECC3
:108F600043F0E552E552000EE66E010EE66E040E89
:108F7000E66EE66A910EE66E010EE66EA5EC0CF06A
:108F8000146E060EE15E14500001CE6BCF6BC66B03
:108F9000C76BC86BC96BCA6BCB6BCC6BCD6BD06B23
:108FA000FF0E0101005D23E1E20EE66E000EE66EAB
:108FB000EEDDE552E552B2DEE66A950EE66E010E92
:108FC000E66ECDEC02F0E552E552E552E66A960E09
:108FD000E66E010EE66ECDEC02F0E552E552E5528A
:108FE0000001B297610EE66E38EC2EF0C0D0080E8C
:108FF0001F0BCAC014F0CBC015F0CCC016F0CDC00A
:1090000017F007E0D8901436153616361736E806EE
:10901000F9E100C118F0196A1A6A1B6A1450181095
:109020000001CA6F15501910CB6F16501A10CC6F73
:1090300017501B10CD6F080E1F0BCAC014F0CBC009
:1090400015F0CCC016F0CDC017F007E0D89014365C
:10905000153616361736E806F9E101C118F0196A17
:109060001A6A1B6A145018100001CA6F15501910A3
:10907000CB6F16501A10CC6F17501B10CD6F080E07
:109080001F0BCAC014F0CBC015F0CCC016F0CDC079
:1090900017F007E0D8901436153616361736E8065E
:1090A000F9E102C118F0196A1A6A1B6A1450181003
:1090B0000001CA6F15501910CB6F16501A10CC6FE3
:1090C00017501B10CD6F080E1F0BCAC014F0CBC079
:1090D00015F0CCC016F0CDC017F007E0D8901436CC
:1090E000153616361736E806F9E103C118F0196A85
:1090F0001A6A1B6A145018100001CA6F1550191013
:10910000CB6F16501A10CC6F17501B10CD6F950EE9
:10911000E66E010EE66E96EC02F0E552E5520001B5
:10912000D06F960EE66E010EE66E96EC02F0E552FA
:10913000E5520001B297E8B0B287320E0001D05D6F
:1091400017E3D06BE66A950EE66E010EE66ECDEC87
:1091500002F0E552E552E5520001B297E66A960E3A
:10916000E66E010EE66ECDEC02F0E552E552E552F8
:109170000401F36B79D0D20EE66E000EE66E40EC81
:1091800043F0E552E552E20EE66E000EE66EFFDCBD
:1091900069D0020E0001795D04E10001CE6BCF6B56
:1091A00083D0D20EE66E000EE66E40EC43F0E55240
:1091B000E552E20EE66E000EE66EE9DCE552E5529F
:1091C0000001C62B000EC723C823C923C60EE96EB3
:1091D000000EEA6EEE50CA5DEE50CB59EE50CC59FF
:1091E000EE50CD5901E37CD00401F42B000EF523A1
:1091F000100EF45D0E0EF55973E3F46BF56B8EDD16
:109200006FD0020E0001795D69E10001CE2B000EE6
:10921000CF23060ECE5D000ECF5962E3C60EE96E77
:10922000000EEA6EEE50CA5DEE50CB59EE50CC59AE
:10923000EE50CD5909E2C6C0CAF0C7C0CBF0C8C0D5
:10924000CCF0C9C0CDF06ADDD80EE66E000EE66E39
:1092500004EC45F0E552E552DC0EE66E000EE66EDB
:1092600040EC43F0E552E55200011ED0020E000131
:10927000795D15E10001CE2B000ECF23D80EE66EEE
:10928000000EE66E04EC45F0E552E552DC0EE66EAB
:10929000000EE66E40EC43F0E552E55221D00001AD
:1092A000C66BC76BC86BC96BC52B1AD0020E000109
:1092B000795D14E00001C62B000EC723C823C92323
:1092C000960EC65D000EC759000EC859000EC9594A
:1092D00007E3AFDD0001010EC56F02D00001C50735
:1092E000020EE15C02E2E16AE552E16EE552E7CF8F
:1092F000D9FF1200D9CFE6FFE1CFD9FF040EE12656
:10930000910EF36E020EF3CFDBFF010EF36E030E30
:10931000F3CFDBFF020EDBCF14F0030EDBCF15F033
:10932000970E145C010E155812E2E668020EDBCFB0
:10933000E6FF030EDBCFE6FFCDEC02F0E552E5528F
:10934000E552020EDB2A030EE5E3DB2AE3D7970E94
:10935000F36E020EF3CFDBFF010EF36E030EF3CFBD
:10936000DBFFDF6A320EDF5C20E2010EDB6A0A0EF1
:10937000F36E010EDBCFF4FFF350F45C14E2E66809
:10938000020EDBCFE6FF030EDBCFE6FFCDEC02F0F3
:10939000E552E552E552020EDB2A030E01E3DB2A19
:1093A000010EDB2AE4D7DF2ADDD7040EE15C02E2FE
:1093B000E16AE552E16EE552E7CFD9FF1200D9CF5D
:1093C000E6FFE1CFD9FF020EE126DF6A0001D051AE
:1093D000000862E2D950FD0FE96EFF0EDA20EA6E56
:1093E000010ED880EE54000EED5454E20001B2A7F5
:1093F00042D0FD0EDBCF14F0FE0EDBCF15F0320EA7
:10940000145C000E155848E20001D051E76EFD0EC5
:10941000DBCF14F0FE0EDBCF15F0E7501426000E64
:109420001522020E145E000E155AFD0E14C0DBFF4D
:10943000FE0E15C0DBFFFD0EDBCF14F0FE0EDBCF02
:1094400015F0320E145C000E155824E3FD0EDBCF30
:1094500014F0FE0EDBCF15F0320E145E000E155A1E
:10946000020E1426000E1522FD0E14C0DBFFFE0EA8
:1094700015C0DBFF0FD0FD0EDBCF14F0FE0EDBCFEF
:1094800015F00001D051166E176A1650145C175073
:10949000155802E2010EDF6E0A0E086E096AFD0E13
:1094A000DBCF0DF0FE0EDBCF0EF064EC58F0FD0EBE
:1094B00006C0DBFFFE0E07C0DBFF010EDB6A0A0EF3
:1094C000F36E010EDBCFF4FFF350F45C3DE2DF04FA
:1094D0002AE1FD0EDBCF16F0FE0EDBCF17F0970E64
:1094E0001626010E1722DB5000011624146E000E02
:1094F0001720156E14C0E6FFE66E96EC02F0E552FA
:10950000E552E66E010EDB50E76EFB0EDBCFE9FFA6
:10951000FC0EDBCFEAFFE750E926000EEA22E55217
:10952000E750EF6E0ED0010EDB50E76EFB0EDBCF87
:10953000E9FFFC0EDBCFEAFFE750E926000EEA2246
:10954000EF6A010EDB2ABBD7146E020EE15C02E269
:10955000E16AE552E16E1450E552E7CFD9FF1200FF
:10956000ECEC4FF0FB0EDBCFF3FFDB06F350000912
:109570000AE03AEC50F0FA0EA5EC50F0F3E1151CBD
:10958000F1E1010E01D0000E1BEF50F0ECEC4FF0BA
:109590003B0EE12402E3E168E652E16E010EDB6A74
:1095A000020EDB6AF90EDBCFF6FFFA0EDBCFF7FF18
:1095B000FB0EDBCFF8FF0800F550DF6EDF5002E155
:1095C0003FEF4FF0250EDF5C02E032EF4FF0030E6D
:1095D000DB6A040EDB6A050EDB6A060EDB6A070E29
:1095E000DB6A54EC4FF02D0EDF5C0CE02B0EDF5CE1
:1095F00009E0200EDF5C06E0230EDF5C03E0300EA6
:10960000DF5C1AE1DF50300A14E0130A0FE0030AAE
:109610000AE00B0A05E0060AE4E1030EDB80E1D76D
:10962000030EDB82DED7030EDB84DBD7030EDB8683
:10963000D8D7030EDB88D5D72A0EDF5C1BE150ECB0
:109640004FF09EEC4FF010E0030EDB8008680968D5
:10965000130EDBCF0DF0140EDBCF0EF037EC58F00D
:10966000040E06C0DBFF03D0130E87EC4FF054EC62
:109670004FF00BD0090EDB6AF5EC4FF003E069EC1C
:1096800050F0FAD7090E87EC4FF0030EDBB0DB98F1
:109690002E0EDF5C1BE154EC4FF02A0EDF5C0BE179
:1096A00050EC4FF09EEC4FF003E1130ED9EC4FF06D
:1096B00054EC4FF00BD0090EDB6AF5EC4FF003E0F1
:1096C00069EC50F0FAD7090ED9EC4FF0680EDF5C68
:1096D00007E154EC4FF0680EDF5C1DE1030E18D07B
:1096E000740EDF5C17E07A0EDF5C14E0480EDF5C7E
:1096F00006E0540EDF5C03E05A0EDF5C02E1020E6E
:1097000007D06C0EDF5C03E06A0EDF5C04E1010E43
:109710002CEC50F0C9DBDF506E0A01E17FD31E0A4A
:1097200001E192D1200A01E18FD13F0A01E149D143
:109730001A0A01E146D10D0A01E143D1200A01E1F3
:1097400040D13A0A01E13DD1200A01E13AD1260A8D
:1097500001E135D10D0A01E132D11A0A01E1D9D076
:10976000200A4AE0300A1FE0460A0EE0250A01E01E
:1097700083D3D950F90FE96EFF0EDA20EA6E010E9D
:10978000EE5E000EEE5AEE5A3AEC50F0250EE66E02
:1097900095DB03E1151C01E169D336EC50F001E2E1
:1097A0006BD3DB2A69D3080EDB6A040EDB50010899
:1097B00006E2040EDB04FEEC4FF0DB508BDB080E00
:1097C000DB5009E0030EDB50010B05E172DB01E029
:1097D0004DD3080EDB6A64DBEFCFDFFFAEEC50F059
:1097E00003E1151C01E142D336EC50F001E3DB2A22
:1097F00060DB01E141D33AD3070EDB5002080FE1F1
:109800007AEC50F0030E41EC50F00E0EEECFDBFF81
:109810000F0EEECFDBFF100EEECFDBFF20D0F70EEA
:10982000DBCF17F0F80EDBCF18F0020E175E000E3C
:10983000185AF70E17C0DBFFF80E18C0DBFF17C071
:10984000E9FF18C0EAFF31EC50F0166A0E0E14C0A2
:10985000DBFF0F0E15C0DBFF100E16C0DBFF0E0E78
:10986000DBCFE6FF0F0EDBCFE6FF100EDBCFE6FF10
:1098700056EC5CF0E552E552E552130E07C0DBFFF3
:10988000140E08C0DBFF060EDB5005E0130E75EC6E
:1098900050F001E26ADB99EC50F002E2130E37DB84
:1098A0005CEC50F006E0040E75EC50F002E2050EA0
:1098B0002EDB030EDBB005D0FCDA01E0D7D2080EB8
:1098C000DB6A090EDB6A0E0EDBCFF6FF0F0EDBCF75
:1098D000F7FF100EDBCFF8FF0800F550DF6EDF500A
:1098E00014E09FEC50F011E2AEEC50F003E1151CD7
:1098F00001E1BCD2BBDB01E3DB2A090EDB2AD95034
:109900000E0FE96E000ECBDBE7D7D3DA01E1B4D25C
:10991000ADD2C6DA110EEECFDBFF120EEDCFDBFFBC
:10992000110EDBCFE6FF120EDBCFE6FF48EC5CF05A
:10993000E552E552130EF3CFDBFF140EF4CFDBFF3D
:10994000060EDB5004E0130ED0DB01E20EDB99ECD7
:1099500050F002E2130EDBDAAFDB05E0040EC5DBEC
:1099600002E2050ED4DA030EDBB005D0A2DA01E084
:109970007DD2080EDB6A090EDB6A110EDBCFE9FF30
:10998000120EDBCFEAFFEFCFDFFFDF5014E0D7DBB3
:1099900012E2E4DB03E1151C01E168D267DB01E3BD
:1099A000DB2A090EDB2A110EDB2ADBCFE9FF120EC0
:1099B000E8E3DB2AE6D77DDA01E15ED257D2030E77
:1099C000DB8E070EDB0410E195DB040E5ADB0A0E7A
:1099D000EECFDBFF0B0EEECFDBFF0C0EEECFDBFF8F
:1099E0000D0EEECFDBFF6CD0070EDB5003082CE131
:1099F000030EDBAE0DD0B2DA020E76DAEFCF14F042
:109A0000156A166A176A14AE39D01568166835D00B
:109A1000F70EDBCF15F0F80EDBCF16F0020E155E59
:109A2000000E165AF70E15C0DBFFF80E16C0DBFF4E
:109A300015C0E9FF16C0EAFFEFCF14F00A0E14C0FC
:109A4000DBFF0B0EDB6A38D0070EDB50020809E1A2
:109A5000030EDBAE04D059DB16AE10D00ED055DBB2
:109A60000DD0030EDBAE12D079DA020E3DDAF9DA50
:109A7000166A176A15AE02D016681768E2DA0C0E7D
:109A800016C0DBFF0D0E17C0DBFF1AD0F70EDBCFC1
:109A900016F0F80EDBCF17F0020E165E000E175A06
:109AA000F70E16C0DBFFF80E17C0DBFF16C0E9FF8C
:109AB00017C0EAFFD6DAC5DA0C0EDB6A0D0EDB6AD8
:109AC000060EDB5005E1010EF36E050EF3CFDBFF52
:109AD000150EDB6A160EDB6AD950370F146E000EB6
:109AE000DA20156E390E14C0DBFF3A0E15C0DBFF0D
:109AF000380EDB6A080EDB6A0A0EAEDADF50780A2F
:109B000012E0200A10E0280A0CE0200A0AE03F0ACE
:109B100006E00D0A02E0200A08E1020E05D0080E58
:109B200003D0080EDF26100E97DA030EDBBE02D03C
:109B3000DB92DB94DB50800B24E08ADAD890030EB2
:109B4000EB50000A08E6000EEE5C000EEE58000E28
:109B5000EE58000EEE5815E213DA0B680C680D682B
:109B60000E6858EC5DF00A0E02C0DBFF0B0E03C05E
:109B7000DBFF0C0E04C0DBFF0D0E05C0DBFF2D0E5E
:109B800008D0030EDBA202D02B0E03D0DBA408D03A
:109B9000200EF36E170EF3CFDBFF150EDB2A02D07B
:109BA000170EDB6A050EDB5003E1B7D901E189D05E
:109BB000C80E146EBC0E156E000E166E070EDBCFAF
:109BC00017F0186A196A1A6A17C00BF018C00CF05F
:109BD00019C00DF01AC00EF0D3D9C0EC5DF01450CE
:109BE0000224F36E15500320F46E16500420F86E14
:109BF000F4CFF7FFF3CFF6FF0800090EF5CFDBFF38
:109C0000580EDF5C0FE1610EF36E090E7BD90AE39B
:109C1000200E146E090EDBCFE7FF1450E75E090E2D
:109C2000E7CFDBFF070EDBCF14F0156A166A176A61
:109C30000FDA14C00BF015C00CF016C00DF017C0F1
:109C40000EF0EECF06F0EECF07F0EECF08F0EFCF3C
:109C500009F0C0EC5DF009C0EDFF08C0EDFF07C0E2
:109C6000EDFF06C0EFFF390EDBCFE9FFDB063A0E52
:109C7000DBCFEAFF01E2DB06090EDBCFEFFF150EBB
:109C8000DB2A4BD995E1030EDBA61DD06F0EDF5CFE
:109C900006E1C1D918E3150EDB285BDA14D0780E83
:109CA000DF5C09E0580EDF5C06E0620EDF5C03E07B
:109CB000420EDF5C08E1020EF36E160EF3CFDBFFFF
:109CC00002D0150EDB6A030EDB50100B0EE0040E03
:109CD000DBCF14F0050EDB50D880145406E2060EDC
:109CE000DB5003E1040EDB5034DA95D90AE2050EAD
:109CF000DBCFE7FF150EDB50E75E050EE7CFDBFF9E
:109D000002D0050EDB6A040EDBCF14F0160E45D927
:109D1000D880145414E2160EDBCFE6FF150EDBCF0D
:109D2000E6FF040EDBCFE6FF050EDB50E552E75CF5
:109D3000E552D880E754E552D880E7545FD9030E46
:109D4000DB50010B0BE1080EDB5008E0B2D801E05C
:109D50008DD0080EDB50BED8080EDB6A170EDB5024
:109D600007E088D9170EF1D903E1151C01E17ED077
:109D7000160EDB5016E07ED9300EE66E9FD802E15B
:109D8000151C74E077D9DFCFE6FF16EC5DF0E552E5
:109D9000E552E552F4CF15F00001F31C02E1151C69
:109DA00065E0050EDBCF14F0160EDB50D88014549E
:109DB00009E2050EDBCFE7FF160EDB50E75E050E6E
:109DC000E7CFDBFF300EE66E050ECBD94FE1390E43
:109DD000DB2ADBCFE9FF3A0E01E3DB2ADBCFEAFF28
:109DE000090EEFCFDBFFDB500EE044D9090EADD9F1
:109DF00002E1151C3BE0390EDB2ADBCFE9FF3A0E0E
:109E0000EDE3DB2AEBD755D831E1160EDBCFE6FFC9
:109E1000080EC3D8E552E7245DD82ED0070EDB50DC
:109E2000030A1CE0010A14E0030A07E07BD9DBCF38
:109E3000EEFF020EDBCFEDFF1FD0F5D8196A17AE8B
:109E400002D0186819682CD8BCD819C0EEFF14D0FD
:109E5000EAD817BE186824D8B4D80ED063D9DBCF9F
:109E6000EFFF0AD07BD905E1151C03E1F368F46824
:109E700010D0FCD801E3DB2A79D9DBEF4AF0010EE0
:109E8000DBCF14F0020EDBCF15F014C0F3FF15C0CA
:109E9000F4FF3B0EE15C02E2E16AE552E16ECBD0F9
:109EA00029D9020E41EF50F061D90800F550DF6E5C
:109EB0001200200EE66E080EB1EF50F016EC5DF0C9
:109EC000E552E552E552F3CF14F0F4CF15F000015E
:109ED000F31C1200146E156AD950010F4DD914509D
:109EE000EE261550ED221200185E000E195AF70EDC
:109EF00018C0DBFFF80E19C0DBFF18C0E9FF19C05E
:109F0000EAFF1200DBCFF4FFF350F45C1200DB50E9
:109F1000E76E040EE7CFDBFF12000A0EDBCF14F072
:109F20000B0EDBCF15F00C0EDBCF16F00D0EDBCFDA
:109F300017F014501510161017101200130EEECF54
:109F4000DBFF140EEDCFDBFF130EDBCF14F0140E8E
:109F5000DBCF15F00001800E15141200F70EDBCFD9
:109F600018F0F80EDBCF19F01200050EDB50E66E8C
:109F7000D950130F01D9E552E750EE6EED6A120089
:109F80000A0EDBCF06F00B0EDBCF07F00C0EDBCF9B
:109F900008F00D0EDBCF09F01200DBCFE6FF150E47
:109FA000DBCFE6FF050EDB50E552E724E552E72460
:109FB0001200DB50CED8010EF36E060EF3CFDBFF9E
:109FC0001200EE50EFCFEAFFE96E16C0EEFF17C0A9
:109FD000EEFF18C0EEFF1200D9CFE6FFDACFE6FFA2
:109FE000E1CFD9FFE2CFDAFF1200DFCFE6FFE66A6A
:109FF000FAEC5DF0E552E552F3501200E76E080E00
:10A00000E7CFDBFF1200EECF14F0EECF15F0EFCF6D
:10A0100016F0176A1200050EDBCF14F0150EDB5098
:10A02000D88014541200010EDBCF16F0020EDBCFE5
:10A0300017F0186A1200E552E5CFDAFFE7CFD9FF33
:10A0400012000A0E14C0DBFF0B0E15C0DBFF12005E
:10A05000D9500A0FBCEF50F0F36E070EF3CFDBFFC1
:10A060001200EECF14F0EFCF15F01200010EDB2A34
:10A07000020E1200FC0EDBCFE6FFFD0EDBCFE6FF8B
:10A080001200145E000E155AF70E14C0DBFFF80E16
:10A0900015C0DBFF14C0E9FF15C0EAFF1200DA208B
:10A0A000EA6EEF2AEECFF6FF000EEF22EECFF7FFBB
:10A0B000EF22EECFF8FF1200040EDBCFE6FF130E07
:10A0C000DB50E552E75C9ADFDB5004DF060EDB5025
:10A0D0001200090EDB500A0DF350DF24D00FE76E9B
:10A0E000090EE7CFDBFF54EF4FF0DB50F36E050EA8
:10A0F00082EF4FF0F70EDBCF14F0F80EDBCF15F048
:10A100001200DFCFE6FF5EEF4FF028DF030EECDE3C
:10A1100003EF50F0B0EC4AF0E552E552E552E5525B
:10A1200000091200BDDEEE50EFCFEAFFE96E010E2E
:10A130001200130EDB50F36E040E82EF4FF0040E8C
:10A14000DB50F36E090E82EF4FF0DBCFE6FF5EEFE0
:10A150004FF0E76E050EE7CFDBFF12008BDF81EFDC
:10A1600050F0DBCFE6FF86DF8AEF50F0D950F90FD1
:10A17000E96EFF0E4FEF50F0E96E000EDA20EA6E46
:02A180001200CB
:0EA18200D9CFE6FFE1CFD9FFE652DF6A060E25
:10A19000DF5C26E2DF50E76EFD0EDBCF14F0FE0E33
:10A1A000DBCF15F0E7501426000E152214C0E6FF91
:10A1B00015C0E6FF96EC02F0E552E552E66EDF5080
:10A1C000E76EFB0EDBCFE9FFFC0EDBCFEAFFE750CB
:10A1D000E926000EEA22E552E750EF6EDF2AD7D7D4
:10A1E000E552E552E7CFD9FF1200D9CFE6FFE1CF24
:10A1F000D9FF9EC0E6FFFD0EDBCFE6FFFE0EDBCFF4
:10A20000E6FFCDEC02F0E552E552E5529FC0E6FFD5
:10A21000010EE76EFD0EDBCF14F0FE0EDBCF15F066
:10A22000E7501426000E152214C0E6FF15C0E6FF05
:10A23000CDEC02F0E552E552E5529CC0E6FF020E7D
:10A24000E76EFD0EDBCF14F0FE0EDBCF15F0E7500E
:10A250001426000E152214C0E6FF15C0E6FFCDEC53
:10A2600002F0E552E552E5529DC0E6FF030EE76EAF
:10A27000FD0EDBCF14F0FE0EDBCF15F0E7501426F9
:10A28000000E152214C0E6FF15C0E6FFCDEC02F06B
:10A29000E552E552E552E552E7CFD9FF1200D9CF9A
:10A2A000E6FFE1CFD9FFFD0EDBCFE6FFFE0EDBCFF1
:10A2B000E6FF96EC02F0E552E552E66EFB0EDBCFD0
:10A2C000E9FFFC0EDBCFEAFFE552E750EF6E010E2F
:10A2D000E76EFD0EDBCF14F0FE0EDBCF15F0E7507E
:10A2E0001426000E152214C0E6FF15C0E6FF96ECFA
:10A2F00002F0E552E552E66E010EE76EFB0EDBCF93
:10A30000E9FFFC0EDBCFEAFFE750E926000EEA2268
:10A31000E552E750EF6E020EE76EFD0EDBCF14F054
:10A32000FE0EDBCF15F0E7501426000E152214C0E8
:10A33000E6FF15C0E6FF96EC02F0E552E552E66E48
:10A34000020EE76EFB0EDBCFE9FFFC0EDBCFEAFF70
:10A35000E750E926000EEA22E552E750EF6E030EC1
:10A36000E76EFD0EDBCF14F0FE0EDBCF15F0E750ED
:10A370001426000E152214C0E6FF15C0E6FF96EC69
:10A3800002F0E552E552E66E030EE76EFB0EDBCF00
:10A39000E9FFFC0EDBCFEAFFE750E926000EEA22D8
:10A3A000E552E750EF6EE552E7CFD9FF1200D9CF63
:10A3B000E6FFE1CFD9FFC3C4E6FFFD0EDBCFE6FF2A
:10A3C000FE0EDBCFE6FFCDEC02F0E552E552E552A2
:10A3D000E552E7CFD9FF1200D9CFE6FFE1CFD9FF91
:10A3E000FD0EDBCFE6FFFE0EDBCFE6FF96EC02F0C4
:10A3F000E552E552E66EFB0EDBCFE9FFFC0EDBCF4C
:10A40000EAFFE552E750EF6EE552E7CFD9FF1200C1
:10A41000D9CFE6FFE1CFD9FF020EE126FD0EDBCF5B
:10A42000E6FFFE0EDBCFE6FF96EC02F0E552E552CA
:10A43000DF6E010EE76EFD0EDBCF14F0FE0EDBCFFC
:10A4400015F0E7501426000E152214C0E6FF15C0C3
:10A45000E6FF96EC02F0E552E552E76E010EE7CF1B
:10A46000DBFFDB2ADB5001E1DF2ADFCFE6FFFD0E59
:10A47000DBCFE6FFFE0EDBCFE6FFCDEC02F0E552D0
:10A48000E552E552010EDBCFE6FFE76EFD0EDBCFB6
:10A4900014F0FE0EDBCF15F0E7501426000E152247
:10A4A00014C0E6FF15C0E6FFCDEC02F0E552E55220
:10A4B000E552020EE15C02E2E16AE552E16EE5522C
:10A4C000E7CFD9FF1200D9CFE6FFE1CFD9FFFD0ECC
:10A4D000DBCFE6FFFE0EDBCFE6FF96EC02F0E552A7
:10A4E000E552E66EFB0EDBCFE9FFFC0EDBCFEAFFA9
:10A4F000E552E750EF6E010EE76EFD0EDBCF14F074
:10A50000FE0EDBCF15F0E7501426000E152214C006
:10A51000E6FF15C0E6FF96EC02F0E552E552E66E66
:10A52000010EE76EFB0EDBCFE9FFFC0EDBCFEAFF8F
:10A53000E750E926000EEA22E552E750EF6EE552B9
:10A54000E7CFD9FF1200D9CFE6FFE1CFD9FFFE0E4A
:10A55000DBCF31FF31CFE6FF070EE66EFDEC06F0F4
:10A56000E552E552E552E7CFD9FF1200D9CFE6FF19
:10A57000E1CFD9FFFE0EDB507F0BE76EFE0EE7CF7B
:10A58000DBFF0F012A9F0A0E146E0E6EFE0EDBCF4C
:10A5900009F049EC5EF009500F01070BF36EF3462A
:10A5A000F346F346F3468F0E2A15F3102A6F0A0E70
:10A5B000146E0E6EFE0EDBCF09F049EC5EF0055016
:10A5C0000F010F0BF36EF00E2A15F3102A6FE66ED3
:10A5D000E66AFDEC06F0E552E552E552E7CFD9FF19
:10A5E0001200D9CFE6FFE1CFD9FF0F012B9F0A0E52
:10A5F000146E0E6EFE0EDBCF09F049EC5EF00950D2
:10A600000F01070BF36EF346F346F346F3468F0E46
:10A610002B15F3102B6F0A0E146E0E6EFE0EDBCF91
:10A6200009F049EC5EF005500F010F0BF36EF00ED0
:10A630002B15F3102B6FE66E010EE66EFDEC06F0A7
:10A64000E552E552E552E7CFD9FF1200D9CFE6FF38
:10A65000E1CFD9FF0F012C9FFE0EDB502C9DE8B0FF
:10A660002C8D2CCFE6FF020EE66EFDEC06F0E552D7
:10A67000E552E552E7CFD9FF1200D9CFE6FFE1CF8F
:10A68000D9FF0F012C9F0A0E146E0E6EFE0EDBCF4B
:10A6900009F049EC5EF009500F01030BF36EF3462D
:10A6A000F346F346F346CF0E2C15F3102C6F0A0E2B
:10A6B000146E0E6EFE0EDBCF09F049EC5EF0055015
:10A6C0000F010F0BF36EF00E2C15F3102C6FE66ECE
:10A6D000020EE66EFDEC06F0E552E552E552E7CFDC
:10A6E000D9FF1200D9CFE6FFE1CFD9FF0F012F9B91
:10A6F0002F9D2F9F0A0E146E0E6EFE0EDBCF09F0FB
:10A7000049EC5EF009500F012F99E8B02F890A0E2D
:10A71000146E0E6EFE0EDBCF09F049EC5EF00550B4
:10A720000F010F0BF36EF00E2F15F3102F6FE66E67
:10A73000050EE66EFDEC06F0E552E552E552E7CF78
:10A74000D9FF1200D9CFE6FFE1CFD9FF0F012E9D2F
:10A750002E9F0A0E146E0E6EFE0EDBCF09F049EC32
:10A760005EF009500F01030BF36EF346F346F34618
:10A77000F346CF0E2E15F3102E6F0A0E146E0E6ECA
:10A78000FE0EDBCF09F049EC5EF005500F010F0B18
:10A79000F36EF00E2E15F3102E6FE66E040EE66EBD
:10A7A000FDEC06F0E552E552E552E7CFD9FF120085
:10A7B000D9CFE6FFE1CFD9FF0A0E146E0E6EFE0E62
:10A7C000DBCF09F049EC5EF009500F010F0BF36E7F
:10A7D000F346F346F346F3460F0E3015F310306F91
:10A7E0000A0E146E0E6EFE0EDBCF09F049EC5EF021
:10A7F00005500F010F0BF36EF00E3015F310306F94
:10A80000E66E060EE66EFDEC06F0E552E552E55208
:10A81000E7CFD9FF1200D9CFE6FFE1CFD9FFFD0E78
:10A82000DBCFE6FFFE0EDB50080FE66EFDEC06F018
:10A83000E552E552E552E7CFD9FF1200D9CFE6FF46
:10A84000E1CFD9FFE652DF6AE66A2A0EE66E0F0E06
:10A85000E66E88EC06F0E552E552E552DF6EDF5019
:10A86000000869E3010EE66E2B0EE66E0F0EE66E33
:10A8700088EC06F0E552E552E552DF6EDF50000845
:10A880005AE3020EE66E2C0EE66E0F0EE66E88ECB4
:10A8900006F0E552E552E552DF6EDF5000084BE36B
:10A8A000030EE66E2D0EE66E0F0EE66E88EC06F0D9
:10A8B000E552E552E552DF6EDF5000083CE3040E3E
:10A8C000E66E2E0EE66E0F0EE66E88EC06F0E55292
:10A8D000E552E552DF6EDF5000082DE3050EE66E0F
:10A8E0002F0EE66E0F0EE66E88EC06F0E552E5528E
:10A8F000E552DF6EDF5000081EE3060EE66E300EF6
:10A90000E66E0F0EE66E88EC06F0E552E552E55273
:10A91000DF6EDF5000080FE3070EE66E310EE66EC5
:10A920000F0EE66E88EC06F0E552E552E552DF6E5A
:10A93000DF50000802E2010E01D0000EE552E552A0
:10A94000E7CFD9FF1200E66A2A0EE66E0F0EE66E1A
:10A9500088EC06F0E552E552E5520F012A510F0B43
:10A96000146E2A51700BE842E842E842E8420A0DB0
:10A97000F35014241200010EE66E2B0EE66E0F0E3D
:10A98000E66E88EC06F0E552E552E5520F012B51D8
:10A990000F0B146E2B51700BE842E842E842E8427C
:10A9A0000A0DF35014241200020EE66E2C0EE66E11
:10A9B0000F0EE66E88EC06F0E552E552E5520F0107
:10A9C0002C51400B01E0010E1200020EE66E2C0E1F
:10A9D000E66E0F0EE66E88EC06F0E552E552E552A3
:10A9E0000F012C510F0B146E2C51300BE842E84232
:10A9F000E842E8420A0DF35014241200040EE66EF9
:10AA00002E0EE66E0F0EE66E88EC06F0E552E5526D
:10AA1000E5520F012E510F0B146E2E51300BE842F0
:10AA2000E842E842E8420A0DF35014241200050EF1
:10AA3000E66E2F0EE66E0F0EE66E88EC06F0E5521F
:10AA4000E552E5520F012F510F0B146E2F51100BD1
:10AA500001E0010E0A0DF35014241200060EE66EFA
:10AA6000300EE66E0F0EE66E88EC06F0E552E5520B
:10AA7000E5520F0130510F0B146E3051F00BE842CC
:10AA8000E842E842E8420A0DF35014241200D9CFFC
:10AA9000E6FFE1CFD9FFE652FE0EDB50080FE66E6F
:10AAA000D9CFE6FFDACFE6FF88EC06F0E552E552B3
:10AAB000E552DF50E552E552E7CFD9FF1200D9CF7A
:10AAC000E6FFE1CFD9FFCADF000801E380D0C6DF8F
:10AAD000E66EFD0EDBCFE6FFFE0EDBCFE6FFCDEC34
:10AAE00002F0E552E552E552A2DFE66E010EE76E96
:10AAF000FD0EDBCF14F0FE0EDBCF15F0E750142671
:10AB0000000E152214C0E6FF15C0E6FFCDEC02F0E2
:10AB1000E552E552E55272DFE66E020EE76EFD0E7B
:10AB2000DBCF14F0FE0EDBCF15F0E7501426000E3D
:10AB3000152214C0E6FF15C0E6FFCDEC02F0E55289
:10AB4000E552E55242DFE66E030EE76EFD0EDBCF07
:10AB500014F0FE0EDBCF15F0E7501426000E152280
:10AB600014C0E6FF15C0E6FFCDEC02F0E552E55259
:10AB7000E55201DFE66E040EE76EFD0EDBCF14F04A
:10AB8000FE0EDBCF15F0E7501426000E152214C080
:10AB9000E6FF15C0E6FFCDEC02F0E552E552E552C6
:10ABA000D2DEE66E050EE76EFD0EDBCF14F0FE0E74
:10ABB000DBCF15F0E7501426000E152214C0E6FF77
:10ABC00015C0E6FFCDEC02F0E552E552E552E55244
:10ABD000E7CFD9FF120032DE0F0130510F0B146E98
:10ABE0003051F00BE842E842E842E8420A0DF350E7
:10ABF00014240001B96F0F012F510F0B146E2F5148
:10AC0000100B01E0010E0A0DF35014240001BA6F7D
:10AC10000F012E510F0B146E2E51300BE842E842FB
:10AC2000E842E8420A0DF35014240001BB6F0F0103
:10AC30002C510F0B146E2C51300BE842E842E842C5
:10AC4000E8420A0DF35014240001BC6F0F012B5190
:10AC50000F0B146E2B51700BE842E842E842E842B9
:10AC60000A0DF35014240001BD6F0F012A510F0B80
:10AC7000146E2A51700BE842E842E842E8420A0D9D
:0AAC8000F35014240001BE6F12000F
:06AC8A00019E05D0019EB1
:10AC900009AE02D0096C018E09C003F0026A136A82
:10ACA000126A860E046E056A04EF59F0019E08D000
:10ACB000019E09AE05D0086C091EE86A0922018EC2
:10ACC00009C003F008C002F0136A126A8E0E046E07
:10ACD000056A04EF59F0019E0CD0019E09AE09D01F
:10ACE000066C071E081E091EE86A072208220922B0
:10ACF000018E09C003F008C002F007C013F006C0BF
:10AD000012F09E0E046E056A04EF59F00F7E016A80
:10AD100040EC59F058EC59F001B6E8EF58F001A2B8
:10AD20000AD001AA03D001BEE8EF58F001A4F4EF65
:10AD300058F0F1EF58F001AA05D001ACF4EF58F04B
:10AD4000F1EF58F001A00AD001A808D001BE04D04C
:10AD500001A402D0FDEF58F001EF59F0126A056A24
:10AD60000F500A5C116E10E307C013F008C002F028
:10AD700009C003F00AC010F00CC007F00DC008F0C5
:10AD80000EC009F0013A09D00CC013F00DC002F05A
:10AD90000EC003F00FC010F0116C019E01BC018EBB
:10ADA00010C004F001B030EF59F01A0E116030EF0E
:10ADB00059F0046A0A6A01A408D0076C081E091E2B
:10ADC0000A1EE86A082209220A2201AC08D0136C84
:10ADD000021E031E041EE86A022203220422066ADF
:10ADE000115207E00A340932083207320632112EB6
:10ADF000F9D70750132608500222095003220A509F
:10AE0000042206C012F0019E04AE0BD0126C131E79
:10AE1000021E031E041EE86A1322022203220422D9
:10AE2000018E04A006D0D8800332023213321232CF
:10AE3000102A10C004F004EF59F0016A40EC59F0F8
:10AE400058EC59F001B6E8EF58F001A205D001BA6C
:10AE5000E8EF58F0EFEF58F001BAFBEF58F001A01F
:10AE600005D001B8E8EF58F0FBEF58F001B8EFEF6C
:10AE700058F0056A7F0E0A24046EE86A05220F5016
:10AE8000045EE86A055A1A0E106E0A6A126A136A9C
:10AE9000026A036A0C50075E0D50085A0E50095A98
:10AEA000000E0A5A09E70C5007260D5008220E50D2
:10AEB0000922000E0A2201D0128AD89007360836DD
:10AEC00009360A36D8901236133602360336102E5B
:10AED000E1D7095008100710D8A4128A04EF59F0DE
:10AEE000016A40EC59F058EC59F001B6E8EF58F01F
:10AEF00001A205D001B8E8EF58F0EFEF58F001AA31
:10AF000005D001B0E8EF58F0EFEF58F001B002D0F3
:10AF100001A802D0FBEF58F0056A0F500A24046E16
:10AF2000E86A05227E0E045EE86A055A126A136A10
:10AF3000026A036A0E500902F4CF03F0F3CF02F065
:10AF40000D500902F3501326F4500222000E032282
:10AF50000E500802F3501326F4500222000E032272
:10AF60000C500902F3501226F4501322000E022254
:10AF700003220D500802F3501226F4501322000E43
:10AF8000022203220E500702F3501226F45013221D
:10AF9000000E022203220C500802F4501226000E6A
:10AFA0001322022203220D500702F4501226000E33
:10AFB00013220222032204EF59F0006A0EAEE6EFDC
:10AFC00057F00D6C0E1EE86A0E22001E09AEEEEF61
:10AFD00057F0086C091EE86A0922001EE4EC5DF0D7
:10AFE00009BEFEEF57F000AE000C086C091EE86ABF
:10AFF0000922046C051EE86A0522000C00BEF5EF6C
:10B0000057F00188FF0C006AE86A0EAE10EF58F0A6
:10B010000B6C0C1E0D1E0E1E0C220D220E22001E8D
:10B0200009AE1BEF58F0066C071E081E091E07220A
:10B0300008220922001EC0EC5DF009BE32EF58F074
:10B0400000AE000C066C071E081E091EE86A0722E7
:10B0500008220922026C031E041E051E032204227C
:10B060000522000C00BE22EF58F00188FF0C09C039
:10B0700013F008C012F008500D02F4CF07F0F3CF20
:10B0800006F009500E02F4CF09F0F3CF08F00D02DC
:10B09000F3500726F4500822E86A092212500E02E3
:10B0A000F3500726F4500822E86A09220EAE5DEF3D
:10B0B00058F01250085E1350095A13AE000C0D5090
:10B0C000085E0E50095A000C08C012F008500D021C
:10B0D000F4CF07F0F3CF06F009500E02F4CF09F0D9
:10B0E000F3CF08F00D02F3500726F4500822E86A67
:10B0F000092212500E02F3500726F4500822E86A83
:10B100000922000C016A40EC59F001B68CEF58F0AE
:10B1100001A20ED001B405D07F0E096EFF0E086E9D
:10B120001FD0800E096E086A1BD0096A086A18D001
:10B1300001B0FBD78F0E0A60EDD77E0E0A64F5D7FB
:10B140008E0E0A5C05E0D890093208320A2AF8D738
:10B1500001A406D0086C091EE86A092209AEE5D7E9
:10B160001200016A40EC59F001B6BBEF58F001A2A1
:10B170000FD001B407D07F0E096EFF0E086E076E68
:10B18000066E25D0800E096E01D0096A000EF6D732
:10B1900001B0FBD7066A9F0E0A60EBD77E0E0A64E9
:10B1A000F4D79E0E0A5C07E0D890093208320732C5
:10B1B00006320A2AF6D701A40AD0066C071E081E1A
:10B1C000091EE86A07220822092209AEDED712000A
:10B1D0007F0E0A6EFF0E096E086E076E12007F0E5C
:10B1E00001BEFF0E0A6E02D07F0E0A6E800E096E3F
:10B1F000086A076AF3D701AE04D0800E0A6E096AA6
:10B20000F7D70A6A096AF4D7035002101310121014
:10B21000F8E005BEF0D703BE0CD004500510EBE0FB
:10B22000D89012361336023603360406D8A0050627
:10B23000F2D70550D4E10428D2E012AE11D07F0E2F
:10B24000121402E113A00CD0132AE86A022203228E
:10B2500007E3D880033202321332042A0428BFE005
:10B260000450C9E013C007F002C008F00334096EAF
:10B2700004300A6E09320A9E01BE0A8EEEEF58F0C3
:10B2800009360A3602E30184017E06E101800A6A7A
:10B29000096A086A076A12000A2803E0D88009329E
:10B2A0001200D890093202E10182120001861200D8
:10B2B0000E360F3602E3018C017E06E101880F6A2B
:10B2C0000E6A0D6A0C6A12000F2803E0D8800E3255
:0CB2D0001200D8900E32EAE1018A120050
:04B2DC00D9CFE6FFE1
:10B2E000E1CFD9FF170EE126DE6ADE6ADE6ADD6A8B
:10B2F000DD52DD52040EDB6A050EDB6A060EDB6AE8
:10B30000070EDB6A0F0EE66EE66AE66AD950080F92
:10B31000E66E000EDA20E66E2EEC5CF0146E050E82
:10B32000E15E14507BC0DFFF010E7CC0DBFF020E2C
:10B330007DC0DBFF030E7EC0DBFFD950080FE66E39
:10B34000000EDA20E66E040EE66EE66A4C0EE66E3D
:10B35000E66AA5EC0CF0146E060EE15E1450080EC1
:10B36000DBCF14F0040E14C0DBFF050EDB6A060E03
:10B37000DB6A070EDB6AD950040FE96EDACFEAFF09
:10B38000EF50EE6AEFCFF4FFEE6EEF50F4CFEEFF2A
:10B39000EF6E090EDBCF14F0156A166A176AD950E2
:10B3A000040FE96EDACFEAFF1450EE261550EE22B4
:10B3B0001650EE221750EE22D950040FE96EDACF64
:10B3C000EAFFEF50EE6AEFCFF4FFEE6EEF50F4CFEE
:10B3D000EEFFEF6E0A0EDBCF14F0156A166A176ADD
:10B3E000D950040FE96EDACFEAFF1450EE2615505B
:10B3F000EE221650EE221750EE22D950040FE96EBD
:10B40000DACFEAFFEF50EE6AEFCFF4FFEE6EEF50C7
:10B41000F4CFEEFFEF6E0B0EDBCF14F0156A166A59
:10B42000176AD950040FE96EDACFEAFF1450EE26FE
:10B430001550EE221650EE221750EE22040EDBCFEE
:10B4400014F0050EDBCF15F0060EDBCF16F0070E5D
:10B45000DBCF17F0D9CFE9FFDACFEAFFEE501426A1
:10B46000EE501522EE501622EE50172214C0DFFFC8
:10B47000010E15C0DBFF020E16C0DBFF030E17C066
:10B48000DBFFD9CFE9FFDACFEAFFEECF14F0EECF42
:10B4900015F0EECF16F0EFCF17F0180ED890173248
:10B4A000163215321432E806F9E11450E76E080E30
:10B4B000E7CFDBFFD9CFE9FFDACFEAFFEECF14F019
:10B4C000EECF15F0EECF16F0EFCF17F0100ED890AC
:10B4D0001732163215321432E806F9E11450E76ECD
:10B4E000090EE7CFDBFFD9CFE9FFDACFEAFFEECFD6
:10B4F00014F0EECF15F0EECF16F0EFCF17F0080EE8
:10B50000D8901732163215321432E806F9E1145089
:10B51000E76E0A0EE7CFDBFFD9CFE9FFDACFEAFF0C
:10B52000EECF14F0EECF15F0EECF16F0EFCF17F010
:10B530001450E76E0B0EE7CFDBFFD950080FE66E15
:10B54000000EDA20E66E040EE66EE66A4C0EE66E3B
:10B55000E66AF3EC0CF0146E060EE15E1450000186
:10B560007B6B7C6B7D6B7E6B170EE15C02E2E16AAC
:10B57000E552E16EE552E7CFD9FF120000016651B6
:10B58000070A22E0010A0CE0030A01E012000001B0
:10B5900074051BE100017B6B7C6B7D6B7E6B120085
:10B5A0000001740512E10401B95100017B27040177
:10B5B000BA5100017C230401BB5100017D23040129
:0CB5C000BC5100017E23120089DE120045
:04B5CC000D0A53749D
:10B5D0006172742075702E002573000A0D253032BB
:10B5E000643A2530326420436D643D253032580082
:10B5F0000A0D464343557064617465466C61673D4E
:10B6000025642C2046756C6C436861726765466CD6
:10B6100061673D25642C2045647632557064617401
:10B6200065466C61673D25642C20434F46463D25A9
:10B63000642C20444F46463D25642C2042616C61B9
:10B640006E63653D2564000A0D6D5F52435F526570
:10B6500063203D20256C646D4148000A0D674368F6
:10B66000617267655265636F7264496E64657820C4
:10B670003D20256420000A0D6743686172676554A8
:10B68000696D65203D2025752053000A0D674368CC
:10B6900061726765496E74657276616C54696D6537
:10B6A000203D20256C752053000A0D6743686172A8
:10B6B0006765496E74657276616C54696D65486939
:10B6C00073746F7279203D20256C752053000A0D2C
:10B6D000446973636861726765416363203D202537
:10B6E0006C646D4148000A0D466363444352203D3B
:10B6F00020256C646D4148000A0D464343303037C5
:10B70000203D20256C646D4148000A0D6D5F436546
:10B710006C6C5F566D61783D25642C206D5F4365D0
:10B720006C6C5F566D696E3D2564000A0D4C61734B
:10B730007420536C65657020636F756E7420287378
:10B74000656329203D20256C64000A0D4379636CF4
:10B750006520436F756E74202D2D3E2067446973FC
:10B760006368617267654163633D256C646D414840
:10B77000000A0D3230253032642F253032642F25F7
:10B7800030326420253032643A253032643A253034
:10B790003264204163743D253032584820534F4372
:10B7A0003D256420466C61673D2530325848202590
:10B7B00030325848000A0D2573000A0D4175746F28
:10B7C0002062616C616E63653A204F4E000A0D4243
:10B7D00061747465727920747970653A20534449B4
:10B7E00032325000200A0D53696E676C6520436F3A
:10B7F0006D6D616E64000A0D257320202025732075
:05B8000020202573006B
:0AB80600D9CFE6FFDACFE6FFFA0E15
:10B81000E3CFD9FFFB0EE3CFDAFFFC0EE3CFE9FF66
:10B82000FD0EE3CFEAFFE9CFF3FFEACFF4FFF80E16
:10B83000E35003E1F90EE35008E0F80EE30602E2FC
:10B84000F90EE306DECFEEFFF2D7FF0EE3CFDAFF0D
:10B85000E552FF0EE3CFD9FFE5521200FE0EE3CF13
:10B86000E9FFFF0EE3CFEAFFE9CFF3FFEACFF4FFF2
:10B87000FB0EE35003E1FC0EE35009E0FB0EE30690
:10B8800002E2FC0EE306FD0EE350EE6EF1D712006D
:10B89000FE0EE3CFE9FFFF0EE3CFEAFFF36AF46A9F
:10B8A000EE5203E0F34AF42AFBD71200FF0EE3CF77
:10B8B000F8FFE552FF0EE3CFF7FFE552FF0EE3CFAF
:10B8C000F6FFE552E66AE66AE66A0900F55209E023
:10B8D000FD0EE32A05E1FE0EE32A02E1FF0EE32A54
:10B8E000F4D7FD0EE3CF07F0FE0EE3CF08F0FF0E16
:06B8F000E3CF09F0120095
:0AB8F6001E0EF66E040EF76E000E33
:10B90000F86E02010900F550F96F0900F550FA6F61
:10B9100003E1F96701D03DD00900F550F46F09004B
:10B92000F550F56F0900F550F66F09000900F55064
:10B93000E96E0900F550EA6E090009000900F550AA
:10B94000F76F0900F550F86F09000900F6CFFBF218
:10B95000F7CFFCF2F8CFFDF2F4C2F6FFF5C2F7FF25
:10B96000F6C2F8FF0201F75302E1F85307E00900BD
:10B97000F550EE6EF707F8E2F807F9D7FBC2F6FFCD
:10B98000FCC2F7FFFDC2F8FF0201F907000EFA5BE7
:04B99000BFD712000B
:0CB99400D9CFE6FFDACFE6FFE1CFD9FF04
:10B9A000E2CFDAFFE652E652E652E652D950FB0FFA
:10B9B000146EFF0EDA20156E14C0DEFFDD6EDECFD2
:10B9C000E6FFDDCFE6FFFB0EDBCFE6FFFC0EDBCFB5
:10B9D000E6FFFD0EDBCFE6FFFEC2E6FFFFC2E6FF9D
:10B9E000C6EC4AF0146E070EE15C02E2E16AE55231
:10B9F000E16E1450020EF3CFDBFF030EF4CFDBFF3A
:10BA0000020EDBCF14F0030EDBCF15F014C0F3FFF2
:10BA100015C0F4FF040EE15C02E2E16AE552E16E5A
:0CBA2000E552E5CFDAFFE7CFD9FF1200B6
:04BA2C00D9CFE6FF89
:10BA3000DACFE6FFE1CFD9FFE2CFDAFFFB0EDBCFB3
:10BA400014F0FC0EDBCF15F00001800E15141AE186
:10BA5000FB0EDBCFE9FFFC0EDBCFEAFFEECFF3FFFF
:10BA6000EDCFF4FFEE2A000EEF22F3CFE9FFF4CF83
:10BA7000EAFFFD0EDBCFEFFFEF50156AF36E15C046
:10BA8000F4FF10D0FB0EDB50FE0806E1FD0EDBCF0D
:10BA9000E6FF3BEC5EF005D0FD0EDBCFE6FF03ECEE
:10BAA00002F0E552E552E5CFDAFFE7CFD9FF120009
:10BAB00006500B02F3CF02F0F4CF03F00C02F35068
:10BAC0000326000EF420046E06500D02F3500426E7
:10BAD000000EF420056E06500E02F35005260750A6
:10BAE0000B02F3500326F4500422000E05220750E7
:10BAF0000C02F3500426F450052207500D02F350B7
:10BB0000052608500B02F3500426F4500522085075
:10BB10000C02F350052609500B02F35005261200C3
:10BB2000D9CFE6FFDACFE6FFE1CFD9FFE2CFDAFFE8
:10BB3000E652E652FC0EDBCF14F0FD0EDBCF15F023
:10BB4000060ED89014361536E804FBE114C0DEFF6B
:10BB500015C0DDFF010EDBCF58FFDF50E840E840A5
:10BB60003F0B300B146ECF0E0F0157151410576F8B
:10BB7000E552E552E552E5CFDAFFE7CFD9FF1200F3
:10BB8000056A046A036A026A200EE76ED8900636D8
:10BB900007360836093602360336043605360B50AA
:10BBA000025C0C5003580D5004580E50055809E320
:10BBB0000B50025E0C50035A0D50045A0E50055A99
:08BBC000062AE72EE4D712006B
:08BBC800056A046A100EE76E25
:10BBD000D89008360936043605360D50045C0E50F0
:10BBE000055805E30D50045E0E50055A082AE72E4D
:04BBF000F0D7120078
:0CBBF400F36AF46AFF0EE124E96EFF0E14
:10BC0000E220EA6EED6607D02F0EEF6404D03A0E04
:08BC1000EF6001D0F32A1200DD
:08BC1800D9CFE6FFDACFE6FF09
:10BC2000E1CFD9FFE2CFDAFFFD0EDB50B86EE5526F
:0ABC3000E5CFDAFFE7CFD9FF1200DD
:06BC3A00380EF36E00EE6F
:10BC400000F00F0E01D81200EA6002D0EE6AFCD7B5
:0ABC5000F350E9601200EE6AFCD721
:06BC5A001EEE00F02EEECC
:10BC600000F0F86A019C7BEC5CF007EC02F062ECFF
:06BC700034F0FBD71200C6
:0ABC7600FF0EE350ACBA04D0AF6A31
:10BC8000AB8EAC8A949CACA2FED7AD6EF36EF46A18
:02BC90001200A0
:0EBC9200056A080EE76ED890093605360E508A
:0EBCA000055C02E3056E092AE72EF7D71200B5
:02BCAE000F0E77
:10BCB000C614080804E00F0EC6140B0801E1C5867F
:08BCC000C7A0FED7C950120015
:08BCC8003031323334353637D8
:09BCD000383961626364656600A5
:07BCD9000000000000000064
:10BCE0000000000000000000000000000000000054
:10BCF0000000000000000000FFFF0000B004000092
:10BD00000000000000000000000000000000000033
:10BD10000000000000000000000000000000000023
:05BD200000000000001E
:0BBD25005630322E30322E362E3435D0
:10BD300046003C3132323946303E00474F5445438D
:10BD4000482D454E4552475920544543482E2F47CC
:10BD5000542D34382D34302D56312E30302D52653F
:10BD6000763037442D47656E320000000000000039
:10BD700000000000000000000100000000000000C2
:04BD800000000000BF
:0CBD84000000000000000B0B020BB00AD6
:10BD9000530AEC0900000000000000000000000051
:0EBDA000000000000000000000000000000095
:02BDAE00E809A2
:10BDB000200B590B920BD70B240C540C8F0CC10C7D
:0CBDC0000E0D480D6300010100000000A2
:020000040030CA
:010001006896
:0100020003FA
:0100030027D5
:01000500BF3B
:010006008574
:010008000FE8
:01000900C036
:01000A000FE6
:01000B00E014
:01000C000FE4
:01000D0040B2
:00000001FF
